:020000040800F2
:10000000000003205D060008592400085B24000856
:100010005D2400085F24000861240008000000003F
:10002000000000000000000000000000018D00083A
:100030006324000800000000918D00081986000864
:10004000AD060008AD060008AD060008AD060008C4
:10005000AD060008AD060008AD060008AD060008B4
:10006000AD060008AD060008AD060008AD060008A4
:10007000AD060008AD060008AD060008AD06000894
:10008000AD060008AD06000865240008AD060008AE
:10009000AD060008AD060008AD060008AD06000874
:1000A000AD060008AD060008AD060008AD06000864
:1000B000AD060008AD060008AD060008AD06000854
:1000C000AD060008AD060008AD060008AD06000844
:1000D000AD060008AD060008AD060008AD06000834
:1000E000AD060008AD060008AD060008AD06000824
:1000F000AD060008AD060008AD060008AD06000814
:10010000AD060008AD060008AD060008AD06000803
:10011000AD060008AD06000871240008AD06000811
:100120007D240008AD060008AD060008AD060008F5
:10013000AD060008AD060008AD060008AD060008D3
:10014000AD060008AD060008AD060008AD060008C3
:10015000AD060008AD060008AD060008AD060008B3
:10016000AD060008AD060008AD060008AD060008A3
:10017000AD060008AD060008AD060008000000004E
:10018000AD060008AD060008AD060008AD06000883
:10019000AD060008AD060008AD060008AD06000873
:0C01A00089240008AD0600089524000822
:1001B00010B5054C237833B9044B13B10448AFF3A1
:1001C00000800123237010BD800300200000000088
:1001D0006856020808B5034B1BB103490348AFF347
:1001E000008008BD0000000084030020685602085B
:1001F00001F0FF01102A2BDB10F0070F08D010F8D8
:10020000013B013A8B422DD010F0070F42B3F6D1DB
:10021000F0B441EA012141EA014122F007047FF0F4
:1002200000070023F0E80256083C85EA010586EA4B
:10023000010685FA47F5A3FA87F586FA47F6A5FA87
:1002400087F68EB9EED1F0BC01F0FF0102F0070293
:1002500032B110F8013B013A83EA010313B1F8D13E
:100260000020704701387047002D06BF354603381F
:10027000073815F0010F07D1013015F4807F02BF58
:10028000013015F4C03F0130F0BC0138704700BFA9
:100290007BB972B90029BEBF00204FF0004106E0D3
:1002A00008BF00281CBF6FF000414FF0FF3000F086
:1002B000D3B9ADF1080C6DE904CE002909DB002BA0
:1002C0001ADB00F04DF8DDF804E0DDE9022304B0AC
:1002D0007047404261EB4101002B1BDB00F040F80E
:1002E000DDF804E0DDE9022304B0404261EB4101A6
:1002F000524263EB43037047524263EB430300F007
:100300002FF8DDF804E0DDE9022304B0404261EBA0
:1003100041017047524263EB430300F021F8DDF8DE
:1003200004E0DDE9022304B0524263EB430370476B
:1003300053B94AB9002908BF00281CBF4FF0FF314C
:100340004FF0FF3000F088B9ADF1080C6DE904CE34
:1003500000F006F8DDF804E0DDE9022304B07047A0
:100360002DE9F047089D8E4604468846002B4AD169
:100370008A42174662D9B2FA82F64EB1C6F120031C
:1003800001FA06F820FA03F3B74043EA0808B4403C
:100390004FEA174E1FFA87FCB8FBFEF1230C0EFB49
:1003A000118843EA084301FB0CF29A4209D9FB1871
:1003B00001F1FF3080F0EA809A4240F2E780023992
:1003C0003B449A1AA3B2B2FBFEF00EFB102243EAA2
:1003D000024300FB0CFC9C4509D9FB1800F1FF32DD
:1003E00080F0D6809C4540F2D3803B44023840EAFE
:1003F0000140A3EB0C0300211DB1F3400022C5E92D
:100400000032BDE8F0878B4205D90DB1C5E9000186
:1004100000210846F5E7B3FA83F1002946D1734578
:1004200002D3824200F20581841A6EEB030201209E
:100430009046002DE5D0C5E90048E2E7002A00F02B
:100440009080B2FA82F6002E40F0A4808A1A030C43
:100450004FEA174E80B2BCB20121B2FBFEFC0EFB8C
:100460001C2243EA024304FB0CF29A4207D9FB1810
:100470000CF1FF3802D29A4200F2E080C4469B1A87
:10048000B3FBFEF20EFB123340EA034302FB04F41B
:100490009C4207D9FB1802F1FF3002D29C4200F2C5
:1004A000CA8002461B1B42EA0C40A5E7C1F12006A8
:1004B0008B4022FA06F71F430EFA01F420FA06F3E6
:1004C0002EFA06FE4FEA1749234300FA01F81FFAF5
:1004D00087FCBEFBF9F01C0C09FB10EE44EA0E444D
:1004E00000FB0CFEA64502FA01F209D93C1900F105
:1004F000FF3A80F09C80A64540F2998002383C4447
:10050000A4EB0E041FFA83FEB4FBF9F309FB1344BA
:100510004EEA044403FB0CFCA44508D93C1903F142
:10052000FF3E80F08280A4457FD9023B3C4443EAF1
:100530000040A4EB0C04A0FB02EC64457346E146CA
:1005400062D35FD05DB1B8EB030264EB090404FA37
:1005500006F622FA01F31E43CC40C5E900640021EF
:100560004FE7B1FBF2FC010C41EA0E4180B240EAD8
:1005700001423B4638463C46B846BE462026B1FBC3
:10058000F7F1A2EB080241EA0C4166E7014618E7E1
:1005900010462CE7C6F120022EFA02F3B740B14014
:1005A00020FA02F24FEA174E0A43B3FBFEF8BCB240
:1005B0000EFB1833110C41EA034108FB04F9B0406B
:1005C00089454FEA104380B23ED9791808F1FF3CC3
:1005D00001D289451FD8A1EB0901B1FBFEF909FB46
:1005E00004F80EFB191192B242EA0142424529D2A7
:1005F000BA1809F1FF31C4D24245C2D2A9F10201B1
:100600003A44BEE7F0459DD2BEEB02036CEB070C0B
:100610000138E14696E7A7EB09094944A8F1020C25
:10062000B1FBFEF909FB04F8DBE773467FE75046B0
:1006300066E70846FDE63B44023A33E7ACF1020CBC
:100640003B441CE749469CE7A1EB0901C446B1FBCA
:10065000FEF909FB04F8C4E7704700BFDFF834D0A7
:10066000002103E00C4B5B58435004310B480C4B0A
:1006700042189A42F6D30B4A02E0002342F8043BA8
:10068000094B9A42F9D305F087F824F07FFA01F07C
:1006900077F870470000032028CC0E0800000020E7
:1006A0006801002080030020B8440120FEE7704765
:1006B00008B500F0BFFDBDE8084000F041BD00F006
:1006C000BBBD704710B50421044622F0D7FF204679
:1006D00010BD000038B50C4B0C4C18800C4B822020
:1006E00019806368984740F6110398420AD1094D72
:1006F00023682C60822098472B688220DB6898470B
:10070000002038BD0120FCE7A60300205000002097
:10071000A4030020A80300204FF4A071F020FFF7ED
:10072000D9BF0000F7B5394D2B6804461B698220FC
:100730009847208000284ED02B680DF106025B6997
:1007400001A982209847324B1B78002B4BD0BDF873
:10075000062040F674639A423FD9ADF80630BDF8E2
:1007600006209B1A9BB20A2B42D90B22B3FBF2F351
:10077000284A1288934201D9013A93B2BDF8042065
:10078000254840F6B8318A4234D8C2F571620E323B
:10079000016892B20F25B2FBF5F2204D2D88AA42D6
:1007A00084BF05F1FF35AAB28A4215468EB22AD916
:1007B000921B91B21A4E3768BB42BAB28CBF9A1ADA
:1007C000D21A92B211440529C4BF05603360036890
:1007D00063803368A38003B0F0BDB32A9CBFB4220A
:1007E000ADF80620BBE7BDF80630A3F5B473B9E752
:1007F0000023C3E7C2F56D62083292B20E2A016887
:10080000C8D800252A46891A89B2D3E7A803002050
:10081000F8250020A4030020A0030020A603002048
:100820009C03002037B568460D461446FFF77AFF53
:10083000BDF8000030B1BDF802302B60BDF80430C7
:100840002360012003B030BD032821D8DFE800F089
:10085000020B12190F4B1A68B2FA82F252090421E4
:100860000D4805F0EFBE0B4B5A68B2FA82F25209FE
:100870000821F5E7074B9A68B2FA82F25209102173
:10088000EEE7044BDA68B2FA82F252092021E7E778
:10089000704700BFAC03002000100240032821D89D
:1008A000DFE800F0020B12190F4B1A68003A18BF6C
:1008B000012204210D4805F0C5BE0B4B5A68003AD1
:1008C00018BF01220821F5E7074B9A68003A18BFC4
:1008D00001221021EEE7044BDA68003A18BF01222A
:1008E0002021E7E7704700BFAC0300200010024062
:1008F00003280DD8DFE800F00206080A04210548A5
:1009000005F0A5BE0821FAE71021F8E72021F6E757
:10091000704700BF0010024008B5032811D8DFE877
:1009200000F0020A0C0E0421074805F085FE431E64
:100930005842584108BD0821F6E71021F4E720216C
:10094000F2E70020F3E700BF0010024070B5084D49
:1009500000240126E0B2FFF7DFFF18B12B68012B5E
:1009600018BF2E600134052C05F10405F2D170BDCD
:10097000AC030020012380F8781080F879307047AC
:100980007047002070470000034B4164003918BFD6
:1009900001211970704700BF773701207047002090
:1009A0007047836B0BB10846184770474FF6FF70CE
:1009B0007047406803689B691847704770477047E5
:1009C0007047704710B5044600F04CFD236803499A
:1009D000D3F890302046BDE810401847000000D002
:1009E00008B503680446D3F8843098472368204646
:1009F000DB6F984700F0ECF8236820465B6F984760
:100A0000292001F0DBF900F0E3F8236820465B6F52
:100A10009847F8E710B504460AF08CFF2368204693
:100A2000D3F8BC30BDE81040184700F0FFBC00F020
:100A300003BD00F035BD00F0D5BC00F045BD00F0B1
:100A40004DBD00F0D9BC0AF0A3B910B5842104460D
:100A500022F014FE204610BD10B590F8341090F826
:100A600078400C4B8C421A7809D03AB90A4A0B49A3
:100A70001488088810800C8001221A7010BD002A8A
:100A8000FCD0054A05491488088810800C80002293
:100A9000F3E700BF703701206C3701206E3701206B
:100AA00070B50D46194635B9094B0A4A0A4840F255
:100AB000FF2123F01FFDC0E90F52084B003A18BF79
:100AC00001221A700368BDE87040D3F890301847CF
:100AD000D8560208105702085E57020876370120E0
:100AE00008B5094B1B888B4203D8084B1B889342DF
:100AF00005D9074B074A0848A32123F0FBFC074B05
:100B00001980074B1A8008BD6C3701206E37012011
:100B1000A3570208065802085E57020872370120E0
:100B200074370120034690F87A0018B158680368BA
:100B30001B68184770470000012108B500220846CD
:100B400007F0F4FD0A4B186028B90A4B0A4A28211D
:100B50000A4823F0CFFC00220421012007F085FE83
:100B6000074B186018B9074B034A2C21F0E708BD62
:100B7000C00300204958020892580208C1580208D0
:100B8000BC03002009590208024B4FF0FF311868DE
:100B900007F016BEC0030020014B186807F03CBEEA
:100BA000C0030020024B0021186807F009BE00BFF7
:100BB000C0030020FFF7F0BF03480449006800238A
:100BC0001A4607F08DBE00BFBC03002004000020C1
:100BD00013B5084C00231A4601A9206807F0B1FE9E
:100BE00020684FF0FF33002201A907F0AAFE02B0EF
:100BF00010BD00BFBC03002003685B6C18470120D8
:100C0000704703689B6A1847FEE740F2EF30704771
:100C1000054B0360054B4FF08062C3F88820BFF39B
:100C20004F8FBFF36F8F70478864020800E100E0C8
:100C300010B504464FF45A61FFF7EAFF204622F050
:100C40001DFD204610BD000082B0002301930E4B15
:100C50001A6B42F400021A631A6B02F4000201924A
:100C6000019A1A6942F400021A611A6922F4000218
:100C70001A61064B064A1A61064A5A61064B4FF042
:100C800080629A6002B07047003802408C270020D2
:100C9000E90E0008090C000800E100E008B50A2888
:100CA00009D8DFE800F006100E0808080810101038
:100CB0001000022008BD054B054A0648902123F08C
:100CC00019FC0020F6E70120F4E700BF4B590208A9
:100CD00066590208B159020838B50C46887FFFF7FB
:100CE000DDFFA58AE28A164B2169586342EA054274
:100CF0005A64628BD963521B1A642568082D0ED181
:100D00009A611A615862207F0E4A42EA0062DA61F3
:100D1000E2681A620C4A5961D9601A6038BD002233
:100D2000D8611A61E1680A0A480902F4784200F4BD
:100D3000FC600243C1F3C4010A439A63034AECE72F
:100D400000B002400900010001230200012303005A
:100D500008B50B280BD8DFE800F00612100A0A0AC3
:100D60000A0808080808022008BD0520FCE7054B12
:100D7000054A06486F2123F0BDFB0020F4E701205F
:100D8000F2E700BF4B590208F7590208B1590208AF
:100D90002DE9F04191F81D800C464046FFF7D8FF41
:100DA000A77F05463846FFF7D3FF06463846FFF7CC
:100DB00075FFA18A628B444B521A1A649A61228B86
:100DC000521A1A61E28A586342EA01425A6421695E
:100DD0006268D963DA602068802828D0227F0FD823
:100DE000202867D0402865D004281AD0364B45EA21
:100DF000026545F40035B845DD6161D0334A44E011
:100E0000B0F5807F04D0B0F5007FEFD1304800E02E
:100E1000304840EA0262DA61E2681A625E62596151
:100E200032E045EA026242F40032DA61F6E7A06895
:100E3000021DDA62227F45EA026545F40035DD6174
:100E40005E625961017841B1012921D0224B234AC8
:100E500023484FF48D7123F04DFBDA69418822F469
:100E60007F42013922F0100242EA0122DA610121B7
:100E7000154BDA6942F02002DA61DA699206FCD495
:100E800010229A600029B9D0164A1A60BDE8F08194
:100E9000B2F1FF01DA69408822F47F4200F1FF30AD
:100EA00022F0100242EA002242F0100218BF012193
:100EB000DA61DDE745EA0262034B42F40032B4E74F
:100EC00042F20132E1E700BF00B00240012301001D
:100ED000090002000A000200415A02085B5A020897
:100EE000B159020801230200024B1B6858680368CD
:100EF0005B6918477837012070B5044625460A4BD0
:100F00000C30002660602672667245F8203B602235
:100F100029460AF065FE04F55A63EE6024359D42C9
:100F2000FBD1204670BD00BF88640208034B1A68DD
:100F3000D207FCD423229A60704700BF00B0024061
:100F40007047000030B50F4C2568ED07FCD4232511
:100F50000904A56041F001010225FF2B656361646E
:100F6000E0630AD00849656241EA0363E361074B25
:100F700022626061E060236030BDE561039BA36392
:100F8000034BF8E700B00240090001000100020035
:100F90000100030030B50E4C2568ED07FCD4232575
:100FA0001204A56042F001020225FF2B6563626412
:100FB000E063E16008D01B0643F00213E361054BD8
:100FC00065626061236030BD034BE3610123F9E793
:100FD00000B0024001000200020002FF30B50B4CDD
:100FE0002568ED07FCD4232512041B06A56043F4F5
:100FF0000033022542F0010265636264E063E16050
:10100000E361034B65626061236030BD00B0024064
:1010100001000200012070470C2070470C2303FBE5
:101020000100083070470C2303FB010008307047B3
:10103000012070474FF4875070474FF4875303FBEC
:101040000100083070474FF4875303FB010008305C
:101050007047012070471020704700EB01100830E6
:10106000704700EB011008307047084601F0B6BC2D
:1010700010B5034B0360044609F0DFFB204610BDAA
:101080004065020810B50446FFF7F2FF2046142120
:1010900022F0F4FA204610BD10B5034B036004465D
:1010A00009F0CBFB204610BD0C65020810B50446C4
:1010B000FFF7F2FF204641F2E80122F0DFFA204676
:1010C00010BD000010B5034B0360044609F0B5FBEA
:1010D000204610BDD864020810B50446FFF7F2FFA1
:1010E0002046182122F0CAFA204610BD10B5094B3F
:1010F0000360044600F588501430FFF7B9FF04F18F
:101100002C00FFF7C9FF04F11400FFF7DBFF2046B6
:1011100010BD00BF7465020808B50248FFF7E6FF7E
:1011200008BD00BF9C12002010B50446FFF7DEFF8B
:10113000204641F28C2122F0A1FA204610BD000089
:101140002DE9F34101F01AFA054601F01BFA0024DB
:101150000146234628462246009413F0DDF9284B29
:10116000284A1A60204601F0EBFD274D274B284AFC
:1011700028489A6013F038F92B68BFF35B8FDB07C0
:1011800037D4284622F07CFA98B3234C234B2360B3
:1011900004F1140000F5885707F11C0604F12C082F
:1011A0006060C4F80880E760266109F047FB1C4BCB
:1011B0006361404609F042FB1A4BE362384609F08E
:1011C0003DFB04F5805303F59470174AC3F81421CE
:1011D00003F03EFD224607F11401304603F02EFDD8
:1011E000304601F0FBFB114823F0A2F9284622F01B
:1011F00053FA0F4802B0BDE8F041FFF7E3BB00BF70
:10120000DC370120480400209812002068040020E8
:101210004C040020080000209C1200207465020885
:10122000D86402080C65020840650208191100081C
:10123000C4030020704700000148FFF7D1BB00BF86
:10124000C403002070B5264E264C274D274B236043
:101250003046FFF751FE284618F064FA244810F093
:101260003DFE244B2448DC6000224FF48071C3E92A
:10127000121222491A86C3E91A12214983F858200A
:10128000C3E91E011F49C3F880101F491F480B60A6
:10129000F021C3E90422C3E90622C3E90822C3E915
:1012A0000A22C3E90E22C3E91022C3E91422C3E9CA
:1012B00017225A6683F870205A67C3E901650180D6
:1012C0001348018013484FF4A07101801248018037
:1012D00012490A70012283F83420114A1A6070BD45
:1012E000F40400209412002068040020C85602086C
:1012F0004C040020C4030020000001010100000193
:10130000000450001A001400783701206C370120C7
:10131000723701206E3701207437012070370120A9
:101320009C6302080148FFF773BC00BFF40400206F
:101330000020704781807047C180704701817047ED
:10134000418170477047704770477047704710B4CD
:10135000C4880368121B84885B6D091B12B25DF898
:10136000044B09B218474FF6FF7383814FF0FF33E8
:1013700003621368C36110607047002070478B8858
:10138000838001207047704780F82610704790F8DE
:101390002600704710B50022B1F90840B1F90A10D3
:1013A000028042808480C18010BD00220280428081
:1013B0008280C28070470177704780ED080A7047CD
:1013C00080F82410704780F825107047012070477E
:1013D000983070478C307047843070477047704742
:1013E00070470000034B902283F85A2383F8582358
:1013F000704700BF00E100E0094A0A49D3680A4883
:10140000C3F30A03013B9BB20B801169C1F30A01CC
:10141000013901801364536B43F001035363704738
:10142000006801402A25002028250020014BD3F820
:10143000AC00704700680140024B0122C3F8AC10B9
:101440005A6270470068014010B52C21044622F012
:1014500015F9204610BD10B5BC21044622F00EF946
:10146000204610BD70B5044609F0E7FC23689D6E68
:101470000FF082FA01462046A8472368054AD3F8B0
:101480008C502046AC460023BDE87040A2F51631D2
:10149000604700BF00B004D009F0B6BC09F0C0BC82
:1014A00009F07CBC09F0EBBD90F8252012B103686F
:1014B0005B691847704790F825201AB190F82420EE
:1014C00002B1186070470000034B4FF080629A60D1
:1014D0004FF080729A60704700E100E0084B4FF0D7
:1014E0008062C3F88820BFF34F8FBFF36F8F4FF038
:1014F0008072C3F88820BFF34F8FBFF36F8F7047A0
:1015000000E100E070B50023124E8380124B0360AF
:10151000336893F8582005460AB1D86C00B998682A
:101520000368DB6A98473368B0FA80F4D86C6409C2
:1015300030B10368DB6A9847002808BF44F0010413
:101540002CB9064B064A07482C2122F0D3FF284627
:1015500070BD00BF7837012088650208995A0208DB
:10156000F75A0208305B020870B5254E3568BFF3A4
:101570005B8F15F0010540D1304622F081F800283C
:101580003BD0204C204B256104F13400C4E90035E8
:10159000C4E90255E584A562A58510F084FF04F135
:1015A00058000BF0D1FF194BA3652046184B40F8AB
:1015B000843BFFF7A7FF174BC4F884302433C4F8EB
:1015C0008C304FF4C803C4E928350023C4F8AC308C
:1015D000C4F8B030C4F8B430C4F8B8300E480F4B7B
:1015E000C4F89050C4F89C50C4F8A850C4F898307F
:1015F00022F09EFF304622F04FF8024870BD00BF37
:101600002C25002030250020346E0208A865020831
:1016100020660208E86D0208E1130008C86D0208A0
:1016200038B5184C23685BB3174B184A1B6C1188EC
:101630008B4216D1164B198805F00CFE236893F8DF
:101640006A200025013283F86A2083F87C50FFF776
:10165000B3FA20680AF06EF92846BDE83840FFF773
:10166000F3B805F0F7FD2468236820461B6A984705
:10167000012384F87C300020BDE83840FFF70EB924
:1016800038BD00BF78370120006801402A250020BE
:101690002825002007B5064BADF806001B68054855
:1016A00001220DF1060106F075FB03B05DF804FBA5
:1016B000100000203826002008B5084D084C0222F2
:1016C0002946204604F05CF9642007F023F8204600
:1016D00004F0FAF9142007F01DF8F0E7EC250020DB
:1016E0003428002030B595B0102200210AA823F03C
:1016F00046F91422002103A823F041F900241E4BCF
:1017000001941A6C42F080521A641B6C03F08053EF
:101710000193019B194B02941A6842F440421A60EB
:101720001B6803F4404302930122029B4FF4803371
:10173000CDE9082302254FF480030821CDE90E539B
:101740004FF4B473CDE9101308A804231393129532
:1017500005F0D8FD05F09CFD0F23CDE903354FF4CE
:10176000A0504FF48053CDE90603052103A805944A
:1017700005F0A4FF15B030BD0038024000700040F5
:101780002DE980489DB00024C74D04F013F8FFF701
:10179000A9FF142200210FA823F0F1F802942B6B6B
:1017A000C24843F010032B632B6B03F0100302932A
:1017B000029B03942B6B43F020032B632B6B03F0F2
:1017C00020030393039B04942B6B43F080032B6350
:1017D0002B6B03F080030493049B05942B6B43F065
:1017E00004032B632B6B03F004030593059B069402
:1017F0002B6B43F001032B632B6B03F00103069368
:10180000069B07942B6B43F002032B632B6B03F0B7
:1018100002030793079B08942B6B43F040032B6351
:101820002B6B03F040030893089B09942B6B43F048
:1018300008032B632B6B03F00803224609933C211A
:10184000099B04F0FFFE9A480122022104F0FAFEEF
:1018500022469748042104F0F5FE224695484FF4AD
:10186000405104F0EFFE224693484FF4C04104F08B
:10187000E9FE01263C23CDE90F368C481194032361
:101880000FA90227129304F0F3FD89480FA9CDE9AF
:101890000F76CDE9114404F0EBFD042384480FA931
:1018A000CDE90F36CDE9114704F0E2FD4FF4405386
:1018B00080480FA9CDE90F36CDE9114704F0D8FDD6
:1018C0004FF4C0437C480FA9CDE90F36CDE9114450
:1018D00004F0CEFD01942B6B43F480032B632B6B40
:1018E000764D03F480032246052101933820019BA5
:1018F00004F0AAFA382004F0D9FA7148714B036059
:1019000004F0E2FADFF8DCC16F4B2C62C5E900C3DA
:1019100028464FF48043C5E90434C5E90244C5E9CB
:10192000064405F09DF81021284605F0E1FA21460D
:10193000284605F0FCFA654DDFF8ACE1AC624FF4E7
:101940008273C5E900E34FF400781823C5E90683E4
:1019500028460A23C5E90244C5E90444C5E9084408
:10196000EB6206F0BBF98F232246394650488DF8CA
:101970002C308DF83C4004F065FE32464FF47A730B
:101980000BA9284606F006FA4FF47A7332460FA9DF
:10199000284606F0ABFB3246394645484C4D04F02C
:1019A00051FE9DF83C30D32B04BF4A4B1E704A4B6E
:1019B0000126C5E900364FF0100A40230024C5E98E
:1019C00004A34FF4C073C5E906344FF40063C5E9BE
:1019D00008344FF4005302274FF00409AB624FF074
:1019E000030B07230FA92846CDE90F73CDE9119307
:1019F0004FF00808C5E90249CDE913B7159706F07D
:101A000051F84FF6FF720BA92846CDE90C860A94CF
:101A10000B960E9406F066F8304603F0F7FE4FF68C
:101A2000FF720BA92846CDE90B78CDE90D6406F0CD
:101A300059F84FF6FF720BA92846CDE90BB8CDE94E
:101A40000D9406F04FF84FF40C730A930A9B0E9313
:101A50004FF6FF720BA92846CDE90B980D9606F0BC
:101A600041F840F26A51284606F05AF834222146DD
:101A70000FA822F084FF194D194B2C61C5E90034E1
:101A80000923C5E905361D23C5E9073B40F20D12C0
:101A900040F24313C5E9092340F2171140F24713FE
:101AA0002846C5E90B1321E000380240001002402F
:101AB00000080240000C02400018024038270020B5
:101AC000CC27002000300240A086010038260020EC
:101AD00004260020F8250020400100A090260020C8
:101AE00000680140005C004000500140C5E902442C
:101AF000AC8685F8364005F0B5FAFF21F022CDE935
:101B000014144FF005084FF480614FF4A073CDE931
:101B10001024CDE91618CDE918420FA9224628460F
:101B2000CDE91237304D1A930F94ADF86C408DF813
:101B30006E4005F062FB2D4B2B601B6898472B68AD
:101B40002B4DDB6898472B4B2846C5E90034C5E987
:101B50000274C5E90A47C5E90C4404F08FFB31461D
:101B6000284604F041FC524621460FA822F007FF08
:101B7000214D2248AC604FF48033C5E90003204B6F
:101B8000AB6228462E612C7685F82040EC62EC6032
:101B9000EF6185F830606E6103F04CFE0D230FA9F4
:101BA0002846CDE90F36119404F09EF80FA9284677
:101BB000CDE90F8704F098F8FEF77AFDFEF777FD80
:101BC00006F038FD0F4A1048214606F05FFD0F4B26
:101BD0000F4A186021460F4806F058FD0E4B18605A
:101BE00006F03AFDFEE700BFF425002018000020B3
:101BF0008C27002000B00240342800200020014043
:101C00000100000F88660208B916000800260020AF
:101C100064660208BF060008FC25002038B502688B
:101C2000234B9A421DD1234B234918885A88234BB2
:101C30000D881B88224C5919884213DD0123214D40
:101C4000237022782B789A420BD02378012BDAB2BA
:101C500016D14FF400511C4804F0F4FC2378DBB299
:101C60002B7038BD5B1B984201DA0223E7E79142F3
:101C700001DA0323E3E79342CCBF04230023DEE72A
:101C80002378022B01D10022E3E72378032B01D133
:101C9000012203E02378042B03D100224FF480417A
:101CA000D9E7094801224FF4005104F0CBFCEFE7DB
:101CB00000200140EC2500200C0000200E00002038
:101CC000F1250020F02500200018024070477047E1
:101CD0007FB5094B8DF817201B6802930DF1170291
:101CE0000123009201930A460146044804F060FF74
:101CF00007B05DF804FB00BF140000203827002067
:101D00007FB500238DF81730084B1B6802930A46F5
:101D100001230DF11701009101930146044804F0DD
:101D2000D7FF9DF8170007B05DF804FB14000020F2
:101D3000382700201FB5084C24680092CDE90134F3
:101D40000A4601230146054804F0C2FF003818BFC7
:101D5000012004B010BD00BF14000020382700206F
:101D600003F054BD10B5064C00222046042104F0B7
:101D700069FC20460122BDE81040042104F062BC49
:101D80000008024038B50B4D044601220A484FF4C2
:101D9000005104F057FC00220421284604F052FCB4
:101DA0002046FFF777FC28460122BDE83840042191
:101DB00004F048BC00080240000C024038B50B4D4E
:101DC000044600220A484FF4005104F03BFC002274
:101DD0000421284604F036FC2046FFF75BFC284629
:101DE0000122BDE83840042104F02CBC0008024068
:101DF000000C0240F7B5144E144F05460C46304611
:101E00000022042104F01EFC00224FF40051384649
:101E100004F018FC2846FFF73DFC0D4B0D481B68ED
:101E2000224601A906F062F9384601224FF400511A
:101E3000019C04F007FC30460122042104F002FC5E
:101E4000204603B0F0BD00BF00080240000C024075
:101E5000100000203826002003F0D8BC0268034B95
:101E60009A4201D103F0C0BC704700BF001000408F
:101E70007047000082B00E4B00220092596C41F472
:101E800080415964596C01F480410091009901929C
:101E9000196C41F0805119641B6C03F0805301935D
:101EA000019B0F216FF0010002B003F0CDBF00BF16
:101EB0000038024070B5064688B01422002103A8FD
:101EC00022F05DFD32682D4B9A4254D103F58C33DC
:101ED000002500955A6C2A4842F480725A645A6C64
:101EE00002F480720092009A01951A6B42F004028B
:101EF0001A631A6B02F004020192019A02951A6B9E
:101F000042F001021A631B6B03F0010302930324E6
:101F1000029B03A90823CDE9033404F0A9FA202386
:101F20001848059503A9CDE9033404F0A1FA164C2D
:101F3000164B4FF48062C4E900354FF40063C4E9E6
:101F400004234FF400514FF480732046C4E9025536
:101F5000C4E90613C4E9085503F0DCFF08B1FFF734
:101F600087FFB463122000220521A66303F06CFFF3
:101F7000122003F09BFF08B070BD00BF002001409D
:101F80000008024000000240D427002010640240F4
:101F90000268094B9A4282B00BD100230193074B90
:101FA0001A6B42F480521A631B6B03F48053019343
:101FB000019B02B0704700BF003002400038024071
:101FC00007B50F4B02689A4216D10022A3F5F043E1
:101FD0000192196B41F4000119631B6B03F40003B8
:101FE000019305215A20019B03F02EFF5A2003B0D4
:101FF0005DF804EB03F05ABF03B05DF804FB00BFCB
:1020000000B002402DE9F043044689B014220021BB
:1020100003A822F0B4FC2268244B9A4243D1244CFA
:10202000244800250095236B43F004032363236BAE
:1020300003F004030093009B0195236B43F001031D
:102040002363236B03F001030193019B4FF01209FB
:102050004FF400734FF001080327042603A9CDE9CC
:102060000339CDE90587079604F002FA4FF480732F
:102070001148079603A9CDE90339CDE9058704F096
:10208000F7F90295236C43F400032364236C03F4F3
:1020900000030293029B236A43F400032362236A32
:1020A00023F40003236209B0BDE8F083005C004024
:1020B000003802400008024000000240F0B599B02C
:1020C00004461422002107A822F059FC30220DEB0F
:1020D0000200002122F053FC22685E4B9A4240F03D
:1020E000B78008230C93C0231093042312930CA8E9
:1020F0004FF40033159305F0A9FB08B1FFF7B8FEC4
:10210000554B5648002400945A6C42F080625A6441
:102110005A6C02F080620092009A01941A6B42F0AD
:1021200020021A631A6B02F020020192019A0294B3
:102130001A6B42F001021A631A6B02F0010202925A
:10214000029A03941A6B42F002021A631A6B02F0AD
:1021500002020392039A04941A6B42F040021A633B
:102160001A6B02F040020492049A05941A6B42F032
:1021700004021A631A6B02F004020592059A06948F
:102180001A6B42F008021A631B6B03F008030693F4
:1021900002250E26069B0B964FF4806307A9CDE916
:1021A0000735CDE9094504F063F941F658032C4899
:1021B0000B9607A9CDE907350927CDE9094504F0B4
:1021C00057F9032327480B9707A9CDE90735CDE930
:1021D000094504F04DF94FF4706322480B9607A9A6
:1021E000CDE90735CDE9094504F042F94FF40C6318
:1021F0001D480B9607A9CDE90735CDE9094504F03F
:1022000037F9C02319480B9607A9CDE90735CDE961
:10221000094504F02DF9082315480B9607A9CDE9C7
:102220000735CDE9094504F023F94FF4A0530E48D2
:102230000B9707A9CDE90735CDE9094504F018F951
:1022400058202246052103F0FFFD582003F02EFE02
:1022500019B0F0BD0068014000380240001402408F
:102260000000024000040240001802400008024042
:10227000000C024010B5044688B01422002103A8C7
:1022800022F07DFB2268144B9A4223D103F5684368
:10229000002101915A6C114842F480125A645A6C20
:1022A00002F480120192019A02911A6B42F020020C
:1022B0001A631B6B03F020030293029B4FF46072BE
:1022C00002230321CDE903230523CDE9061303A946
:1022D00004F0CEF808B010BD0050014000140240D8
:1022E0002DE9F04186B0002303932B4B1C68002C92
:1022F0004FD14FF00108C3F80080284B00949A6B2F
:10230000274842EA08029A639B6B03EA080300939A
:10231000022703260C25009B01A94FF63F03CDE9B8
:102320000137CDE9046504F0A3F81E48059501A91D
:10233000CDE90187CDE9034604F09AF848F233135A
:102340001948059501A9CDE90137CDE9034604F007
:102350008FF84FF683731548059501A9CDE901372C
:10236000CDE9034604F084F84CF203731048059558
:1023700001A9CDE90137CDE9034604F079F86023DE
:102380000C48059501A9CDE90137CDE9034604F0D4
:102390006FF806B0BDE8F0817C28002000380240CC
:1023A00000140240000802400018024000100240E1
:1023B000000C02400004024070B588B00023029374
:1023C000204B1A6C42F010021A641B6C03F01003CD
:1023D0000293054601A903A8029B05F019FA069B82
:1023E0004BBB05F005FA184E184B336040F2E7334B
:1023F000F360174BB0FBF3F3013B736030460023EF
:102400003361B360B36106F041F8044680B93046E9
:1024100005F012FF044658B9362003F047FD0F2D92
:102420000DD822462946362003F00EFD094B1D60CB
:10243000204608B070BD05F0DBF94000D3E7012469
:10244000F6E700BF0038024080280020001000405E
:1024500040420F00800000207047FEE7FEE7FEE7E5
:10246000FEE77047014803F070BB00BF342800202E
:10247000014805F01FBF00BF80280020014803F07D
:102480003FBE00BFD4270020014804F059BE00BF62
:1024900090260020014803F01DBF00BF8C270020BC
:1024A0000120704708B522F06BFB162303604FF044
:1024B000FF3008BD08B522F063FB16230360FEE77A
:1024C00070B50D4614460E46731B9C4201DC204637
:1024D00070BDAFF3008006F8010BF5E770B50D464F
:1024E00014460E46731B9C4201DC204670BD16F854
:1024F000010BAFF30080F5E74FF0FF3070474FF46A
:1025000000534B6000207047012070470020704747
:102510000A4A116808B5034609B9094911601068EB
:10252000694603448B4206D922F02AFB0C23036040
:102530004FF0FF3008BD1360FCE700BFC828002043
:10254000B8440120704710B50421044621F096F8E4
:10255000204610BD012908B506D0022908D059B976
:1025600000F03AFC006808BD00F036FC4068FAE76D
:1025700000F032FC8068F6E70020F4E7004870477E
:10258000C06602080E20704713B5002451B10368DD
:1025900001948DF8034001AA9C680DF10303A04744
:1025A00002B010BD0846FBE7C0897047008A70473B
:1025B000C088704780887047807A00F07F0070473D
:1025C000807AC00970470020704700009FED010A23
:1025D000704700BF00000000704710B50821044696
:1025E00021F04CF8204610BD7047704700F59873F5
:1025F0000868496803C37047704770474160704777
:1026000070477047064BC0F84C310023C0F850317A
:1026100000F5A273C0F84801C0F84031704700BF10
:1026200011280008012303727047704710B4C26874
:1026300041685410034601EB6200D20748BF0A59B3
:102640009B685DF8044B48BFD35818470346406861
:1026500030B19A681AB9D86800F0010070470120BB
:10266000704710B50C21044621F008F8204610BD33
:1026700010B51021044621F001F8204610BD10B518
:102680004FF4AE71044620F0F9FF204610BD10B59E
:102690000EF072F90368BDE81040DB6B184710B507
:1026A0000446D0F8400158B10368DB68984738B158
:1026B000D4F8400103689B6898470023C4F8403170
:1026C00010BD00002DE9F14FD0E9556A0746B0680A
:1026D00003681B6A9847B0F5875F05D2444B454AAB
:1026E000A321454821F006FF706803681B6A9847DC
:1026F0000F2803D8414B3F4AA421F2E7F068036852
:102700001B6A98470B2803D83D4B3A4AA521E8E7B6
:102710000EF032F9DFF8F09004300EF06BF9D9F8D2
:10272000000010B10368DB689847D9F8000010B1C9
:1027300003681B689847DFF8D480D8F8000010B110
:1027400003685B699847D7F83C0110B103685B6880
:102750009847D8F8000010B103681B689847D7F86D
:102760003C0110B103689B689847F068036800213A
:102770005B6A98474FF0000B224BC0F804B0044648
:1027800080F808B00360B068036859465B6A9847F0
:10279000054602F0CFFA7068036859465B6A9847AD
:1027A0002946064602F0A4FA331DC7F83C61C9F871
:1027B0000040C8F80050CAF800302B68C6F808A0DE
:1027C0002846DB68EE639847336830461B689847B5
:1027D0002146284610F0CAFA236820461B6998470C
:1027E00023685B69204601B0BDE8F04F184700BF81
:1027F000A75B0208355C02080D5D0208545D020803
:10280000F75D02085C680208C0370120BC37012070
:102810002DE9F14FD0E9556A0746B06803681B6A95
:102820009847B0F5357F05D2444B454AA32145482A
:1028300021F060FE706803681B6A98470F2803D870
:10284000414B3F4AA421F2E7F06803681B6A9847AE
:102850000B2803D83D4B3A4AA521E8E70EF08CF847
:10286000DFF8F09004300EF0C5F8D9F8000010B190
:102870000368DB689847D9F8000010B103681B684B
:102880009847DFF8D480D8F8000010B103685B697E
:102890009847D7F83C0110B103685B689847D8F8AF
:1028A000000010B103681B689847D7F83C0110B1CD
:1028B00003689B689847F068036800215B6A984743
:1028C0004FF0000B224BC0F804B0044680F808B06B
:1028D0000360B068036859465B6A9847054602F092
:1028E000EDF97068036859465B6A984729460646C1
:1028F00002F0C2F9331DC7F83C61C9F80040C8F8BE
:102900000050CAF800302B68C6F808A02846DB68DB
:10291000EE639847336830461B689847214628463F
:1029200010F024FA236820461B69984723685B69E6
:10293000204601B0BDE8F04F184700BFA75B020872
:102940009A5E02080D5D0208545D0208F75D0208F8
:102950005C680208C0370120BC370120044B1B68AB
:1029600093F858200AB1D86C00B99868704700BF36
:1029700078370120F8B5174604460E460EF008F9E0
:10298000124B1C60124B2360124B0025C4E95135D9
:10299000114BC4E953551868036801219B68C4E9C9
:1029A0004F55C4E955769847284600F0C9F9FFF716
:1029B000D5FF18F060FDFFF7D1FF18F0D7FDFFF746
:1029C000CDFF18F0DFFD2046F8BD00BFCC37012059
:1029D00008680208F067020878370120064BC0F843
:1029E0004C310023C0F8503100F5A273C0F8480103
:1029F000C0F84031704700BF11280008064BC0F8EE
:102A00004C310023C0F8503100F5A273C0F84801E2
:102A1000C0F84031704700BFC5260008406A7047C3
:102A2000806A704770478A880B8810B5D20A4C8834
:102A3000C1699BB251F8220043EA0443184410BD17
:102A400010B50446BAB1107B68B1537BD27A1B0231
:102A500003F4E0631A43236A03EB82031A888A4271
:102A600002D193F9020010BD05D8013880B20433B9
:102A70000028F3D1F7E70020F5E710B52C21044634
:102A800020F0FCFD204610BD30B58BB00446BDF8EB
:102A900060500895BDF85C5007959DF8505006951C
:102AA0009DF84C5005959DF8485004959DF844506C
:102AB00003959DF8405002959DF83C500195BDF856
:102AC000385000950FF0ACFD064B2360159BE36179
:102AD000169B2362199B63621A9BA36220460BB06C
:102AE00030BD00BF806802087047000030B5174D48
:102AF0002C6814F001048FB0BFF35B8F22D12846FD
:102B000020F0BEFDF0B13F230993114B0893114B08
:102B100007930123CDE9054304930423CDE9024340
:102B20000A230D49009316220C23CDE90B440B48D0
:102B30000A940194FFF7A8FF094821F0F9FC284600
:102B400020F0AAFD05480FB030BD00BFCC28002002
:102B5000908B0208B08B0208E0880208D028002081
:102B6000E92A00087047000030B5164D2C6814F0B3
:102B700001048FB0BFF35B8F21D1284620F080FD88
:102B8000E8B13F230993104B0893104B079301239F
:102B9000CDE9054304930423CDE9024314230C49F2
:102BA00000931622CDE90B440A480A940194FFF7DA
:102BB0006BFF094821F0BCFC284620F06DFD05485C
:102BC0000FB030BDFC280020948B0208B48B0208A3
:102BD000148A020800290020652B000870470000B5
:102BE00030B5164D2C6814F001048FB0BFF35B8F25
:102BF00021D1284620F044FDE8B13F230993104B32
:102C00000893104B07930123CDE905430493042354
:102C1000CDE9024328230C4900930522CDE90B445A
:102C20000A480A940194FFF72FFF094821F080FC1D
:102C3000284620F031FD05480FB030BD2C2900207A
:102C4000A08B0208B88B0208488B020830290020AC
:102C5000DD2B000800207047002070470EB403B53C
:102C600003AB002153F8042B01930EF057FF02B081
:102C70005DF804EB03B070470CB407B504AB53F830
:102C8000042B01930EF04AFF03B05DF804EB02B091
:102C900070470000436C10B5044673B3038F2BB923
:102CA000184B194AC521194821F024FCC38E00EBAA
:102CB00043035B8C0BB310F0E0FD238F012B03D893
:102CC000134B144ACB21EEE7E28E531C9BB2092B27
:102CD000194688BFA3F10A0104EB410140F63F10F9
:102CE000498C814209D10A2B04EB420228BF002300
:102CF00004EB4303508C588451842046BDE81040B7
:102D000010F0BEBC725F02087B5F020826600208FA
:102D1000706002087E60020810F079BC10B586B0C1
:102D200002AC84E806001A460AAB05930193099B9E
:102D300000932146089B0DF0BDF906B010BD0000C0
:102D400038B518BB124B13481C681349B4B122683C
:102D500022440260626822440A60A26814440F4B55
:102D600000221A8000F038F8054600F033F80C4BCA
:102D70001C600C4B1D600C4B188007E00B4B036074
:102D80000B4B0B600B4B1C68002CE8D138BD00BF0F
:102D900068290020602900205C2900206429002087
:102DA000D0370120D8370120D4370120808C020889
:102DB000BC8B02084C8D0208044B1B6853F82100A1
:102DC000034B1B6803EB4000704700BF5C290020E9
:102DD0006029002031207047004870476C2900208E
:102DE00010B5FFF7C1FE044C2060FFF7F9FE6060EC
:102DF000FFF77CFEA06010BD6C29002010B50024F8
:102E000004600C6014601C6010BD70477047704710
:102E10007047704730B5036885B06D460181D3F8BF
:102E20008430014604462846984795E807003C341C
:102E300084E8070005B030BD30B5036885B06D4645
:102E40004181D3F88430014604462846984795E8E6
:102E500007003C3484E8070005B030BD0022028042
:102E600042808280C280704780F83610704770B50B
:102E7000036804461B6B154698472368294620467D
:102E80005B6EBDE87040184700207047806C70474B
:102E90007047704770477047704730B4C2684468E5
:102EA0005510034604EB6200D20748BF62599B6885
:102EB00030BC48BFD35818470346406830B19A68C1
:102EC0001AB9D86800F0010070470120704710B5AA
:102ED0004C21044620F0D2FB204610BD10B5102135
:102EE000044620F0CBFB204610BD10B54FF43571E1
:102EF000044620F0C3FB204610BD08B5FEF7D4FA07
:102F000008BD0000036870B55E6B124B1B68044679
:102F10008DB22BB9104B114A6C21114821F0EAFAFD
:102F20001049828D0988914203D80F4B0B4A6D21BD
:102F3000F3E713F812200D4B1B6853F822000368C7
:102F40001B6B9847291A3346204609B2BDE87040EA
:102F5000184700BFD0370120506102089261020873
:102F6000CD610208D437012014620208D83701204D
:102F700038B500F19803994204460D460AD1012361
:102F800080F8953100F5B8700EF0F2FE2368204607
:102F9000DB6A984704F5E4739D4206D1002384F868
:102FA000953104F5B8700EF0E3FEE034A54205D18A
:102FB0000DF0E2FCBDE83840FFF720BD38BD00222F
:102FC0004FF0FF31C0E900218260704770B503689F
:102FD00004461B6B154698472368294620465B6BC1
:102FE000BDE87040184770B504461D46BDF9106035
:102FF000FFF7ECFF2368294620469B6B9847236820
:1030000031462046DB6BBDE8704018470022C0E91E
:103010000122C0E90322C0E90522C0E907224FF4DA
:1030200080728284014A0260704700BFE86802082B
:1030300038B5262204460D46002121F0A0FC20468A
:10304000FFF7E4FF064B23602B88E384FF23204631
:1030500084F8283029460AF0A2FF204638BD00BF78
:10306000F06F0208F8B5194B018F1B888B4206469A
:103070002AD9174B1B682BB9164B174A17486C21D6
:1030800021F038FA13F81120154B1B6853F8225021
:10309000144B1868FFF790FE2B6807469B6B284679
:1030A00098472B6804469B6C3946284698472B68FE
:1030B00014FB00F45B6A394628469847A4B22318EB
:1030C0001BB2A6F84630F8BD0023FAE7D43701203A
:1030D000D03701205061020892610208CD610208D8
:1030E000D8370120DC37012010B526220446002104
:1030F00021F045FC2046FFF789FF0A4B23600A4B6D
:10310000A3624FF6FF73A3854FF47F020023C4E947
:103110000C3223874FF0FF32C4E91023E3632046CB
:1031200010BD00BFF86E0208E06702082DE9F04FFD
:10313000044691B0264600250FF06CFCD04BE563A9
:1031400046F8403B26222946304621F018FC3046FE
:10315000FFF75CFFCB4B236404F16C0BFF2304F1FE
:10316000980A84F866300EA94FF6FF77A566584690
:1031700004F1E009ADF83870FFF75AFF50460BF044
:103180004FF804F5947848460BF04AF84046FFF7AC
:10319000ABFF04F5B87302934FF48073A4F8943135
:1031A000B94BC4F8703104F5CE730EA9C4E95D556E
:1031B000C4E95F55C4E96155C4E96355C4F8985141
:1031C00018460693ADF83870FFF732FF04F5E47344
:1031D000184603930BF024F804F50473184604937F
:1031E000FFF782FF04F5167318460593FFF77CFF7F
:1031F000A64BC4F85832A64BC4F8A052C4E9B13467
:10320000A44BC4E9B3354FF4A0732A46294630468F
:103210000093F023FFF7E7FE271D4FF07F43A366DF
:103220003146384607F01EFB2A4629465846FFF726
:10323000CDFE022358460EA9ADF838300AF0AFFE95
:103240005946384607F00EFB5046C2222121FFF7AF
:10325000BDFE4FF00D0B0C230DA950460EAAADF884
:103260003430ADF838B00AF068FD2F228A4EA4F849
:10327000D0205046FFF7F6FE4FF0FF33C4E9356328
:1032800004F53173C4F8C03051463846079307F04F
:10329000E9FA484664222121FFF798FE0EAA0C2382
:1032A0000DA94846ADF83430ADF838B00AF045FD08
:1032B00030234846A4F81831FFF7D4FE4FF0FF330F
:1032C000C4F82031079BC4F808314946C4F81C6192
:1032D000384607F0C7FA112240462D21FFF776FE47
:1032E00008AE6E4BC4F858314146A4F85C513046E4
:1032F0000AF028FA96E8070004F5B27383E807009D
:10330000DFF8C091CDF8389040464FF02E0A0EA954
:10331000ADF83CA00AF0BEFC4146384607F0A2FAE0
:103320009623029800935522D6235946FFF75BFE59
:103330006FF001022946069884F89551FFF746FE82
:1033400004230698ADF838300EA90AF028FE069935
:10335000029807F087FA03986D225921FFF736FE8D
:103360004FF0050806230EAA0DA90398ADF83830D2
:10337000ADF834800AF0E1FC2D230398A4F8003264
:10338000FFF770FE464A4FF0FF33C4E98123079BE5
:10339000C4F8F031DDE9020107F064FA424604980E
:1033A0001621FFF713FE4FF07F430499C4F8403213
:1033B000A4F8445230460AF0C5F996E8070004F52F
:1033C000137383E807002C230498ADF83C300EA952
:1033D000CDF838900AF05EFC0499029807F042FAA2
:1033E00037235246059800930821C723FFF7FBFDBA
:1033F0004FF07F43C4F88832D4F858320599D3F897
:103400008430A4F88C523046984796E8070004F5BB
:10341000257383E80700234B1B6804F529752BB936
:10342000214B224A6021224821F064F8214B1B885D
:10343000122B03D8204B1D4A6121F4E71F4B1221A8
:103440001868FFF7B9FC1E4A03461021284610F001
:10345000BDFF2B230598C4F8A0520EA9ADF83C304F
:10346000CDF838900AF016FC0599029807F0FAF9A1
:103470003846029907F0F6F9204611B0BDE8F08F02
:10348000F8690208886F0208086D0208506902088E
:10349000E0690208712F0008155202FFDEED09FFF6
:1034A000050380FFD03701205061020852620208F4
:1034B000CD610208D437012014620208DC370120F4
:1034C0009D620208E06702087047704770477047C6
:1034D0007047704770477047A0F8501070470186DA
:1034E000704730B4C26844685510034604EB62006C
:1034F000D20748BF62599B6830BC48BFD3581847B1
:103500000346406830B19A681AB9D86800F00100E3
:10351000704701207047B0F850007047008E704728
:1035200010B56821044620F0A9F8204610BD10B55A
:103530004821044620F0A2F8204610BD10B5102105
:10354000044620F09BF8204610BD10B541F29401CE
:10355000044620F093F8204610BD08B590F82630B8
:103560000BB1FDF7A1FF08BD10B500F58054D4F8EC
:1035700090200132022AC4F8902005D103681B6B09
:1035800098470023C4F8903010BD00004FF48071BC
:103590000022818405490160C0E90122C0E90322BB
:1035A000C0E90522C0E9072282627047086D02085F
:1035B00010B526220446002121F0E1F92046FFF74C
:1035C00025FD044B2360FF2384F826300023A362EB
:1035D000204610BD886F020800224FF0FF31C0E97D
:1035E000002182607047000010B50446FFF7E0FF3D
:1035F000064B23600023C4E90C33C4E90E33C4E94D
:10360000103384F82C30E385204610BD306A020860
:1036100010B50446FFF768FD0023074AA364C4E918
:103620001433C4E91633C4E91833226084F84C30EB
:10363000A4F84E30204610BDA06A02082DE9F04FD4
:103640000446B9B0274600260FF0E4F9DD4BE663E7
:1036500047F8403B0DF1D40B04F16C083846FFF7F6
:10366000A7FF04F198054FF6FF795946404604F14B
:10367000E00AADF8D490FFF7DBFC28460AF0D0FD55
:103680005046FFF783FF04F58673594618460D939D
:10369000ADF8D490FFF7CCFC04F59C73184620934A
:1036A000FFF7A2FF04F5C07318462193FFF79CFFB4
:1036B00004F5E47318462293FFF796FF04F50473AC
:1036C00018462393FFF790FF04F5167318462493CA
:1036D000FFF78AFF04F5287318462593FFF784FF48
:1036E00004F53A7318462693FFF77EFF04F54C73F2
:1036F00018462793FFF778FF04F55E731846289362
:10370000FFF772FF04F5707318462993FFF76CFFFB
:1037100004F5816318462A93FFF766FF04F58A6370
:1037200018462B93FFF760FF04F5936318462C931C
:10373000FFF75AFF04F59C6318462D93FFF754FFDB
:1037400004F5A56318462E93FFF74EFF04F5AE630C
:1037500018462F93FFF748FF04F5B7631846079301
:10376000FFF756FF04F5C46318460E93FFF750FFAA
:1037700004F5D16318460F93FFF74AFF04F5DE63A3
:1037800018461093FFF744FF04F5EB6318461193B6
:10379000FFF73EFF04F5F86318461293FFF738FF72
:1037A00004F6280318461393FFF732FF04F5096364
:1037B00018461493FFF72CFF04F6F80318461593E8
:1037C000FFF726FF04F5166318461693FFF720FF50
:1037D00004F6C81318461793FFF71AFF04F523637E
:1037E00018461893FFF714FF04F698231846199308
:1037F000FFF70EFF04F5306318461A93FFF708FF32
:1038000004F6683318461B93FFF702FF04F53D6387
:1038100018461C93FFF7FCFE04F638431846039342
:10382000FFF7B4FE04F66443594618461D93ADF8FD
:10383000D490FFF7FDFB04F5496318460493FFF7A6
:1038400053FC04F6D843184608930AF0E9FC04F543
:103850005263184609930AF0E3FC04F668531846CD
:103860000293FFF793FE04F69453594618461E93AD
:10387000ADF8D490FFF7DCFB04F55C6318461F93AA
:10388000FFF732FC504BC4F8C03D04F60C631846F9
:10389000C4F8086E0593FFF727FC04F65463184636
:1038A0000A930AF0BDFC04F69C6318460B930AF0D9
:1038B000B7FC04F6E46318460C930AF0B1FC434AE3
:1038C00004F58053C3E92024414AC3F89060C3E95A
:1038D00022264FF4A0733246384600933146F02337
:1038E000FFF781FB4FF07F43A366231D184639463F
:1038F000069306F0B7FF324640463146FFF766FBB7
:10390000012340465946ADF8D4300AF048FB414601
:10391000201D06F0A7FF284608228221FFF756FB4C
:103920004FF00A035A4634A92846ADF8D0300B238D
:10393000ADF8D4300AF001FA2A232846A4F8D03092
:10394000FFF790FB234BDFF890804FF0FF37C4E97F
:10395000353704F584532946C4F8C030201D06933A
:1039600006F080FFF0230093502231465046FFF7C7
:103970003AFB32460D983146FFF728FB0D98ADF81B
:10398000D46059463C250AF00AFB0D99504606F0D2
:1039900069FF2B463246209800953146FFF723FBFE
:1039A0002099C4F86071504606F05CFF2B46324601
:1039B000219800952946FFF716FB2199C4F8A871B4
:1039C0000CE000BF506B020850690208386B020817
:1039D000354800083524F0FFD0370120504606F066
:1039E00041FF2B463246229800957821FFF7FBFADB
:1039F0002299C4F8F071504606F034FF2B46324647
:103A000023980095B421FFF7EEFA2399C4F8387291
:103A1000504606F027FF2B462A462498009531464B
:103A2000FFF7E1FA2499C4F88072504606F01AFFB5
:103A30002B462A46259800952946FFF7D4FA259962
:103A4000C4F8C872504606F00DFF2B462A46269849
:103A500000957821FFF7C7FA2699C4F810735046ED
:103A600006F000FF2B462A4627980095B421FFF761
:103A7000BAFA2799C4F85873504606F0F3FE2B465D
:103A80007822289800953146FFF7ADFA2899C4F8B6
:103A9000A073504606F0E6FE2B4678222998009542
:103AA0002946FFF7A0FA2999C4F8E873504606F0B2
:103AB000D9FE782211462B462A980095FFF793FAF3
:103AC0002A99C4F83074504606F0CCFE2B46782272
:103AD0002B980095B421FFF786FA2B99C4F87874D7
:103AE000504606F0BFFE2B46B4222C980095314676
:103AF000FFF779FA2C99C4F8C074504606F0B2FE6C
:103B00002B46B4222D9800952946FFF76CFA2D9983
:103B1000C4F80875504606F0A5FE2B46B4222E9830
:103B200000957821FFF75FFA2E99C4F8507550463A
:103B300006F098FEB42211462B462F980095FFF709
:103B400052FA2F99C4F89875504606F08BFE32460B
:103B5000079800952B463146FFF745FA124BC4F8FB
:103B6000E835D4F8B8350799D3F88430A4F8EC6573
:103B700030AF3846984797E8070004F2F45383E8DB
:103B80000700D8F8003004F62C792BB9074B084A07
:103B90006021084820F0AEFC074F3B88112B0FD85E
:103BA000064B034A6121F4E7020242FF506102081A
:103BB00052620208CD610208D43701201462020863
:103BC000D04B11211868FFF7F7F8CF4A03460A21B6
:103BD000484610F0FBFB29230798C4F80096594685
:103BE000DFF82C93ADF8D830CDF8D4900AF052F825
:103BF0000799504606F036FE2B4631460E98009542
:103C00002A46FFF7F0F9C14AC4F85026A4F85466D2
:103C10005846FFF7E1FC9BE8070004F25C6383E889
:103C20000700D8F8003004F574610791002BADD07F
:103C30003B880D2BB4D9B34B0D211868FFF7BCF8A6
:103C4000B14A03460A21079810F0C0FB07990E9865
:103C5000C4F8681625235946ADF8D830CDF8D4906D
:103C60000AF018F80E99504606F0FCFD2B46314636
:103C70000F9800957822FFF7B6F9A44AC4F8B82641
:103C8000A4F8BC665846FFF7A7FC9BE8070004F2BF
:103C9000C46383E80700D8F8003004F65471079134
:103CA000002B3FF473AF3B88092B7FF679AF954B20
:103CB00009211868FFF780F8934A03460A210798FC
:103CC00010F084FB07990F98C4F8D01624235946A6
:103CD000ADF8D830CDF8D49009F0DCFF0F995046FC
:103CE00006F0C0FD2B46314610980095B422FFF730
:103CF0007AF9864AC4F82027A4F824675846FFF7C3
:103D00006BFC9BE8070004F22C7383E80700D8F8EB
:103D1000003004F668710791002B3FF437AF3B8801
:103D2000052B7FF63DAF774B05211868FFF744F868
:103D3000754A03460A21079810F048FB0799109826
:103D4000C4F8381723235946ADF8D830CDF8D490AD
:103D500009F0A0FF1099504606F084FD2B46294635
:103D6000119800953246FFF73EF9684AC4F8882753
:103D7000A4F88C675846FFF72FFC9BE8070004F275
:103D8000947383E80700D8F8003004F67C75002BA4
:103D90003FF4FCAE3B88102B7FF602AF594B10214D
:103DA0001868FFF709F8584A03460A21284610F018
:103DB0000DFBC4F8A05735AD28231198ADF8D830C5
:103DC00029463C26CDF8D49009F064FF1199DFF81C
:103DD0004491504606F046FD33463146129800960F
:103DE0003246FFF700F90027484AC4F8F027A4F844
:103DF000F4772846FFF7F0FB95E8070004F2FC7320
:103E000083E80700D9F8003004F5796B002B3FF404
:103E1000BDAEDFF80481B8F800300C2B7FF6C0AEE1
:103E2000384B0C211868FEF7C7FF374A03460A21B2
:103E3000584610F0CBFA36491298C4F808B8222335
:103E400035912946ADF8D83009F024FF1299504633
:103E500006F008FD33463146139800967822FFF7A6
:103E6000C2F82A4AC4F85828A4F85C782846FFF714
:103E7000B3FB95E8070004F6640383E80700D9F86C
:103E8000003004F6A47B002B3FF480AEB8F800307D
:103E9000082B7FF685AE1B4B08211868FEF78CFFB8
:103EA000194A03460A21584610F090FA1849139807
:103EB000C4F870B8212335912946ADF8D83009F0FF
:103EC000E9FE1399504606F0CDFC3346314614986E
:103ED0000096B422FFF787F80C4AC4F8C028A4F86B
:103EE000C4782846FFF778FB95E8070004F6CC0372
:103EF00083E80700D9F8003004F6B87B002B3FF4C4
:103F000045AE0BE0DC3701209D620208020242FF51
:103F1000E0670208D0370120D4370120B8F800301C
:103F2000042B7FF63DAED34B04211868FEF744FF07
:103F3000D14A03460A21584610F048FACF4914984E
:103F4000C4F8D8B8202335912946ADF8D83009F007
:103F5000A1FE1499504606F085FC33467821159849
:103F600000963A46FFF73FF8C54AC4F82829A4F856
:103F70002C792846FFF730FB95E8070004F6341348
:103F800083E80700D9F8003004F6CC7B002B3FF41F
:103F9000FDADB8F800300F2B7FF602AEB54B0F2108
:103FA0001868FEF709FFB44A03460A21584610F084
:103FB0000DFAB2491598359127232946C4F840B91E
:103FC000ADF8D83009F066FE1599504606F04AFC67
:103FD00033467821169800963246FFF704F8A84A2F
:103FE000C4F890292846A4F89479FFF7F5FA95E8E3
:103FF000070004F69C1383E80700D9F8003004F5A5
:104000007E65002B3FF4C2ADB8F800300B2B7FF675
:10401000C7AD984B0B211868FEF7CEFE964A0346B3
:104020000A21284610F0D2F99449C4F8A85935ADB0
:104030001F23169835912946ADF8D83009F02AFE8D
:104040001699504606F00EFC782211463346179812
:104050000096FEF7C8FF8A4AC4F8F829A4F8FC794C
:104060002846FFF7B9FA95E8070004F6042383E829
:104070000700D9F8003004F6F47B002B3FF486AD3E
:10408000B8F80030072B7FF68BAD7A4B0721186804
:10409000FEF792FE784A03460A21584610F096F938
:1040A00076491798C4F810BA1E2335912946ADF801
:1040B000D83009F0EFFD1799504606F0D3FB334690
:1040C000782118980096B422FEF78DFF6C4AC4F848
:1040D000602AA4F8647A2846FFF77EFA95E807007C
:1040E00004F66C2383E80700D9F8003004F5805B00
:1040F0000BF1080B002B3FF449ADB8F80030032B4F
:104100007FF64EAD5B4B03211868FEF755FE5A4A09
:1041100003460A21584610F059F958491898C4F82E
:1041200078BA1D2335912946ADF8D83009F0B2FD93
:104130001899504606F096FB3346B421199800961C
:104140003A46FEF750FF4E4AC4F8C82AA4F8CC7A83
:104150002846FFF741FA95E8070004F6D42383E8E0
:104160000700D9F8003004F5805B0BF11C0B002B25
:104170003FF40CADB8F800300E2B7FF611AD3D4B7F
:104180000E211868FEF718FE3B4A03460A215846DE
:1041900010F01CF939491998C4F8E0BA2623359172
:1041A0002946ADF8D83009F075FD1999504606F04A
:1041B00059FB3346B4211A9800963246FEF713FF96
:1041C0002F4AC4F8302BA4F8347B2846FFF704FAB2
:1041D00095E8070004F63C3383E80700D9F800307F
:1041E00004F5815B0BF1100B002B3FF4CFACB8F85A
:1041F00000300A2B7FF6D4AC1E4B0A211868FEF75C
:10420000DBFD1D4A03460A21584610F0DFF81B4922
:104210001A9835911C232946C4F848BBADF8D8300C
:1042200009F038FD1A99504606F01CFB33467822F7
:10423000B4211B980096124EFEF7D5FE2846C4F80E
:10424000986BA4F89C7BFFF7C7F995E8070004F684
:10425000A43383E80700D9F8003004F5825504350B
:10426000002B3FF493ACB8F80030062B7FF698ACE7
:1042700008E000BFDC3701209D620208E067020809
:10428000020242FFD44BDFF864B318680621FEF740
:1042900093FDD24A03460A21284610F097F8C4F845
:1042A000B05B35AD1B231B98ADF8D8302946CDF84F
:1042B000D4B009F0EFFC1B99504606F0D3FA3C232A
:1042C000B422009311461C98FEF78DFEC4F8006CD2
:1042D000A4F8047C2846FFF77FF995E8070004F668
:1042E0000C4383E80700D9F800303E4604F58257B6
:1042F0001837002B3FF44AACB8F80030022B7FF699
:104300004FACB54B02211868FEF756FDB34A034681
:104310000A21384610F05AF81A231C98C4F8187C61
:104320002946ADF8D830CDF8D4B009F0B3FC5046EA
:104330001C9906F097FA5146201D4FF0960A06F098
:1043400091FA8A230398CDF800A05F223321FEF76B
:104350004AFE32461D9884F85D6C3146FEF736FE03
:104360004FF00300ADF8D40029461D9809F017FE60
:104370001D99039806F076FA032204981F21FEF790
:1043800025FE30AF4FF07F400499C4F8C00CA4F86C
:10439000C46C384609F0D6F9049800F13C0397E85C
:1043A000070083E807004FF01900ADF8D800294650
:1043B0000498CDF8D4B009F06DFCDDE9030106F0F6
:1043C00051FA08982F223146FEF700FE34A84FF02C
:1043D00007092A4601460898ADF8D090ADF8D49068
:1043E00009F0ABFC18230898A4F8103DFEF73AFE3C
:1043F0004FF0FF387A4B0698C4F8143D0899C4F87A
:10440000000DC4F8188D039806F02CFA0998632261
:104410003146FEF7DBFD34A801462A460998ADF87F
:10442000D090ADF8D49009F088FC1722A4F8582D4C
:104430000998FEF717FE6A4B0698C4F85C3D099987
:10444000C4F8480DC4F8608D039806F00BFA039980
:10445000201D06F007FAD6230298CDF800A05F22AF
:104460000D21FEF7C0FD32461E9884F88D6D314651
:10447000FEF7ACFD04231E98ADF8D430294609F0B0
:104480008EFD1E99029806F0EDF91922202311469F
:104490001F980093A123FEF7A6FD4FF07F40C4F8BC
:1044A000F00DA4F8F46D2846FFF796F895E807009C
:1044B00004F6FC5383E807004A4A136804F583595D
:1044C00009F10C09002B3FF461AB47490B88012B24
:1044D0007FF666AB404B01211868FEF76DFC3F4A42
:1044E00003460A2148460FF071FF15231F98C4F8B0
:1044F000089E2946ADF8D830CDF8D4B009F0CAFBF3
:104500001F990298DFF8E89006F0ACF905980322AD
:104510004721FEF75BFD4FF07F430599C4F83C3E11
:104520003846A4F8406E09F00DF997E80700059B9E
:10453000CDF8D4B03C3383E8070016230598ADF8D6
:10454000D830294609F0A6FB0599029806F08AF9A9
:104550000A9843222621FEF739FD08272A4634A966
:104560000A98ADF8D0704FF0090AADF8D4A009F060
:10457000E4FB14230A98A4F88C3EFEF773FD069B17
:10458000C4F87C3E0A990298C4F8909EC4F8948EB0
:1045900006F068F90B986E222621FEF717FD2A46D1
:1045A00034A90B98ADF8D070ADF8D4A009F0C5FBD4
:1045B00013230B98A4F8D43EFEF754FD069BC4F8D1
:1045C000C43E0B990298C4F8D89EC4F8DC8E06F05D
:1045D00049F90299201D0DE0DC3701209D62020897
:1045E00062F507FFD0370120D4370120E0670208C9
:1045F0000909DBFF06F036F90C983A460A21FEF766
:10460000E5FC0A232A4634A90C98ADF8D0300B23D8
:10461000ADF8D43009F091FB0C98A4F81C6FFEF7AC
:1046200021FD084BC4F8203F069B0C99C4F8248F49
:10463000201DC4F80C3F06F015F9204639B0BDE83E
:10464000F08F00BF3524F0FF90F84C302DE9F04199
:104650000446002B50D0B0F84E30B0F85020013353
:104660009BB29342A0F84E3046D39B1A9DB2B0F84D
:104670005820B0F85430C66DD21A12B2B0F8523089
:1046800000212846B047B4F85630B4F85A20276EB7
:10469000D21A0646B4F8523012B200212846B84762
:1046A000B4F85630C218B4F85430F11812B209B246
:1046B0002046FCF74CFEB4F85030B4F85210B4F871
:1046C0004E200B449A4217D3002384F84C30A4F8B0
:1046D0004E300CF051F9214604300CF072F9606E46
:1046E00050B10368DB68984730B1606E03682146BB
:1046F0009B68BDE8F0411847BDE8F08108B5FFF7B9
:10470000A3FF08BDF8B51D4690F84C3004460F468F
:1047100016462BB90CF030F9214604300CF0FAF9AA
:104720000023A4F84E3063686365069BE365079B2E
:10473000A4F852502366012384F84C30236DA4F86A
:104740005870A4F85A6013B92046FFF77DFFF8BDF2
:1047500090F82C302DE9F0410446002B41D0C38D58
:10476000028E01339BB29342C3853AD39B1A9DB20A
:10477000028F838EC66BD21A12B2438E0021284656
:10478000B047E38E628F276CD21A0646638E12B250
:1047900000212846B847E38EC218A38EF11812B242
:1047A00009B22046FCF7D3FD238E618EE28D0B44C7
:1047B0009A4216D3002384F82C30E3850CF0DCF801
:1047C000214604300CF0FDF8606C50B10368DB68E2
:1047D000984730B1606C036821469B68BDE8F041A2
:1047E0001847BDE8F08108B5FFF7B2FF08BDF8B57E
:1047F0001D4690F82C3004460F4616462BB90CF097
:10480000BBF8214604300CF085F90023E38563688A
:104810006363069BE363079B65862364012384F837
:104820002C30236B2787668713B92046FFF790FF4C
:10483000F8BD000000F198039942F7B504460D4613
:1048400006D1012380F85D3C00F638400DF090FA67
:1048500004F552639D4206D1002384F85D3C04F6C2
:1048600038400DF085FA04F6D8439D4207D10CF08C
:1048700083F8FEF7B3F823682046DB6A984704F60E
:104880009C639D4206D1002384F88D3D04F6685058
:104890000DF06EFA04F654639D4207D10CF06CF8EB
:1048A000FEF79CF823682046DB6A984704F6E46329
:1048B0009D4240F0AA81D64E01250027C4F81C76FF
:1048C000A4F808562B463A46394604F5B760CDE9B8
:1048D0000066FFF717FFC4F88476A4F870562B46DD
:1048E000394604F5C460CDE900663C22FFF70AFFB3
:1048F000C4F8EC76A4F8D8562B46394604F5D160B6
:10490000CDE900667822FFF7FDFEC4F85477A4F8DD
:1049100040572B46394604F5DE60CDE90066B422E7
:10492000FFF7F0FEC4F8BC77A4F8A8572B463A4628
:1049300004F5EB60CDE900663C21FFF7E3FE3C2285
:10494000C4F82478A4F810582B46114604F5F860F2
:10495000CDE90066FFF7D6FEC4F88C78A4F8785845
:104960002B4604F62800CDE9006678223C21FFF7AB
:10497000C9FEC4F8F478A4F8E0582B4604F50960A1
:10498000CDE90066B4223C21FFF7BCFEC4F85C7997
:10499000A4F848592B463A4604F6F800CDE90066DB
:1049A0007821FFF7AFFEC4F8C479A4F8B0592B46BC
:1049B00004F51660CDE900663C227821FFF7A2FEDF
:1049C0007822C4F82C7AA4F8185A2B46114604F61B
:1049D000C810CDE90066FFF795FEC4F8947AA4F8F4
:1049E000805A2B4604F52360CDE90066B422782175
:1049F000FFF788FEC4F8FC7AA4F8E85A2B463A463A
:104A000004F69820CDE90066B421FFF77BFEC4F8D8
:104A1000647BA4F8505B2B4604F53060CDE900665A
:104A20003C22B421FFF76EFEC4F8CC7BA4F8B85B3F
:104A30002B4604F66830CDE900667822B421FFF7F2
:104A400061FEB422C4F8347CA4F8205C2B461146E5
:104A500004F53D60CDE90066FFF754FEC4F87C71B3
:104A6000A4F868512B463A46394604F59C70CDE9C6
:104A70000066FFF7BCFEC4F8C471A4F8B0512B4621
:104A80003A4604F5C070CDE900663C21FFF7AFFE61
:104A9000C4F80C72A4F8F8512B463A4604F5E470B9
:104AA000CDE900667821FFF7A2FEC4F85472A4F89D
:104AB00040522B463A4604F50470CDE90066B42115
:104AC000FFF795FEC4F89C72A4F888522B4639462D
:104AD00004F51670CDE900663C22FFF788FE3C2203
:104AE000C4F8E472A4F8D0522B46114604F528709D
:104AF000CDE90066FFF77BFEC4F82C73A4F81853C9
:104B00002B4604F53A70CDE900663C227821FFF788
:104B10006EFEC4F87473A4F860532B4604F54C7011
:104B2000CDE900663C22B421FFF761FEC4F8BC73F6
:104B3000A4F8A8532B46394604F55E70CDE900660B
:104B40007822FFF754FEC4F80474A4F8F0532B46FF
:104B500004F57070CDE9006678223C21FFF747FE2E
:104B60007822C4F84C74A4F838542B46114604F546
:104B70008160CDE90066FFF73AFEC4F89474A4F8AA
:104B800080542B4604F58A60CDE900667822B42172
:104B9000FFF72DFEC4F8DC74A4F8C8542B46394640
:104BA00004F59360CDE90066B422FFF720FEC4F857
:104BB0002475A4F810552B4604F59C60CDE90066D9
:104BC000B4223C21FFF713FEC4F86C75A4F85855C5
:104BD0002B4604F5A560CDE90066B4227821FFF7E5
:104BE00006FEB422C4F8B475A4F8A0552B4604F50B
:104BF000AE60CDE900661146FFF7F9FD23685B6BF7
:104C0000204603B0BDE8F040184703B0F0BD00BF38
:104C1000D32D0108704710B54FF4AE7104461EF055
:104C20002DFD204610BD10B50446D0F8580100F007
:104C300013F82046BDE810400BF03ABF10B504460B
:104C4000FDF798FE014B2360204610BD906B0208D3
:104C50000022C0E90022704770477047043870474F
:104C6000704710B5102104461EF008FD204610BD07
:104C7000A0F10400F5E7000000228260024A026011
:104C800018324260C1607047E46B02087047000050
:104C900010B5034B03600446FEF7FDF8204610BD37
:104CA0000C6C020810B50446FFF7F2FF20464FF4E3
:104CB00035711EF0E3FC204610BD000010B504461F
:104CC000FEF734FA014B2360204610BD0C6C02083D
:104CD000FEF7E2B8704704387047704710B51021EE
:104CE00004461EF0CBFC204610BDA0F10400F5E701
:104CF00000228260024A026018324260C16070473E
:104D0000446C02087047000010B5034B0360044672
:104D1000FEF7E0FB204610BD6C6C020810B504469F
:104D2000FFF7F2FF20464FF487511EF0A7FC204604
:104D300010BD000010B50446FEF780FC064B236052
:104D400004F580530022A3F8D82083F8DA20C3F8B2
:104D5000D420204610BD00BF6C6C0208F0B500F5F1
:104D6000845300F5855085B0143304300025CDE917
:104D70000055CDE902550324214622019A583AB143
:104D800004AE06EB810656F8107C87B946F8102C65
:104D9000013CF2D2009A43F8042B019ADA60029A9D
:104DA000DA618342039ADA62E1D105B0F0BDBA421A
:104DB00001F1FF3116BF04AE520006EB8106E5E7B4
:104DC000F0B500F5845300F5855085B014330430F8
:104DD0000025CDE90055CDE902550024214653F8C0
:104DE00024203AB104AE06EB810656F8107C8FB948
:104DF00046F8102C0434102CF1D1009A43F8042BFF
:104E0000019ADA60029ADA618342039ADA62E0D1A7
:104E100005B0F0BDBA4201F1010116BF04AE520067
:104E200006EB8106E4E7F0B500F5845300F5865003
:104E300085B0103310300025CDE90055CDE902557D
:104E40001C46002103F1100C54F8042F3AB104AEB3
:104E500006EB810656F8107C7FB946F8102C6445A5
:104E6000F2D1009A5A60019A9A60029ADA60A042DE
:104E7000039A1A610AD02346DEE7BA4201F1010122
:104E800016BF04AE520006EB8106E6E705B0F0BDA2
:104E9000F0B500F5855300F5875085B00433043034
:104EA0000024CDE90044CDE902441D460321A3F1CD
:104EB000100C55F8042D3AB104AE06EB810656F8F5
:104EC000107CA7B946F8102C6545F2D1009A43F83A
:104ED000102C019A43F80C2C029A43F8082C039AE0
:104EE00043F8042C10339842DBD105B0F0BDBA4230
:104EF00001F1FF3116BF04AE520006EB8106E1E777
:104F0000F0B500F584530022A1B0044610331546D5
:104F10001846002150F8046F2EB920AE06EBC506E6
:104F200046E92021013501310429F3D10132042A57
:104F300003F11003ECD12DB904F58054022384F859
:104F4000DA303BE01FF0B8FB90FBF5F303FB1500F4
:104F500020AB03EBC00050E9203101EB830000F2ED
:104F6000244604EB86060227012D4FEA8302776070
:104F700024D1BB42E0DC00F5856504EB85056D6856
:104F8000BD421BD0002BD7DD00F5846304EB830307
:104F90005B68BB4212D0B942CEDC00F2254004EB84
:104FA00080004368BB4209D00029C5DD531803F2D5
:104FB000234304EB83035B68BB42BDD121B0F0BD4A
:104FC000FEF789BA70B500F58056634DD6F8943077
:104FD00004462A460A2100F62C700FF0F7F904F572
:104FE000B7600CF0C5FED6F898302A460A2104F5C1
:104FF00074600FF0EBF904F5C4600CF0B9FED6F85C
:105000009C302A460A2104F654700FF0DFF904F5AB
:10501000D1600CF0ADFED6F8A0302A460A2104F685
:1050200068700FF0D3F904F5DE600CF0A1FED6F83D
:10503000A4302A460A2104F67C700FF0C7F904F563
:10504000EB600CF095FED6F8A8302A460A2104F54C
:1050500079600FF0BBF904F5F8600CF089FED6F822
:10506000AC302A460A2104F6A4700FF0AFF904F61A
:1050700028000CF07DFED6F8B0302A460A2104F64E
:10508000B8700FF0A3F904F509600CF071FED6F8C2
:10509000B4302A460A2104F6CC700FF097F904F6D2
:1050A000F8000CF065FED6F8B8302A460A2104F55F
:1050B0007E600FF08BF904F516600CF059FED6F8FF
:1050C000BC302A460A2104F6F4700FF07FF904F68A
:1050D000C8100CF04DFE3046D6F8C0302A460A21E2
:1050E00008300FF073F904F523600CF041FE3046F0
:1050F000D6F8C4302A460A211C300FF067F904F6AE
:1051000098200CF035FE04F58150D6F8C8302A46B8
:105110000A2110300FF05AF904F530600CF028FE27
:1051200004F58250D6F8CC302A460A2104300FF01C
:105130004DF904F668300CF01BFE04F58250D6F8E9
:10514000D0302A460A2118300FF040F904F53D60AE
:10515000BDE870400CF00CBEA062020800F584535C
:1051600000F5865110B51433044614310022C3E90A
:105170000022C3E9022210338B42F8D104F5805398
:105180002046C3F8D420012283F8DA20FFF7B8FEC6
:105190002046BDE81040FFF715BFFFF7DFBF000056
:1051A00010B5012380F88D3D00F58053044600F5CD
:1051B0008350D3F8D430074A0A210C300FF006F997
:1051C00004F55C600CF0D4FD04F66850BDE81040B6
:1051D0000CF0CEBDA062020800F58053022283F8D5
:1051E000DA20FFF7DDBF000038B500F58055044632
:1051F00095F8DA30012B26D1164B95F8D9201B787B
:10520000DBB29A4285F8D83013D093B1013B032B1F
:1052100005D8DFE803F0020F1215FFF79FFD2046C7
:10522000FFF76EFE2046FFF7CDFE95F8D83085F8E3
:10523000D93038BDFFF7C4FDF1E7FFF7F4FDEEE725
:10524000FFF726FEEBE7022BF3D1BDE83840FFF76E
:10525000A7BF00BFF1250020F02070474FF4A070D9
:1052600070472920FCF7AABD2820FCF7A7BD08B588
:10527000FCF778FDCA20FCF7A1FDC320FCF782FDF6
:105280000820FCF77FFD5020FCF77CFDCF20FCF7C9
:1052900095FD0020FCF776FDC120FCF773FD302062
:1052A000FCF770FDED20FCF789FD6420FCF76AFD3A
:1052B0000320FCF767FD1220FCF764FD8120FCF75A
:1052C00061FDE820FCF77AFD8520FCF75BFD0020FE
:1052D000FCF758FD7820FCF755FDCB20FCF76EFD60
:1052E0003920FCF74FFD2C20FCF74CFD0020FCF78B
:1052F00049FD3420FCF746FD0220FCF743FDF72072
:10530000FCF75CFD2020FCF73DFDEA20FCF756FD94
:105310000020FCF737FD0020FCF734FDB120FCF73E
:105320004DFD0020FCF72EFD1B20FCF72BFDB620C9
:10533000FCF744FD0A20FCF725FDA220FCF722FD26
:10534000C020FCF73BFD1020FCF71CFDC120FCF742
:1053500035FD1020FCF716FDC520FCF72FFD45207C
:10536000FCF710FD1520FCF70DFDC720FCF726FD0E
:105370009020FCF707FD3620FCF720FDC820FCF745
:1053800001FDF220FCF71AFD0020FCF7FBFCB02029
:10539000FCF714FDC220FCF7F5FCB620FCF70EFD6F
:1053A0000A20FCF7EFFCA720FCF7ECFC2720FCF719
:1053B000E9FC0420FCF7E6FC2A20FCF7FFFC0020B7
:1053C000FCF7E0FC0020FCF7DDFC0020FCF7DAFC39
:1053D000EF20FCF7D7FC2B20FCF7F0FC0020FCF7BB
:1053E000D1FC0020FCF7CEFC0120FCF7CBFC3F20D9
:1053F000FCF7C8FCF620FCF7E1FC0120FCF7C2FC3E
:105400000020FCF7BFFC0620FCF7BCFC2C20FCF7BE
:10541000D5FCC820FCF720FD2620FCF7CFFC01209E
:10542000FCF7B0FCE020FCF7C9FC0F20FCF7AAFC5D
:105430002920FCF7A7FC2420FCF7A4FC0C20FCF797
:10544000A1FC0E20FCF79EFC0920FCF79BFC4E20E3
:10545000FCF798FC7820FCF795FC3C20FCF792FCCC
:105460000920FCF78FFC1320FCF78CFC0520FCF7CF
:1054700089FC1720FCF786FC1120FCF783FC002038
:10548000FCF780FCE120FCF799FC0020FCF77AFC9B
:105490001620FCF777FC1B20FCF774FC0420FCF7BB
:1054A00071FC1120FCF76EFC0720FCF76BFC31202F
:1054B000FCF768FC3320FCF765FC4220FCF762FC3B
:1054C0000520FCF75FFC0C20FCF75CFC0A20FCF7D5
:1054D00059FC2820FCF756FC2F20FCF753FC0F202A
:1054E000FCF750FC1120FCF769FCC820FCF7B4FC69
:1054F0002920FCF763FCBDE808402C20FCF75EBCCB
:1055000008B5FCF72FFC0321D320FCF773FC80B215
:1055100008BD10B5C4B2022203212046FCF7D8FB17
:105520000A20FCF71DFC204600220321FCF7D0FBDB
:10553000BDE810400220FCF713BC38B50446E4B2C5
:10554000FCF7C4FB00212046FCF7DAFB01210546ED
:105550002046FCF7D5FB40EA052080B238BD10B5E7
:10556000C4B240212046FCF7CBFB030607D54C21F3
:105570002046FCF7C5FB003818BF012010BD0122F2
:105580004B212046FCF7A4FB204600224B21FCF7D0
:105590009FFB0020F2E773B50423C4B20E46154604
:1055A000D7210DEB03022046FCF7C4FB019B1BBA7D
:1055B0001A0DC3F30B23328020462B8001224B218E
:1055C000FCF786FB00224B212046FCF781FB02B052
:1055D00070BD000010B50A4A1378984204460DD0F9
:1055E000517888420AD00BB141B90123D454FCF759
:1055F0006DFB2046BDE81040FFF78BBF10BD00BF1C
:105600007829002010B5C4B209212046FCF778FBA8
:1056100040F00102D2B220460921BDE81040FCF75B
:1056200057BB10B5C4B209212046FCF769FB09211C
:1056300000F0FE022046BDE81040FCF749BB38B53B
:10564000C4B20D4620460A21FCF75AFB40EA050287
:10565000D2B220460A21BDE83840FCF739BB10B56C
:105660000446FCF734FB20461F21FFF7E8FF2046E5
:10567000BDE81040FFF7C6BF38B5C4B20D4620469E
:105680000A21FCF73DFB20EA0502D2B220460A219E
:10569000BDE83840FCF71CBB10B50446FFF7C1FF5E
:1056A00020461F21BDE81040FFF7E6BF10B5C0B28D
:1056B0000C460B21FCF724FB204010BD1F21FFF7F7
:1056C000F5BF0A46C0B20B21FCF702BB1F21FFF752
:1056D000F8BF38B5C4B20D4620461721FCF710FBC1
:1056E00020EA0502D2B220461721BDE83840FCF777
:1056F000EFBA70B5C4B2064604212046FCF700FBA1
:10570000042100F0FB0205462046FCF7E1FA304692
:10571000F021FFF7DEFF05F0F80220460421FCF738
:10572000D7FA492220212046FCF7D2FA0220FCF7C2
:1057300017FB204601222121FCF7CAFA20469A22B3
:105740004121FCF7C5FA204601224A21FCF7C0FAA4
:10575000204601224B21FCF7BBFA204600224B21B8
:10576000FCF7B6FA204601225621FCF7B1FA204692
:1057700001225821FCF7ACFA204601224021FCF717
:10578000A7FA2046FF220B21FCF7A2FABDE87040E1
:105790000220FCF7E5BA0000054BD3F8882042F45C
:1057A0007002C3F888204FF000629A60704700BF13
:1057B00000ED00E008B50B4B1A6842F400721A6065
:1057C0001A6842F480621A601A6842F480721A60A1
:1057D000032000F027FB0020FCF7EEFDFCF74AFB5E
:1057E000002008BD003C0240034A044B11681B78AE
:1057F0000B441360704700BF7C2900207C00002010
:10580000014B1868704700BF7C29002038B504465A
:10581000FFF7F6FF631C1CBF054B1B78054618BF3E
:10582000E418FFF7EDFF431BA342FAD338BD00BFD6
:105830007C00002038B50446002800F09B80056CF1
:1058400025B9FCF737FB656484F83C50236CDB0614
:1058500000F18E80236C23F4885323F0020343F07D
:1058600002032364444B5A6822F440325A605A6857
:1058700061680A435A60236821695A6822F4807279
:105880005A605A6842EA01225A605A68A16822F0B6
:1058900040725A605A680A435A609A68E16822F472
:1058A00000629A609A680A439A603449A26A8A42FE
:1058B00052D0996821F07061996099680A439A60A2
:1058C0009A68E16A22F040529A609A680A439A60A4
:1058D0009A6822F002029A609A68217E42EA4102A6
:1058E0009A6094F82020002A3ED05A68616A42F4F7
:1058F00000625A605A6822F460425A605A6801395C
:1059000042EA41325A60DA6AE16922F47002DA62EC
:10591000DA6A013942EA0152DA629A6822F40072C4
:105920009A609A6894F8301042EA41229A609A6824
:10593000616922F480629A609A68002042EA8122BA
:105940009A606064236C23F0030343F00103236433
:10595000002384F83C3038BD9A6822F070629A6067
:105960009A6822F04052B2E75A6822F40062C9E70E
:105970000120EDE70120EEE7002301400100000FC8
:1059800037B513460022019290F83C20012A0446C4
:1059900000F088800568012280F83C20AA68D007C2
:1059A00052D5AA68D20562D4AA68D00771D5206CF6
:1059B00020F4E06020F0010040F4807020646A6808
:1059C000520541BF206C20F4405040F480502064C8
:1059D000226CA06B12F480521CBF626C22F0060293
:1059E0006264002284F83C202F4AC2632F4A02647A
:1059F0002F4AC2646FF022022A606A6842F0806215
:105A00006A60AA6842F48072AA600A4605F14C01F5
:105A100000F0FEFA274A2849536813F01F0F236845
:105A200034D18B4207D001F580718B4224D152686A
:105A300012F01F0F23D19A6812F0405F1FD19A68AD
:105A400042F080429A601AE0AA6842F00102AA601D
:105A50001A4A10681A4AB0FBF2F000EB40000190BD
:105A6000019A002A9DD0019A013A0192F8E7AA68AA
:105A700022F48072AA6097E712498B4202D000207C
:105A800003B030BD526812F0100FD3E78B42F6D14D
:105A9000D1E7236C43F010032364636C43F00103EC
:105AA0006364ECE70220EBE77D5C00083D5B0008E7
:105AB000675C0008002301400020014078000020BE
:105AC00040420F000022014010B590F83C30012BFD
:105AD000044630D00268012380F83C30936823F0FC
