:020000040800F2
:10000000000003205D06000845240008472400087E
:10001000492400084B2400084D240008000000007B
:10002000000000000000000000000000F17C00085B
:100030004F24000800000000817D00080D760008B4
:10004000AD060008AD060008AD060008AD060008C4
:10005000AD060008AD060008AD060008AD060008B4
:10006000AD060008AD060008AD060008AD060008A4
:10007000AD060008AD060008AD060008AD06000894
:10008000AD060008AD06000851240008AD060008C2
:10009000AD060008AD060008AD060008AD06000874
:1000A000AD060008AD060008AD060008AD06000864
:1000B000AD060008AD060008AD060008AD06000854
:1000C000AD060008AD060008AD060008AD06000844
:1000D000AD060008AD060008AD060008AD06000834
:1000E000AD060008AD060008AD060008AD06000824
:1000F000AD060008AD060008AD060008AD06000814
:10010000AD060008AD060008AD060008AD06000803
:10011000AD060008AD0600085D240008AD06000825
:1001200069240008AD060008AD060008AD06000809
:10013000AD060008AD060008AD060008AD060008D3
:10014000AD060008AD060008AD060008AD060008C3
:10015000AD060008AD060008AD060008AD060008B3
:10016000AD060008AD060008AD060008AD060008A3
:10017000AD060008AD060008AD060008000000004E
:10018000AD060008AD060008AD060008AD06000883
:10019000AD060008AD060008AD060008AD06000873
:0C01A00075240008AD060008812400084A
:1001B00010B5054C237833B9044B13B10448AFF3A1
:1001C00000800123237010BD800300200000000088
:1001D000083E020808B5034B1BB103490348AFF3BF
:1001E000008008BD0000000084030020083E0208D3
:1001F00001F0FF01102A2BDB10F0070F08D010F8D8
:10020000013B013A8B422DD010F0070F42B3F6D1DB
:10021000F0B441EA012141EA014122F007047FF0F4
:1002200000070023F0E80256083C85EA010586EA4B
:10023000010685FA47F5A3FA87F586FA47F6A5FA87
:1002400087F68EB9EED1F0BC01F0FF0102F0070293
:1002500032B110F8013B013A83EA010313B1F8D13E
:100260000020704701387047002D06BF354603381F
:10027000073815F0010F07D1013015F4807F02BF58
:10028000013015F4C03F0130F0BC0138704700BFA9
:100290007BB972B90029BEBF00204FF0004106E0D3
:1002A00008BF00281CBF6FF000414FF0FF3000F086
:1002B000D3B9ADF1080C6DE904CE002909DB002BA0
:1002C0001ADB00F04DF8DDF804E0DDE9022304B0AC
:1002D0007047404261EB4101002B1BDB00F040F80E
:1002E000DDF804E0DDE9022304B0404261EB4101A6
:1002F000524263EB43037047524263EB430300F007
:100300002FF8DDF804E0DDE9022304B0404261EBA0
:1003100041017047524263EB430300F021F8DDF8DE
:1003200004E0DDE9022304B0524263EB430370476B
:1003300053B94AB9002908BF00281CBF4FF0FF314C
:100340004FF0FF3000F088B9ADF1080C6DE904CE34
:1003500000F006F8DDF804E0DDE9022304B07047A0
:100360002DE9F047089D8E4604468846002B4AD169
:100370008A42174662D9B2FA82F64EB1C6F120031C
:1003800001FA06F820FA03F3B74043EA0808B4403C
:100390004FEA174E1FFA87FCB8FBFEF1230C0EFB49
:1003A000118843EA084301FB0CF29A4209D9FB1871
:1003B00001F1FF3080F0EA809A4240F2E780023992
:1003C0003B449A1AA3B2B2FBFEF00EFB102243EAA2
:1003D000024300FB0CFC9C4509D9FB1800F1FF32DD
:1003E00080F0D6809C4540F2D3803B44023840EAFE
:1003F0000140A3EB0C0300211DB1F3400022C5E92D
:100400000032BDE8F0878B4205D90DB1C5E9000186
:1004100000210846F5E7B3FA83F1002946D1734578
:1004200002D3824200F20581841A6EEB030201209E
:100430009046002DE5D0C5E90048E2E7002A00F02B
:100440009080B2FA82F6002E40F0A4808A1A030C43
:100450004FEA174E80B2BCB20121B2FBFEFC0EFB8C
:100460001C2243EA024304FB0CF29A4207D9FB1810
:100470000CF1FF3802D29A4200F2E080C4469B1A87
:10048000B3FBFEF20EFB123340EA034302FB04F41B
:100490009C4207D9FB1802F1FF3002D29C4200F2C5
:1004A000CA8002461B1B42EA0C40A5E7C1F12006A8
:1004B0008B4022FA06F71F430EFA01F420FA06F3E6
:1004C0002EFA06FE4FEA1749234300FA01F81FFAF5
:1004D00087FCBEFBF9F01C0C09FB10EE44EA0E444D
:1004E00000FB0CFEA64502FA01F209D93C1900F105
:1004F000FF3A80F09C80A64540F2998002383C4447
:10050000A4EB0E041FFA83FEB4FBF9F309FB1344BA
:100510004EEA044403FB0CFCA44508D93C1903F142
:10052000FF3E80F08280A4457FD9023B3C4443EAF1
:100530000040A4EB0C04A0FB02EC64457346E146CA
:1005400062D35FD05DB1B8EB030264EB090404FA37
:1005500006F622FA01F31E43CC40C5E900640021EF
:100560004FE7B1FBF2FC010C41EA0E4180B240EAD8
:1005700001423B4638463C46B846BE462026B1FBC3
:10058000F7F1A2EB080241EA0C4166E7014618E7E1
:1005900010462CE7C6F120022EFA02F3B740B14014
:1005A00020FA02F24FEA174E0A43B3FBFEF8BCB240
:1005B0000EFB1833110C41EA034108FB04F9B0406B
:1005C00089454FEA104380B23ED9791808F1FF3CC3
:1005D00001D289451FD8A1EB0901B1FBFEF909FB46
:1005E00004F80EFB191192B242EA0142424529D2A7
:1005F000BA1809F1FF31C4D24245C2D2A9F10201B1
:100600003A44BEE7F0459DD2BEEB02036CEB070C0B
:100610000138E14696E7A7EB09094944A8F1020C25
:10062000B1FBFEF909FB04F8DBE773467FE75046B0
:1006300066E70846FDE63B44023A33E7ACF1020CBC
:100640003B441CE749469CE7A1EB0901C446B1FBCA
:10065000FEF909FB04F8C4E7704700BFDFF834D0A7
:10066000002103E00C4B5B58435004310B480C4B0A
:1006700042189A42F6D30B4A02E0002342F8043BA8
:10068000094B9A42F9D304F081F822F04FFE01F0B1
:1006900073F87047000003207C420E080000002021
:1006A0006801002080030020483F0120FEE77047DA
:1006B00008B500F0BBFDBDE8084000F03FBD00F00C
:1006C000B7BD704710B50421044621F0E5FB204674
:1006D00010BD000038B50C4B0C4C18800C4B822020
:1006E00019806368984740F6110398420AD1094D72
:1006F00023682C60822098472B688220DB6898470B
:10070000002038BD0120FCE7A60300205000002097
:10071000A4030020A80300204FF4A071F020FFF7ED
:10072000D9BF0000F7B5394D2B6804461B698220FC
:100730009847208000284ED02B680DF106025B6997
:1007400001A982209847324B1B78002B4BD0BDF873
:10075000062040F674639A423FD9ADF80630BDF8E2
:1007600006209B1A9BB20A2B42D90B22B3FBF2F351
:10077000284A1288934201D9013A93B2BDF8042065
:10078000254840F6B8318A4234D8C2F571620E323B
:10079000016892B20F25B2FBF5F2204D2D88AA42D6
:1007A00084BF05F1FF35AAB28A4215468EB22AD916
:1007B000921B91B21A4E3768BB42BAB28CBF9A1ADA
:1007C000D21A92B211440529C4BF05603360036890
:1007D00063803368A38003B0F0BDB32A9CBFB4220A
:1007E000ADF80620BBE7BDF80630A3F5B473B9E752
:1007F0000023C3E7C2F56D62083292B20E2A016887
:10080000C8D800252A46891A89B2D3E7A803002050
:1008100088200020A4030020A0030020A6030020BD
:100820009C03002037B568460D461446FFF77AFF53
:10083000BDF8000030B1BDF802302B60BDF80430C7
:100840002360012003B030BD032821D8DFE800F089
:10085000020B12190F4B1A68B2FA82F252090421E4
:100860000D4804F0E9BE0B4B5A68B2FA82F2520905
:100870000821F5E7074B9A68B2FA82F25209102173
:10088000EEE7044BDA68B2FA82F252092021E7E778
:10089000704700BFAC03002000100240032821D89D
:1008A000DFE800F0020B12190F4B1A68003A18BF6C
:1008B000012204210D4804F0BFBE0B4B5A68003AD8
:1008C00018BF01220821F5E7074B9A68003A18BFC4
:1008D00001221021EEE7044BDA68003A18BF01222A
:1008E0002021E7E7704700BFAC0300200010024062
:1008F00003280DD8DFE800F00206080A04210548A5
:1009000004F09FBE0821FAE71021F8E72021F6E75E
:10091000704700BF0010024008B5032811D8DFE877
:1009200000F0020A0C0E0421074804F07FFE431E6B
:100930005842584108BD0821F6E71021F4E720216C
:10094000F2E70020F3E700BF0010024070B5084D49
:1009500000240126E0B2FFF7DFFF18B12B68012B5E
:1009600018BF2E600134052C05F10405F2D170BDCD
:10097000AC030020012380F8781080F879307047AC
:100980007047002070470000034B4164003918BFD6
:1009900001211970704700BF073201207047002005
:1009A0007047836B0BB10846184770474FF6FF70CE
:1009B0007047406803689B691847704770477047E5
:1009C0007047704710B5044600F048FD236803499E
:1009D000D3F890302046BDE810401847000000D002
:1009E00008B503680446D3F8843098472368204646
:1009F000DB6F984700F0ECF8236820465B6F984760
:100A0000292001F0D1F900F0E3F8236820465B6F5C
:100A10009847F8E710B5044609F084FF236820469C
:100A2000D3F8BC30BDE81040184700F0FBBC00F024
:100A3000FFBC00F031BD00F0D1BC00F041BD00F0C2
:100A400049BD00F0D5BC09F09BB910B5842104461E
:100A500021F022FA204610BD10B590F8341090F81D
:100A600078400C4B8C421A7809D03AB90A4A0B49A3
:100A70001488088810800C8001221A7010BD002A8A
:100A8000FCD0054A05491488088810800C80002293
:100A9000F3E700BF00320120FC310120FE310120CC
:100AA00070B50D46194635B9094B0A4A0A4840F255
:100AB000FF2122F02DF9C0E90F52084B003A18BF70
:100AC00001221A700368BDE87040D3F890301847CF
:100AD000783E0208B03E0208FE3E020806320120BF
:100AE00008B5094B1B888B4203D8084B1B889342DF
:100AF00005D9074B074A0848A32122F009F9074BFB
:100B00001980074B1A8008BDFC310120FE310120FD
:100B1000433F0208A63F0208FE3E020802320120BF
:100B200004320120034690F87A0018B1586803682F
:100B30001B68184770470000012108B500220846CD
:100B400006F0EEFD0A4B186028B90A4B0A4A282124
:100B50000A4822F0DDF800220421012006F07FFE81
:100B6000074B186018B9074B034A2C21F0E708BD62
:100B7000C0030020E93F0208324002086140020839
:100B8000BC030020A9400208024B4FF0FF31186857
:100B900006F010BEC0030020014B186806F036BEF8
:100BA000C0030020024B0021186806F003BE00BFFE
:100BB000C0030020FFF7F0BF03480449006800238A
:100BC0001A4606F087BE00BFBC03002004000020C8
:100BD00013B5084C00231A4601A9206806F0ABFEA5
:100BE00020684FF0FF33002201A906F0A4FE02B0F6
:100BF00010BD00BFBC03002003685B6C18470120D8
:100C0000704703689B6A1847FEE740F2EF30704771
:100C1000054B0360054B4FF08062C3F88820BFF39B
:100C20004F8FBFF36F8F7047684B020800E100E001
:100C300010B504464FF45A61FFF7EAFF204621F051
:100C40002BF9204610BD000082B0002301930E4B0B
:100C50001A6B42F400021A631A6B02F4000201924A
:100C6000019A1A6942F400021A611A6922F4000218
:100C70001A61064B064A1A61064A5A61064B4FF042
:100C800080629A6002B07047003802401C22002047
:100C9000E90E0008090C000800E100E008B50A2888
:100CA00009D8DFE800F006100E0808080810101038
:100CB0001000022008BD054B054A0648902122F08D
:100CC00027F80020F6E70120F4E700BFEB40020818
:100CD000064102085141020838B50C46887FFFF7EB
:100CE000DDFFA58AE28A164B2169586342EA054274
:100CF0005A64628BD963521B1A642568082D0ED181
:100D00009A611A615862207F0E4A42EA0062DA61F3
:100D1000E2681A620C4A5961D9601A6038BD002233
:100D2000D8611A61E1680A0A480902F4784200F4BD
:100D3000FC600243C1F3C4010A439A63034AECE72F
:100D400000B002400900010001230200012303005A
:100D500008B50B280BD8DFE800F00612100A0A0AC3
:100D60000A0808080808022008BD0520FCE7054B12
:100D7000054A06486F2121F0CBFF0020F4E701204F
:100D8000F2E700BFEB400208974102085141020818
:100D90002DE9F04191F81D800C464046FFF7D8FF41
:100DA000A77F05463846FFF7D3FF06463846FFF7CC
:100DB00075FFA18A628B444B521A1A649A61228B86
:100DC000521A1A61E28A586342EA01425A6421695E
:100DD0006268D963DA602068802828D0227F0FD823
:100DE000202867D0402865D004281AD0364B45EA21
:100DF000026545F40035B845DD6161D0334A44E011
:100E0000B0F5807F04D0B0F5007FEFD1304800E02E
:100E1000304840EA0262DA61E2681A625E62596151
:100E200032E045EA026242F40032DA61F6E7A06895
:100E3000021DDA62227F45EA026545F40035DD6174
:100E40005E625961017841B1012921D0224B234AC8
:100E500023484FF48D7121F05BFFDA69418822F459
:100E60007F42013922F0100242EA0122DA610121B7
:100E7000154BDA6942F02002DA61DA699206FCD495
:100E800010229A600029B9D0164A1A60BDE8F08194
:100E9000B2F1FF01DA69408822F47F4200F1FF30AD
:100EA00022F0100242EA002242F0100218BF012193
:100EB000DA61DDE745EA0262034B42F40032B4E74F
:100EC00042F20132E1E700BF00B00240012301001D
:100ED000090002000A000200E1410208FB41020889
:100EE0005141020801230200024B1B685868036845
:100EF0005B6918470832012070B5044625460A4B45
:100F00000C30002660602672667245F8203B602235
:100F1000294609F05DFE04F55A63EE6024359D42D2
:100F2000FBD1204670BD00BF684B0208034B1A6816
:100F3000D207FCD423229A60704700BF00B0024061
:100F40007047000030B50F4C2568ED07FCD4232511
:100F50000904A56041F001010225FF2B656361646E
:100F6000E0630AD00849656241EA0363E361074B25
:100F700022626061E060236030BDE561039BA36392
:100F8000034BF8E700B00240090001000100020035
:100F90000100030030B50E4C2568ED07FCD4232575
:100FA0001204A56042F001020225FF2B6563626412
:100FB000E063E16008D01B0643F00213E361054BD8
:100FC00065626061236030BD034BE3610123F9E793
:100FD00000B0024001000200020002FF30B50B4CDD
:100FE0002568ED07FCD4232512041B06A56043F4F5
:100FF0000033022542F0010265636264E063E16050
:10100000E361034B65626061236030BD00B0024064
:1010100001000200012070470C2070470C2303FBE5
:101020000100083070470C2303FB010008307047B3
:101030000120704740F67430704740F6743303FB6C
:1010400001000830704740F6743303FB010008309C
:101050007047012070471020704700EB01100830E6
:10106000704700EB011008307047084601F0ACBC37
:1010700010B5034B0360044608F0D7FB204610BDB3
:10108000204C020810B50446FFF7F2FF2046142159
:1010900020F002FF204610BD10B5034B036004464C
:1010A00008F0C3FB204610BDEC4B020810B5044607
:1010B000FFF7F2FF204640F67C3120F0EDFE20469F
:1010C00010BD000010B5034B0360044608F0ADFBF3
:1010D000204610BDB84B020810B50446FFF7F2FFDA
:1010E0002046182120F0D8FE204610BD10B5084B30
:1010F0000360044600F6A830FFF7BAFF04F12C00A5
:10110000FFF7CAFF04F11400FFF7DCFF204610BD13
:10111000544C020808B50248FFF7E8FF08BD00BFBD
:101120009C12002010B50446FFF7E0FF204640F671
:101130001C5120F0B1FE204610BD00002DE9F34106
:1011400001F012FA054601F013FA00240146234685
:1011500028462246009411F0EDFD274B274A1A60DD
:10116000204601F0E3FD264D264B274A27489A608A
:1011700011F048FD2B68BFF35B8FDB0735D42846A1
:1011800020F08CFE88B3224C224B236004F53C6691
:1011900004F1140004F12C0804F6A8376060C4F8C8
:1011A0000880E760266108F041FB1B4B6361404605
:1011B00008F03CFB194BE362384608F037FB184B4C
:1011C000C4F8A83B04F6BC3002F0C4FF224604F683
:1011D000BC31304602F0B4FF304601F0F5FB114857
:1011E00021F0B4FD284620F065FE0F4802B0BDE8AE
:1011F000F041FFF7E7BB00BF6C320120480400203C
:1012000098120020680400204C04002008000020F0
:101210009C120020544C0208B84B0208EC4B020808
:10122000204C020815110008C4030020704700007C
:101230000148FFF7D5BB00BFC403002070B5264EA0
:10124000264C274D274B23603046FFF755FE284696
:1012500016F076FE24480FF0F9FD244B2448DC609C
:1012600000224FF48071C3E9121222491A86C3E9A1
:101270001A12214983F85820C3E91E011F49C3F8F7
:1012800080101F491F480B60F021C3E90422C3E905
:101290000622C3E90822C3E90A22C3E90E22C3E9F0
:1012A0001022C3E91422C3E917225A6683F870207A
:1012B0005A67C3E9016501801348018013484FF460
:1012C000A07101801248018012490A70012283F83E
:1012D0003420114A1A6070BDF404002094120020DA
:1012E00068040020683E02084C040020C40300206B
:1012F0000000010101000001000450001A00140068
:1013000008320120FC31012002320120FE3101208F
:1013100004320120003201207C4A02080148FFF714
:1013200077BC00BFF4040020002070478180704724
:10133000C180704701817047418170477047704795
:1013400070477047704710B4C4880368121B8488C4
:101350005B6D091B12B25DF8044B09B218474FF6DA
:10136000FF7383814FF0FF3303621368C361106022
:101370007047002070478B8883800120704770473A
:1013800080F82610704790F82600704710B50022AC
:10139000B1F90840B1F90A10028042808480C1800E
:1013A00010BD0022028042808280C2807047017797
:1013B000704780ED080A704780F82410704780F865
:1013C0002510704701207047983070478C30704767
:1013D000843070477047704770470000034B90227D
:1013E00083F85A2383F85823704700BF00E100E0D8
:1013F000094A0A49D3680A48C3F30A03013B9BB26E
:101400000B801169C1F30A01013901801364536B28
:1014100043F001035363704700680140BA1F002086
:10142000B81F0020014BD3F8AC00704700680140A2
:10143000024B0122C3F8AC105A62704700680140A9
:1014400010B52C21044620F027FD204610BD10B514
:10145000BC21044620F020FD204610BD70B5044696
:1014600008F0E3FC23689D6E0EF088FA01462046E2
:10147000A8472368054AD3F88C502046AC46002381
:10148000BDE87040A2F51631604700BF00B004D03F
:1014900008F0B2BC08F0BCBC08F078BC08F0E7BDAE
:1014A00090F8252012B103685B691847704790F8DF
:1014B00025201AB190F8242002B11860704700006E
:1014C000034B4FF080629A604FF080729A607047D1
:1014D00000E100E0084B4FF08062C3F88820BFF3C2
:1014E0004F8FBFF36F8F4FF08072C3F88820BFF328
:1014F0004F8FBFF36F8F704700E100E070B500239E
:10150000124E8380124B0360336893F858200546CF
:101510000AB1D86C00B998680368DB6A98473368E9
:10152000B0FA80F4D86C640930B10368DB6A98477C
:10153000002808BF44F001042CB9064B064A0748AE
:101540002C2121F0E5FB284670BD00BF08320120A8
:10155000684C02083942020897420208D042020849
:1015600070B5254E3568BFF35B8F15F0010540D18E
:10157000304620F093FC00283BD0204C204B2561C6
:1015800004F13400C4E90035C4E90255E584A562DC
:10159000A5850FF040FF04F158000AF0CDFF194B6C
:1015A000A3652046184B40F8843BFFF7A7FF174B75
:1015B000C4F884302433C4F88C304FF4C803C4E931
:1015C00028350023C4F8AC30C4F8B030C4F8B430C7
:1015D000C4F8B8300E480F4BC4F89050C4F89C5073
:1015E000C4F8A850C4F8983021F0B0FB304620F081
:1015F00061FC024870BD00BFBC1F0020C01F00205E
:10160000C4530208884C0208004D020878530208AF
:10161000D91300085853020838B5184C23685BB337
:10162000174B184A1B6C11888B4216D1164B198820
:1016300004F00AFE236893F86A200025013283F83B
:101640006A2083F87C50FFF7B7FA206809F06AF93E
:101650002846BDE83840FFF7F7B804F0F5FD2468E8
:10166000236820461B6A9847012384F87C300020B9
:10167000BDE83840FFF712B938BD00BF083201207D
:1016800000680140BA1F0020B81F002007B5064BB4
:10169000ADF806001B68054801220DF1060105F0B2
:1016A00073FB03B05DF804FB10000020C82000208D
:1016B00008B5084D084C02222946204603F05AF985
:1016C000642006F021F8204603F0F8F9142006F013
:1016D0001BF8F0E77C200020C422002030B595B034
:1016E000102200210AA821F01AFD1422002103A8CB
:1016F00021F015FD00241E4B01941A6C42F080521B
:101700001A641B6C03F080530193019B194B0294E4
:101710001A6842F440421A601B6803F44043029383
:101720000122029B4FF48033CDE9082302254FF4B8
:1017300080030821CDE90E534FF4B473CDE91013A3
:1017400008A804231393129504F0D6FD04F09AFD23
:101750000F23CDE903354FF4A0504FF48053CDE96A
:101760000603052103A8059404F0A2FF15B030BDBF
:1017700000380240007000402DE980489DB00024F0
:10178000C74D03F011F8FFF7A9FF142200210FA89D
:1017900021F0C5FC02942B6BC24843F010032B636D
:1017A0002B6B03F010030293029B03942B6B43F00B
:1017B00020032B632B6B03F020030393039B049400
:1017C0002B6B43F080032B632B6B03F0800304939C
:1017D000049B05942B6B43F004032B632B6B03F0EA
:1017E00004030593059B06942B6B43F001032B63C5
:1017F0002B6B03F001030693069B07942B6B43F0BE
:1018000002032B632B6B03F002030793079B0894DF
:101810002B6B43F040032B632B6B03F040030893C7
:10182000089B09942B6B43F008032B632B6B03F08D
:101830000803224609933C21099B03F0FDFE9A48C8
:101840000122022103F0F8FE22469748042103F00A
:10185000F3FE224695484FF4405103F0EDFE224638
:1018600093484FF4C04103F0E7FE01263C23CDE945
:101870000F368C48119403230FA90227129303F00B
:10188000F1FD89480FA9CDE90F76CDE9114403F0A8
:10189000E9FD042384480FA9CDE90F36CDE91147AE
:1018A00003F0E0FD4FF4405380480FA9CDE90F3617
:1018B000CDE9114703F0D6FD4FF4C0437C480FA992
:1018C000CDE90F36CDE9114403F0CCFD01942B6B2B
:1018D00043F480032B632B6B764D03F48003224685
:1018E000052101933820019B03F0A8FA382003F06A
:1018F000D7FA7148714B036003F0E0FADFF8DCC1FE
:101900006F4B2C62C5E900C328464FF48043C5E9FC
:101910000434C5E90244C5E9064404F09BF81021EB
:10192000284604F0DFFA2146284604F0FAFA654D0D
:10193000DFF8ACE1AC624FF48273C5E900E34FF429
:1019400000781823C5E9068328460A23C5E902441E
:10195000C5E90444C5E90844EB6205F0B9F98F23F1
:101960002246394650488DF82C308DF83C4003F023
:1019700063FE32464FF47A730BA9284605F004FA49
:101980004FF47A7332460FA9284605F0A9FB324678
:10199000394645484C4D03F04FFE9DF83C30D32B63
:1019A00004BF4A4B1E704A4B0126C5E900364FF072
:1019B000100A40230024C5E904A34FF4C073C5E90D
:1019C00006344FF40063C5E908344FF4005302278E
:1019D0004FF00409AB624FF0030B07230FA9284611
:1019E000CDE90F73CDE911934FF00808C5E902491D
:1019F000CDE913B7159705F04FF84FF6FF720BA915
:101A00002846CDE90C860A940B960E9405F064F8EE
:101A1000304602F0F5FE4FF6FF720BA92846CDE9DD
:101A20000B78CDE90D6405F057F84FF6FF720BA95E
:101A30002846CDE90BB8CDE90D9405F04DF84FF4EB
:101A40000C730A930A9B0E934FF6FF720BA928465C
:101A5000CDE90B980D9605F03FF840F26A51284603
:101A600005F058F8342221460FA821F058FB194DF3
:101A7000194B2C61C5E900340923C5E905361D233E
:101A8000C5E9073B40F20D1240F24313C5E90923B3
:101A900040F2171140F247132846C5E90B1321E025
:101AA000003802400010024000080240000C0240D2
:101AB00000180240C82100205C22002000300240B3
:101AC000A0860100C820002094200020882000204B
:101AD000400100A02021002000680140005C00407F
:101AE00000500140C5E90244AC8685F8364004F058
:101AF000B3FAFF21F022CDE914144FF005084FF49A
:101B000080614FF4A073CDE91024CDE91618CDE91A
:101B100018420FA922462846CDE91237304D1A93B4
:101B20000F94ADF86C408DF86E4004F060FB2D4BC7
:101B30002B601B6898472B682B4DDB6898472B4B15
:101B40002846C5E90034C5E90274C5E90A47C5E974
:101B50000C4403F08DFB3146284603F03FFC52460F
:101B600021460FA821F0DBFA214D2248AC604FF44A
:101B70008033C5E90003204BAB6228462E612C76EA
:101B800085F82040EC62EC60EF6185F830606E61B2
:101B900002F04AFE0D230FA92846CDE90F36119415
:101BA00003F09CF80FA92846CDE90F8703F096F8BB
:101BB000FEF77EFDFEF77BFD05F036FD0F4A10486F
:101BC000214605F05DFD0F4B0F4A186021460F4876
:101BD00005F056FD0E4B186005F038FDFEE700BF1E
:101BE00084200020180000201C22002000B00240A9
:101BF000C4220020002001400100000F684D0208AF
:101C0000B116000890200020444D0208BF060008CD
:101C10008C20002038B50268204B9A422ED12049F2
:101C2000204B214A1B880C8810881919884217DC20
:101C30001B1B984216DB5288914215DB9342D4BF9E
:101C4000002301239B00194C194D22782B709A42D6
:101C500014D0013B032B18D8DFE803F008111D1343
:101C60000123F0E70223EEE70323ECE701224FF420
:101C70000051104803F0E0FC2B78237038BD00229F
:101C8000F5E700224FF48041F3E70A4801224FF4C0
:101C9000005103F0D1FC0122F4E700BF0020014015
:101CA0000C0000200E0000207C200020802000205E
:101CB0008120002000180240704770477FB5094B13
:101CC0008DF817201B6802930DF117020123009273
:101CD00001930A460146044803F064FF07B05DF82B
:101CE00004FB00BF14000020C82100207FB50023A2
:101CF0008DF81730084B1B6802930A4601230DF13B
:101D00001701009101930146044803F0DBFF9DF8A1
:101D1000170007B05DF804FB14000020C821002064
:101D20001FB5084C24680092CDE901340A4601230E
:101D30000146054803F0C6FF003818BF012004B073
:101D400010BD00BF14000020C821002002F058BDC3
:101D500010B5064C00222046042103F06DFC2046FD
:101D60000122BDE81040042103F066BC00080240D7
:101D700038B50B4D044601220A484FF4005103F0D8
:101D80005BFC00220421284603F056FC2046FFF7A6
:101D90007DFC28460122BDE83840042103F04CBCFC
:101DA00000080240000C024038B50B4D04460022EA
:101DB0000A484FF4005103F03FFC0022042128465A
:101DC00003F03AFC2046FFF761FC28460122BDE8FB
:101DD0003840042103F030BC00080240000C0240EF
:101DE000F7B5144E144F05460C4630460022042128
:101DF00003F022FC00224FF40051384603F01CFC93
:101E00002846FFF743FC0D4B0D481B68224601A9ED
:101E100005F066F9384601224FF40051019C03F0A9
:101E20000BFC30460122042103F006FC204603B0DF
:101E3000F0BD00BF00080240000C0240100000206E
:101E4000C820002002F0DCBC0268034B9A4201D19A
:101E500002F0C4BC704700BF001000407047000093
:101E600082B00E4B00220092596C41F480415964BB
:101E7000596C01F48041009100990192196C41F074
:101E8000805119641B6C03F080530193019B0F2157
:101E90006FF0010002B002F0D1BF00BF0038024075
:101EA00070B5064688B01422002103A821F037F946
:101EB00032682D4B9A4254D103F58C33002500959E
:101EC0005A6C2A4842F480725A645A6C02F4807246
:101ED0000092009A01951A6B42F004021A631A6B81
:101EE00002F004020192019A02951A6B42F001027B
:101EF0001A631B6B03F0010302930324029B03A9E3
:101F00000823CDE9033403F0ADFA202318480595E2
:101F100003A9CDE9033403F0A5FA164C164B4FF490
:101F20008062C4E900354FF40063C4E904234FF430
:101F300000514FF480732046C4E90255C4E90613EA
:101F4000C4E9085502F0E0FF08B1FFF787FFB4636A
:101F5000122000220521A66302F070FF122002F079
:101F60009FFF08B070BD00BF002001400008024084
:101F70000000024064220020106402400268094B05
:101F80009A4282B00BD100230193074B1A6B42F4A3
:101F900080521A631B6B03F480530193019B02B0C0
:101FA000704700BF003002400038024007B50F4BB9
:101FB00002689A4216D10022A3F5F0430192196BF0
:101FC00041F4000119631B6B03F400030193052125
:101FD0005A20019B02F032FF5A2003B05DF804EB57
:101FE00002F05EBF03B05DF804FB00BF00B002402A
:101FF0002DE9F043044689B01422002103A821F002
:102000008EF82268244B9A4243D1244C2448002560
:102010000095236B43F004032363236B03F0040355
:102020000093009B0195236B43F001032363236B13
:1020300003F001030193019B4FF012094FF4007369
:102040004FF001080327042603A9CDE90339CDE9A0
:102050000587079603F006FA4FF480731148079638
:1020600003A9CDE90339CDE9058703F0FBF9029512
:10207000236C43F400032364236C03F400030293F2
:10208000029B236A43F400032362236A23F40003C0
:10209000236209B0BDE8F083005C004000380240D4
:1020A0000008024000000240F0B599B00446142236
:1020B000002107A821F033F830220DEB02000021A7
:1020C00021F02DF822685E4B9A4240F0B780082339
:1020D0000C93C0231093042312930CA84FF40033E5
:1020E000159304F0ADFB08B1FFF7B8FE554B564809
:1020F000002400945A6C42F080625A645A6C02F0D8
:1021000080620092009A01941A6B42F020021A63D6
:102110001A6B02F020020192019A02941A6B42F0AB
:1021200001021A631A6B02F001020292029A0394EE
:102130001A6B42F002021A631A6B02F00202039257
:10214000039A04941A6B42F040021A631A6B02F06D
:1021500040020492049A05941A6B42F004021A6336
:102160001A6B02F004020592059A06941A6B42F06B
:1021700008021A631B6B03F00803069302250E2660
:10218000069B0B964FF4806307A9CDE90735CDE98F
:10219000094503F067F941F658032C480B9607A947
:1021A000CDE907350927CDE9094503F05BF903239C
:1021B00027480B9707A9CDE90735CDE9094503F075
:1021C00051F94FF4706322480B9607A9CDE9073502
:1021D000CDE9094503F046F94FF40C631D480B9611
:1021E00007A9CDE90735CDE9094503F03BF9C0233F
:1021F00019480B9607A9CDE90735CDE9094503F044
:1022000031F9082315480B9607A9CDE90735CDE923
:10221000094503F027F94FF4A0530E480B9707A97F
:10222000CDE90735CDE9094503F01CF958202246D0
:10223000052102F003FE582002F032FE19B0F0BD75
:1022400000680140003802400014024000000240D3
:10225000000402400018024000080240000C024046
:1022600010B5044688B01422002103A820F057FFBF
:102270002268144B9A4223D103F56843002101914F
:102280005A6C114842F480125A645A6C02F480125B
:102290000192019A02911A6B42F020021A631B6BA1
:1022A00003F020030293029B4FF460720223032188
:1022B000CDE903230523CDE9061303A903F0D2F8E2
:1022C00008B010BD00500140001402402DE9F0415B
:1022D00086B0002303932B4B1C68002C4FD14FF08A
:1022E0000108C3F80080284B00949A6B274842EA03
:1022F00008029A639B6B03EA0803009302270326F4
:102300000C25009B01A94FF63F03CDE90137CDE92C
:10231000046503F0A7F81E48059501A9CDE90187DA
:10232000CDE9034603F09EF848F2331319480595AA
:1023300001A9CDE90137CDE9034603F093F84FF643
:1023400083731548059501A9CDE90137CDE9034609
:1023500003F088F84CF203731048059501A9CDE904
:102360000137CDE9034603F07DF860230C4805955D
:1023700001A9CDE90137CDE9034603F073F806B0B2
:10238000BDE8F0810C230020003802400014024018
:10239000000802400018024000100240000C0240F9
:1023A0000004024070B588B000230293204B1A6CE1
:1023B00042F010021A641B6C03F0100302930546EE
:1023C00001A903A8029B04F01DFA069B4BBB04F075
:1023D00009FA184E184B336040F2E733F360174B9D
:1023E000B0FBF3F3013B7360304600233361B3600D
:1023F000B36105F045F8044680B9304604F016FF95
:10240000044658B9362002F04BFD0F2D0DD8224658
:102410002946362002F012FD094B1D60204608B007
:1024200070BD04F0DFF94000D3E70124F6E700BFF8
:1024300000380240102300200010004040420F00EE
:10244000800000207047FEE7FEE7FEE7FEE77047EA
:10245000014802F074BB00BFC4220020014804F010
:1024600023BF00BF10230020014802F043BE00BF7D
:1024700064220020014803F05DBE00BF202100203F
:10248000014802F021BF00BF1C220020012070473C
:1024900008B520F045FF162303604FF0FF3008BD5C
:1024A00008B520F03DFF16230360FEE770B50D462A
:1024B00014460E46731B9C4201DC204670BDAFF3F0
:1024C000008006F8010BF5E770B50D4614460E4680
:1024D000731B9C4201DC204670BD16F8010BAFF364
:1024E0000080F5E74FF0FF3070474FF400534B602A
:1024F0000020704701207047002070470A4A116889
:1025000008B5034609B909491160106869460344D2
:102510008B4206D920F004FF0C2303604FF0FF30FC
:1025200008BD1360FCE700BF58230020483F01208E
:10253000704710B5042104461FF0AEFC204610BDC4
:10254000012908B506D0022908D059B900F03AFC93
:10255000006808BD00F036FC4068FAE700F032FC85
:102560008068F6E70020F4E700487047A04D0208B5
:102570000C20704713B5002451B1036801948DF805
:10258000034001AA9C680DF10303A04702B010BDEF
:102590000846FBE7C0897047008A7047C0887047CB
:1025A00080887047807A00F07F007047807AC00989
:1025B00070470020704700009FED010A704700BF80
:1025C00000000000704710B5082104461FF064FCAD
:1025D000204610BD7047704700F598730868496839
:1025E00003C370477047704741607047704770473A
:1025F000064BC0F84C310023C0F8503100F5A273EF
:10260000C0F84801C0F84031704700BFFD270008FE
:10261000012303727047704710B4C26841685410B8
:10262000034601EB6200D20748BF0A599B685DF878
:10263000044B48BFD35818470346406830B19A68E6
:102640001AB9D86800F0010070470120704710B532
:102650000C2104461FF020FC204610BD10B51021AF
:1026600004461FF019FC204610BD10B54FF4AE71A2
:1026700004461FF011FC204610BD10B50DF07EF988
:102680000368BDE81040DB6B184710B50446D0F86E
:10269000400158B10368DB68984738B1D4F840016D
:1026A00003689B6898470023C4F8403110BD0000C0
:1026B0002DE9F14FD0E9556A0746B06803681B6AF7
:1026C000984740F67333984205D8444B444AA321B7
:1026D000444820F01DFB706803681B6A98470F2868
:1026E00003D8414B3E4AA421F2E7F06803681B6A15
:1026F00098470B2803D83D4B394AA521E8E70DF050
:102700003DF9DFF8F09004300DF05DF9D9F80000E4
:1027100010B10368DB689847D9F8000010B103686E
:102720001B689847DFF8D080D8F8000010B1036824
:102730005B699847D7F83C0110B103685B6898471C
:10274000D8F8000010B103681B689847D7F83C011F
:1027500010B103689B689847F068036800215B6AC2
:1027600098474FF0000B224BC0F804B0044680F8A5
:1027700008B00360B068036859465B6A984705462D
:1027800001F058FD7068036859465B6A984729460E
:10279000064601F02DFD331DC7F83C61C9F8004025
:1027A000C8F80050CAF800302B68C6F808A02846C0
:1027B000DB68EE639847336830461B6898472146CC
:1027C00028460FF08BFA236820461B699847236838
:1027D0005B69204601B0BDE8F04F18474743020847
:1027E000D5430208AD440208F444020897450208A4
:1027F000144F0208503201204C3201202DE9F14FD4
:10280000D0E9556A0746B06803681B6A9847B0F577
:102810002D7F05D2444B454AA321454820F078FA44
:10282000706803681B6A98470F2803D8414B3F4ADA
:10283000A421F2E7F06803681B6A98470B2803D8C5
:102840003D4B3A4AA521E8E70DF098F8DFF8F09003
:1028500004300DF0B8F8D9F8000010B10368DB6857
:102860009847D9F8000010B103681B689847DFF853
:10287000D480D8F8000010B103685B699847D7F896
:102880003C0110B103685B689847D8F8000010B1AC
:1028900003681B689847D7F83C0110B103689B6830
:1028A0009847F068036800215B6A98474FF0000B77
:1028B000224BC0F804B0044680F808B00360B0684A
:1028C000036859465B6A9847054601F077FC7068D3
:1028D000036859465B6A98472946064601F04CFC56
:1028E000331DC7F83C61C9F80040C8F80050CAF869
:1028F00000302B68C6F808A02846DB68EE639847CE
:10290000336830461B689847214628460FF0E6F9A1
:10291000236820461B69984723685B69204601B0FD
:10292000BDE8F04F184700BF474302083A46020887
:10293000AD440208F444020897450208144F020807
:10294000503201204C320120044B1B6893F8582070
:102950000AB1D86C00B99868704700BF08320120EE
:10296000F8B5174604460E460DF0CAF8124B1C6027
:10297000124B2360124B0025C4E95135114BC4E9B9
:1029800053551868036801219B68C4E94F55C4E991
:1029900055769847284600F0C9F9FFF7D5FF17F09C
:1029A00078F9FFF7D1FF17F0EFF9FFF7CDFF17F038
:1029B000F7F92046F8BD00BF5C320120C04E020886
:1029C000A84E020808320120064BC0F84C31002303
:1029D000C0F8503100F5A273C0F84801C0F840318A
:1029E000704700BFFD270008064BC0F84C3100239C
:1029F000C0F8503100F5A273C0F84801C0F840316A
:102A0000704700BFB1260008406A7047806A70476F
:102A100070478A880B8810B5D20A4C88C1699BB26E
:102A200051F8220043EA0443184410BD10B504468F
:102A3000BAB1107B68B1537BD27A1B0203F4E06316
:102A40001A43236A03EB82031A888A4202D193F95C
:102A5000020010BD05D8013880B204330028F3D13C
:102A6000F7E70020F5E710B52C2104461FF014FA13
:102A7000204610BD30B58BB00446BDF860500895B7
:102A8000BDF85C5007959DF8505006959DF84C5048
:102A900005959DF8485004959DF8445003959DF880
:102AA000405002959DF83C500195BDF83850009576
:102AB0000EF06EFD064B2360159BE361169B2362AF
:102AC000199B63621A9BA36220460BB030BD00BF06
:102AD000384F02087047000030B5174D2C6814F0CD
:102AE00001048FB0BFF35B8F22D128461FF0D6F9C7
:102AF000F0B13F230993114B0893114B1149124830
:102B00000A94CDE9064301220423CDE903320A23C6
:102B1000009312220C23CDE90B44CDE90144059426
:102B2000FFF7A8FF094820F011F928461FF0C2F965
:102B300005480FB030BD00BF5C230020B072020812
:102B400008730208D46F020860230020D52A000809
:102B50007047000030B5164D2C6814F001048FB09A
:102B6000BFF35B8F21D128461FF098F9E8B13F23CE
:102B70000993104B0893104B07930123CDE90543AC
:102B800004930423CDE9024314230C4900931D222E
:102B9000CDE90B440A480A940194FFF76BFF0948FA
:102BA00020F0D4F828461FF085F905480FB030BD55
:102BB0008C230020B47202080C730208D070020843
:102BC00090230020512B00087047000030B5164DAF
:102BD0002C6814F001048FB0BFF35B8F21D128461D
:102BE0001FF05CF9E8B13F230993104B0893104B99
:102BF00007930123CDE9054304930423CDE9024360
:102C000028230C4900930522CDE90B440A480A9475
:102C10000194FFF72FFF094820F098F828461FF08D
:102C200049F905480FB030BDBC230020F8720208F6
:102C30001073020868720208C0230020C92B000824
:102C400000207047002070470EB403B503AB00218D
:102C500053F8042B01930DF019FF02B05DF804EB5B
:102C600003B070470CB407B504AB53F8042B0193C1
:102C70000DF00CFF03B05DF804EB02B070470000EC
:102C8000436C10B5044673B3038F2BB9184B194A24
:102C9000C521194820F03CF8C38E00EB43035B8C40
:102CA0000BB30FF074FD238F012B03D8134B144A81
:102CB000CB21EEE7E28E531C9BB2092B194688BF4D
:102CC000A3F10A0104EB410140F63F10498C814217
:102CD00009D10A2B04EB420228BF002304EB430373
:102CE000508C588451842046BDE810400FF052BCEF
:102CF000124702081B470208C6470208104802088C
:102D00001E4802080FF00DBC10B586B002AC84E876
:102D100006001A460AAB05930193099B00932146CE
:102D2000089B0CF0C9F906B010BD000038B518BBFF
:102D3000124B13481C681349B4B122682244026044
:102D4000626822440A60A26814440F4B00221A8071
:102D500000F038F8054600F033F80C4B1C600C4BC3
:102D60001D600C4B188007E00B4B03600B4B0B6096
:102D70000B4B1C68002CE8D138BD00BFF8230020A5
:102D8000F0230020EC230020F423002060320120F7
:102D900068320120643201208C7302081473020827
:102DA00048740208044B1B6853F82100034B1B684E
:102DB00003EB4000704700BFEC230020F02300200D
:102DC0001E20704700487047FC23002010B5FFF715
:102DD000C1FE044C2060FFF7F9FE6060FFF77CFE47
:102DE000A06010BDFC23002010B5002404600C601E
:102DF00014601C6010BD7047704770477047704783
:102E000030B5036885B06D460181D3F88430014642
:102E100004462846984795E807003C3484E80700B4
:102E200005B030BD30B5036885B06D464181D3F83B
:102E30008430014604462846984795E807003C340C
:102E400084E8070005B030BD002202804280828005
:102E5000C280704780F83610704770B5036804462A
:102E60001B6B154698472368294620465B6EBDE8D4
:102E70007040184700207047806C7047704770475B
:102E80007047704730B4C26844685510034604EB7D
:102E90006200D20748BF62599B6830BC48BFD35814
:102EA00018470346406830B19A681AB9D86800F0EC
:102EB000010070470120704710B54C2104461EF0F8
:102EC000EBFF204610BD10B5102104461EF0E4FFB4
:102ED000204610BD10B54FF42D7104461EF0DCFFE6
:102EE000204610BD08B5FEF7DBFA08BD036870B5D3
:102EF0005E6B124B1B6804468DB22BB9104B114A06
:102F00006C2111481FF004FF1049828D09889142FD
:102F100003D80F4B0B4A6D21F3E713F812200D4B2A
:102F20001B6853F8220003681B6B9847291A334625
:102F3000204609B2BDE87040184700BF603201204A
:102F4000F0480208324902086D4902086432012043
:102F5000B44902086832012038B500F1980399425B
:102F600004460D4606D1012380F8953100F5B8706E
:102F70000DF0B6FE04F5E4739D4206D1002384F8FB
:102F8000953104F5B8700DF0ABFEE034A54205D1E3
:102F90000CF0F4FCBDE83840FFF726BD38BD002238
:102FA0004FF0FF31C0E900218260704770B50368BF
:102FB00004461B6B154698472368294620465B6BE1
:102FC000BDE87040184770B504461D46BDF9106055
:102FD000FFF7ECFF2368294620469B6B9847236840
:102FE00031462046DB6BBDE8704018470022C0E93F
:102FF0000122C0E90322C0E90522C0E907224FF4FB
:1030000080728284014A0260704700BFA04F0208AC
:1030100038B5262204460D46002120F080F82046CF
:10302000FFF7E4FF064B23602B88E384FF23204651
:1030300084F82830294609F0B4FF204638BD00BF87
:1030400080550208F8B5194B018F1B888B42064644
:103050002AD9174B1B682BB9164B174A17486C21F6
:103060001FF056FE13F81120154B1B6853F8225021
:10307000144B1868FFF796FE2B6807469B6B284693
:1030800098472B6804469B6C3946284698472B681E
:1030900014FB00F45B6A394628469847A4B223180B
:1030A0001BB2A6F84630F8BD0023FAE764320120CF
:1030B00060320120F0480208324902086D490208D6
:1030C000683201206C32012010B52622044600210E
:1030D00020F025F82046FFF789FF0A4B23600A4BB2
:1030E000A3624FF6FF73A3854FF47F020023C4E968
:1030F0000C3223874FF0FF32C4E91023E3632046EC
:1031000010BD00BF88540208984E02082DE9F04F08
:10311000044691B0274600250EF034FCC04BE56311
:1031200047F8403B2622294638461FF0F8FF38462C
:10313000FFF75CFFBB4B236404F16C0BFF230EA96C
:1031400084F866304FF6FF76A5665846ADF83860CD
:10315000FFF75EFF04F1980304F1E009184604F557
:10316000947803930AF05EF848460AF05BF840460C
:10317000FFF7AAFF4FF48073A4F89431AA4BC4F868
:10318000703104F5CE730EA9C4E95D55C4E95F55ED
:10319000C4E96155C4E96355C4F8985118460793CA
:1031A000ADF83860FFF734FF04F5E4731846049374
:1031B0000AF038F804F5047318460593FFF784FF06
:1031C00004F5167318460693FFF77EFF974BC4F875
:1031D0005832974BC4F8A052C4E9A934954BC4E9BE
:1031E000AB354FF4A0732A46009329463846F023A6
:1031F000FFF7E9FE261D4FF07F43A36639463046B0
:1032000006F028FB2A4629465846FFF7CFFE022340
:103210000EA95846ADF8383009F0C3FE594630467D
:1032200006F018FB0398844FC2222121FFF7BEFE4F
:103230000A230DA90398ADF834300EAA4FF00B0302
:10324000ADF8383009F07BFD1C220398A4F8D0209B
:10325000FFF7F8FE04F5297B4FF0FF320399C4F81D
:10326000D470C4F8D8203046C4F8C0B006F0F2FAE2
:10327000484664222121FFF799FE0A230EAA0DA9D0
:10328000ADF8343048464FF00B03ADF8383009F054
:1032900056FD1D23A4F818314846FFF7D3FE4FF022
:1032A000FF33C4F82031C4F81C7149463046C4F8D5
:1032B00008B106F0CFFA112240462D21FFF776FE25
:1032C00008AF5E4BC4F8583141463846A4F85C510B
:1032D00009F030FA97E8070004F5B27383E80700B5
:1032E000DFF86091CDF838901B230EA94046ADF869
:1032F0003C3009F0C7FC4146304606F0ABFA04F515
:10330000B87A962300935046D62355220D21FFF715
:103310005AFE6FF00102079884F895512946FFF78D
:1033200045FE04230798ADF838300EA909F039FEA0
:103330000799504606F08EFA04986D225921FFF73E
:1033400035FE4FF005080EAA0DA90498ADF834809B
:103350000623ADF8383009F0F2FC1A230498A4F8DB
:103360000032FFF76FFE364A0499C4F8F0B14FF00F
:10337000FF33C4E98123504606F06CFA42460598B3
:103380001621FFF713FE4FF07F430599C4F8403232
:103390003846A4F8445209F0CDF997E8070004F53F
:1033A000137383E8070019230598ADF83C300EA984
:1033B000CDF8389009F066FC0599504606F04AFAB7
:1033C0003723069800932E22C7230821FFF7FBFD21
:1033D0004FF07F43C4F88832D4F858320699D3F8B6
:1033E0008430A4F88C523846984797E8070004F5D3
:1033F000257383E8070018230698ADF83C300EA922
:10340000CDF8389009F03EFC0699504606F022FAB5
:103410003046514606F01EFA204611B0BDE8F08F46
:10342000B0500208185502089852020808500208C5
:1034300098500208592F0008155202FFDEED09FFCF
:10344000050380FF984E020870477047704730B4FC
:10345000C26844685510034604EB6200D20748BFB7
:1034600062599B6830BC48BFD35818470346406830
:1034700030B19A681AB9D86800F00100704701208D
:10348000704710B5102104461EF006FD204610BD01
:1034900010B540F6743104461EF0FEFC204610BD07
:1034A00038B500F19803994204460D4606D1012330
:1034B00080F8DD3800F6B8000DF012FC04F51A6350
:1034C0009D4208D1002384F8DD3804F6B800BDE839
:1034D00038400DF005BC38BD4FF480710022818466
:1034E00005490160C0E90122C0E90322C0E90522C3
:1034F000C0E90722826270479852020810B526225E
:10350000044600211FF00BFE2046FFF76FFD044B21
:103510002360FF2384F826300023A362204610BDD9
:103520001855020800224FF0FF31C0E900218260E7
:103530007047000010B50446FFF7C6FD024B23603C
:103540000023A364204610BD085002082DE9F04F67
:103550000446B9B0274600260EF014FADE4BE663A7
:1035600047F8403B35AD04F16C093846FFF7C6FF1C
:1035700004F198084FF6FF7B2946484604F1E00A1B
:10358000ADF8D4B0FFF744FD404609F04BFE50467D
:10359000FFF7A2FF04F58673294618460D93ADF890
:1035A000D4B0FFF735FD04F59C7318461F93FFF761
:1035B000A5FF04F5B27318462093FFF79FFF04F5AB
:1035C000C87318462193FFF799FF04F5DE73184678
:1035D0002293FFF793FF04F5F47318462393FFF744
:1035E0008DFF04F5057318462493FFF787FF04F554
:1035F000107318462593FFF781FF04F51B731846D7
:103600002693FFF77BFF04F5267318462793FFF7F1
:1036100075FF04F5317318462893FFF76FFF04F523
:103620003C7318462993FFF769FF04F54773184662
:103630002A93FFF763FF04F5527318462B93FFF7A5
:103640005DFF04F55D7318462C93FFF757FF04F5F3
:10365000687318462D93FFF751FF04F573731846EE
:103660002E93FFF74BFF04F57E7318460593FFF783
:1036700061FF04F2444318460693FFF75BFF04F52D
:10368000926318460E93FFF755FF04F2DC43184689
:103690000F93FFF74FFF04F5A56318461093FFF74C
:1036A00049FF04F2745318461193FFF743FF04F5E2
:1036B000B86318461293FFF73DFF04F20C631846F7
:1036C0001393FFF737FF04F5CB6318461493FFF706
:1036D00031FF04F2A46318461593FFF72BFF04F59E
:1036E000DE6318461693FFF725FF04F23C73184675
:1036F0001793FFF71FFF04F5F16318461893FFF7C0
:1037000019FF04F2D47318461993FFF713FF04F559
:10371000026318461A93FFF70DFF04F66C03184670
:103720001B93FFF707FF04F6B80318460493FFF74F
:10373000D3FE04F6E403294618461C93ADF8D4B032
:10374000FFF766FC04F5116318460793FFF7BCFC0E
:1037500004F658131846089309F064FD04F51A633B
:103760001846099309F05EFD04F6E8131846039322
:10377000FFF7B2FE04F61423294618461D93ADF850
:10378000D4B0FFF745FC04F5246318461E93FFF7F9
:10379000D1FE04F68C2318460A93FFF795FC04F635
:1037A000D42318460B9309F03DFD04F61C3318464C
:1037B0000C9309F037FD494BC4F8643B484BC4F8FF
:1037C0006C3B4FF4A0733246C4F8684BC4F8706B7E
:1037D000314600933846F023FFF7F5FB4FF07F4367
:1037E000A3663946201D06F035F832463146484674
:1037F000FFF7DCFB4FF0010329464846ADF8D43013
:1038000009F0CFFB4946201D06F024F8404612225D
:103810003321FFF7CBFB4FF0090234A9ADF8D420D8
:1038200040462A464FF00809ADF8D09009F087FAD3
:103830001723A4F8D0304046FFF704FC294BDFF8EB
:10384000A8904FF0FF3704F66431C4E935372F9163
:10385000C4F8C010201D414605F0FCFFF023009382
:10386000314650465022FFF7AEFB32460D98DFF846
:103870007C803146FFF79AFB0D98ADF8D46029465D
:103880004FF03C0B09F08DFB0D99504605F0E2FF1F
:103890005B4632461F98CDF800B03146FFF793FBE8
:1038A0001F99C4F86071504605F0D4FF5B4632465C
:1038B0002098CDF800B05946FFF785FB2099C4F851
:1038C0008C71504605F0C6FF5B4632462198CDF814
:1038D00000B078210CE000BFFC500208E450020860
:1038E000A13400083524F0FF020242FF984E02087E
:1038F000FFF769FB2199C4F8B871504605F0AAFF9B
:103900005B4632462298CDF800B0B421FFF75BFB4E
:103910002299C4F8E471504605F09CFF5B465A4674
:103920002398CDF800B03146FFF74DFB2399C4F83A
:103930001072504605F08EFF5B465A462498CDF82B
:1039400000B05946FFF73FFB2499C4F83C7250463B
:1039500005F080FF5B465A462598CDF800B07821E7
:10396000FFF731FB2599C4F86872504605F072FFE5
:103970005B465A462698CDF800B0B421FFF723FBEA
:103980002699C4F89472504605F064FF5B46279868
:10399000CDF800B078223146FFF715FB2799C4F81F
:1039A000C072504605F056FF5B462898CDF800B02F
:1039B00078225946FFF707FB2899C4F8EC72504665
:1039C00005F048FF78225B4611462998CDF800B0F3
:1039D000FFF7F9FA2999C4F81873504605F03AFF31
:1039E0005B462A98CDF800B07822B421FFF7EBFAB5
:1039F0002A99C4F84473504605F02CFF5B462B9877
:103A0000CDF800B0B4223146FFF7DDFA2B99C4F8A7
:103A10007073504605F01EFF5B462C98CDF800B041
:103A2000B4225946FFF7CFFA2C99C4F89C7350463C
:103A300005F010FF5B462D98CDF800B0B422782138
:103A4000FFF7C1FA2D99C4F8C873504605F002FF7C
:103A5000B4225B4611462E98CDF800B0FFF7B3FABA
:103A60002E99C4F8F473504605F0F4FE32460598DA
:103A7000CDF800B05B463146FFF7A5FAD4F8F8332D
:103A80000599C4F8289430A8D3F88430A4F82C649D
:103A9000984730A907C904F2344383E80700162386
:103AA0000598ADF8D8302946CDF8D48009F0EAF869
:103AB0000599504605F0CEFE5A460698CDF800B05E
:103AC0005B463146FFF77FFAD4F844340699C4F8D0
:103AD000749430A8D3F88430A4F87864984730A957
:103AE00007C904F5906383E8070012230698ADF830
:103AF000D8302946CDF8D48009F0C4F8069950464C
:103B000005F0A8FE5B4631460E98CDF800B078224D
:103B1000FFF759FAC4F8C094A4F8C4642846FFF724
:103B200001FD95E8070004F2CC4383E80700112368
:103B30000E98ADF8D8302946CDF8D48009F0A2F817
:103B40000E99504605F086FE5B4631460F98CDF83B
:103B500000B0B422FFF737FAC4F80C95A4F810654A
:103B60002846FFF7DFFC95E8070004F5A36383E828
:103B7000070010230F98ADF8D8302946CDF8D4802F
:103B800009F080F80F99504605F064FE5B46324616
:103B900059461098CDF800B0FFF715FAC4F85895BB
:103BA000A4F85C652846FFF7BDFC95E8070004F221
:103BB000645383E8070015231098ADF8D8302946E0
:103BC000CDF8D48009F05EF81099504605F042FE19
:103BD0005B465A4659461198CDF800B0FFF7F3F905
:103BE000C4F8A495A4F8A8652846FFF79BFC95E8BF
:103BF000070004F5B66383E807000F231198ADF8BA
:103C0000D8302946CDF8D48009F03CF811995046B7
:103C100005F020FE5B4659461298CDF800B0782298
:103C2000FFF7D1F9C4F8F095A4F8F4652846FFF73A
:103C300079FC95E8070004F2FC5383E807000E23A3
:103C40001298ADF8D8302946CDF8D48009F01AF88A
:103C50001299504605F0FEFD5B4659461398CDF883
:103C600000B0B422FFF7AFF9C4F83C96A4F8406660
:103C70002846FFF757FC95E8070004F5C96383E879
:103C800007004FF00D011398ADF8D8102946CDF874
:103C9000D48008F0F7FF1399504605F0DBFD5B4632
:103CA00032461498CDF800B07821FFF78CF9C4F8AB
:103CB0008896A4F88C662846FFF734FC95E8070040
:103CC00004F2946383E8070014231498ADF8D83005
:103CD0002946CDF8D48008F0D5FF1499504605F058
:103CE000B9FD5B465A461598CDF800B07821FFF72C
:103CF0006AF9C4F8D496A4F8D8662846FFF712FCEF
:103D000095E8070004F5DC6383E807000C231598A9
:103D1000ADF8D8302946CDF8D48008F0B3FF159916
:103D2000504605F097FD78225B461698CDF800B016
:103D30001146FFF748F9C4F82097A4F824672846ED
:103D4000FFF7F0FB95E8070004F22C7383E8070007
:103D50000B231698ADF8D8302946CDF8D48008F05A
:103D600091FF1699504605F075FD5B461798CDF802
:103D700000B0B4227821FFF726F9C4F86C97A4F8B4
:103D800070672846FFF7CEFB95E8070004F5EF6360
:103D900083E807000A231798ADF8D8302946CDF8F4
:103DA000D48008F06FFF1799504605F053FD5B462D
:103DB00032461898CDF800B0B421FFF704F9C4F8E2
:103DC000B897A4F8BC672846FFF7ACFB95E8070056
:103DD00004F2C47383E8070013231898ADF8D830B1
:103DE0002946CDF8D48008F04DFF1899504605F0CB
:103DF00031FD5B465A461998CDF800B0B421FFF763
:103E0000E2F8C4F80498A4F808682846FFF78AFB8B
:103E100095E8070004F5016383E807004FF0090205
:103E20001998ADF8D8202946CDF8D48008F02AFF9B
:103E30001999504605F00EFD5B461A98CDF800B072
:103E40007822B421FFF7BFF8C4F85098A4F854685A
:103E50002846FFF767FB95E8070004F65C0383E854
:103E600007004FF008031A98ADF8D8302946CDF86E
:103E7000D48008F007FF1A99504605F0EBFCB422F5
:103E80005B461B98CDF800B01146FFF79CF8C4F8CC
:103E90009C98A4F8A0682846FFF744FB95E8070023
:103EA00004F6A80383E807004FF007091B98CDF834
:103EB000D4802946ADF8D89008F0E4FE1B9950460E
:103EC00005F0C8FC5146201D05F0C4FC96218A234C
:103ED000049800915F223321FFF775F832461C9851
:103EE00084F8DD683146FFF761F84FF0030B1C984A
:103EF000ADF8D4B0294609F054F81C99049805F09F
:103F0000A9FC5A4607981F21FFF750F84FF07F4150
:103F1000C4F8401930A80799A4F8446908F00AFCCD
:103F200030A907C904F64C1383E807000623079855
:103F3000ADF8D8302946CDF8D48008F0A3FE079913
:103F4000049805F087FC089831462F22FFF72EF8D9
:103F50004FF0050A2A4634A90898ADF8D090ADF87C
:103F6000D49008F0ECFE0898A4F890A9FFF76AF83E
:103F7000674BC4F8943908990498C4F8987905F007
:103F800069FC099831466322FFF710F82A4634A9E4
:103F90000998ADF8D090ADF8D4904FF0040908F02E
:103FA000CEFE0998A4F8D899FFF74CF8584BC4F8FE
:103FB000DC392F9BC4F8C83909990498C4F8E07912
:103FC00005F048FC04EB0900049905F043FC962138
:103FD000D623039800915F220D21FEF7F4FF3246AD
:103FE0001D9884F80D6A3146FEF7E0FF1D98ADF884
:103FF000D490294608F0D5FF1D99039805F02AFCB6
:104000001E9823223D21FEF7D1FF4FF07F41C4F8D7
:10401000701AA4F8746A2846FFF784FA95E8070036
:1040200004F67C2383E8070002231E98ADF8D830FD
:104030002946CDF8D48008F025FE1E99039805F096
:1040400009FC52460A982821FEF7B0FF4FF07F4145
:10405000C4F8BC1A30A80A99A4F8C06A08F06AFB30
:1040600030A907C904F6C82383E807000A98CDF8E9
:10407000D4802946ADF8D8B008F004FE0A99039818
:10408000DFF8908005F0E6FB0B982D222621FEF745
:104090008DFF4FF008092A4634A90B98ADF8D0904F
:1040A0004FF0090AADF8D4A008F049FE4FF0010323
:1040B000A4F80C3B0B98FEF7C5FF0B990398C4F8C6
:1040C000108BC4F8147B05F0C5FB0C9863222621E5
:1040D000FEF76CFF2A4634A90C98ADF8D090ADF8E5
:1040E000D4A008F02CFE0C98A4F8546BFEF7AAFF9D
:1040F0000C990398C4F8588BC4F85C7B05F0AAFBB4
:10410000201D039905F0A6FB204639B0BDE8F08FCD
:1041100062F507FF0909DBFF704710B54FF4AE7178
:1041200004461DF0B9FE204610BD10B50446D0F877
:10413000580100F012F82046BDE810400BF0A0BC7A
:1041400010B50446FEF70CFC014B2360204610BD61
:1041500030510208002202607047704770470438EF
:104160007047704710B5102104461DF095FE20469B
:1041700010BDA0F10400F5E700228260024A02604F
:1041800018324260C16070478451020870470000D5
:1041900010B5034B03600446FEF772FE204610BDC7
:1041A000AC51020810B50446FFF7F2FF20464FF469
:1041B0002D711DF071FE204610BD000010B50446A3
:1041C000FEF7A4FF014B2360204610BDAC5102084E
:1041D000FEF757BE704704387047704710B510217E
:1041E00004461DF059FE204610BDA0F10400F5E77D
:1041F00000228260024A026018324260C160704749
:10420000E05102087047000010B5034B03600446FC
:10421000FFF71BF9204610BD0852020810B50446EE
:10422000FFF7F2FF204640F674311DF035FE2046C0
:1042300010BD000010B50446FFF788F9014B23605C
:10424000204610BD08520208FFF700B9F020704761
:104250004FF4A07070472920FDF7A6BD2820FDF778
:10426000A3BD08B5FDF774FDCA20FDF79DFDC32071
:10427000FDF77EFD0820FDF77BFD5020FDF778FD62
:10428000CF20FDF791FD0020FDF772FDC120FDF765
:104290006FFD3020FDF76CFDED20FDF785FD6420FE
:1042A000FDF766FD0320FDF763FD1220FDF760FDBD
:1042B0008120FDF75DFDE820FDF776FD8520FDF707
:1042C00057FD0020FDF754FD7820FDF751FDCB2070
:1042D000FDF76AFD3920FDF74BFD2C20FDF748FD69
:1042E0000020FDF745FD3420FDF742FD0220FDF7DB
:1042F0003FFDF720FDF758FD2020FDF739FDEA20AE
:10430000FDF752FD0020FDF733FD0020FDF730FDE5
:10431000B120FDF749FD0020FDF72AFD1B20FDF728
:1043200027FDB620FDF740FD0A20FDF721FDA22064
:10433000FDF71EFDC020FDF737FD1020FDF718FD2D
:10434000C120FDF731FD1020FDF712FDC520FDF75E
:104350002BFD4520FDF70CFD1520FDF709FDC720BD
:10436000FDF722FD9020FDF703FD3620FDF71CFD33
:10437000C820FDF7FDFCF220FDF716FD0020FDF73B
:10438000F7FCB020FDF710FDC220FDF7F1FCB620D0
:10439000FDF70AFD0A20FDF7EBFCA720FDF7E8FC7E
:1043A0002720FDF7E5FC0420FDF7E2FC2A20FDF7BD
:1043B000FBFC0020FDF7DCFC0020FDF7D9FC002011
:1043C000FDF7D6FCEF20FDF7D3FC2B20FDF7ECFC2E
:1043D0000020FDF7CDFC0020FDF7CAFC0120FDF711
:1043E000C7FC3F20FDF7C4FCF620FDF7DDFC0120F3
:1043F000FDF7BEFC0020FDF7BBFC0620FDF7B8FC76
:104400002C20FDF7D1FCC820FDF71CFD2620FDF770
:10441000CBFC0120FDF7ACFCE020FDF7C5FC0F2034
:10442000FDF7A6FC2920FDF7A3FC2420FDF7A0FC46
:104430000C20FDF79DFC0E20FDF79AFC0920FDF7EE
:1044400097FC4E20FDF794FC7820FDF791FC3C2072
:10445000FDF78EFC0920FDF78BFC1320FDF788FC8F
:104460000520FDF785FC1720FDF782FC1120FDF7E4
:104470007FFC0020FDF77CFCE120FDF795FC00208F
:10448000FDF776FC1620FDF773FC1B20FDF770FC92
:104490000420FDF76DFC1120FDF76AFC0720FDF7F5
:1044A00067FC3120FDF764FC3320FDF761FC4220FE
:1044B000FDF75EFC0520FDF75BFC0C20FDF758FCCA
:1044C0000A20FDF755FC2820FDF752FC2F20FDF7B0
:1044D0004FFC0F20FDF74CFC1120FDF765FCC820B8
:1044E000FDF7B0FC2920FDF75FFCBDE808402C205B
:1044F000FDF75ABC08B5FDF72BFC0321D320FDF7CF
:104500006FFC80B208BD10B5C4B202220321204660
:10451000FDF7D4FB0A20FDF719FC204600220321F9
:10452000FDF7CCFBBDE810400220FDF70FBC38B50D
:104530000446E4B2FDF7C0FB00212046FDF7D6FBA0
:10454000012105462046FDF7D1FB40EA052080B257
:1045500038BD10B5C4B240212046FDF7C7FB0306A5
:1045600007D54C212046FDF7C1FB003818BF0120BC
:1045700010BD01224B212046FDF7A0FB2046002262
:104580004B21FDF79BFB0020F2E773B50423C4B277
:104590000E461546D7210DEB03022046FDF7C0FB62
:1045A000019B1BBA1A0DC3F30B23328020462B80CC
:1045B00001224B21FDF782FB00224B212046FDF713
:1045C0007DFB02B070BD000010B50A4A1378984216
:1045D00004460DD0517888420AD00BB141B901236D
:1045E000D454FDF769FB2046BDE81040FFF78BBFB0
:1045F00010BD00BF0824002010B5C4B20921204618
:10460000FDF774FB40F00102D2B220460921BDE85B
:104610001040FDF753BB10B5C4B209212046FDF789
:1046200065FB092100F0FE022046BDE81040FDF7C1
:1046300045BB38B5C4B20D4620460A21FDF756FBEE
:1046400040EA0502D2B220460A21BDE83840FDF713
:1046500035BB10B50446FDF730FB20461F21FFF7A0
:10466000E8FF2046BDE81040FFF7C6BF38B5C4B22A
:104670000D4620460A21FDF739FB20EA0502D2B299
:1046800020460A21BDE83840FDF718BB10B50446A6
:10469000FFF7C1FF20461F21BDE81040FFF7E6BF2E
:1046A00010B5C0B20C460B21FDF720FB204010BD19
:1046B0001F21FFF7F5BF0A46C0B20B21FDF7FEBA76
:1046C0001F21FFF7F8BF38B5C4B20D4620461721A9
:1046D000FDF70CFB20EA0502D2B220461721BDE807
:1046E0003840FDF7EBBA70B5C4B206460421204647
:1046F000FDF7FCFA042100F0FB0205462046FDF719
:10470000DDFA3046F021FFF7DEFF05F0F802204623
:104710000421FDF7D3FA492220212046FDF7CEFAE5
:104720000220FDF713FB204601222121FDF7C6FAE6
:1047300020469A224121FDF7C1FA204601224A2152
:10474000FDF7BCFA204601224B21FDF7B7FA2046BF
:1047500000224B21FDF7B2FA204601225621FDF737
:10476000ADFA204601225821FDF7A8FA2046012281
:104770004021FDF7A3FA2046FF220B21FDF79EFA08
:10478000BDE870400220FDF7E1BA0000054BD3F808
:10479000882042F47002C3F888204FF000629A60CB
:1047A000704700BF00ED00E008B50B4B1A6842F4FB
:1047B00000721A601A6842F480621A601A6842F441
:1047C00080721A60032000F027FB0020FDF7EAFD4D
:1047D000FDF746FB002008BD003C0240034A044BA5
:1047E00011681B780B441360704700BF0C24002035
:1047F0007C000020014B1868704700BF0C2400208B
:1048000038B50446FFF7F6FF631C1CBF054B1B7849
:10481000054618BFE418FFF7EDFF431BA342FAD388
:1048200038BD00BF7C00002038B50446002800F0E9
:104830009B80056C25B9FDF733FB656484F83C501B
:10484000236CDB0600F18E80236C23F4885323F065
:10485000020343F002032364444B5A6822F44032BB
:104860005A605A6861680A435A60236821695A6825
:1048700022F480725A605A6842EA01225A605A68E9
:10488000A16822F040725A605A680A435A609A68D6
:10489000E16822F400629A609A680A439A60344997
:1048A000A26A8A4252D0996821F070619960996831
:1048B0000A439A609A68E16A22F040529A609A68C4
:1048C0000A439A609A6822F002029A609A68217EEE
:1048D00042EA41029A6094F82020002A3ED05A68A9
:1048E000616A42F400625A605A6822F460425A6077
:1048F0005A68013942EA41325A60DA6AE16922F4BF
:104900007002DA62DA6A013942EA0152DA629A68BE
:1049100022F400729A609A6894F8301042EA4122B8
:104920009A609A68616922F480629A609A680020AD
:1049300042EA81229A606064236C23F0030343F00F
:1049400001032364002384F83C3038BD9A6822F0C8
:1049500070629A609A6822F04052B2E75A6822F474
:104960000062C9E70120EDE70120EEE700230140E6
:104970000100000F37B513460022019290F83C2049
:10498000012A044600F088800568012280F83C2056
:10499000AA68D00752D5AA68D20562D4AA68D007FF
:1049A00071D5206C20F4E06020F0010040F48070AC
:1049B00020646A68520541BF206C20F4405040F4E6
:1049C00080502064226CA06B12F480521CBF626C79
:1049D00022F006026264002284F83C202F4AC2635F
:1049E0002F4A02642F4AC2646FF022022A606A686A
:1049F00042F080626A60AA6842F48072AA600A4645
:104A000005F14C0100F0FEFA274A2849536813F0DB
:104A10001F0F236834D18B4207D001F580718B4280
:104A200024D1526812F01F0F23D19A6812F0405F10
:104A30001FD19A6842F080429A601AE0AA6842F058
:104A40000102AA601A4A10681A4AB0FBF2F000EBA1
:104A500040000190019A002A9DD0019A013A0192EA
:104A6000F8E7AA6822F48072AA6097E712498B429D
:104A700002D0002003B030BD526812F0100FD3E70F
:104A80008B42F6D1D1E7236C43F010032364636CAF
:104A900043F001036364ECE70220EBE7714C00088C
:104AA000314B00085B4C000800230140002001400E
:104AB0007800002040420F000022014010B590F81D
:104AC0003C30012B044630D00268012380F83C3092
:104AD000936823F001039360936813F0010322D1DC
:104AE0009168806B21F48071916090F83520022AE2
:104AF00017D100F0C0FA18B1236C43F040032364CF
:104B00002268536823F080635360236C23F4885336
:104B100023F0010343F001032364002384F83C30B5
:104B200010BD1846ECE70020F7E70220F8E77047D1
:104B300008B5806BFFF7FBFF08BD7047704703683F
:104B400070B51E685D68B20704462BD5A80629D546
:104B5000226CD1065EBF226C42F4007222649A6815
:104B600012F0405F17D1227EAAB9DA6A12F4700FF0
:104B700002D09A6852050ED45A6822F020025A6078
:104B8000236C23F480732364236CD8045EBF236CEE
:104B900043F0010323642046FDF73CF823686FF0DF
:104BA00012021A60710733D52A0631D5236CDB0651
:104BB0005EBF236C43F40053236423689A6812F4A5
:104BC000401F1ED19A6B12F4401F02D09A68500504
:104BD00017D45A68510514D49A6812F0405F10D166
:104BE000227E72B95A6822F080025A60236C23F444
:104BF00080532364236CDA055EBF236C43F001030A
:104C00002364204600F006F923686FF00C021A6056
:104C1000F30710D568060ED523681B68D9070AD597
:104C2000236C43F4803323642046FFF786FF236818
:104C30006FF001021A60B2060ED56B010CD5636CE1
:104C400043F00203636423686FF020051D60204673
:104C5000FFF774FF23681D6070BD806B08B54023AB
:104C60000364436C43F004034364FFF767FF08BD2C
:104C7000836B1A6C12F0500F10B51A6C23D142F4EA
:104C800000721A641A68916811F0405F17D1197E9A
:104C9000A9B9D16A11F4700F02D0916848050ED4F9
:104CA000516821F0200151601A6C22F480721A645C
:104CB0001A6CD1045EBF1A6C42F001021A641846E5
:104CC000FCF7A8FF10BDD20603D51846FFF736FF44
:104CD000F8E79B6BBDE81040DB6C1847F7B5002385
:104CE000019390F83C30012B054600F086800123AB
:104CF00080F83C3008682B688E68092884B233D964
:104D000004EB4402DF681E3A4FF0070C0CFA02FC79
:104D100027EA0C07DF60DF6806FA02F23A43DA603E
:104D20004968062901EB81022DD8596B053A1F26E7
:104D3000964021EA06015963596B04FA02F20A43CC
:104D40005A632F4A93420AD1122837D12D4B5A6801
:104D500022F400025A605A6842F480025A6000202D
:104D600085F83C0003B0F0BD1A6900EB400C072742
:104D700007FA0CF722EA07021A611A6906FA0CF61A
:104D800016431E61CCE70C294FF01F010BD81E6B98
:104D9000233A914026EA01011963196B04FA02F2E1
:104DA0000A431A63CDE7DE6A413A914026EA0101DF
:104DB000D962D96A94400C43DC62C2E7124B984234
:104DC00001D01128CBD10F4B5A6822F480025A60CF
:104DD0005A6842F400025A600B4B9842BFD10B4B09
:104DE0000B4A1B68B3FBF2F30A2253430193019B66
:104DF000002BB4D0019B013BF8E70220B2E700BFD3
:104E00000020014000230140120000107800002023
:104E100040420F00704700000749CA6822F4E06270
:104E20000302120403F4E063120C134343F0BF6364
:104E300043F40033CB60704700ED00E0164B30B513
:104E4000DC68C4F30224C4F10703251D042B28BF2A
:104E50000423062D4FF0FF358CBF033C002405FAD8
:104E600003F321EA0303A54022EA0502A340002838
:104E700043EA0203ACBF00F16040084A4FEA031363
:104E8000B8BF00F00F00DBB2AABF00F561401354B9
:104E900080F8003330BD00BF00ED00E014ED00E00D
:104EA000002807DB044A4109012300F01F0083406A
:104EB00042F82130704700BF00E100E010B5044621
:104EC00050B1437903F0FF0213B90271FDF756F8B0
:104ED00001236371002010BD0120FCE7036810B5B9
:104EE000084C0246D9B210391820B1FBF0F0205C12
:104EF000D06523F47F7020F003005F2988BF043061
:104F0000906510BD4C52020870B50446FFF772FC64
:104F10000546002C60D0022384F835302268002337
:104F200084F83430136823F0010313602268136897
:104F3000D8072ED413683248A1691840D4E9013546
:104F40002B43E5682B4325692B4365692B43E569B2
:104F50000B432B43256A2B430343606A042802BF9B
:104F6000D4E90B5635432B4313605369042823F0CF
:104F7000070343EA000335D1A06AE56A03438DB312
:104F800091B9012820D030F002012BD1E90129D5B7
:104F90001DE0FFF72FFC401B0528C7D92023032065
:104FA000636584F8350070BDB1F5005F16D1032844
:104FB00018D801A151F820F0CF4F00088D4F0008FC
:104FC000CF4F0008C94F0008B5F1C07F0AD1402378
:104FD0006365012384F835300120E4E70228F6D91F
:104FE0000328D3D053612046FFF778FFE26D3F23BB
:104FF0009340836000200123606584F83530D2E758
:105000003F8010F070B590F83440866D012C30D0A0
:10501000012480F8344090F83540012C4FF0000412
:1050200025D1022580F8355044650468256825F4AB
:105030008025256063608368402B0EBFA260A1605D
:10504000E260C26D08BFE1603F239340B360236814
:1050500043F016032360036C1BB1236843F008037D
:105060002360236843F001032360002070BD80F8B3
:1050700034400220FAE770B50446866DFFF7BAFBAC
:1050800094F83530022B054606D080236365012055
:10509000002384F8343070BD23681A6822F01602A9
:1050A0001A605A6922F080025A61226C0AB9A26C15
:1050B0001AB11A6822F008021A601A6822F0010276
:1050C0001A602368186810F0010007D1E26D3F23D1
:1050D0009340B360012384F83530D9E7FFF78AFBAA
:1050E000401B0528EDD920230320636584F8350093
:1050F000CEE70000F7B5002301935C4B856D1F6878
:10510000C36D2E6808229A40324204460CD00168D2
:105110000868400708D5086820F004000860AA6005
:10512000626D42F00102626501229A40324208D06B
:1051300021684969090641BFAA60626D42F0020216
:10514000626504229A40324208D0216809688807C3
:1051500041BFAA60626D42F00402626510229A406B
:10516000324210D02368196809070CD5AA601A6862
:10517000500337D51B68190301D4236C00E0A36CDE
:105180000BB120469847E16D20228A4032423AD046
:1051900023681868C60636D5AA6094F83520052A13
:1051A0001A6827D122F016021A605A6922F080028A
:1051B0005A61226C0AB9A26C1AB11A6822F008026C
:1051C0001A603F238B40AB60012384F83530002305
:1051D00084F83430236D002B45D0204603B0BDE861
:1051E000F04018471A68D2055EBF1A6822F008021C
:1051F0001A60C2E7500327D51B68190331D4636CCA
:105200000BB120469847636D6BB3636DDA0719D510
:1052100022684FF41653B7FBF3F7052384F83530B3
:10522000136823F001031360019B0133BB42019318
:1052300002D81368DB07F7D4012384F83530002344
:1052400084F83430E36CC6E71A6812F4807208D12F
:10525000196821F010011960012384F8353084F8B1
:105260003420E36BCCE703B0F0BD00BF7800002032
:1052700010B5044620B390F8393003F0FF021BB993
:1052800080F83820FCF792FE022384F83930236836
:1052900061681A6822F440320A431A605A6BA168A6
:1052A00022F007020A435A631A6CE1686FF30D0299
:1052B0000A431A6400200123E06384F8393010BDEA
:1052C0000120FCE770477047036870B55E681D6891
:1052D000F207044614D5E90512D51A6822F4807243
:1052E0001A60C26B42F00102C26301229A60042379
:1052F00080F83930002380F83830436903B198478B
:10530000B20616D5AB0414D523681A6822F40052ED
:105310001A6020229A60E36B43F00203E3630423E4
:1053200084F83930002384F8383063690BB12046A3
:105330009847300716D5290514D523681A6822F432
:1053400000621A6008229A60E36B43F00403E3638F
:10535000042384F83930002384F8383063690BB1B2
:105360002046984772070BD56B0509D523681A6844
:1053700022F480621A6004229A602046FFF7A2FF9E
:10538000B00714D5A90512D523681A6822F4007253
:105390001A6002229A60E36BE363012384F83930D8
:1053A000002384F8383023690BB120469847F20671
:1053B00013D5EB0411D523681A6822F480521A60C1
:1053C00010229A60E36BE363012384F839300023F1
:1053D00084F838302046FFF776FF70BDF0B590F8BE
:1053E0003820012A03464FF002002BD0012283F817
:1053F000382083F8390003EB0112D2E90740556ADF
:10540000174F44EA0040093C012C9CBF05F07F4245
:1054100010434FEA01161A6888BF40EA056091B947
:10542000516A394001435162012C9969916103D855
:10543000596A21F07F4191620122002083F83920CE
:1054400083F83800F0BDD16939400143D161991921
:10545000012C896911619CBF25F07F451562EBE73E
:10546000F0FFFC002DE9F74FDFF8BC916C4A0023F8
:105470000D6801249C4004EA0506AC4340F0B78067
:105480004D68032705F003044FEA430807FA08FCB8
:10549000671E012F6FEA0C0C34D8876807EA0C0EE0
:1054A000CF6807FA08F747EA0E078760476827EAD8
:1054B000060EC5F300179F4047EA0E074760C7680E
:1054C00007EA0C0E8F6807FA08F747EA0E07022C66
:1054D000C76019D14FEAD30A00EB8A0A03F0070B21
:1054E000DAF820704FEA8B0B4FF00F0E0EFA0BFE1E
:1054F00027EA0E0E0F6907FA0BF747EA0E07CAF8FC
:10550000207001E0032CDAD1076804FA08F407EAF6
:105510000C073C4315F4403F046068D0002401941C
:10552000D9F8444044F48044C9F84440D9F8444090
:1055300023F0030707F1804704F4804407F59C3704
:10554000019403F0030C019CD7F808E04FEA8C0C9F
:105550000F2404FA0CF42EEA040E324CA0424DD073
:1055600004F58064A0424BD004F58064A04249D089
:1055700004F58064A04247D004F58064A04245D081
:1055800004F58064A04243D004F58064A04241D079
:1055900004F58064A0423FD004F58064A0423DD071
:1055A00004F58064A04214BF0A24092404FA0CF410
:1055B00044EA0E04BC609468F74315F4801F0CBFE6
:1055C0003C4034439460D46815F4001F0CBF3C4049
:1055D0003443D460546815F4003F0CBF3C4034435E
:1055E00054601468ED0354BF3C40344314600133ED
:1055F000102B7FF43DAF03B0BDE8F08F0024D5E75A
:105600000124D3E70224D1E70324CFE70424CDE724
:105610000524CBE70624C9E70724C7E70824C5E724
:10562000003C01400000024000380240036919427A
:1056300014BF0120002070470AB18161704709043E
:10564000FBE7436901EA030221EA030141EA02415F
:105650008161704701684B6913F480634FF0000269
:1056600010D06FF480634B612023026380F83D30DB
:1056700080F83E20036C80F83C2043F00403036470
:1056800001207047184670472DE9F84606460F4638
:1056900091461D464FEA114A3368BAF1010F0CBF1B
:1056A0005C699C6927EA0404A4B2B4FA84F464092E
:1056B000A14501D0002025E06A1CEED0FFF79AF842
:1056C000089BC01AA84201D8002DE5D13368BAF171
:1056D000010F0CBF5B699B6927EA03039BB2B3FA16
:1056E00083F35B099945D7D100232022336386F8E1
:1056F0003D2086F83E30326C86F83C3042F0200285
:1057000032640120BDE8F8862DE9F04104460F46D9
:10571000164698462568686927EA000080B2C0B13D
:105720006B695A0517D52B6843F400732B606FF42F
:1057300080636B6120220023236384F83D2084F87A
:105740003E30236C43F004032364002384F83C3090
:105750000120BDE8F081731CDDD0FFF74BF8A0EB12
:105760000800B04201D8002ED4D123685A6927EA34
:10577000020292B2002ACDD000232022236384F8B3
:105780003D2084F83E30236C1343DDE770B50446BA
:105790000D46164623685B691B0601D500201EE0F6
:1057A0002046FFF757FFC8B96A1CF3D0FFF722F86D
:1057B000801BA84201D8002DECD123685B6913F04F
:1057C0008003E7D12022236384F83D2084F83E3013
:1057D000226C84F83C3042F020022264012070BD2B
:1057E0002DE9F0431546026885B0DDE90C7899464D
:1057F000136843F4807313600E463B46CDF8008077
:1058000000224FF001110446FFF73EFF236838B134
:105810001B68DB0502D54FF400732364032620E0E8
:1058200006F0FE061E611A4943463A462046FFF737
:105830006BFFA8B9236803905A6903929B6903938D
:10584000424639462046039BFFF7A0FF064660B15B
:10585000236C042B01BF2268136843F400731360A8
:105860000126304605B0BDE8F083B9F1010F236889
:1058700002D1EDB21D61F4E72A0A1A6139464246A7
:105880002046FFF783FF0028E2D12368F1E700BF3D
:10589000020001002DE9FF479A46036815461A6881
:1058A00042F480621A601A68DDE90C7842F4807272
:1058B0001A600E463B46CDF8008000224FF00111E1
:1058C0000446FFF7E1FE236838B11B68DB0544BFDF
:1058D0004FF400732364032021E05FFA86F906F099
:1058E000FE061E612B4943463A462046FFF70CFF51
:1058F000A0B9236803905A6903929B6903934246B7
:1059000039462046039BFFF741FF58B1236C042B17
:1059100001BF2268136843F400731360012004B0D0
:10592000BDE8F087BAF1010F23681AD1EDB2424603
:105930001D6139462046FFF729FF02460028E5D1C0
:1059400021680B6843F480730B602046CDF800801B
:105950003B464FF00111FFF797FE226860B11368D4
:10596000B4E72A0A1A61394642462046FFF70EFF7D
:105970000028CBD12368D9E749F001031361054919
:1059800043463A462046FFF7BFFE003818BF0120C5
:10599000C5E700BF0200010070B504460D4616467B
:1059A00023685B695B0701D500201EE02046FFF7F6
:1059B00051FEC8B96A1CF3D0FEF71CFF801BA84239
:1059C00001D8002DECD123685B6913F00403E7D103
:1059D0002022236384F83D2084F83E30226C84F832
:1059E0003C3042F020022264012070BD70B50446B4
:1059F0000D46164621684B6913F0400301D0002084
:105A000011E04A69D2060FD56FF010024A612022D8
:105A1000236384F83D2084F83E30236C2364002304
:105A200084F83C30012070BDFEF7E4FE801BA842E4
:105A300001D8002DDED123685B6913F04003D9D172
:105A40002022236384F83D2084F83E30236C1343E6
:105A5000E4E7000070B5044608B9012070BD90F875
:105A60003D3003F0FF021BB980F83C20FCF7C0FA80
:105A7000242384F83D3023681A6822F001021A605A
:105A80001A6842F400421A601A6822F400421A604E
:105A900000F0A8FE3F4B65689D4294BF3E4B3F4BD4
:105AA00098428CBF00230123002BD6D12268394EA7
:105AB00051683B4BB0FBF3F321F03F011943B54272
:105AC000516088BF4FF49676116A88BF734321F006
:105AD0003F0184BF4FF47A76B3FBF6F301330B43F7
