:020000040800F2
:10000000000003205D060008592400085B24000856
:100010005D2400085F24000861240008000000003F
:1000200000000000000000000000000091900008A7
:10003000632400080000000021910008B189000835
:10004000AD060008AD060008AD060008AD060008C4
:10005000AD060008AD060008AD060008AD060008B4
:10006000AD060008AD060008AD060008AD060008A4
:10007000AD060008AD060008AD060008AD06000894
:10008000AD060008AD06000865240008AD060008AE
:10009000AD060008AD060008AD060008AD06000874
:1000A000AD060008AD060008AD060008AD06000864
:1000B000AD060008AD060008AD060008AD06000854
:1000C000AD060008AD060008AD060008AD06000844
:1000D000AD060008AD060008AD060008AD06000834
:1000E000AD060008AD060008AD060008AD06000824
:1000F000AD060008AD060008AD060008AD06000814
:10010000AD060008AD060008AD060008AD06000803
:10011000AD060008AD06000871240008AD06000811
:100120007D240008AD060008AD060008AD060008F5
:10013000AD060008AD060008AD060008AD060008D3
:10014000AD060008AD060008AD060008AD060008C3
:10015000AD060008AD060008AD060008AD060008B3
:10016000AD060008AD060008AD060008AD060008A3
:10017000AD060008AD060008AD060008000000004E
:10018000AD060008AD060008AD060008AD06000883
:10019000AD060008AD060008AD060008AD06000873
:0C01A00089240008AD0600089524000822
:1001B00010B5054C237833B9044B13B10448AFF3A1
:1001C00000800123237010BD800300200000000088
:1001D0009059020808B5034B1BB103490348AFF31C
:1001E000008008BD00000000840300209059020830
:1001F00001F0FF01102A2BDB10F0070F08D010F8D8
:10020000013B013A8B422DD010F0070F42B3F6D1DB
:10021000F0B441EA012141EA014122F007047FF0F4
:1002200000070023F0E80256083C85EA010586EA4B
:10023000010685FA47F5A3FA87F586FA47F6A5FA87
:1002400087F68EB9EED1F0BC01F0FF0102F0070293
:1002500032B110F8013B013A83EA010313B1F8D13E
:100260000020704701387047002D06BF354603381F
:10027000073815F0010F07D1013015F4807F02BF58
:10028000013015F4C03F0130F0BC0138704700BFA9
:100290007BB972B90029BEBF00204FF0004106E0D3
:1002A00008BF00281CBF6FF000414FF0FF3000F086
:1002B000D3B9ADF1080C6DE904CE002909DB002BA0
:1002C0001ADB00F04DF8DDF804E0DDE9022304B0AC
:1002D0007047404261EB4101002B1BDB00F040F80E
:1002E000DDF804E0DDE9022304B0404261EB4101A6
:1002F000524263EB43037047524263EB430300F007
:100300002FF8DDF804E0DDE9022304B0404261EBA0
:1003100041017047524263EB430300F021F8DDF8DE
:1003200004E0DDE9022304B0524263EB430370476B
:1003300053B94AB9002908BF00281CBF4FF0FF314C
:100340004FF0FF3000F088B9ADF1080C6DE904CE34
:1003500000F006F8DDF804E0DDE9022304B07047A0
:100360002DE9F047089D8E4604468846002B4AD169
:100370008A42174662D9B2FA82F64EB1C6F120031C
:1003800001FA06F820FA03F3B74043EA0808B4403C
:100390004FEA174E1FFA87FCB8FBFEF1230C0EFB49
:1003A000118843EA084301FB0CF29A4209D9FB1871
:1003B00001F1FF3080F0EA809A4240F2E780023992
:1003C0003B449A1AA3B2B2FBFEF00EFB102243EAA2
:1003D000024300FB0CFC9C4509D9FB1800F1FF32DD
:1003E00080F0D6809C4540F2D3803B44023840EAFE
:1003F0000140A3EB0C0300211DB1F3400022C5E92D
:100400000032BDE8F0878B4205D90DB1C5E9000186
:1004100000210846F5E7B3FA83F1002946D1734578
:1004200002D3824200F20581841A6EEB030201209E
:100430009046002DE5D0C5E90048E2E7002A00F02B
:100440009080B2FA82F6002E40F0A4808A1A030C43
:100450004FEA174E80B2BCB20121B2FBFEFC0EFB8C
:100460001C2243EA024304FB0CF29A4207D9FB1810
:100470000CF1FF3802D29A4200F2E080C4469B1A87
:10048000B3FBFEF20EFB123340EA034302FB04F41B
:100490009C4207D9FB1802F1FF3002D29C4200F2C5
:1004A000CA8002461B1B42EA0C40A5E7C1F12006A8
:1004B0008B4022FA06F71F430EFA01F420FA06F3E6
:1004C0002EFA06FE4FEA1749234300FA01F81FFAF5
:1004D00087FCBEFBF9F01C0C09FB10EE44EA0E444D
:1004E00000FB0CFEA64502FA01F209D93C1900F105
:1004F000FF3A80F09C80A64540F2998002383C4447
:10050000A4EB0E041FFA83FEB4FBF9F309FB1344BA
:100510004EEA044403FB0CFCA44508D93C1903F142
:10052000FF3E80F08280A4457FD9023B3C4443EAF1
:100530000040A4EB0C04A0FB02EC64457346E146CA
:1005400062D35FD05DB1B8EB030264EB090404FA37
:1005500006F622FA01F31E43CC40C5E900640021EF
:100560004FE7B1FBF2FC010C41EA0E4180B240EAD8
:1005700001423B4638463C46B846BE462026B1FBC3
:10058000F7F1A2EB080241EA0C4166E7014618E7E1
:1005900010462CE7C6F120022EFA02F3B740B14014
:1005A00020FA02F24FEA174E0A43B3FBFEF8BCB240
:1005B0000EFB1833110C41EA034108FB04F9B0406B
:1005C00089454FEA104380B23ED9791808F1FF3CC3
:1005D00001D289451FD8A1EB0901B1FBFEF909FB46
:1005E00004F80EFB191192B242EA0142424529D2A7
:1005F000BA1809F1FF31C4D24245C2D2A9F10201B1
:100600003A44BEE7F0459DD2BEEB02036CEB070C0B
:100610000138E14696E7A7EB09094944A8F1020C25
:10062000B1FBFEF909FB04F8DBE773467FE75046B0
:1006300066E70846FDE63B44023A33E7ACF1020CBC
:100640003B441CE749469CE7A1EB0901C446B1FBCA
:10065000FEF909FB04F8C4E7704700BFDFF834D0A7
:10066000002103E00C4B5B58435004310B480C4B0A
:1006700042189A42F6D30B4A02E0002342F8043BA8
:10068000094B9A42F9D305F053FA24F013FC01F018
:1006900077F8704700000320F4DD0E08000000200A
:1006A000680100208003002004520120FEE770470B
:1006B00008B500F0BFFDBDE8084000F041BD00F006
:1006C000BBBD704710B50421044623F0A9F92046AC
:1006D00010BD000038B50C4B0C4C18800C4B822020
:1006E00019806368984740F6110398420AD1094D72
:1006F00023682C60822098472B688220DB6898470B
:10070000002038BD0120FCE7A60300205000002097
:10071000A4030020A80300204FF4A071F020FFF7ED
:10072000D9BF0000F7B5394D2B6804461B698220FC
:100730009847208000284ED02B680DF106025B6997
:1007400001A982209847324B1B78002B4BD0BDF873
:10075000062040F674639A423FD9ADF80630BDF8E2
:1007600006209B1A9BB20A2B42D90B22B3FBF2F351
:10077000284A1288934201D9013A93B2BDF8042065
:10078000254840F6B8318A4234D8C2F571620E323B
:10079000016892B20F25B2FBF5F2204D2D88AA42D6
:1007A00084BF05F1FF35AAB28A4215468EB22AD916
:1007B000921B91B21A4E3768BB42BAB28CBF9A1ADA
:1007C000D21A92B211440529C4BF05603360036890
:1007D00063803368A38003B0F0BDB32A9CBFB4220A
:1007E000ADF80620BBE7BDF80630A3F5B473B9E752
:1007F0000023C3E7C2F56D62083292B20E2A016887
:10080000C8D800252A46891A89B2D3E7A803002050
:100810007C290020A4030020A0030020A6030020C0
:100820009C03002037B568460D461446FFF77AFF53
:10083000BDF8000030B1BDF802302B60BDF80430C7
:100840002360012003B030BD032821D8DFE800F089
:10085000020B12190F4B1A68B2FA82F252090421E4
:100860000D4806F0BBB80B4B5A68B2FA82F2520937
:100870000821F5E7074B9A68B2FA82F25209102173
:10088000EEE7044BDA68B2FA82F252092021E7E778
:10089000704700BFAC03002000100240032821D89D
:1008A000DFE800F0020B12190F4B1A68003A18BF6C
:1008B000012204210D4806F091B80B4B5A68003A0A
:1008C00018BF01220821F5E7074B9A68003A18BFC4
:1008D00001221021EEE7044BDA68003A18BF01222A
:1008E0002021E7E7704700BFAC0300200010024062
:1008F00003280DD8DFE800F00206080A04210548A5
:1009000006F071B80821FAE71021F8E72021F6E790
:10091000704700BF0010024008B5032811D8DFE877
:1009200000F0020A0C0E0421074806F051F8431E9D
:100930005842584108BD0821F6E71021F4E720216C
:10094000F2E70020F3E700BF0010024070B5084D49
:1009500000240126E0B2FFF7DFFF18B12B68012B5E
:1009600018BF2E600134052C05F10405F2D170BDCD
:10097000AC030020012380F8781080F879307047AC
:100980007047002070470000034B4164003918BFD6
:1009900001211970704700BFC34401207047002037
:1009A0007047836B0BB10846184770474FF6FF70CE
:1009B0007047406803689B691847704770477047E5
:1009C0007047704710B5044600F04CFD236803499A
:1009D000D3F890302046BDE810401847000000D002
:1009E00008B503680446D3F8843098472368204646
:1009F000DB6F984700F0ECF8236820465B6F984760
:100A0000292001F0DBF900F0E3F8236820465B6F52
:100A10009847F8E710B504460BF052F923682046D2
:100A2000D3F8BC30BDE81040184700F0FFBC00F020
:100A300003BD00F035BD00F0D5BC00F045BD00F0B1
:100A40004DBD00F0D9BC0AF069BB10B58421044645
:100A500022F0E6FF204610BD10B590F8341090F853
:100A600078400C4B8C421A7809D03AB90A4A0B49A3
:100A70001488088810800C8001221A7010BD002A8A
:100A8000FCD0054A05491488088810800C80002293
:100A9000F3E700BFBC440120B8440120BA44012060
:100AA00070B50D46194635B9094B0A4A0A4840F255
:100AB000FF2123F0F1FEC0E90F52084B003A18BFA6
:100AC00001221A700368BDE87040D3F890301847CF
:100AD000005A0208385A0208865A0208C244012005
:100AE00008B5094B1B888B4203D8084B1B889342DF
:100AF00005D9074B074A0848A32123F0CDFE074B31
:100B00001980074B1A8008BDB8440120BA4401205F
:100B1000CB5A02082E5B0208865A0208BE44012006
:100B2000C0440120034690F87A0018B15868036861
:100B30001B68184770470000012108B500220846CD
:100B400007F0C0FF0A4B186028B90A4B0A4A28214F
:100B50000A4823F0A1FE00220421012008F051F8E8
:100B6000074B186018B9074B034A2C21F0E708BD62
:100B7000C0030020715B0208BA5B0208E95B02084F
:100B8000BC030020315C0208024B4FF0FF311868B3
:100B900007F0E2BFC0030020014B186808F008B856
:100BA000C0030020024B0021186807F0D5BF00BF2A
:100BB000C0030020FFF7F0BF03480449006800238A
:100BC0001A4608F059B800BFBC03002004000020FA
:100BD00013B5084C00231A4601A9206808F07DF8D7
:100BE00020684FF0FF33002201A908F076F802B028
:100BF00010BD00BFBC03002003685B6C18470120D8
:100C0000704703689B6A1847FEE740F2EF30704771
:100C1000054B0360054B4FF08062C3F88820BFF39B
:100C20004F8FBFF36F8F70474067020800E100E00D
:100C300010B504464FF45A61FFF7EAFF204622F050
:100C4000EFFE204610BD000082B0002301930E4B42
:100C50001A6B42F400021A631A6B02F4000201924A
:100C6000019A1A6942F400021A611A6922F4000218
:100C70001A61064B064A1A61064A5A61064B4FF042
:100C800080629A6002B0704700380240102B00204A
:100C9000E90E0008090C000800E100E008B50A2888
:100CA00009D8DFE800F006100E0808080810101038
:100CB0001000022008BD054B054A0648902123F08C
:100CC000EBFD0020F6E70120F4E700BF735C0208AB
:100CD0008E5C0208D95C020838B50C46887FFFF7A5
:100CE000DDFFA58AE28A164B2169586342EA054274
:100CF0005A64628BD963521B1A642568082D0ED181
:100D00009A611A615862207F0E4A42EA0062DA61F3
:100D1000E2681A620C4A5961D9601A6038BD002233
:100D2000D8611A61E1680A0A480902F4784200F4BD
:100D3000FC600243C1F3C4010A439A63034AECE72F
:100D400000B002400900010001230200012303005A
:100D500008B50B280BD8DFE800F00612100A0A0AC3
:100D60000A0808080808022008BD0520FCE7054B12
:100D7000054A06486F2123F08FFD0020F4E701208B
:100D8000F2E700BF735C02081F5D0208D95C02082D
:100D90002DE9F04191F81D800C464046FFF7D8FF41
:100DA000A77F05463846FFF7D3FF06463846FFF7CC
:100DB00075FFA18A628B444B521A1A649A61228B86
:100DC000521A1A61E28A586342EA01425A6421695E
:100DD0006268D963DA602068802828D0227F0FD823
:100DE000202867D0402865D004281AD0364B45EA21
:100DF000026545F40035B845DD6161D0334A44E011
:100E0000B0F5807F04D0B0F5007FEFD1304800E02E
:100E1000304840EA0262DA61E2681A625E62596151
:100E200032E045EA026242F40032DA61F6E7A06895
:100E3000021DDA62227F45EA026545F40035DD6174
:100E40005E625961017841B1012921D0224B234AC8
:100E500023484FF48D7123F01FFDDA69418822F495
:100E60007F42013922F0100242EA0122DA610121B7
:100E7000154BDA6942F02002DA61DA699206FCD495
:100E800010229A600029B9D0164A1A60BDE8F08194
:100E9000B2F1FF01DA69408822F47F4200F1FF30AD
:100EA00022F0100242EA002242F0100218BF012193
:100EB000DA61DDE745EA0262034B42F40032B4E74F
:100EC00042F20132E1E700BF00B00240012301001D
:100ED000090002000A000200695D0208835D020841
:100EE000D95C020801230200024B1B6858680368A2
:100EF0005B691847C444012070B5044625460A4B77
:100F00000C30002660602672667245F8203B602235
:100F100029460BF02BF804F55A63EE6024359D4208
:100F2000FBD1204670BD00BF40670208034B1A6822
:100F3000D207FCD423229A60704700BF00B0024061
:100F40007047000030B50F4C2568ED07FCD4232511
:100F50000904A56041F001010225FF2B656361646E
:100F6000E0630AD00849656241EA0363E361074B25
:100F700022626061E060236030BDE561039BA36392
:100F8000034BF8E700B00240090001000100020035
:100F90000100030030B50E4C2568ED07FCD4232575
:100FA0001204A56042F001020225FF2B6563626412
:100FB000E063E16008D01B0643F00213E361054BD8
:100FC00065626061236030BD034BE3610123F9E793
:100FD00000B0024001000200020002FF30B50B4CDD
:100FE0002568ED07FCD4232512041B06A56043F4F5
:100FF0000033022542F0010265636264E063E16050
:10100000E361034B65626061236030BD00B0024064
:1010100001000200012070470C2070470C2303FBE5
:101020000100083070470C2303FB010008307047B3
:101030000120704741F26440704741F2644303FB72
:1010400001000830704741F2644303FB010008309F
:101050007047012070471020704700EB01100830E6
:10106000704700EB011008307047084601F0B6BC2D
:1010700010B5034B0360044609F0A7FD204610BDE0
:10108000F867020810B50446FFF7F2FF2046142166
:1010900022F0C6FC204610BD10B5034B0360044689
:1010A00009F093FD204610BDC467020810B5044640
:1010B000FFF7F2FF204641F26C4122F0B1FC2046DE
:1010C00010BD000010B5034B0360044609F07DFD20
:1010D000204610BD9067020810B50446FFF7F2FFE6
:1010E0002046182122F09CFC204610BD10B5094B6B
:1010F0000360044600F5A4501830FFF7B9FF04F16F
:101100002C00FFF7C9FF04F11400FFF7DBFF2046B6
:1011100010BD00BF2C68020808B50248FFF7E6FFC3
:1011200008BD00BF9C12002010B50446FFF7DEFF8B
:10113000204641F2106122F073FC204610BD0000F1
:101140002DE9F34101F01AFA054601F01BFA0024DB
:101150000146234628462246009413F0AFFB274B56
:10116000274A1A60204601F0EDFD264D264B274AFE
:1011700027489A6013F00AFB2B68BFF35B8FDB07ED
:1011800036D4284622F04EFC90B3224C224B234FFB
:10119000236004F1140000F5A55604F12C086060EA
:1011A000C4F80880E760266109F010FD1C4B6361FC
:1011B000404609F00BFD1B4BE362384609F006FD83
:1011C00004F5805303F2AC40174AC3F8982403F0A7
:1011D000F1FC2246A6F10801304603F0E1FC30465E
:1011E00001F0FCFB114823F075FB284622F026FC99
:1011F0000F4802B0BDE8F041FFF7E4BB28450120ED
:101200004804002098120020680400204C040020AC
:10121000080000209C1200202C68020834270020BF
:1012200090670208C4670208F867020819110008ED
:10123000C4030020704700000148FFF7D1BB00BF86
:10124000C403002070B5264E264C274D274B236043
:101250003046FFF751FE284618F036FC244811F0BE
:101260000FF8244B2448DC6000224FF48071C3E95E
:10127000121222491A86C3E91A12214983F858200A
:10128000C3E91E011F49C3F880101F491F480B60A6
:10129000F021C3E90422C3E90622C3E90822C3E915
:1012A0000A22C3E90E22C3E91022C3E91422C3E9CA
:1012B00017225A6683F870205A67C3E901650180D6
:1012C0001348018013484FF4A07101801248018037
:1012D00012490A70012283F83420114A1A6070BD45
:1012E000F40400209412002068040020F059020841
:1012F0004C040020C4030020000001010100000193
:10130000000450001A001400C4440120B844012015
:10131000BE440120BA440120C0440120BC44012045
:10132000546602080148FFF773BC00BFF4040020B4
:101330000020704781807047C180704701817047ED
:10134000418170477047704770477047704710B4CD
:10135000C4880368121B84885B6D091B12B25DF898
:10136000044B09B218474FF6FF7383814FF0FF33E8
:1013700003621368C36110607047002070478B8858
:10138000838001207047704780F82610704790F8DE
:101390002600704710B50022B1F90840B1F90A10D3
:1013A000028042808480C18010BD00220280428081
:1013B0008280C28070470177704780ED080A7047CD
:1013C00080F82410704780F825107047012070477E
:1013D000983070478C307047843070477047704742
:1013E00070470000034B902283F85A2383F8582358
:1013F000704700BF00E100E0094A0A49D3680A4883
:10140000C3F30A03013B9BB20B801169C1F30A01CC
:10141000013901801364536B43F001035363704738
:1014200000680140AE280020AC280020014BD3F812
:10143000AC00704700680140024B0122C3F8AC10B9
:101440005A6270470068014010B52C21044622F012
:10145000E7FA204610BD10B5BC21044622F0E0FAA0
:10146000204610BD70B5044609F0ADFE23689D6EA0
:101470000FF054FC01462046A8472368054AD3F8DC
:101480008C502046AC460023BDE87040A2F51631D2
:10149000604700BF00B004D009F07CBE09F086BEF2
:1014A00009F042BE09F0B1BF90F8252012B10368DF
:1014B0005B691847704790F825201AB190F82420EE
:1014C00002B1186070470000034B4FF080629A60D1
:1014D0004FF080729A60704700E100E0084B4FF0D7
:1014E0008062C3F88820BFF34F8FBFF36F8F4FF038
:1014F0008072C3F88820BFF34F8FBFF36F8F7047A0
:1015000000E100E070B50023124E8380124B0360AF
:10151000336893F8582005460AB1D86C00B998682A
:101520000368DB6A98473368B0FA80F4D86C6409C2
:1015300030B10368DB6A9847002808BF44F0010413
:101540002CB9064B064A07482C2123F0A5F928465A
:1015500070BD00BFC444012040680208C15D02089C
:101560001F5E0208585E020870B5254E3568BFF34D
:101570005B8F15F0010540D1304622F053FA002868
:101580003BD0204C204B256104F13400C4E90035E8
:10159000C4E90255E584A562A58511F056F904F168
:1015A00058000CF099F9194BA3652046184B40F8E8
:1015B000843BFFF7A7FF174BC4F884302433C4F8EB
:1015C0008C304FF4C803C4E928350023C4F8AC308C
:1015D000C4F8B030C4F8B430C4F8B8300E480F4B7B
:1015E000C4F89050C4F89C50C4F8A850C4F898307F
:1015F00023F070F9304622F021FA024870BD00BF96
:10160000B0280020B4280020947002086068020806
:10161000D868020848700208E11300082870020820
:1016200038B5184C23685BB3174B184A1B6C1188EC
:101630008B4216D1164B198805F0D8FF236893F812
:101640006A200025013283F86A2083F87C50FFF776
:10165000B3FA20680AF034FB2846BDE83840FFF7AB
:10166000F3B805F0C3FF2468236820461B6A984737
:10167000012384F87C300020BDE83840FFF70EB924
:1016800038BD00BFC444012000680140AE280020DE
:10169000AC28002007B5064BADF806001B680548CE
:1016A00001220DF1060106F041FD03B05DF804FBD7
:1016B00010000020BC29002008B5084D084C02226B
:1016C0002946204604F028FB142007F0EFF92046B5
:1016D00004F0C6FB642007F0E9F9F0E77029002068
:1016E000B82B002030B595B0102200210AA823F0B5
:1016F000DAFA1422002103A823F0D5FA00241E4BA5
:1017000001941A6C42F080521A641B6C03F08053EF
:101710000193019B194B02941A6842F440421A60EB
:101720001B6803F4404302930122029B4FF4803371
:10173000CDE9082302254FF480030821CDE90E539B
:101740004FF4B473CDE9101308A804231393129532
:1017500005F0A4FF05F068FF0F23CDE903354FF432
:10176000A0504FF48053CDE90603052103A805944A
:1017700006F070F915B030BD00380240007000402E
:101780002DE980489DB00024C74D04F0DFF9FFF734
:10179000A9FF142200210FA823F085FA02942B6BD5
:1017A000C24843F010032B632B6B03F0100302932A
:1017B000029B03942B6B43F020032B632B6B03F0F2
:1017C00020030393039B04942B6B43F080032B6350
:1017D0002B6B03F080030493049B05942B6B43F065
:1017E00004032B632B6B03F004030593059B069402
:1017F0002B6B43F001032B632B6B03F00103069368
:10180000069B07942B6B43F002032B632B6B03F0B7
:1018100002030793079B08942B6B43F040032B6351
:101820002B6B03F040030893089B09942B6B43F048
:1018300008032B632B6B03F00803224609933C211A
:10184000099B05F0CBF89A480122022105F0C6F861
:1018500022469748042105F0C1F8224695484FF4E6
:10186000405105F0BBF8224693484FF4C04105F0C3
:10187000B5F801263C23CDE90F368C48119403239B
:101880000FA90227129304F0BFFF89480FA9CDE9E1
:101890000F76CDE9114404F0B7FF042384480FA963
:1018A000CDE90F36CDE9114704F0AEFF4FF44053B8
:1018B00080480FA9CDE90F36CDE9114704F0A4FF08
:1018C0004FF4C0437C480FA9CDE90F36CDE9114450
:1018D00004F09AFF01942B6B43F480032B632B6B72
:1018E000764D03F480032246052101933820019BA5
:1018F00004F076FC382004F0A5FC7148714B0360BD
:1019000004F0AEFCDFF8DCC16F4B2C62C5E900C30C
:1019100028464FF48043C5E90434C5E90244C5E9CB
:10192000064405F069FA1021284605F0ADFC214671
:10193000284605F0C8FC654DDFF8ACE1AC624FF419
:101940008273C5E900E34FF400781823C5E90683E4
:1019500028460A23C5E90244C5E90444C5E9084408
:10196000EB6206F087FB8F232246394650488DF8FC
:101970002C308DF83C4005F031F832464FF47A7344
:101980000BA9284606F0D2FB4FF47A7332460FA912
:10199000284606F077FD3246394645484C4D05F05D
:1019A0001DF89DF83C30D32B04BF4A4B1E704A4BA8
:1019B0000126C5E900364FF0100A40230024C5E98E
:1019C00004A34FF4C073C5E906344FF40063C5E9BE
:1019D00008344FF4005302274FF00409AB624FF074
:1019E000030B07230FA92846CDE90F73CDE9119307
:1019F0004FF00808C5E90249CDE913B7159706F07D
:101A00001DFA4FF6FF720BA92846CDE90C860A9401
:101A10000B960E9406F032FA304604F0C3F84FF6F7
:101A2000FF720BA92846CDE90B78CDE90D6406F0CD
:101A300025FA4FF6FF720BA92846CDE90BB8CDE980
:101A40000D9406F01BFA4FF40C730A930A9B0E9345
:101A50004FF6FF720BA92846CDE90B980D9606F0BC
:101A60000DFA40F26A51284606F026FA3422214641
:101A70000FA823F018F9194D194B2C61C5E9003452
:101A80000923C5E905361D23C5E9073B40F20D12C0
:101A900040F24313C5E9092340F2171140F24713FE
:101AA0002846C5E90B1321E000380240001002402F
:101AB00000080240000C024000180240BC2A00202E
:101AC000502B002000300240A0860100BC290020DD
:101AD000882900207C290020400100A0142A002031
:101AE00000680140005C004000500140C5E902442C
:101AF000AC8685F8364005F081FCFF21F022CDE967
:101B000014144FF005084FF480614FF4A073CDE931
:101B10001024CDE91618CDE918420FA9224628460F
:101B2000CDE91237304D1A930F94ADF86C408DF813
:101B30006E4005F02EFD2D4B2B601B6898472B68DF
:101B40002B4DDB6898472B4B2846C5E90034C5E987
:101B50000274C5E90A47C5E90C4404F05BFD31464F
:101B6000284604F00DFE524621460FA823F09BF8AC
:101B7000214D2248AC604FF48033C5E90003204B6F
:101B8000AB6228462E612C7685F82040EC62EC6032
:101B9000EF6185F830606E6104F018F80D230FA92D
:101BA0002846CDE90F36119404F06AFA0FA92846A9
:101BB000CDE90F8704F064FAFEF77AFDFEF777FDB2
:101BC00006F004FF0F4A1048214606F02BFF0F4B8A
:101BD0000F4A186021460F4806F024FF0E4B18608C
:101BE00006F006FFFEE700BF78290020180000205D
:101BF000102B002000B00240B82B00200020014034
:101C00000100000F40690208B9160008842900206D
:101C10001C690208BF0600088029002038B5026848
:101C2000234B9A421DD1234B234918885A88234BB2
:101C30000D881B88224C5919884213DD0123214D40
:101C4000237022782B789A420BD02378012BDAB2BA
:101C500016D14FF400511C4804F0C0FE2378DBB2CB
:101C60002B7038BD5B1B984201DA0223E7E79142F3
:101C700001DA0323E3E79342CCBF04230023DEE72A
:101C80002378022B01D10022E3E72378032B01D133
:101C9000012203E02378042B03D100224FF480417A
:101CA000D9E7094801224FF4005104F097FEEFE70D
:101CB00000200140702900200C0000200E000020B0
:101CC00075290020742900200018024070477047D1
:101CD0007FB5094B8DF817201B6802930DF1170291
:101CE0000123009201930A460146044805F02CF9AD
:101CF00007B05DF804FB00BF14000020BC2A0020E0
:101D00007FB500238DF81730084B1B6802930A46F5
:101D100001230DF11701009101930146044805F0DC
:101D2000A3F99DF8170007B05DF804FB140000202C
:101D3000BC2A00201FB5084C24680092CDE901346C
:101D40000A4601230146054805F08EF9003818BF00
:101D5000012004B010BD00BF14000020BC2A0020E8
:101D600003F020BF10B5064C00222046042104F0E9
:101D700035FE20460122BDE81040042104F02EBEAD
:101D80000008024038B50B4D044601220A484FF4C2
:101D9000005104F023FE00220421284604F01EFE18
:101DA0002046FFF777FC28460122BDE83840042191
:101DB00004F014BE00080240000C024038B50B4D80
:101DC000044600220A484FF4005104F007FE0022A6
:101DD0000421284604F002FE2046FFF75BFC28465B
:101DE0000122BDE83840042104F0F8BD000802409B
:101DF000000C0240F7B5144E144F05460C46304611
:101E00000022042104F0EAFD00224FF4005138467C
:101E100004F0E4FD2846FFF73DFC0D4B0D481B6820
:101E2000224601A906F02EFB384601224FF400514C
:101E3000019C04F0D3FD30460122042104F0CEFDC4
:101E4000204603B0F0BD00BF00080240000C024075
:101E500010000020BC29002003F0A4BE0268034B40
:101E60009A4201D103F08CBE704700BF00100040C1
:101E70007047000082B00E4B00220092596C41F472
:101E800080415964596C01F480410091009901929C
:101E9000196C41F0805119641B6C03F0805301935D
:101EA000019B0F216FF0010002B004F099B900BF4F
:101EB0000038024070B5064688B01422002103A8FD
:101EC00022F0F1FE32682D4B9A4254D103F58C3347
:101ED000002500955A6C2A4842F480725A645A6C64
:101EE00002F480720092009A01951A6B42F004028B
:101EF0001A631A6B02F004020192019A02951A6B9E
:101F000042F001021A631B6B03F0010302930324E6
:101F1000029B03A90823CDE9033404F075FC2023B8
:101F20001848059503A9CDE9033404F06DFC164C5F
:101F3000164B4FF48062C4E900354FF40063C4E9E6
:101F400004234FF400514FF480732046C4E9025536
:101F5000C4E90613C4E9085504F0A8F908B1FFF76D
:101F600087FFB463122000220521A66304F038F92C
:101F7000122004F067F908B070BD00BF00200140D6
:101F80000008024000000240582B0020106402406C
:101F90000268094B9A4282B00BD100230193074B90
:101FA0001A6B42F480521A631B6B03F48053019343
:101FB000019B02B0704700BF003002400038024071
:101FC00007B50F4B02689A4216D10022A3F5F043E1
:101FD0000192196B41F4000119631B6B03F40003B8
:101FE000019305215A20019B04F0FAF85A2003B00E
:101FF0005DF804EB04F026B903B05DF804FB00BF04
:1020000000B002402DE9F043044689B014220021BB
:1020100003A822F048FE2268244B9A4243D1244C64
:10202000244800250095236B43F004032363236BAE
:1020300003F004030093009B0195236B43F001031D
:102040002363236B03F001030193019B4FF01209FB
:102050004FF400734FF001080327042603A9CDE9CC
:102060000339CDE90587079604F0CEFB4FF4807362
:102070001148079603A9CDE90339CDE9058704F096
:10208000C3FB0295236C43F400032364236C03F425
:1020900000030293029B236A43F400032362236A32
:1020A00023F40003236209B0BDE8F083005C004024
:1020B000003802400008024000000240F0B599B02C
:1020C00004461422002107A822F0EDFD30220DEB7A
:1020D0000200002122F0E7FD22685E4B9A4240F0A8
:1020E000B78008230C93C0231093042312930CA8E9
:1020F0004FF40033159305F075FD08B1FFF7B8FEF6
:10210000554B5648002400945A6C42F080625A6441
:102110005A6C02F080620092009A01941A6B42F0AD
:1021200020021A631A6B02F020020192019A0294B3
:102130001A6B42F001021A631A6B02F0010202925A
:10214000029A03941A6B42F002021A631A6B02F0AD
:1021500002020392039A04941A6B42F040021A633B
:102160001A6B02F040020492049A05941A6B42F032
:1021700004021A631A6B02F004020592059A06948F
:102180001A6B42F008021A631B6B03F008030693F4
:1021900002250E26069B0B964FF4806307A9CDE916
:1021A0000735CDE9094504F02FFB41F658032C48CB
:1021B0000B9607A9CDE907350927CDE9094504F0B4
:1021C00023FB032327480B9707A9CDE90735CDE962
:1021D000094504F019FB4FF4706322480B9607A9D8
:1021E000CDE90735CDE9094504F00EFB4FF40C634A
:1021F0001D480B9607A9CDE90735CDE9094504F03F
:1022000003FBC02319480B9607A9CDE90735CDE993
:10221000094504F0F9FA082315480B9607A9CDE9FA
:102220000735CDE9094504F0EFFA4FF4A0530E4805
:102230000B9707A9CDE90735CDE9094504F0E4FA84
:1022400058202246052103F0CBFF582003F0FAFF67
:1022500019B0F0BD0068014000380240001402408F
:102260000000024000040240001802400008024042
:10227000000C024010B5044688B01422002103A8C7
:1022800022F011FD2268144B9A4223D103F56843D2
:10229000002101915A6C114842F480125A645A6C20
:1022A00002F480120192019A02911A6B42F020020C
:1022B0001A631B6B03F020030293029B4FF46072BE
:1022C00002230321CDE903230523CDE9061303A946
:1022D00004F09AFA08B010BD00500140001402400A
:1022E0002DE9F04186B0002303932B4B1C68002C92
:1022F0004FD14FF00108C3F80080284B00949A6B2F
:10230000274842EA08029A639B6B03EA080300939A
:10231000022703260C25009B01A94FF63F03CDE9B8
:102320000137CDE9046504F06FFA1E48059501A94F
:10233000CDE90187CDE9034604F066FA48F233138C
:102340001948059501A9CDE90137CDE9034604F007
:102350005BFA4FF683731548059501A9CDE901375E
:10236000CDE9034604F050FA4CF20373104805958A
:1023700001A9CDE90137CDE9034604F045FA602310
:102380000C48059501A9CDE90137CDE9034604F0D4
:102390003BFA06B0BDE8F081002C00200038024076
:1023A00000140240000802400018024000100240E1
:1023B000000C02400004024070B588B00023029374
:1023C000204B1A6C42F010021A641B6C03F01003CD
:1023D0000293054601A903A8029B05F0E5FB069BB5
:1023E0004BBB05F0D1FB184E184B336040F2E7337E
:1023F000F360174BB0FBF3F3013B736030460023EF
:102400003361B360B36106F00DFA044680B930461B
:1024100006F0DEF8044658B9362003F013FF0F2DFE
:102420000DD822462946362003F0DAFE094B1D60FE
:10243000204608B070BD05F0A7FB4000D3E701249B
:10244000F6E700BF00380240042C002000100040D6
:1024500040420F00800000207047FEE7FEE7FEE7E5
:10246000FEE77047014803F03CBD00BFB82B0020D9
:10247000014806F0EBB800BF042C0020014804F02E
:102480000BB800BF582B0020014805F025B800BF4D
:10249000142A0020014804F0E9B800BF102B0020E6
:1024A0000120704708B522F0FFFC162303604FF0AF
:1024B000FF3008BD08B522F0F7FC16230360FEE7E5
:1024C00070B50D4614460E46731B9C4201DC204637
:1024D00070BDAFF3008006F8010BF5E770B50D464F
:1024E00014460E46731B9C4201DC204670BD16F854
:1024F000010BAFF30080F5E74FF0FF3070474FF46A
:1025000000534B6000207047012070470020704747
:102510000A4A116808B5034609B9094911601068EB
:10252000694603448B4206D922F0BEFC0C230360AB
:102530004FF0FF3008BD1360FCE700BF4C2C0020BB
:1025400008520120704710B50421044621F068FAB2
:10255000204610BD012908B506D0022908D059B976
:1025600000F03CFC006808BD00F038FC4068FAE769
:1025700000F034FC8068F6E70020F4E7004870477C
:10258000786902080E20704713B5002451B1036822
:1025900001948DF8034001AA9C680DF10303A04744
:1025A00002B010BD0846FBE7C0897047008A70473B
:1025B000C088704780887047807A00F07F0070473D
:1025C000807AC00970470020704700009FED010A23
:1025D000704700BF00000000704710B50821044696
:1025E00021F01EFA204610BD7047704700F5987321
:1025F0000868496803C37047704770474160704777
:1026000070477047064BC0F84C310023C0F850317A
:1026100000F5A273C0F84801C0F84031704700BF10
:1026200011280008012303727047704710B4C26874
:1026300041685410034601EB6200D20748BF0A59B3
:102640009B685DF8044B48BFD35818470346406861
:1026500030B19A681AB9D86800F0010070470120BB
:10266000704710B50C21044621F0DAF9204610BD60
:1026700010B51021044621F0D3F9204610BD10B545
:102680004FF4AE71044621F0CBF9204610BD10B5D1
:102690000EF044FB0368BDE81040DB6B184710B533
:1026A0000446D0F8400158B10368DB68984738B158
:1026B000D4F8400103689B6898470023C4F8403170
:1026C00010BD00002DE9F14FD0E9556A0746B0680A
:1026D00003681B6A984741F26343984205D8444B0C
:1026E000444AA321444822F0D7F8706803681B6A63
:1026F00098470F2803D8414B3E4AA421F2E7F068DF
:1027000003681B6A98470B2803D83D4B394AA5211B
:10271000E8E70EF003FBDFF8F09004300EF03CFB2E
:10272000D9F8000010B10368DB689847D9F80000B9
:1027300010B103681B689847DFF8D080D8F8000014
:1027400010B103685B699847D7F83C0110B1036882
:102750005B689847D8F8000010B103681B68984779
:10276000D7F83C0110B103689B689847F06803688C
:1027700000215B6A98474FF0000B224BC0F804B071
:10278000044680F808B00360B068036859465B6A85
:102790009847054602F0CAFA7068036859465B6AB2
:1027A00098472946064602F06FFA331DC7F83C6188
:1027B000C9F80040C8F80050CAF800302B68C6F8C5
:1027C00008A02846DB68EE639847336830461B68EC
:1027D00098472146284610F09BFC236820461B6939
:1027E000984723685B69204601B0BDE8F04F184761
:1027F000CF5E02085D5F0208356002087C60020857
:102800001F610208146B02080C45012008450120D5
:102810002DE9F14FD0E9556A0746B06803681B6A95
:102820009847B0F5357F05D2444B454AA32145482A
:1028300022F032F8706803681B6A98470F2803D8A3
:10284000414B3F4AA421F2E7F06803681B6A9847AE
:102850000B2803D83D4B3A4AA521E8E70EF05EFA73
:10286000DFF8F09004300EF097FAD9F8000010B1BC
:102870000368DB689847D9F8000010B103681B684B
:102880009847DFF8D480D8F8000010B103685B697E
:102890009847D7F83C0110B103685B689847D8F8AF
:1028A000000010B103681B689847D7F83C0110B1CD
:1028B00003689B689847F068036800215B6A984743
:1028C0004FF0000B224BC0F804B0044680F808B06B
:1028D0000360B068036859465B6A9847054602F092
:1028E000A5F97068036859465B6A98472946064609
:1028F00002F078F9331DC7F83C61C9F80040C8F808
:102900000050CAF800302B68C6F808A02846DB68DB
:10291000EE639847336830461B689847214628463F
:1029200010F0F6FB236820461B69984723685B6913
:10293000204601B0BDE8F04F184700BFCF5E020847
:10294000C2610208356002087C6002081F6102084B
:10295000146B02080C45012008450120044B1B683C
:1029600093F858200AB1D86C00B99868704700BF36
:10297000C4440120F8B5174604460E460EF0DAFAB4
:10298000124B1C60124B2360124B0025C4E95135D9
:10299000114BC4E953551868036801219B68C4E9C9
:1029A0004F55C4E955769847284600F0CBF9FFF714
:1029B000D5FF18F032FFFFF7D1FF18F0A9FFFFF79E
:1029C000CDFF18F0B1FF2046F8BD00BF184501202B
:1029D000C06A0208A86A0208C4440120064BC0F875
:1029E0004C310023C0F8503100F5A273C0F8480103
:1029F000C0F84031704700BF11280008064BC0F8EE
:102A00004C310023C0F8503100F5A273C0F84801E2
:102A1000C0F84031704700BFC5260008406A7047C3
:102A2000806A704770478A880B8810B5D20A4C8834
:102A3000C1699BB251F8220043EA0443184410BD17
:102A400010B50446BAB1107B68B1537BD27A1B0231
:102A500003F4E0631A43236A03EB82031A888A4271
:102A600002D193F9020010BD05D8013880B20433B9
:102A70000028F3D1F7E70020F5E710B52C21044634
:102A800020F0CEFF204610BD30B58BB00446BDF817
:102A900060500895BDF85C5007959DF8505006951C
:102AA0009DF84C5005959DF8485004959DF844506C
:102AB00003959DF8405002959DF83C500195BDF856
:102AC000385000950FF07EFF064B2360159BE361A5
:102AD000169B2362199B63621A9BA36220460BB06C
:102AE00030BD00BF386B02087047000030B5174D8D
:102AF0002C6814F001048FB0BFF35B8F22D12846FD
:102B000020F090FFF0B13F230993114B0893114B34
:102B100007930123CDE9054304930423CDE9024340
:102B20000A230D49009316220C23CDE90B440B48D0
:102B30000A940194FFF7A8FF094821F0CBFE28462C
:102B400020F07CFF05480FB030BD00BF502C0020A6
:102B5000889C02087C9D02088C970208542C002057
:102B6000E92A00087047000030B5174D2C6814F0B2
:102B700001048FB0BFF35B8F22D1284620F052FFB3
:102B8000F0B13F230993114B0893114B0793012395
:102B9000CDE9053304930423CDE9024314230D4901
:102BA000009340221823CDE90B440B480A9401946A
:102BB000FFF76AFF094821F08DFE284620F03EFF0E
:102BC00005480FB030BD00BF802C00208C9C02084F
:102BD000809D0208C0980208842C0020652B000804
:102BE0007047000030B5164D2C6814F001048FB00A
:102BF000BFF35B8F21D1284620F014FFE8B13F23BB
:102C00000993104B0893104B07930123CDE905431B
:102C100004930423CDE9024328230C4900930522A1
:102C2000CDE90B440A480A940194FFF72DFF0948A7
:102C300021F050FE284620F001FF05480FB030BDBE
:102C4000B02C00206C9D0208849D0208409C020864
:102C5000B42C0020E12B00080020704700207047B2
:102C60000EB403B503AB002153F8042B01930FF00E
:102C700027F902B05DF804EB03B070470CB407B558
:102C800004AB53F8042B01930FF01AF903B05DF86D
:102C900004EB02B070470000436C10B5044673B3F8
:102CA000038F2BB9184B194AC521194821F0F4FD9F
:102CB000C38E00EB43035B8C0BB310F0B0FF238F8C
:102CC000012B03D8134B144ACB21EEE7E28E531CA1
:102CD0009BB2092B194688BFA3F10A0104EB4101FD
:102CE00040F63F10498C814209D10A2B04EB420285
:102CF00028BF002304EB4303508C588451842046A2
:102D0000BDE8104010F08EBE9A620208A36202086D
:102D10004E63020898630208A663020810F049BED9
:102D200010B586B002AC84E806001A460AAB0593DB
:102D30000193099B00932146089B0DF08DFB06B083
:102D400010BD000038B518BB124B13481C6813495E
:102D5000B4B1226822440260626822440A60A26818
:102D600014440F4B00221A8000F038F8054600F09A
:102D700033F80C4B1C600C4B1D600C4B188007E0AB
:102D80000B4B03600B4B0B600B4B1C68002CE8D10A
:102D900038BD00BFEC2C0020E42C0020E02C0020EB
:102DA000E82C00201C45012024450120204501205D
:102DB0004C9E0208889D0208189F0208044B1B685D
:102DC00053F82100034B1B6803EB4000704700BF22
:102DD000E02C0020E42C0020312070470048704790
:102DE000F02C002010B5FFF7BFFE044C2060FFF769
:102DF000F9FE6060FFF77AFEA06010BDF02C0020A5
:102E000010B5002404600C6014601C6010BD704795
:102E1000704770477047704730B5036885B06D469E
:102E20000181D3F88430014604462846984795E846
:102E300007003C3484E8070005B030BD30B50368B6
:102E400085B06D464181D3F884300146044628465A
:102E5000984795E807003C3484E8070005B030BD8A
:102E60000022028042808280C280704780F8361043
:102E7000704770B5036804461B6B15469847236876
:102E8000294620465B6EBDE8704018470020704719
:102E9000806C70477047704770477047704730B418
:102EA000C26844685510034604EB6200D20748BF6D
:102EB00062599B6830BC48BFD358184703464068E6
:102EC00030B19A681AB9D86800F001007047012043
:102ED000704710B54C21044620F0A2FD204610BDDD
:102EE00010B51021044620F09BFD204610BD10B502
:102EF0004FF43571044620F093FD204610BD08B50F
:102F0000FEF7D2FA08BD0000036870B55E6B124B85
:102F10001B6804468DB22BB9104B114A6C21114825
:102F200021F0BAFC1049828D0988914203D80F4BD9
:102F30000B4A6D21F3E713F812200D4B1B6853F871
:102F4000220003681B6B9847291A3346204609B2B2
:102F5000BDE87040184700BF1C4501207864020896
:102F6000BA640208F5640208204501203C650208A5
:102F70002445012038B500F19803994204460D46D6
:102F80000AD1012380F8953100F5B8700FF0C2F82E
:102F900023682046DB6A984704F5E4739D4206D116
:102FA000002384F8953104F5B8700FF0B3F8E034DD
:102FB000A54205D10DF0B2FEBDE83840FFF71EBDB9
:102FC00038BD00224FF0FF31C0E900218260704718
:102FD00070B5036804461B6B15469847236829465D
:102FE00020465B6BBDE87040184770B504461D462F
:102FF000BDF91060FFF7ECFF2368294620469B6B64
:103000009847236831462046DB6BBDE8704018477F
:103010000022C0E90122C0E90322C0E90522C0E97B
:1030200007224FF480728284014A0260704700BF19
:10303000A06B020838B5262204460D46002121F077
:1030400032FE2046FFF7E4FF064B23602B88E38423
:10305000FF23204684F8283029460BF072F92046D9
:1030600038BD00BF50720208F8B5194B018F1B889C
:103070008B4206462AD9174B1B682BB9164B174AA9
:1030800017486C2121F008FC13F81120154B1B6820
:1030900053F82250144B1868FFF790FE2B68074630
:1030A0009B6B284698472B6804469B6C39462846FC
:1030B00098472B6814FB00F45B6A3946284698470A
:1030C000A4B223181BB2A6F84630F8BD0023FAE7D5
:1030D000204501201C45012078640208BA640208DA
:1030E000F5640208244501202845012010B5262258
:1030F0000446002121F0D7FD2046FFF789FF0A4B47
:1031000023600A4BA3624FF6FF73A3854FF47F023F
:103110000023C4E90C3223874FF0FF32C4E91023A7
:10312000E363204610BD00BF58710208986A020888
:103130002DE9F04F044691B0264600250FF03CFEE5
:10314000D04BE56346F8403B26222946304621F025
:10315000AAFD3046FFF75CFFCB4B236404F16C0BF8
:10316000FF2304F1980A84F866300EA94FF6FF7722
:10317000A566584604F1E009ADF83870FFF75AFF2C
:1031800050460BF01FFA04F5947848460BF01AFAF3
:103190004046FFF7ABFF04F5B87302934FF480731A
:1031A000A4F89431B94BC4F8703104F5CE730EA96C
:1031B000C4E95D55C4E95F55C4E96155C4E9635587
:1031C000C4F8985118460693ADF83870FFF732FFEF
:1031D00004F5E473184603930BF0F4F904F5047353
:1031E00018460493FFF782FF04F5167318460593FB
:1031F000FFF77CFFA64BC4F85832A64BC4F8A05288
:10320000C4E9B134A44BC4E9B3354FF4A0732A46E2
:10321000294630460093F023FFF7E7FE271D4FF0C5
:103220007F43A3663146384607F0E2FC2A4629462A
:103230005846FFF7CDFE022358460EA9ADF83830A8
:103240000BF07FF85946384607F0D2FC5046C222B0
:103250002121FFF7BDFE4FF00D0B0C230DA95046A9
:103260000EAAADF83430ADF838B00AF038FF2F228E
:103270008A4EA4F8D0205046FFF7F6FE4FF0FF33F9
:10328000C4E9356304F53173C4F8C030514638469B
:10329000079307F0ADFC484664222121FFF798FE12
:1032A0000EAA0C230DA94846ADF83430ADF838B05D
:1032B0000AF015FF30234846A4F81831FFF7D4FE72
:1032C0004FF0FF33C4F82031079BC4F8083149465A
:1032D000C4F81C61384607F08BFC112240462D21B2
:1032E000FFF776FE08AE6E4BC4F858314146A4F89D
:1032F0005C5130460AF0EEFB96E8070004F5B27325
:1033000083E80700DFF8C091CDF8389040464FF0D1
:103310002E0A0EA9ADF83CA00AF084FE41463846BC
:1033200007F066FC9623029800935522D62359464F
:10333000FFF75BFE6FF001022946069884F895516D
:10334000FFF746FE04230698ADF838300EA90AF0C0
:10335000F8FF0699029807F04BFC03986D2259215B
:10336000FFF736FE4FF0050806230EAA0DA90398B5
:10337000ADF83830ADF834800AF0B1FE2D23039853
:10338000A4F80032FFF770FE464A4FF0FF33C4E95D
:103390008123079BC4F8F031DDE9020107F028FC26
:1033A000424604981621FFF713FE4FF07F4304991D
:1033B000C4F84032A4F8445230460AF08BFB96E839
:1033C000070004F5137383E807002C230498ADF875
:1033D0003C300EA9CDF838900AF024FE04990298EA
:1033E00007F006FC37235246059800930821C723AF
:1033F000FFF7FBFD4FF07F43C4F88832D4F8583212
:103400000599D3F88430A4F88C523046984796E852
:10341000070004F5257383E80700234B1B6804F5B8
:1034200029752BB9214B224A6021224821F034FA18
:10343000214B1B88122B03D8204B1D4A6121F4E736
:103440001F4B12211868FFF7B9FC1E4A03461021D2
:10345000284611F08DF92B230598C4F8A0520EA927
:10346000ADF83C30CDF838900AF0DCFD05990298B3
:1034700007F0BEFB3846029907F0BAFB204611B0B0
:10348000BDE8F08FB06C0208E8710208686F0208AE
:10349000086C0208986C0208752F0008155202FF8C
:1034A000DEED09FF050380FF1C450120786402085A
:1034B0007A650208F5640208204501203C6502088F
:1034C00028450120C5650208986A0208806A70478D
:1034D000704770477047704770477047704730B407
:1034E000C26844685510034604EB6200D20748BF27
:1034F00062599B6830BC48BFD358184703464068A0
:1035000030B19A681AB9D86800F0010070470120FC
:10351000704701867047008E704710B548210446F9
:1035200020F07EFA204610BD10B51021044620F090
:1035300077FA204610BD10B541F29411044620F0F0
:103540006FFA204610BD10B500F58054D4F89021D4
:103550000132022AC4F8902105D103681B6B9847F9
:103560000023C4F8903110BD4FF480710022818493
:1035700005490160C0E90122C0E90322C0E9052232
:10358000C0E9072282627047686F020810B52622E0
:103590000446002121F087FB2046FFF739FD044B4C
:1035A0002360FF2384F826300023A362204610BD49
:1035B000E871020800224FF0FF31C0E9002182606B
:1035C0007047000010B50446FFF790FD024B2360E2
:1035D0000023A364204610BD086C020810B5044601
:1035E000FFF7C2FF064B23600023C4E90C33C4E994
:1035F0000E33C4E9103384F82C30E385204610BD27
:10360000E86C02082DE9F04F0446C9B027460025B2
:103610000FF0D2FBDC4BE56347F8403B0DF58A7AAF
:1036200004F16C093846FFF7B1FF04F198064FF634
:10363000FF7851464846ADF81481FFF7FBFC304651
:103640000AF0C0FF04F1E00318460293FFF78CFF75
:1036500004F58673514618462093ADF81481FFF7A0
:10366000E9FC04F59C7318460893FFF7B7FF04F5CF
:10367000C073184604F5D67B3093FFF787FF584692
:10368000FFF7A0FF04F5FC7318460993FFF7A6FFA8
:1036900004F5107318463193FFF778FF04F51B7398
:1036A00018460A93FFF78EFF04F52E7318460B9306
:1036B000FFF794FF04F5407318463293FFF766FF57
:1036C00004F54B7318460C93FFF77CFF04F55E730B
:1036D00018460D93FFF782FF04F570731846339375
:1036E000FFF754FF04F57B7318460E93FFF76AFF4C
:1036F00004F5876318460F93FFF770FF04F5906396
:1037000018463493FFF742FF04F2AC431846219366
:10371000FFF758FF04F59F6318461093FFF75EFF0D
:1037200004F5A86318463593FFF730FF04F26C5395
:1037300018462293FFF746FF04F5B7631846119326
:10374000FFF74CFF04F5C06318463693FFF71EFFE2
:1037500004F22C6318462393FFF734FF04F5CF637C
:1037600018461293FFF73AFF04F5D86318463793CB
:10377000FFF70CFF04F2EC6318462493FFF722FFD7
:1037800004F5E76318461393FFF728FF04F5F06389
:1037900018463893FFF7FAFE04F2AC7318462593E7
:1037A000FFF710FF04F5FF6318461493FFF716FFA9
:1037B00004F5046318463993FFF7E8FE04F66C033A
:1037C00018462693FFF7FEFE04F6B8031846159335
:1037D000FFF704FF04F5106318463A93FFF7D6FE8F
:1037E00004F62C1318462793FFF7ECFE04F6781323
:1037F00018461693FFF7F2FE04F51C6318463B9338
:10380000FFF7C4FE04F6EC1318462893FFF7DAFE20
:1038100004F6382318461793FFF7E0FE04F52863F3
:1038200018463C93FFF7B2FE04F6AC2318462993E2
:10383000FFF7C8FE04F6F82318461893FFF7CEFEEC
:1038400004F5346318463D93FFF7A0FE04F66C338D
:1038500018462A93FFF7B6FE04F6B83318461993B4
:10386000FFF7BCFE04F5406318463E93FFF78EFE5B
:1038700004F62C4318462B93FFF7A4FE04F6784376
:1038800018461A93FFF7AAFE04F54C6318463F93B7
:10389000FFF77CFE04F6EC4318462C93FFF792FEEC
:1038A00004F6385318460493FFF75EFE04F664539B
:1038B000514618462D93ADF81481FFF7BBFB04F574
:1038C000596318460593FFF711FC04F6D8531846C0
:1038D0001B930AF077FE04F5626318461C930AF006
:1038E00071FE04F6686318460393FFF73DFE04F685
:1038F0009463514618462E93ADF81481FFF79AFB56
:1039000004F56C6318462F93FFF75CFE04F60C7306
:1039100018460693FFF7EAFB04F6547318461D9306
:103920000AF050FE04F69C7318461E930AF04AFEF5
:1039300004F6E47318461F930AF044FE134ADFF8B6
:10394000548004F58053C3E96024114AC3F89051B0
:10395000C3E962254FF4A0732A46384600932946EE
:10396000F023FFF742FB4FF07F43A366231D184669
:103970003946079307F03CF92A4648462946FFF79F
:1039800027FB012308E000BF986D0208806D020844
:10399000754900081C45012048465146ADF81431D0
:1039A0000AF0CFFC4946201D07F022F930460822D4
:1039B0008221FFF70DFB4FF00A03524644A930461F
:1039C000ADF810310B23ADF814310AF088FB2A232F
:1039D0003046A4F8D030FFF747FB354A4FF0FF33AD
:1039E000C4E9352304F58C533146C4F8C030201D9A
:1039F000079307F0FDF8F023009302985022294620
:103A0000FFF7F3FA2A4620982946FFF7E1FA2098B3
:103A1000ADF8145151463C260AF093FC20990298C7
:103A200007F0E6F80898009633462A462946FFF73D
:103A3000DCFA2A463098009633462946FFF7D5FA35
:103A40004FF0FF3330990898C4F8A83107F0D0F848
:103A50002A463346294658460096FFF7C6FA154BC4
:103A6000C4F8DC31D4F8AC31A4F8E05140AFD3F85D
:103A7000843059463846984797E8070004F5F473B0
:103A800083E80700D8F8003004F5815909F10C09E2
:103A90002BB9094B094A6021094820F0FDFE094B6A
:103AA0001B88112B12D8084B044A6121F4E700BF90
:103AB0003524F0FF020242FF786402087A650208AA
:103AC000F5640208204501203C650208CD4B112118
:103AD0001868FFF773F9CC4A03460A21484610F0EC
:103AE00047FE29235846C4F8F4915146DFF8249341
:103AF000ADF81831CDF814910AF094FA59460898A7
:103B000007F076F80899029807F072F8099800967D
:103B1000334632462946FFF768FA33463198009615
:103B20002A462946FFF761FA4FF0FF32319909988A
:103B3000C4F8682207F05CF82A460A9800963346D3
:103B40002946FFF752FAB14BC4F89C32D4F86C32D4
:103B50000A99D3F88430A4F8A0523846984797E8D9
:103B6000070004F52A7383E80700D8F8003004F54D
:103B7000825B002B8DD0A64A13880D2B93D9A148C8
:103B80000D210068FFF71AF99F4A03460A2158469B
:103B900010F0EEFD25230A98C4F8B4B25146ADF8F2
:103BA0001831CDF814910AF03DFADDE9090107F06A
:103BB0001FF80999029807F01BF80B9800963346F6
:103BC00078222946FFF711FA33462A4632980096A2
:103BD0002946FFF70AFA4FF0FF310B98C4F8281373
:103BE000329907F005F82A460C9800963346294684
:103BF000FFF7FBF9854BC4F85C33D4F82C330C99F0
:103C0000D3F88430A4F860533846984797E8070003
:103C100004F55A7383E80700D8F800300BF1140B51
:103C2000002B3FF436AF7A4A1388092B7FF63BAF5F
:103C3000744809210068FFF7C1F8734A03460A2156
:103C4000584610F095FD24230C98C4F874B35146DF
:103C5000ADF81831CDF814910AF0E4F9DDE90B0163
:103C600006F0C6FF0B99029806F0C2FF0D98009669
:103C70003346B4222946FFF7B8F933462A4633982B
:103C800000962946FFF7B1F94FF0FF310D98C4F8BF
:103C9000E813339906F0ACFF2A460E980096334697
:103CA0002946FFF7A2F9594BC4F81C34D4F8EC3379
:103CB0000E99D3F88430A4F820543846984797E8F2
:103CC000070004F5856383E80700D8F8003004F5A1
:103CD00083570837002B3FF4DCAE4D4A1388052B81
:103CE0007FF6E1AE474805210068FFF767F8464ACE
:103CF00003460A21384610F03BFD23230E98C4F8F2
:103D000034745146ADF81831CDF814910AF08AF99F
:103D1000DDE90D0106F06CFF0D9902983B4F06F0AE
:103D200067FF2A460F98009633463146FFF75DF944
:103D30002A463346294634980096FFF756F94FF045
:103D4000FF310F98C4F8A814349906F051FF2A46A1
:103D50002946334621980096FFF747F9A4F8E05426
:103D6000C4F8DC745046FFF725FC9AE8070004F518
:103D70009D6383E80700D8F8003004F583551C35AF
:103D8000002B3FF486AE224A1388102B7FF68BAEB1
:103D9000DFF870A01021DAF80000FFF70FF845AE49
:103DA000194A03460A21284610F0E2FC28232198EC
:103DB000C4F8F4543146ADF81831CDF814910AF036
:103DC00031F921990F98DFF850903C2506F010FF4B
:103DD0000F99029806F00CFF109800952B462A4682
:103DE0002946FFF702F9002211462B463598009527
:103DF000FFF7FBF84FF0FF311098C4F868153599BC
:103E00000CE000BF28450120C5650208020242FF00
:103E100020450120986A02081C45012006F0E8FEB2
:103E200000222B46114622980095FFF7DEF8C4F8D1
:103E30009C750027A4F8A0753046FFF7BBFB96E8F9
:103E4000070004F5B56383E80700D9F8003004F5EE
:103E5000845B0BF1100B002B3FF41BAEDFF860838B
:103E6000B8F800300C2B7FF61EAE0C21DAF80000FB
:103E7000FEF7A4FFCF4A03460A21584610F078FC0B
:103E8000CD4A2298C4F8B4B5222331464592ADF804
:103E900018310AF0C7F82299109806F0A9FE109977
:103EA000029806F0A5FE119800952B467822294627
:103EB000FFF79BF82B463A46369800953946FFF7B0
:103EC00094F84FF0FF311198C4F82816369906F08F
:103ED0008FFE3A463946239800952B46FFF785F822
:103EE000B64BC4F85C36A4F860763046FFF762FB48
:103EF00096E8070004F5CD6383E80700D9F80030A1
:103F000004F5855B0BF1040B002B3FF4C2ADB8F850
:103F10000030082B7FF6C7AD0821DAF80000FEF765
:103F20004DFFA44A03460A21584610F021FCA24A3C
:103F30002398C4F874B6212331464592ADF8183160
:103F40000AF070F82399119806F052FE1199029820
:103F500006F04EFE129800952B46B4222946FFF734
:103F600044F82B463A46379800953946FFF73DF816
:103F70004FF0FF311298C4F8E816379906F038FE72
:103F80003A463946249800952B46FFF72EF88B4B7E
:103F9000C4F81C37A4F820773046FFF70BFB96E8EF
:103FA000070004F5E56383E80700D9F8003004F55D
:103FB000855B0BF1180B002B3FF46BADB8F80030AC
:103FC000042B7FF670AD0421DAF80000FEF7F6FE50
:103FD000784A03460A21584610F0CAFB764A2498CC
:103FE000C4F834B7202331464592ADF818310AF0B1
:103FF00019F82499129806F0FBFD1299029806F020
:10400000F7FD139800952B463A467821FEF7EDFF11
:104010002B463A46389800953946FEF7E6FF4FF0B2
:10402000FF311398C4F8A817389906F0E1FD3A4615
:104030003946259800952B46FEF7D7FF5F4BC4F80D
:10404000DC37A4F8E0773046FFF7B4FA96E80700CB
:1040500004F5FD6383E80700D9F8003004F5865BBA
:104060000BF10C0B002B3FF414ADB8F800300F2B04
:104070007FF619AD0F21DAF80000FEF79FFE4D4ADA
:1040800003460A21584610F073FB4B4A2598C4F8A2
:10409000F4B7272331464592ADF8183109F0C2FF35
:1040A0002599139806F0A4FD1399029806F0A0FD37
:1040B0002B462A46149800957821FEF796FF2B464A
:1040C0003A46399800953946FEF78FFF4FF0FF3199
:1040D0001498C4F86818399906F08AFD2B463A46B8
:1040E000394626980095FEF780FF344BC4F89C387B
:1040F000A4F8A0783046FFF75DFA96E8070004F6CA
:10410000A80383E80700D9F8003004F58755002B91
:104110003FF4BFACB8F800300B2B7FF6C4AC0B21DA
:10412000DAF80000FEF74AFE224A03460A21284632
:1041300010F01EFB204A2698C4F8B4581F233146BD
:104140004592ADF8183109F06DFF2699149806F0E4
:104150004FFD1499029806F04BFD3C25782211463C
:10416000159800952B46FEF740FF2B463A463A98A5
:1041700000953946FEF739FF4FF0FF311598C4F826
:1041800028193A9906F034FD3A46394627980095A1
:104190002B46FEF72AFF094BC4F85C39A4F8607976
:1041A0003046FFF707FA96E8070004F6681383E83D
:1041B000070007E0C5650208986A0208020242FF8C
:1041C00020450120D9F8003004F5875B0BF1140B72
:1041D000002B3FF45EACB8F80030072B7FF663ACE1
:1041E0000721DAF80000FEF7E9FDD14A03460A216B
:1041F000584610F0BDFACF4A2798C4F874B91E2368
:1042000031464592ADF8183109F00CFF2799159801
:1042100006F0EEFC1599029806F0EAFC1698009557
:104220002B46B4227821FEF7E0FE2B463A463B9817
:1042300000953946FEF7D9FE4FF0FF311698C4F8C5
:10424000E8193B9906F0D4FC3A463946289800957F
:104250002B46FEF7CAFEB84BC4F81C3AA4F8207AE5
:104260003046FFF7A7F996E8070004F6282383E80D
:104270000700D9F8003004F5885B0BF1080B002B20
:104280003FF407ACB8F80030032B7FF60CAC0321E9
:10429000DAF80000FEF792FDA54A03460A215846C7
:1042A00010F066FAA34A2898C4F834BA1D233146A0
:1042B0004592ADF8183109F0B5FE2899169806F028
:1042C00097FC1699029806F093FC179800952B46D8
:1042D0003A46B421FEF789FE2B463A463C980095B3
:1042E0003946FEF782FE4FF0FF311798C4F8A81A3E
:1042F0003C9906F07DFC3A463946299800952B46B4
:10430000FEF773FE8C4BC4F8DC3AA4F8E07A304632
:10431000FFF750F996E8070004F6E82383E8070062
:10432000D9F8003004F5885B0BF11C0B002B3FF42F
:10433000B0ABB8F800300E2B7FF6B5AB0E21DAF833
:104340000000FEF73BFD7A4A03460A21584610F06A
:104350000FFA784A2998C4F8F4BA262331464592D0
:10436000ADF8183109F05EFE2999179806F040FC67
:104370001799029806F03CFC189800952B462A469F
:10438000B421FEF732FE2B463A463D980095394659
:10439000FEF72BFE4FF0FF311898C4F8681B3D99CB
:1043A00006F026FC3A4639462A9800952B46FEF739
:1043B0001CFE614BC4F89C3BA4F8A07B3046FFF781
:1043C000F9F896E8070004F6A83383E80700D9F85F
:1043D000003004F5895B0BF1100B002B3FF459AB57
:1043E000B8F800300A2B7FF65EAB0A21DAF800003D
:1043F000FEF7E4FC4E4A03460A21584610F0B8F98D
:104400004C4A2A98C4F8B4BB1C2331464592ADF8F7
:10441000183109F007FE2A99189806F0E9FB189957
:10442000029806F0E5FB2B46199800957822B421F6
:10443000FEF7DBFD2B463A463E9800953946FEF7DF
:10444000D4FD4FF0FF311998C4F8281C3E9906F0AE
:10445000CFFB2B463A4639462B980095FEF7C5FD13
:10446000354BC4F85C3CA4F8607C3046FFF7A2F8FA
:1044700096E8070004F6684383E80700D9F800309F
:1044800004F58A550435002B3FF403ABB8F800302F
:10449000062B7FF608AB0621DAF80000DFF894B0AF
:1044A000FEF78CFC224A03460A21284610F060F9E8
:1044B0001B2331462B98C4F8745CADF81831CDF845
:1044C00014B109F0AFFD2B99199806F091FB1999D9
:1044D000029806F08DFB3546B4223C263346114641
:1044E0001A980096FEF781FD4FF0FF3833463A46A2
:1044F00039463F980096FEF778FD3F991A98C4F820
:10450000E88C06F075FB3A46394633462C980096FF
:10451000FEF76BFD084BC4F81C3DA4F8207D28462F
:10452000FFF748F895E8070004F6285306E000BFB7
:10453000C5650208986A0208020242FF83E8070084
:10454000D9F800303E4604F58A571837002B3FF45F
:10455000A0AAC94A1388022B7FF6A5AA0221DAF87D
:104560000000FEF72BFCC54A03460A21384610F02E
:10457000FFF81A232C98C4F8347D2946ADF8183179
:10458000CDF814B109F04EFD2C991A9806F030FBC5
:104590001A99029806F02CFB0299201D06F028FBC0
:1045A00096218A23049800915F223321FEF71DFD96
:1045B00032462D9884F85D6D3146FEF709FD4FF0C7
:1045C00003012D98ADF81411294609F0BAFE2D9972
:1045D000049806F00DFB032205981F21FEF7F8FC56
:1045E00040AF4FF07F41C4F8C01D38460599A4F88C
:1045F000C46D09F06FFA059901F13C0397E80700D3
:1046000083E807004FF019010598ADF81811294605
:10461000CDF814B109F006FDDDE9040106F0E8FA71
:104620001B982F223146FEF7D3FC4FF007092A468C
:1046300044A91B98ADF81091ADF8149109F04FFD05
:1046400018231B98A4F8103EFEF70EFD8C4B07991B
:10465000C4F8143E0498C4F8001EC4F8188E1B99C0
:1046600006F0C6FA1C9863223146FEF7B1FC44A955
:104670001C98ADF810912A46ADF8149109F02FFD61
:104680001722A4F8582E1C98FEF7EEFC7C4B0799D5
:10469000C4F85C3E0498C4F8481EC4F8608E1C99A7
:1046A00006F0A6FA0499201D06F0A2FA9621D62358
:1046B000039800915F220D21FEF797FC32462E9859
:1046C00084F88D6E3146FEF783FC04232E98ADF8F6
:1046D0001431294609F035FE2E99039806F088FA20
:1046E0001922202311462F980093A123FEF77DFC69
:1046F0004FF07F41C4F8F01EA4F8F46E2846FEF790
:1047000059FF95E8070004F6FC6383E807005D4B5A
:104710001B6804F58B5909F10C09002B3FF4B9A96A
:10472000554A1388012B7FF6BEA9DAF80000012153
:10473000FEF744FB514A03460A21484610F018F898
:1047400015232F98C4F8089F2946ADF81831CDF8E5
:1047500014B109F067FC2F990398DFF8309106F047
:1047600047FA069803224721FEF732FC4FF07F43B9
:104770000699C4F83C3F3846A4F8406F09F0AAF9FE
:1047800097E80700069BCDF814B13C3383E8070097
:1047900016230698ADF81831294609F043FC06990E
:1047A000039806F025FA1D9843222621FEF710FCF7
:1047B00008272A4644A91D98ADF810714FF0090A40
:1047C000ADF814A109F08BFC14231D98A4F88C3FBC
:1047D000FEF74AFC079BC4F87C3F1D990398C4F878
:1047E000909FC4F8948F06F003FA1E986E2226213B
:1047F000FEF7EEFB2A4644A91E98ADF81071ADF8FD
:1048000014A109F06CFC13231E98A4F8D43FFEF702
:104810002BFC079BC4F8C43F1E990398C4F8D89F8B
:10482000C4F8DC8F06F0E4F90399201D06F0E0F9E6
:104830001F983A460A21FEF7CBFB2A460A2304F5C5
:10484000805544A91F98ADF810310B23ADF81431F1
:1048500009F045FC1F98AE83FEF706FC0A4B1F9932
:10486000C5E90838079BEB60201D06F0C1F920461A
:1048700049B0BDE8F08F00BF20450120C5650208A2
:1048800062F507FF1C4501203524F0FF0909DBFF15
:1048900090F82C302DE9F0410446002B41D0C38D17
:1048A000028E01339BB29342C3853AD39B1A9DB2C9
:1048B000028F838EC66BD21A12B2438E0021284615
:1048C000B047E38E628F276CD21A0646638E12B20F
:1048D00000212846B847E38EC218A38EF11812B201
:1048E00009B22046FCF733FD238E618EE28D0B4426
:1048F0009A4216D3002384F82C30E3850CF00EFA8C
:10490000214604300CF02FFA606C50B10368DB686C
:10491000984730B1606C036821469B68BDE8F04160
:104920001847BDE8F08108B5FFF7B2FF08BDF8B53C
:104930001D4690F82C3004460F4616462BB90CF055
:10494000EDF9214604300CF0B7FA0023E3856368E3
:104950006363069BE363079B65862364012384F8F6
:104960002C30236B2787668713B92046FFF790FF0B
:10497000F8BD000000F19803994273B504460D4656
:1049800006D1012380F85D3D00F638500DF0C2FBE2
:1049900004F562639D4206D1002384F85D3D04F670
:1049A00038500DF0B7FB04F6D8539D4207D10CF0F8
:1049B000B5F9FEF713F823682046DB6A984704F63A
:1049C0009C739D420AD1002384F88D3E04F66860F2
:1049D0000DF0A0FB236820465B6B984704F65473E8
:1049E0009D4207D10CF09AF9FDF7F8FF23682046A5
:1049F000DB6A984704F6E4739D4240F0B9805D4D50
:104A00000026C4F87C613246314604F59C70CDE93D
:104A100000550123FFF78BFFC4F83C62314604F5D3
:104A2000FC70CDE9005501233C22FFF780FFC4F85C
:104A3000FC62314604F52E70CDE900550123782241
:104A4000FFF775FFC4F8BC63314604F55E70CDE92D
:104A500000550123B422FFF76AFFC4F87C64324694
:104A600004F58760CDE9005501233C21FFF75FFF86
:104A70003C22C4F83C65114604F59F60CDE9005521
:104A80000123FFF754FFC4F8FC6504F5B760CDE9D6
:104A90000055012378223C21FFF749FFC4F8BC668A
:104AA00004F5CF60CDE900550123B4223C21FFF786
:104AB0003EFFC4F87C67324604F5E760CDE9005557
:104AC00001237821FFF733FFC4F83C6804F5FF6049
:104AD000CDE9005501233C227821FFF728FF7822F9
:104AE000C4F8FC68114604F6B800CDE9005501236E
:104AF000FFF71DFFC4F8BC6904F67810CDE9005536
:104B00000123B4227821FFF712FFC4F87C6A3246F1
:104B100004F63820CDE900550123B421FFF707FF43
:104B2000C4F83C6B04F6F820CDE9005501233C2283
:104B3000B421FFF7FCFEC4F8FC6B04F6B830CDE9F5
:104B4000005501237822B421FFF7F1FEB422C4F806
:104B5000BC6C04F67840CDE9005501231146FFF7FF
:104B6000E6FE23685B6B204602B0BDE87040184744
:104B700002B070BD77310108704710B54FF4AE71C7
:104B800004461EF04DFF204610BD10B50446D0F877
:104B9000580100F014F82046BDE810400CF05AB956
:104BA00010B50446FDF7E6FE014B2360204610BD1C
:104BB000D86D020800210222C0E900127047704738
:104BC00041607047406870477047043870477047CD
:104BD00010B5102104461EF023FF204610BDA0F1A1
:104BE0000400F5E700228260024A02601832426047
:104BF000C16070472C6E02088068FFF7E3BF704702
:104C000010B5034B03600446FEF747F9204610BD7C
:104C1000546E020810B50446FFF7F2FF20464FF429
:104C200035711EF0FDFE204610BD000010B5044693
:104C3000FEF77EFA014B2360204610BD546E020839
:104C4000FEF72CB910B50446C06BFFF7D5FF064A36
:104C50000346102104F529700FF08AFD04F5167043
:104C6000BDE810400DF056BAC86502087047043818
:104C70007047704710B5102104461EF0D1FE204643
:104C800010BDA0F10400F5E700228260024A026034
:104C900018324260C16070478C6E020838B5044615
:104CA00080680D46FFF78EFFA84205D2A06829460E
:104CB000BDE83840FFF784BF38BD7047704730B457
:104CC000C26844685510034604EB6200D20748BF2F
:104CD00062599B6830BC48BFD358184703464068A8
:104CE00030B19A681AB9D86800F001007047012005
:104CF000704710B5102104461EF092FE204610BDEC
:104D000010B5034B03600446FEF7E7FB204610BDD9
:104D1000CC6E020810B50446FFF7F2FF204641F2C0
:104D200064411EF07DFE204610BD000010B5044613
:104D3000FEF768FC184B236004F5805300224FF007
:104D4000FF31C3E9C711A3F81822144983F81A22C6
:104D5000C3F82C24C3F83024C3F83C24C3F84024FF
:104D6000C3F84C24C3F85024C3F85C24C3F860246F
:104D7000C3F81422C3F82414C3F82824C3F8341445
:104D8000C3F83824C3F84414C3F84824C3F85414AF
:104D9000C3F85824204610BDCC6E0208B46E020839
:104DA000F0B500F58C5300241433274603251F6407
:104DB0001F651F661F672E462A019A5862B104EBD1
:104DC000860100EB810101F58051D1F8D4C1BCF11D
:104DD000000F10D1C1F8D421013DEDD21A6C43F877
:104DE000042BDA6CDA600134DA6DDA61042CDA6EE5
:104DF000DA62DBD1F0BD624506F1FF3601D1520027
:104E0000E8E704EB860101F2744100EB81014A609E
:104E1000E2E7F0B500F58C53002414332746002553
:104E20001F641F651F661F672E4653F8252062B159
:104E300004EB860100EB810101F58051D1F8D4C16A
:104E4000BCF1000F11D1C1F8D4210435102DECD1E3
:104E50001A6C43F8042BDA6CDA600134DA6DDA612B
:104E6000042CDA6EDA62DAD1F0BD624506F1010691
:104E700001D15200E7E704EB860101F2744100EB37
:104E800081014A60E1E72DE9F04100F58C530024EF
:104E900010332746C3E91177C3E913771E4600256F
:104EA0004FEA840C03F1100E56F8042F62B10CEB9C
:104EB000050100EB810101F58051D1F8D481B8F1F1
:104EC000000F10D1C1F8D4217645EDD15A6C5A604B
:104ED0009A6C9A600134DA6CDA60042C1A6D1A61EB
:104EE0000FD03346D6E7424505F1010501D1520006
:104EF000E8E70CEB050101F2744100EB81014A6027
:104F0000E2E7BDE8F0812DE9F04100F58D53002482
:104F100004332646C3E90C66C3E90E661F46032523
:104F20004FEA840CA3F1100E57F8042D62B10CEB7C
:104F3000050100EB810101F58051D1F8D481B8F170
:104F4000000F16D1C1F8D4217745EDD11A6B43F883
:104F5000102C5A6B43F80C2C01349A6B43F8082C34
:104F6000042CDA6B43F8042C03F11003D2D1BDE812
:104F7000F081424505F1FF3501D15200E2E70CEB2B
:104F8000050101F2744100EB81014A60DCE7000099
:104F90002DE9F84F00F58C55DFF8A090DFF8A0B0B0
:104FA000804610350027DFF89CA02C46002654F8D8
:104FB000043FD4F84801D3B90A2251460FF077F8DC
:104FC000D4F8C80003685B699847D4F888004FF0AC
:104FD000FF338362036801365B699847042EE6D18C
:104FE0000137042F05F11005DDD1BDE8F88F08F574
:104FF0008052D2F81C13B94210D1D2F82023B24209
:105000000CD14A460A210FF0B3FBD4F8C80003685C
:105010005B699847D4F88800074BDAE74A460A21CB
:105020000FF0A6FBD4F8C80003685B699847D4F872
:105030008800C0F828B0CDE79DF5FFFFC8650208DD
:10504000C6FF00FF1866020800F58053C06BD3F856
:105050001412FFF723BE00F58051022370B481F8CB
:105060001A3200F58E5500F58C53D1F814421433E2
:105070001435D3E90026B24238BF32469E68B242A8
:1050800038BF3246DE68B24238BF3246944203F13E
:10509000100338BF1446AB42EBD1C1F8144270BCC8
:1050A000FFF7D2BF30B5204D00F563740246136898
:1050B00052F8041F61F31E03D2F8301681EA53013F
:1050C00013F0010318BF2B465940944242F8041CC8
:1050D000EDD1154D021F00F22C64D2E9E43161F3E9
:1050E0001E0352F8041F81EA530113F0010318BF95
:1050F0002B464B409442C2F88C33EED1D0F8BC39E9
:105100000268094962F31E03D0F8302682EA53028E
:1051100013F0010318BF0B465A400023C0F8BC2906
:10512000C0F8C03930BD00BFDFB00899D0F8C03931
:10513000B3F51C7F10B5044601D3FFF7B3FFD4F8D5
:10514000C03909485A1CC4F8C02954F82320074B19
:1051500082EAD22203EAC213534000EAC330584025
:1051600080EA904010BD00BF0000C6EF80562C9D25
:10517000F0B500F58C530022A1B00446103315465B
:105180001846002150F8046F2EB920AE06EBC50674
:1051900046E92021013501310429F3D10132042AE5
:1051A00003F11003ECD135B904F58054022384F8DF
:1051B0001A3221B0F0BD29480368BFF35B8FDB07CB
:1051C00019D41EF02FFCB0B104F0D0FF244B254EB3
:1051D0001860012118461A6882EA927206FB0212D0
:1051E0000131B1F51C7F43F8042FF4D1C0F8C01988
:1051F0001A481EF023FC1A48FFF798FFA0FB05038E
:10520000854207D96A42164FB2FBF5F105FB11261C
:1052100086421CD820AA02EBC30353E9202304F5DD
:105220008051C1E9C72303EB820304EB830404F537
:1052300080540223D4F81C02C4F89431A3F66523E9
:10524000836203685B6921B0BDE8F04018473846C7
:10525000FFF76CFFA5FB0003DAE700BFFC2C002082
:10526000002D00206589076C38B500F580550223B4
:1052700085F81A3200F58E5100F58C53044614332C
:1052800014310022C3E90022C3E9022210338B4209
:10529000F8D1C5F814222046FFF76AFF2046FFF731
:1052A00077FE012385F81A3238BDFFF7DDBF10B550
:1052B0000446FEF713F904F5805304F5C072C3F8F1
:1052C0001C2204F51072C3F8202204F54072C3F8C2
:1052D000242204F57072C3F8282204F59062C3F802
:1052E0002C2204F5A862C3F8302204F5C062C3F88A
:1052F000342204F5D862C3F8382204F5F062C3F80A
:105300003C2204F50462C3F8402204F51062C3F89D
:10531000442204F51C62C3F8482204F52862C3F84D
:105320004C2204F53462C3F8502204F54062C3F8FD
:10533000542204F54C62C3F8582204F5D672C3F81F
:105340005C2204F51B72C3F8602204F54B72C3F8AB
:10535000642204F57B72C3F8682204F2AC42C3F8FD
:105360006C2204F26C52C3F8702204F22C62C3F86F
:10537000742204F2EC62C3F8782204F2AC72C3F82F
:105380007C2204F66C02C3F8802204F62C12C3F8C7
:10539000842204F6EC12C3F8882204F6AC22C3F887
:1053A0008C2204F66C32C3F8902204F62C42C3F827
:1053B000942204F6EC42C3F8982204F581520C3290
:1053C000C3F8DC2204F58252C3F8E0221432C3F899
:1053D000E42204F583520832C3F8E82204F583522C
:1053E0001C32C3F8EC2204F584521032C3F8F022C8
:1053F00004F585520432C3F8F42204F585521832BC
:10540000C3F8F82204F586520C32C3F8FC2204F5E6
:105410008752C3F800231432C3F8042304F58852DA
:105420000832C3F8082304F588521C32C3F80C2351
:1054300004F589521032C3F8102304F58A5204325D
:10544000C3F8142304F58A521832C3F8182304F55C
:105450009C72C3F89C2204F5FC72C3F8A02204F5E8
:105460002E72C3F8A42204F55E72C3F8A82204F5D4
:105470008762C3F8AC2204F59F62C3F8B02204F53A
:10548000B762C3F8B42204F5CF62C3F8B82204F5BA
:10549000E762C3F8BC2204F5FF62C3F8C02204F639
:1054A000B802C3F8C42204F67812C3F8C82204F67E
:1054B0003822C3F8CC2204F6F822C3F8D02204F62E
:1054C000B83204F67844C3F8D422C3F8D84210BDE9
:1054D00070B500F58055002385F81A32012380F855
:1054E0008D3E044600F58C53D5F8141200F58E500D
:1054F00014331430D3E90026B24238BF32469E68D6
:10550000B24238BF3246DE68B24238BF32469142BC
:1055100003F1100338BF11468342EBD1C5F81412D2
:105520002046FFF791FD04F58B50D5F81432074A59
:105530000A210C300FF01CF904F56C600CF0EAFD48
:1055400004F66860BDE870400CF0E4BDC865020870
:1055500038B500F58055044695F81A32012B3BD139
:10556000224B95F819221B78DBB29A4285F8183243
:1055700021D003B3D5E9C72303EB820303F28643AB
:1055800000EB830358684FF07F43836203685B69D5
:10559000984795F81832013B032B06D8DFE803F053
:1055A000021014182046FFF7FBFB2046FFF7E0FD32
:1055B0002046FFF7EDFC95F8183285F8193238BD12
:1055C0002046FFF726FCF0E72046FFF75CFCECE7FF
:1055D0002046FFF798FCE8E7022BF0D1002385F87E
:1055E0001A32BDE83840FFF773BF00BF75290020AD
:1055F000F02070474FF4A07070472920FCF7DEBB05
:105600002820FCF7DBBB08B5FCF7ACFBCA20FCF795
:10561000D5FBC320FCF7B6FB0820FCF7B3FB5020FA
:10562000FCF7B0FBCF20FCF7C9FB0020FCF7AAFB7E
:10563000C120FCF7A7FB3020FCF7A4FBED20FCF712
:10564000BDFB6420FCF79EFB0320FCF79BFB1220B4
:10565000FCF798FB8120FCF795FBE820FCF7AEFBFC
:105660008520FCF78FFB0020FCF78CFB7820FCF7F3
:1056700089FBCB20FCF7A2FB3920FCF783FB2C2015
:10568000FCF780FB0020FCF77DFB3420FCF77AFB65
:105690000220FCF777FBF720FCF790FB2020FCF7BB
:1056A00071FBEA20FCF78AFB0020FCF76BFB002073
:1056B000FCF768FBB120FCF781FB0020FCF762FBE4
:1056C0001B20FCF75FFBB620FCF778FB0A20FCF7F9
:1056D00059FBA220FCF756FBC020FCF76FFB102003
:1056E000FCF750FBC120FCF769FB1020FCF74AFBDC
:1056F000C520FCF763FB4520FCF744FB1520FCF7B5
:1057000041FBC720FCF75AFB9020FCF73BFB3620FF
:10571000FCF754FBC820FCF735FBF220FCF74EFBEE
:105720000020FCF72FFBB020FCF748FBC220FCF761
:1057300029FBB620FCF742FB0A20FCF723FBA7203D
:10574000FCF720FB2720FCF71DFB0420FCF71AFBCD
:105750002A20FCF733FB0020FCF714FB0020FCF7A9
:1057600011FB0020FCF70EFBEF20FCF70BFB2B20BE
:10577000FCF724FB0020FCF705FB0020FCF702FBF4
:105780000120FCF7FFFA3F20FCF7FCFAF620FCF7BB
:1057900015FB0120FCF7F6FA0020FCF7F3FA0620CF
:1057A000FCF7F0FA2C20FCF709FBC820FCF754FBAF
:1057B0002620FCF703FB0120FCF7E4FAE020FCF7CD
:1057C000FDFA0F20FCF7DEFA2920FCF7DBFA242093
:1057D000FCF7D8FA0C20FCF7D5FA0E20FCF7D2FA29
:1057E0000920FCF7CFFA4E20FCF7CCFA7820FCF722
:1057F000C9FA3C20FCF7C6FA0920FCF7C3FA1320CB
:10580000FCF7C0FA0520FCF7BDFA1720FCF7BAFA3E
:105810001120FCF7B7FA0020FCF7B4FAE120FCF7FE
:10582000CDFA0020FCF7AEFA1620FCF7ABFA1B20ED
:10583000FCF7A8FA0420FCF7A5FA1120FCF7A2FA5D
:105840000720FCF79FFA3120FCF79CFA3320FCF785
:1058500099FA4220FCF796FA0520FCF793FA0C20FF
:10586000FCF790FA0A20FCF78DFA2820FCF78AFA58
:105870002F20FCF787FA0F20FCF784FA1120FCF7A1
:105880009DFAC820FCF7E8FA2920FCF797FABDE852
:1058900008402C20FCF792BA08B5FCF763FA032104
:1058A000D320FCF7A7FA80B208BD10B5C4B202221B
:1058B00003212046FCF70CFA0A20FCF751FA204697
:1058C00000220321FCF704FABDE810400220FCF797
:1058D00047BA38B50446E4B2FCF7F8F9002120468F
:1058E000FCF70EFA012105462046FCF709FA40EACA
:1058F000052080B238BD10B5C4B240212046FCF767
:10590000FFF9030607D54C212046FCF7F9F90038CA
:1059100018BF012010BD01224B212046FCF7D8F909
:10592000204600224B21FCF7D3F90020F2E773B5A3
:105930000423C4B20E461546D7210DEB03022046C0
:10594000FCF7F8F9019B1BBA1A0DC3F30B23328045
:1059500020462B8001224B21FCF7BAF900224B2173
:105960002046FCF7B5F902B070BD000010B50A4A38
:105970001378984204460DD0517888420AD00BB172
:1059800041B90123D454FCF7A1F92046BDE81040E9
:10599000FFF78BBF10BD00BFC436002010B5C4B2E6
:1059A00009212046FCF7ACF940F00102D2B22046B2
:1059B0000921BDE81040FCF78BB910B5C4B209212C
:1059C0002046FCF79DF9092100F0FE022046BDE8C3
:1059D0001040FCF77DB938B5C4B20D4620460A2107
:1059E000FCF78EF940EA0502D2B220460A21BDE852
:1059F0003840FCF76DB910B50446FCF768F920464D
:105A00001F21FFF7E8FF2046BDE81040FFF7C6BFA3
:105A100038B5C4B20D4620460A21FCF771F920EAD8
:105A20000502D2B220460A21BDE83840FCF750B941
:105A300010B50446FFF7C1FF20461F21BDE8104006
:105A4000FFF7E6BF10B5C0B20C460B21FCF758F9C2
:105A5000204010BD1F21FFF7F5BF0A46C0B20B2141
:105A6000FCF736B91F21FFF7F8BF38B5C4B20D46B1
:105A700020461721FCF744F920EA0502D2B220465D
:105A80001721BDE83840FCF723B970B5C4B206460B
:105A900004212046FCF734F9042100F0FB020546FE
:105AA0002046FCF715F93046F021FFF7DEFF05F040
:105AB000F80220460421FCF70BF949222021204658
:105AC000FCF706F90220FCF74BF9204601222121C0
:105AD000FCF7FEF820469A224121FCF7F9F820460F
