:020000040800F2
:10000000000003205D060008592400085B24000856
:100010005D2400085F24000861240008000000003F
:10002000000000000000000000000000E187000860
:10003000632400080000000071880008FD800008AB
:10004000AD060008AD060008AD060008AD060008C4
:10005000AD060008AD060008AD060008AD060008B4
:10006000AD060008AD060008AD060008AD060008A4
:10007000AD060008AD060008AD060008AD06000894
:10008000AD060008AD06000865240008AD060008AE
:10009000AD060008AD060008AD060008AD06000874
:1000A000AD060008AD060008AD060008AD06000864
:1000B000AD060008AD060008AD060008AD06000854
:1000C000AD060008AD060008AD060008AD06000844
:1000D000AD060008AD060008AD060008AD06000834
:1000E000AD060008AD060008AD060008AD06000824
:1000F000AD060008AD060008AD060008AD06000814
:10010000AD060008AD060008AD060008AD06000803
:10011000AD060008AD06000871240008AD06000811
:100120007D240008AD060008AD060008AD060008F5
:10013000AD060008AD060008AD060008AD060008D3
:10014000AD060008AD060008AD060008AD060008C3
:10015000AD060008AD060008AD060008AD060008B3
:10016000AD060008AD060008AD060008AD060008A3
:10017000AD060008AD060008AD060008000000004E
:10018000AD060008AD060008AD060008AD06000883
:10019000AD060008AD060008AD060008AD06000873
:0C01A00089240008AD0600089524000822
:1001B00010B5054C237833B9044B13B10448AFF3A1
:1001C00000800123237010BD800300200000000088
:1001D000CC50020808B5034B1BB103490348AFF3E9
:1001E000008008BD0000000084030020CC500208FD
:1001F00001F0FF01102A2BDB10F0070F08D010F8D8
:10020000013B013A8B422DD010F0070F42B3F6D1DB
:10021000F0B441EA012141EA014122F007047FF0F4
:1002200000070023F0E80256083C85EA010586EA4B
:10023000010685FA47F5A3FA87F586FA47F6A5FA87
:1002400087F68EB9EED1F0BC01F0FF0102F0070293
:1002500032B110F8013B013A83EA010313B1F8D13E
:100260000020704701387047002D06BF354603381F
:10027000073815F0010F07D1013015F4807F02BF58
:10028000013015F4C03F0130F0BC0138704700BFA9
:100290007BB972B90029BEBF00204FF0004106E0D3
:1002A00008BF00281CBF6FF000414FF0FF3000F086
:1002B000D3B9ADF1080C6DE904CE002909DB002BA0
:1002C0001ADB00F04DF8DDF804E0DDE9022304B0AC
:1002D0007047404261EB4101002B1BDB00F040F80E
:1002E000DDF804E0DDE9022304B0404261EB4101A6
:1002F000524263EB43037047524263EB430300F007
:100300002FF8DDF804E0DDE9022304B0404261EBA0
:1003100041017047524263EB430300F021F8DDF8DE
:1003200004E0DDE9022304B0524263EB430370476B
:1003300053B94AB9002908BF00281CBF4FF0FF314C
:100340004FF0FF3000F088B9ADF1080C6DE904CE34
:1003500000F006F8DDF804E0DDE9022304B07047A0
:100360002DE9F047089D8E4604468846002B4AD169
:100370008A42174662D9B2FA82F64EB1C6F120031C
:1003800001FA06F820FA03F3B74043EA0808B4403C
:100390004FEA174E1FFA87FCB8FBFEF1230C0EFB49
:1003A000118843EA084301FB0CF29A4209D9FB1871
:1003B00001F1FF3080F0EA809A4240F2E780023992
:1003C0003B449A1AA3B2B2FBFEF00EFB102243EAA2
:1003D000024300FB0CFC9C4509D9FB1800F1FF32DD
:1003E00080F0D6809C4540F2D3803B44023840EAFE
:1003F0000140A3EB0C0300211DB1F3400022C5E92D
:100400000032BDE8F0878B4205D90DB1C5E9000186
:1004100000210846F5E7B3FA83F1002946D1734578
:1004200002D3824200F20581841A6EEB030201209E
:100430009046002DE5D0C5E90048E2E7002A00F02B
:100440009080B2FA82F6002E40F0A4808A1A030C43
:100450004FEA174E80B2BCB20121B2FBFEFC0EFB8C
:100460001C2243EA024304FB0CF29A4207D9FB1810
:100470000CF1FF3802D29A4200F2E080C4469B1A87
:10048000B3FBFEF20EFB123340EA034302FB04F41B
:100490009C4207D9FB1802F1FF3002D29C4200F2C5
:1004A000CA8002461B1B42EA0C40A5E7C1F12006A8
:1004B0008B4022FA06F71F430EFA01F420FA06F3E6
:1004C0002EFA06FE4FEA1749234300FA01F81FFAF5
:1004D00087FCBEFBF9F01C0C09FB10EE44EA0E444D
:1004E00000FB0CFEA64502FA01F209D93C1900F105
:1004F000FF3A80F09C80A64540F2998002383C4447
:10050000A4EB0E041FFA83FEB4FBF9F309FB1344BA
:100510004EEA044403FB0CFCA44508D93C1903F142
:10052000FF3E80F08280A4457FD9023B3C4443EAF1
:100530000040A4EB0C04A0FB02EC64457346E146CA
:1005400062D35FD05DB1B8EB030264EB090404FA37
:1005500006F622FA01F31E43CC40C5E900640021EF
:100560004FE7B1FBF2FC010C41EA0E4180B240EAD8
:1005700001423B4638463C46B846BE462026B1FBC3
:10058000F7F1A2EB080241EA0C4166E7014618E7E1
:1005900010462CE7C6F120022EFA02F3B740B14014
:1005A00020FA02F24FEA174E0A43B3FBFEF8BCB240
:1005B0000EFB1833110C41EA034108FB04F9B0406B
:1005C00089454FEA104380B23ED9791808F1FF3CC3
:1005D00001D289451FD8A1EB0901B1FBFEF909FB46
:1005E00004F80EFB191192B242EA0142424529D2A7
:1005F000BA1809F1FF31C4D24245C2D2A9F10201B1
:100600003A44BEE7F0459DD2BEEB02036CEB070C0B
:100610000138E14696E7A7EB09094944A8F1020C25
:10062000B1FBFEF909FB04F8DBE773467FE75046B0
:1006300066E70846FDE63B44023A33E7ACF1020CBC
:100640003B441CE749469CE7A1EB0901C446B1FBCA
:10065000FEF909FB04F8C4E7704700BFDFF834D0A7
:10066000002103E00C4B5B58435004310B480C4B0A
:1006700042189A42F6D30B4A02E0002342F8043BA8
:10068000094B9A42F9D304F0F9FD23F0B1FF01F0D0
:1006900077F870470000032014C60E080000002001
:1006A000680100208003002070440120FEE77047AD
:1006B00008B500F0BFFDBDE8084000F041BD00F006
:1006C000BBBD704710B50421044622F047FD20460B
:1006D00010BD000038B50C4B0C4C18800C4B822020
:1006E00019806368984740F6110398420AD1094D72
:1006F00023682C60822098472B688220DB6898470B
:10070000002038BD0120FCE7A60300205000002097
:10071000A4030020A80300204FF4A071F020FFF7ED
:10072000D9BF0000F7B5394D2B6804461B698220FC
:100730009847208000284ED02B680DF106025B6997
:1007400001A982209847324B1B78002B4BD0BDF873
:10075000062040F674639A423FD9ADF80630BDF8E2
:1007600006209B1A9BB20A2B42D90B22B3FBF2F351
:10077000284A1288934201D9013A93B2BDF8042065
:10078000254840F6B8318A4234D8C2F571620E323B
:10079000016892B20F25B2FBF5F2204D2D88AA42D6
:1007A00084BF05F1FF35AAB28A4215468EB22AD916
:1007B000921B91B21A4E3768BB42BAB28CBF9A1ADA
:1007C000D21A92B211440529C4BF05603360036890
:1007D00063803368A38003B0F0BDB32A9CBFB4220A
:1007E000ADF80620BBE7BDF80630A3F5B473B9E752
:1007F0000023C3E7C2F56D62083292B20E2A016887
:10080000C8D800252A46891A89B2D3E7A803002050
:10081000B0250020A4030020A0030020A603002090
:100820009C03002037B568460D461446FFF77AFF53
:10083000BDF8000030B1BDF802302B60BDF80430C7
:100840002360012003B030BD032821D8DFE800F089
:10085000020B12190F4B1A68B2FA82F252090421E4
:100860000D4805F061BC0B4B5A68B2FA82F252098E
:100870000821F5E7074B9A68B2FA82F25209102173
:10088000EEE7044BDA68B2FA82F252092021E7E778
:10089000704700BFAC03002000100240032821D89D
:1008A000DFE800F0020B12190F4B1A68003A18BF6C
:1008B000012204210D4805F037BC0B4B5A68003A61
:1008C00018BF01220821F5E7074B9A68003A18BFC4
:1008D00001221021EEE7044BDA68003A18BF01222A
:1008E0002021E7E7704700BFAC0300200010024062
:1008F00003280DD8DFE800F00206080A04210548A5
:1009000005F017BC0821FAE71021F8E72021F6E7E7
:10091000704700BF0010024008B5032811D8DFE877
:1009200000F0020A0C0E0421074805F0F7FB431EF5
:100930005842584108BD0821F6E71021F4E720216C
:10094000F2E70020F3E700BF0010024070B5084D49
:1009500000240126E0B2FFF7DFFF18B12B68012B5E
:1009600018BF2E600134052C05F10405F2D170BDCD
:10097000AC030020012380F8781080F879307047AC
:100980007047002070470000034B4164003918BFD6
:1009900001211970704700BF2F37012070470020D8
:1009A0007047836B0BB10846184770474FF6FF70CE
:1009B0007047406803689B691847704770477047E5
:1009C0007047704710B5044600F04CFD236803499A
:1009D000D3F890302046BDE810401847000000D002
:1009E00008B503680446D3F8843098472368204646
:1009F000DB6F984700F0ECF8236820465B6F984760
:100A0000292001F0DBF900F0E3F8236820465B6F52
:100A10009847F8E710B504460AF0FCFC2368204626
:100A2000D3F8BC30BDE81040184700F0FFBC00F020
:100A300003BD00F035BD00F0D5BC00F045BD00F0B1
:100A40004DBD00F0D9BC09F013BF10B58421044698
:100A500022F084FB204610BD10B590F8341090F8B9
:100A600078400C4B8C421A7809D03AB90A4A0B49A3
:100A70001488088810800C8001221A7010BD002A8A
:100A8000FCD0054A05491488088810800C80002293
:100A9000F3E700BF28370120243701202637012043
:100AA00070B50D46194635B9094B0A4A0A4840F255
:100AB000FF2123F08FFAC0E90F52084B003A18BF0C
:100AC00001221A700368BDE87040D3F890301847CF
:100AD0003C51020874510208C25102082E3701200D
:100AE00008B5094B1B888B4203D8084B1B889342DF
:100AF00005D9074B074A0848A32123F06BFA074B97
:100B00001980074B1A8008BD2437012026370120A1
:100B1000075202086A520208C25102082A3701200D
:100B20002C370120034690F87A0018B15868036802
:100B30001B68184770470000012108B500220846CD
:100B400007F066FB0A4B186028B90A4B0A4A2821AD
:100B50000A4823F03FFA00220421012007F0F7FBA6
:100B6000074B186018B9074B034A2C21F0E708BD62
:100B7000C0030020AD520208F652020825530208B5
:100B8000BC0300206D530208024B4FF0FF31186880
:100B900007F088BBC0030020014B186807F0AEBB0C
:100BA000C0030020024B0021186807F07BBB00BF88
:100BB000C0030020FFF7F0BF03480449006800238A
:100BC0001A4607F0FFBB00BFBC0300200400002052
:100BD00013B5084C00231A4601A9206807F023FC2E
:100BE00020684FF0FF33002201A907F01CFC02B07F
:100BF00010BD00BFBC03002003685B6C18470120D8
:100C0000704703689B6A1847FEE740F2EF30704771
:100C1000054B0360054B4FF08062C3F88820BFF39B
:100C20004F8FBFF36F8F70477C5E020800E100E0DA
:100C300010B504464FF45A61FFF7EAFF204622F050
:100C40008DFA204610BD000082B0002301930E4BA8
:100C50001A6B42F400021A631A6B02F4000201924A
:100C6000019A1A6942F400021A611A6922F4000218
:100C70001A61064B064A1A61064A5A61064B4FF042
:100C800080629A6002B0704700380240442700201A
:100C9000E90E0008090C000800E100E008B50A2888
:100CA00009D8DFE800F006100E0808080810101038
:100CB0001000022008BD054B054A0648902123F08C
:100CC00089F90020F6E70120F4E700BFAF530208DE
:100CD000CA5302081554020838B50C46887FFFF73E
:100CE000DDFFA58AE28A164B2169586342EA054274
:100CF0005A64628BD963521B1A642568082D0ED181
:100D00009A611A615862207F0E4A42EA0062DA61F3
:100D1000E2681A620C4A5961D9601A6038BD002233
:100D2000D8611A61E1680A0A480902F4784200F4BD
:100D3000FC600243C1F3C4010A439A63034AECE72F
:100D400000B002400900010001230200012303005A
:100D500008B50B280BD8DFE800F00612100A0A0AC3
:100D60000A0808080808022008BD0520FCE7054B12
:100D7000054A06486F2123F02DF90020F4E70120F1
:100D8000F2E700BFAF5302085B5402081554020893
:100D90002DE9F04191F81D800C464046FFF7D8FF41
:100DA000A77F05463846FFF7D3FF06463846FFF7CC
:100DB00075FFA18A628B444B521A1A649A61228B86
:100DC000521A1A61E28A586342EA01425A6421695E
:100DD0006268D963DA602068802828D0227F0FD823
:100DE000202867D0402865D004281AD0364B45EA21
:100DF000026545F40035B845DD6161D0334A44E011
:100E0000B0F5807F04D0B0F5007FEFD1304800E02E
:100E1000304840EA0262DA61E2681A625E62596151
:100E200032E045EA026242F40032DA61F6E7A06895
:100E3000021DDA62227F45EA026545F40035DD6174
:100E40005E625961017841B1012921D0224B234AC8
:100E500023484FF48D7123F0BDF8DA69418822F4FC
:100E60007F42013922F0100242EA0122DA610121B7
:100E7000154BDA6942F02002DA61DA699206FCD495
:100E800010229A600029B9D0164A1A60BDE8F08194
:100E9000B2F1FF01DA69408822F47F4200F1FF30AD
:100EA00022F0100242EA002242F0100218BF012193
:100EB000DA61DDE745EA0262034B42F40032B4E74F
:100EC00042F20132E1E700BF00B00240012301001D
:100ED000090002000A000200A5540208BF540208DB
:100EE0001554020801230200024B1B68586803686E
:100EF0005B6918473037012070B5044625460A4B18
:100F00000C30002660602672667245F8203B602235
:100F100029460AF0D5FB04F55A63EE6024359D425C
:100F2000FBD1204670BD00BF7C5E0208034B1A68EF
:100F3000D207FCD423229A60704700BF00B0024061
:100F40007047000030B50F4C2568ED07FCD4232511
:100F50000904A56041F001010225FF2B656361646E
:100F6000E0630AD00849656241EA0363E361074B25
:100F700022626061E060236030BDE561039BA36392
:100F8000034BF8E700B00240090001000100020035
:100F90000100030030B50E4C2568ED07FCD4232575
:100FA0001204A56042F001020225FF2B6563626412
:100FB000E063E16008D01B0643F00213E361054BD8
:100FC00065626061236030BD034BE3610123F9E793
:100FD00000B0024001000200020002FF30B50B4CDD
:100FE0002568ED07FCD4232512041B06A56043F4F5
:100FF0000033022542F0010265636264E063E16050
:10100000E361034B65626061236030BD00B0024064
:1010100001000200012070470C2070470C2303FBE5
:101020000100083070470C2303FB010008307047B3
:101030000120704741F29800704741F2980303FB8A
:1010400001000830704741F2980303FB01000830AB
:101050007047012070471020704700EB01100830E6
:10106000704700EB011008307047084601F0B6BC2D
:1010700010B5034B0360044609F04FF9204610BD3C
:10108000345F020810B50446FFF7F2FF2046142132
:1010900022F064F8204610BD10B5034B03600446EF
:1010A00009F03BF9204610BD005F020810B5044668
:1010B000FFF7F2FF20464FF4855122F04FF820460B
:1010C00010BD000010B5034B0360044609F025F97C
:1010D000204610BDCC5E020810B50446FFF7F2FFB3
:1010E0002046182122F03AF8204610BD10B5094BD1
:1010F0000360044600F586500C30FFF7B9FF04F199
:101100002C00FFF7C9FF04F11400FFF7DBFF2046B6
:1011100010BD00BF685F020808B50248FFF7E6FF90
:1011200008BD00BF9C12002010B50446FFF7DEFF8B
:10113000204641F2442122F011F8204610BD000063
:101140002DE9F34101F01AFA054601F01BFA0024DB
:101150000146234628462246009412F04DFF284BB4
:10116000284A1A60204601F0EBFD274D274B284AFC
:1011700028489A6012F0A8FE2B68BFF35B8FDB074C
:1011800037D4284621F0ECFF98B3234C234B23603F
:1011900004F12C0808F5855707F11C0604F114002A
:1011A0006060C4F80880E760266109F0B7F81C4B5E
:1011B0006361404609F0B2F81A4BE362384609F021
:1011C000ADF804F58053184AC3F8CC2004F58750D5
:1011D00003F030FD224604F58751304603F020FD30
:1011E000304601F0FBFB114822F012FF284621F0A7
:1011F000C3FF0F4802B0BDE8F041FFF7E3BB00BFFB
:101200009437012048040020981200206804002030
:101210004C040020080000209C120020685F020897
:10122000CC5E0208005F0208345F02081911000852
:10123000C4030020704700000148FFF7D1BB00BF86
:10124000C403002070B5264E264C274D274B236043
:101250003046FFF751FE284617F0D4FF244810F01F
:10126000ADFB244B2448DC6000224FF48071C3E9BD
:10127000121222491A86C3E91A12214983F858200A
:10128000C3E91E011F49C3F880101F491F480B60A6
:10129000F021C3E90422C3E90622C3E90822C3E915
:1012A0000A22C3E90E22C3E91022C3E91422C3E9CA
:1012B00017225A6683F870205A67C3E901650180D6
:1012C0001348018013484FF4A07101801248018037
:1012D00012490A70012283F83420114A1A6070BD45
:1012E000F404002094120020680400202C5102080D
:1012F0004C040020C4030020000001010100000193
:10130000000450001A001400303701202437012057
:101310002A370120263701202C37012028370120C9
:10132000905D02080148FFF773BC00BFF404002081
:101330000020704781807047C180704701817047ED
:10134000418170477047704770477047704710B4CD
:10135000C4880368121B84885B6D091B12B25DF898
:10136000044B09B218474FF6FF7383814FF0FF33E8
:1013700003621368C36110607047002070478B8858
:10138000838001207047704780F82610704790F8DE
:101390002600704710B50022B1F90840B1F90A10D3
:1013A000028042808480C18010BD00220280428081
:1013B0008280C28070470177704780ED080A7047CD
:1013C00080F82410704780F825107047012070477E
:1013D000983070478C307047843070477047704742
:1013E00070470000034B902283F85A2383F8582358
:1013F000704700BF00E100E0094A0A49D3680A4883
:10140000C3F30A03013B9BB20B801169C1F30A01CC
:10141000013901801364536B43F001035363704738
:1014200000680140E2240020E0240020014BD3F8B2
:10143000AC00704700680140024B0122C3F8AC10B9
:101440005A6270470068014010B52C21044621F013
:1014500085FE204610BD10B5BC21044621F07EFE5D
:10146000204610BD70B5044609F057FA23689D6EFA
:101470000EF0F2FF01462046A8472368054AD3F83C
:101480008C502046AC460023BDE87040A2F51631D2
:10149000604700BF00B004D009F026BA09F030BAA6
:1014A00009F0ECB909F05BBB90F8252012B1036894
:1014B0005B691847704790F825201AB190F82420EE
:1014C00002B1186070470000034B4FF080629A60D1
:1014D0004FF080729A60704700E100E0084B4FF0D7
:1014E0008062C3F88820BFF34F8FBFF36F8F4FF038
:1014F0008072C3F88820BFF34F8FBFF36F8F7047A0
:1015000000E100E070B50023124E8380124B0360AF
:10151000336893F8582005460AB1D86C00B998682A
:101520000368DB6A98473368B0FA80F4D86C6409C2
:1015300030B10368DB6A9847002808BF44F0010413
:101540002CB9064B064A07482C2122F043FD2846B9
:1015500070BD00BF303701207C5F0208FD540208D7
:101560005B5502089455020870B5254E3568BFF3E7
:101570005B8F15F0010540D1304621F0F1FD0028C8
:101580003BD0204C204B256104F13400C4E90035E8
:10159000C4E90255E584A562A58510F0F4FC04F1C8
:1015A00058000BF041FD194BA3652046184B40F83D
:1015B000843BFFF7A7FF174BC4F884302433C4F8EB
:1015C0008C304FF4C803C4E928350023C4F8AC308C
:1015D000C4F8B030C4F8B430C4F8B8300E480F4B7B
:1015E000C4F89050C4F89C50C4F8A850C4F898307F
:1015F00022F00EFD304621F0BFFD024870BD00BF55
:10160000E4240020E8240020206802089C5F0208EF
:1016100014600208D4670208E1130008B4670208E6
:1016200038B5184C23685BB3174B184A1B6C1188EC
:101630008B4216D1164B198805F07EFB236893F870
:101640006A200025013283F86A2083F87C50FFF776
:10165000B3FA206809F0DEFE2846BDE83840FFF7FF
:10166000F3B805F069FB2468236820461B6A984795
:10167000012384F87C300020BDE83840FFF70EB924
:1016800038BD00BF3037012000680140E22400204F
:10169000E024002007B5064BADF806001B6805489E
:1016A00001220DF1060106F0E7F803B05DF804FB36
:1016B00010000020F025002008B5084D084C02223B
:1016C0002946204603F0CEFE642006F095FD204614
:1016D00003F06CFF142006F08FFDF0E7A425002036
:1016E000EC27002030B595B0102200210AA822F086
:1016F00078FE1422002103A822F073FE00241E4B62
:1017000001941A6C42F080521A641B6C03F08053EF
:101710000193019B194B02941A6842F440421A60EB
:101720001B6803F4404302930122029B4FF4803371
:10173000CDE9082302254FF480030821CDE90E539B
:101740004FF4B473CDE9101308A804231393129532
:1017500005F04AFB05F00EFB0F23CDE903354FF4EE
:10176000A0504FF48053CDE90603052103A805944A
:1017700005F016FD15B030BD003802400070004085
:101780002DE980489DB00024C74D03F085FDFFF78B
:10179000A9FF142200210FA822F023FE02942B6B34
:1017A000C24843F010032B632B6B03F0100302932A
:1017B000029B03942B6B43F020032B632B6B03F0F2
:1017C00020030393039B04942B6B43F080032B6350
:1017D0002B6B03F080030493049B05942B6B43F065
:1017E00004032B632B6B03F004030593059B069402
:1017F0002B6B43F001032B632B6B03F00103069368
:10180000069B07942B6B43F002032B632B6B03F0B7
:1018100002030793079B08942B6B43F040032B6351
:101820002B6B03F040030893089B09942B6B43F048
:1018300008032B632B6B03F00803224609933C211A
:10184000099B04F071FC9A480122022104F06CFC0F
:1018500022469748042104F067FC224695484FF43D
:10186000405104F061FC224693484FF4C04104F01B
:101870005BFC01263C23CDE90F368C4811940323F1
:101880000FA90227129304F065FB89480FA9CDE93F
:101890000F76CDE9114404F05DFB042384480FA9C1
:1018A000CDE90F36CDE9114704F054FB4FF4405316
:1018B00080480FA9CDE90F36CDE9114704F04AFB66
:1018C0004FF4C0437C480FA9CDE90F36CDE9114450
:1018D00004F040FB01942B6B43F480032B632B6BD0
:1018E000764D03F480032246052101933820019BA5
:1018F00004F01CF8382004F04BF87148714B036079
:1019000004F054F8DFF8DCC16F4B2C62C5E900C36A
:1019100028464FF48043C5E90434C5E90244C5E9CB
:10192000064404F00FFE1021284605F053F8214626
:10193000284605F06EF8654DDFF8ACE1AC624FF477
:101940008273C5E900E34FF400781823C5E90683E4
:1019500028460A23C5E90244C5E90444C5E9084408
:10196000EB6205F02DFF8F232246394650488DF853
:101970002C308DF83C4004F0D7FB32464FF47A739C
:101980000BA9284605F078FF4FF47A7332460FA969
:10199000284606F01DF93246394645484C4D04F0BC
:1019A000C3FB9DF83C30D32B04BF4A4B1E704A4BFF
:1019B0000126C5E900364FF0100A40230024C5E98E
:1019C00004A34FF4C073C5E906344FF40063C5E9BE
:1019D00008344FF4005302274FF00409AB624FF074
:1019E000030B07230FA92846CDE90F73CDE9119307
:1019F0004FF00808C5E90249CDE913B7159705F07E
:101A0000C3FD4FF6FF720BA92846CDE90C860A9458
:101A10000B960E9405F0D8FD304603F069FC4FF6A6
:101A2000FF720BA92846CDE90B78CDE90D6405F0CE
:101A3000CBFD4FF6FF720BA92846CDE90BB8CDE9D7
:101A40000D9405F0C1FD4FF40C730A930A9B0E939D
:101A50004FF6FF720BA92846CDE90B980D9605F0BD
:101A6000B3FD40F26A51284605F0CCFD34222146F0
:101A70000FA822F0B6FC194D194B2C61C5E90034B2
:101A80000923C5E905361D23C5E9073B40F20D12C0
:101A900040F24313C5E9092340F2171140F24713FE
:101AA0002846C5E90B1321E000380240001002402F
:101AB00000080240000C024000180240F0260020FE
:101AC0008427002000300240A0860100F02500207D
:101AD000BC250020B0250020400100A048260020A1
:101AE00000680140005C004000500140C5E902442C
:101AF000AC8685F8364005F027F8FF21F022CDE9C5
:101B000014144FF005084FF480614FF4A073CDE931
:101B10001024CDE91618CDE918420FA9224628460F
:101B2000CDE91237304D1A930F94ADF86C408DF813
:101B30006E4005F0D4F82D4B2B601B6898472B683E
:101B40002B4DDB6898472B4B2846C5E90034C5E987
:101B50000274C5E90A47C5E90C4404F001F93146AD
:101B6000284604F0B3F9524621460FA822F039FC6A
:101B7000214D2248AC604FF48033C5E90003204B6F
:101B8000AB6228462E612C7685F82040EC62EC6032
:101B9000EF6185F830606E6103F0BEFB0D230FA985
:101BA0002846CDE90F36119403F010FE0FA9284600
:101BB000CDE90F8703F00AFEFEF77AFDFEF777FD09
:101BC00006F0AAFA0F4A1048214606F0D1FA0F4B48
:101BD0000F4A186021460F4806F0CAFA0E4B1860EB
:101BE00006F0ACFAFEE700BFAC250020180000208C
:101BF0004427002000B00240EC27002000200140D4
:101C00000100000F7C600208B9160008B82500200A
:101C100058600208BF060008B425002038B50268E5
:101C2000234B9A421DD1234B234918885A88234BB2
:101C30000D881B88224C5919884213DD0123214D40
:101C4000237022782B789A420BD02378012BDAB2BA
:101C500016D14FF400511C4804F066FA2378DBB229
:101C60002B7038BD5B1B984201DA0223E7E79142F3
:101C700001DA0323E3E79342CCBF04230023DEE72A
:101C80002378022B01D10022E3E72378032B01D133
:101C9000012203E02378042B03D100224FF480417A
:101CA000D9E7094801224FF4005104F03DFAEFE76B
:101CB00000200140A42500200C0000200E00002080
:101CC000A9250020A8250020001802407047704771
:101CD0007FB5094B8DF817201B6802930DF1170291
:101CE0000123009201930A460146044804F0D2FC05
:101CF00007B05DF804FB00BF14000020F0260020B0
:101D00007FB500238DF81730084B1B6802930A46F5
:101D100001230DF11701009101930146044804F0DD
:101D200049FD9DF8170007B05DF804FB1400002082
:101D3000F02600201FB5084C24680092CDE901343C
:101D40000A4601230146054804F034FD003818BF57
:101D5000012004B010BD00BF14000020F0260020B8
:101D600003F0C6BA10B5064C00222046042104F048
:101D7000DBF920460122BDE81040042104F0D4B96B
:101D80000008024038B50B4D044601220A484FF4C2
:101D9000005104F0C9F900220421284604F0C4F9D6
:101DA0002046FFF777FC28460122BDE83840042191
:101DB00004F0BAB900080240000C024038B50B4DDF
:101DC000044600220A484FF4005104F0ADF9002205
:101DD0000421284604F0A8F92046FFF75BFC2846BA
:101DE0000122BDE83840042104F09EB900080240F9
:101DF000000C0240F7B5144E144F05460C46304611
:101E00000022042104F090F900224FF400513846DA
:101E100004F08AF92846FFF73DFC0D4B0D481B687E
:101E2000224601A905F0D4FE384601224FF40051A4
:101E3000019C04F079F930460122042104F074F980
:101E4000204603B0F0BD00BF00080240000C024075
:101E500010000020F025002003F04ABA0268034B6E
:101E60009A4201D103F032BA704700BF001000401F
:101E70007047000082B00E4B00220092596C41F472
:101E800080415964596C01F480410091009901929C
:101E9000196C41F0805119641B6C03F0805301935D
:101EA000019B0F216FF0010002B003F03FBD00BFA6
:101EB0000038024070B5064688B01422002103A8FD
:101EC00022F08FFA32682D4B9A4254D103F58C33AD
:101ED000002500955A6C2A4842F480725A645A6C64
:101EE00002F480720092009A01951A6B42F004028B
:101EF0001A631A6B02F004020192019A02951A6B9E
:101F000042F001021A631B6B03F0010302930324E6
:101F1000029B03A90823CDE9033404F01BF8202316
:101F20001848059503A9CDE9033404F013F8164CBD
:101F3000164B4FF48062C4E900354FF40063C4E9E6
:101F400004234FF400514FF480732046C4E9025536
:101F5000C4E90613C4E9085503F04EFD08B1FFF7C4
:101F600087FFB463122000220521A66303F0DEFC84
:101F7000122003F00DFD08B070BD00BF002001402D
:101F800000080240000002408C270020106402403C
:101F90000268094B9A4282B00BD100230193074B90
:101FA0001A6B42F480521A631B6B03F48053019343
:101FB000019B02B0704700BF003002400038024071
:101FC00007B50F4B02689A4216D10022A3F5F043E1
:101FD0000192196B41F4000119631B6B03F40003B8
:101FE000019305215A20019B03F0A0FC5A2003B065
:101FF0005DF804EB03F0CCBC03B05DF804FB00BF5C
:1020000000B002402DE9F043044689B014220021BB
:1020100003A822F0E6F92268244B9A4243D1244CCB
:10202000244800250095236B43F004032363236BAE
:1020300003F004030093009B0195236B43F001031D
:102040002363236B03F001030193019B4FF01209FB
:102050004FF400734FF001080327042603A9CDE9CC
:102060000339CDE90587079603F074FF4FF48073B9
:102070001148079603A9CDE90339CDE9058703F097
:1020800069FF0295236C43F400032364236C03F47B
:1020900000030293029B236A43F400032362236A32
:1020A00023F40003236209B0BDE8F083005C004024
:1020B000003802400008024000000240F0B599B02C
:1020C00004461422002107A822F08BF930220DEBE0
:1020D0000200002122F085F922685E4B9A4240F00E
:1020E000B78008230C93C0231093042312930CA8E9
:1020F0004FF40033159305F01BF908B1FFF7B8FE54
:10210000554B5648002400945A6C42F080625A6441
:102110005A6C02F080620092009A01941A6B42F0AD
:1021200020021A631A6B02F020020192019A0294B3
:102130001A6B42F001021A631A6B02F0010202925A
:10214000029A03941A6B42F002021A631A6B02F0AD
:1021500002020392039A04941A6B42F040021A633B
:102160001A6B02F040020492049A05941A6B42F032
:1021700004021A631A6B02F004020592059A06948F
:102180001A6B42F008021A631B6B03F008030693F4
:1021900002250E26069B0B964FF4806307A9CDE916
:1021A0000735CDE9094503F0D5FE41F658032C4823
:1021B0000B9607A9CDE907350927CDE9094503F0B5
:1021C000C9FE032327480B9707A9CDE90735CDE9B9
:1021D000094503F0BFFE4FF4706322480B9607A930
:1021E000CDE90735CDE9094503F0B4FE4FF40C63A2
:1021F0001D480B9607A9CDE90735CDE9094503F040
:10220000A9FEC02319480B9607A9CDE90735CDE9EA
:10221000094503F09FFE082315480B9607A9CDE951
:102220000735CDE9094503F095FE4FF4A0530E485C
:102230000B9707A9CDE90735CDE9094503F08AFEDB
:1022400058202246052103F071FB582003F0A0FB23
:1022500019B0F0BD0068014000380240001402408F
:102260000000024000040240001802400008024042
:10227000000C024010B5044688B01422002103A8C7
:1022800022F0AFF82268144B9A4223D103F5684339
:10229000002101915A6C114842F480125A645A6C20
:1022A00002F480120192019A02911A6B42F020020C
:1022B0001A631B6B03F020030293029B4FF46072BE
:1022C00002230321CDE903230523CDE9061303A946
:1022D00003F040FE08B010BD005001400014024061
:1022E0002DE9F04186B0002303932B4B1C68002C92
:1022F0004FD14FF00108C3F80080284B00949A6B2F
:10230000274842EA08029A639B6B03EA080300939A
:10231000022703260C25009B01A94FF63F03CDE9B8
:102320000137CDE9046503F015FE1E48059501A9A6
:10233000CDE90187CDE9034603F00CFE48F23313E3
:102340001948059501A9CDE90137CDE9034603F008
:1023500001FE4FF683731548059501A9CDE90137B4
:10236000CDE9034603F0F6FD4CF2037310480595E2
:1023700001A9CDE90137CDE9034603F0EBFD602368
:102380000C48059501A9CDE90137CDE9034603F0D5
:10239000E1FD06B0BDE8F08134280020003802409D
:1023A00000140240000802400018024000100240E1
:1023B000000C02400004024070B588B00023029374
:1023C000204B1A6C42F010021A641B6C03F01003CD
:1023D0000293054601A903A8029B04F08BFF069B0C
:1023E0004BBB04F077FF184E184B336040F2E733D5
:1023F000F360174BB0FBF3F3013B736030460023EF
:102400003361B360B36105F0B3FD044680B9304673
:1024100005F084FC044658B9362003F0B9FA0F2DB4
:102420000DD822462946362003F080FA094B1D605C
:10243000204608B070BD04F04DFF4000D3E70124F2
:10244000F6E700BF003802403828002000100040A6
:1024500040420F00800000207047FEE7FEE7FEE7E5
:10246000FEE77047014803F0E2B800BFEC27002008
:10247000014805F091BC00BF38280020014803F056
:10248000B1BB00BF8C270020014804F0CBBB00BFCC
:1024900048260020014803F08FBC00BF44270020DD
:1024A0000120704708B522F09DF8162303604FF015
:1024B000FF3008BD08B522F095F816230360FEE74B
:1024C00070B50D4614460E46731B9C4201DC204637
:1024D00070BDAFF3008006F8010BF5E770B50D464F
:1024E00014460E46731B9C4201DC204670BD16F854
:1024F000010BAFF30080F5E74FF0FF3070474FF46A
:1025000000534B6000207047012070470020704747
:102510000A4A116808B5034609B9094911601068EB
:10252000694603448B4206D922F05CF80C23036011
:102530004FF0FF3008BD1360FCE700BF802800208B
:1025400070440120704710B50421044620F006FEB7
:10255000204610BD012908B506D0022908D059B976
:1025600000F03AFC006808BD00F036FC4068FAE76D
:1025700000F032FC8068F6E70020F4E7004870477E
:10258000B46002080E20704713B5002451B10368EF
:1025900001948DF8034001AA9C680DF10303A04744
:1025A00002B010BD0846FBE7C0897047008A70473B
:1025B000C088704780887047807A00F07F0070473D
:1025C000807AC00970470020704700009FED010A23
:1025D000704700BF00000000704710B50821044696
:1025E00020F0BCFD204610BD7047704700F5987381
:1025F0000868496803C37047704770474160704777
:1026000070477047064BC0F84C310023C0F850317A
:1026100000F5A273C0F84801C0F84031704700BF10
:1026200011280008012303727047704710B4C26874
:1026300041685410034601EB6200D20748BF0A59B3
:102640009B685DF8044B48BFD35818470346406861
:1026500030B19A681AB9D86800F0010070470120BB
:10266000704710B50C21044620F078FD204610BDBF
:1026700010B51021044620F071FD204610BD10B5A4
:102680004FF4AE71044620F069FD204610BD10B530
:102690000DF0E2FE0368BDE81040DB6B184710B593
:1026A0000446D0F8400158B10368DB68984738B158
:1026B000D4F8400103689B6898470023C4F8403170
:1026C00010BD00002DE9F14FD0E9556A0746B0680A
:1026D00003681B6A984741F29703984205D8444B18
:1026E000444AA321444821F075FC706803681B6AC2
:1026F00098470F2803D8414B3E4AA421F2E7F068DF
:1027000003681B6A98470B2803D83D4B394AA5211B
:10271000E8E70DF0A1FEDFF8F09004300DF0DAFEEE
:10272000D9F8000010B10368DB689847D9F80000B9
:1027300010B103681B689847DFF8D080D8F8000014
:1027400010B103685B699847D7F83C0110B1036882
:102750005B689847D8F8000010B103681B68984779
:10276000D7F83C0110B103689B689847F06803688C
:1027700000215B6A98474FF0000B224BC0F804B071
:10278000044680F808B00360B068036859465B6A85
:102790009847054602F0C0FA7068036859465B6ABC
:1027A00098472946064602F095FA331DC7F83C6162
:1027B000C9F80040C8F80050CAF800302B68C6F8C5
:1027C00008A02846DB68EE639847336830461B68EC
:1027D00098472146284610F039F8236820461B699F
:1027E000984723685B69204601B0BDE8F04F184761
:1027F0000B5602089956020871570208B85702088A
:102800005B580208506202087837012074370120B3
:102810002DE9F14FD0E9556A0746B06803681B6A95
:102820009847B0F5357F05D2444B454AA32145482A
:1028300021F0D0FB706803681B6A98470F2803D803
:10284000414B3F4AA421F2E7F06803681B6A9847AE
:102850000B2803D83D4B3A4AA521E8E70DF0FCFDD3
:10286000DFF8F09004300DF035FED9F8000010B11B
:102870000368DB689847D9F8000010B103681B684B
:102880009847DFF8D480D8F8000010B103685B697E
:102890009847D7F83C0110B103685B689847D8F8AF
:1028A000000010B103681B689847D7F83C0110B1CD
:1028B00003689B689847F068036800215B6A984743
:1028C0004FF0000B224BC0F804B0044680F808B06B
:1028D0000360B068036859465B6A9847054602F092
:1028E000DFF97068036859465B6A984729460646CF
:1028F00002F0B4F9331DC7F83C61C9F80040C8F8CC
:102900000050CAF800302B68C6F808A02846DB68DB
:10291000EE639847336830461B689847214628463F
:102920000FF094FF236820461B69984723685B6972
:10293000204601B0BDE8F04F184700BF0B56020813
:10294000FE58020871570208B85702085B5802087F
:10295000506202087837012074370120044B1B684D
:1029600093F858200AB1D86C00B99868704700BF36
:1029700030370120F8B5174604460E460DF078FEB4
:10298000124B1C60124B2360124B0025C4E95135D9
:10299000114BC4E953551868036801219B68C4E9C9
:1029A0004F55C4E955769847284600F0C9F9FFF716
:1029B000D5FF18F0D0FAFFF7D1FF18F047FBFFF76B
:1029C000CDFF18F04FFB2046F8BD00BF8437012033
:1029D000FC610208E461020830370120064BC0F8B0
:1029E0004C310023C0F8503100F5A273C0F8480103
:1029F000C0F84031704700BF11280008064BC0F8EE
:102A00004C310023C0F8503100F5A273C0F84801E2
:102A1000C0F84031704700BFC5260008406A7047C3
:102A2000806A704770478A880B8810B5D20A4C8834
:102A3000C1699BB251F8220043EA0443184410BD17
:102A400010B50446BAB1107B68B1537BD27A1B0231
:102A500003F4E0631A43236A03EB82031A888A4271
:102A600002D193F9020010BD05D8013880B20433B9
:102A70000028F3D1F7E70020F5E710B52C21044634
:102A800020F06CFB204610BD30B58BB00446BDF87D
:102A900060500895BDF85C5007959DF8505006951C
:102AA0009DF84C5005959DF8485004959DF844506C
:102AB00003959DF8405002959DF83C500195BDF856
:102AC000385000950FF01CFB064B2360159BE3610B
:102AD000169B2362199B63621A9BA36220460BB06C
:102AE00030BD00BF746202087047000030B5174D5A
:102AF0002C6814F001048FB0BFF35B8F22D12846FD
:102B000020F02EFBF0B13F230993114B0893114B9A
:102B100007930123CDE9054304930423CDE9024340
:102B20000A230D49009316220C23CDE90B440B48D0
:102B30000A940194FFF7A8FF094821F069FA284692
:102B400020F01AFB05480FB030BD00BF84280020DC
:102B50007C8502089C850208CC8202088828002017
:102B6000E92A00087047000030B5164D2C6814F0B3
:102B700001048FB0BFF35B8F21D1284620F0F0FA1B
:102B8000E8B13F230993104B0893104B079301239F
:102B9000CDE9054304930423CDE9024314230C49F2
:102BA00000931622CDE90B440A480A940194FFF7DA
:102BB0006BFF094821F02CFA284620F0DDFA054881
:102BC0000FB030BDB428002080850208A08502081F
:102BD00000840208B8280020652B00087047000018
:102BE00030B5164D2C6814F001048FB0BFF35B8F25
:102BF00021D1284620F0B4FAE8B13F230993104BC5
:102C00000893104B07930123CDE905430493042354
:102C1000CDE9024328230C4900930522CDE90B445A
:102C20000A480A940194FFF72FFF094821F0F0F9B0
:102C3000284620F0A1FA05480FB030BDE428002056
:102C40008C850208A485020834850208E828002043
:102C5000DD2B000800207047002070470EB403B53C
:102C600003AB002153F8042B01930EF0C7FC02B014
:102C70005DF804EB03B070470CB407B504AB53F830
:102C8000042B01930EF0BAFC03B05DF804EB02B024
:102C900070470000436C10B5044673B3038F2BB923
:102CA000184B194AC521194821F094F9C38E00EB3D
:102CB00043035B8C0BB310F050FB238F012B03D825
:102CC000134B144ACB21EEE7E28E531C9BB2092B27
:102CD000194688BFA3F10A0104EB410140F63F10F9
:102CE000498C814209D10A2B04EB420228BF002300
:102CF00004EB4303508C588451842046BDE81040B7
:102D000010F02EBAD6590208DF5902088A5A020872
:102D1000D45A0208E25A020810F0E9B910B586B098
:102D200002AC84E806001A460AAB05930193099B9E
:102D300000932146089B0CF02DFF06B010BD00004B
:102D400038B518BB124B13481C681349B4B122683C
:102D500022440260626822440A60A26814440F4B55
:102D600000221A8000F038F8054600F033F80C4BCA
:102D70001C600C4B1D600C4B188007E00B4B036074
:102D80000B4B0B600B4B1C68002CE8D138BD00BF0F
:102D90002029002018290020142900201C290020A7
:102DA00088370120903701208C3701206C8602087B
:102DB000A885020838870208044B1B6853F82100D5
:102DC000034B1B6803EB4000704700BF1429002031
:102DD000182900203120704700487047242900201E
:102DE00010B5FFF7C1FE044C2060FFF7F9FE6060EC
:102DF000FFF77CFEA06010BD2429002010B5002440
:102E000004600C6014601C6010BD70477047704710
:102E10007047704730B5036885B06D460181D3F8BF
:102E20008430014604462846984795E807003C341C
:102E300084E8070005B030BD30B5036885B06D4645
:102E40004181D3F88430014604462846984795E8E6
:102E500007003C3484E8070005B030BD0022028042
:102E600042808280C280704780F83610704770B50B
:102E7000036804461B6B154698472368294620467D
:102E80005B6EBDE87040184700207047806C70474B
:102E90007047704770477047704730B4C2684468E5
:102EA0005510034604EB6200D20748BF62599B6885
:102EB00030BC48BFD35818470346406830B19A68C1
:102EC0001AB9D86800F0010070470120704710B5AA
:102ED0004C21044620F042F9204610BD10B51021C7
:102EE000044620F03BF9204610BD10B54FF4357173
:102EF000044620F033F9204610BD08B5FEF7D4FA99
:102F000008BD0000036870B55E6B124B1B68044679
:102F10008DB22BB9104B114A6C21114821F05AF88F
:102F20001049828D0988914203D80F4B0B4A6D21BD
:102F3000F3E713F812200D4B1B6853F822000368C7
:102F40001B6B9847291A3346204609B2BDE87040EA
:102F5000184700BF88370120B45B0208F65B0208FF
:102F6000315C02088C370120785C02089037012020
:102F700038B500F19803994204460D460AD1012361
:102F800080F8953100F5B8700EF062FC2368204699
:102F9000DB6A984704F5E4739D4206D1002384F868
:102FA000953104F5B8700EF053FCE034A54205D11C
:102FB0000DF052FABDE83840FFF720BD38BD0022C1
:102FC0004FF0FF31C0E900218260704770B503689F
:102FD00004461B6B154698472368294620465B6BC1
:102FE000BDE87040184770B504461D46BDF9106035
:102FF000FFF7ECFF2368294620469B6B9847236820
:1030000031462046DB6BBDE8704018470022C0E91E
:103010000122C0E90322C0E90522C0E907224FF4DA
:1030200080728284014A0260704700BFDC6202083D
:1030300038B5262204460D46002121F0D2F920465B
:10304000FFF7E4FF064B23602B88E384FF23204631
:1030500084F8283029460AF012FD204638BD00BF0A
:10306000DC690208F8B5194B018F1B888B420646B4
:103070002AD9174B1B682BB9164B174A17486C21D6
:1030800020F0A8FF13F81120154B1B6853F82250AD
:10309000144B1868FFF790FE2B6807469B6B284679
:1030A00098472B6804469B6C3946284698472B68FE
:1030B00014FB00F45B6A394628469847A4B22318EB
:1030C0001BB2A6F84630F8BD0023FAE78C37012082
:1030D00088370120B45B0208F65B0208315C020805
:1030E000903701209437012010B526220446002194
:1030F00021F077F92046FFF789FF0A4B23600A4B3E
:10310000A3624FF6FF73A3854FF47F020023C4E947
:103110000C3223874FF0FF32C4E91023E3632046CB
:1031200010BD00BFE4680208D46102082DE9F04F29
:10313000044691B0264600250FF0DCF9D04BE5633C
:1031400046F8403B26222946304621F04AF93046CF
:10315000FFF75CFFCB4B236404F16C0BFF2304F1FE
:10316000980A84F866300EA94FF6FF77A566584690
:1031700004F1E009ADF83870FFF75AFF50460AF045
:10318000BFFD04F5947848460AF0BAFD4046FFF7C3
:10319000ABFF04F5B87302934FF48073A4F8943135
:1031A000B94BC4F8703104F5CE730EA9C4E95D556E
:1031B000C4E95F55C4E96155C4E96355C4F8985141
:1031C00018460693ADF83870FFF732FF04F5E47344
:1031D000184603930AF094FD04F50473184604930B
:1031E000FFF782FF04F5167318460593FFF77CFF7F
:1031F000A64BC4F85832A64BC4F8A052C4E9B13467
:10320000A44BC4E9B3354FF4A0732A46294630468F
:103210000093F023FFF7E7FE271D4FF07F43A366DF
:103220003146384607F08EF82A4629465846FFF7B9
:10323000CDFE022358460EA9ADF838300AF01FFC27
:103240005946384607F07EF85046C2222121FFF742
:10325000BDFE4FF00D0B0C230DA950460EAAADF884
:103260003430ADF838B00AF0D8FA2F228A4EA4F8DC
:10327000D0205046FFF7F6FE4FF0FF33C4E9356328
:1032800004F53173C4F8C03051463846079307F04F
:1032900059F8484664222121FFF798FE0EAA0C2314
:1032A0000DA94846ADF83430ADF838B00AF0B5FA9B
:1032B00030234846A4F81831FFF7D4FE4FF0FF330F
:1032C000C4F82031079BC4F808314946C4F81C6192
:1032D000384607F037F8112240462D21FFF776FED9
:1032E00008AE6E4BC4F858314146A4F85C513046E4
:1032F00009F098FF96E8070004F5B27383E8070029
:10330000DFF8C091CDF8389040464FF02E0A0EA954
:10331000ADF83CA00AF02EFA4146384607F012F804
:103320009623029800935522D6235946FFF75BFE59
:103330006FF001022946069884F89551FFF746FE82
:1033400004230698ADF838300EA90AF098FB0699C8
:10335000029806F0F7FF03986D225921FFF736FE19
:103360004FF0050806230EAA0DA90398ADF83830D2
:10337000ADF834800AF051FA2D230398A4F80032F6
:10338000FFF770FE464A4FF0FF33C4E98123079BE5
:10339000C4F8F031DDE9020106F0D4FF424604989A
:1033A0001621FFF713FE4FF07F430499C4F8403213
:1033B000A4F84452304609F035FF96E8070004F5BA
:1033C000137383E807002C230498ADF83C300EA952
:1033D000CDF838900AF0CEF90499029806F0B2FFC1
:1033E00037235246059800930821C723FFF7FBFDBA
:1033F0004FF07F43C4F88832D4F858320599D3F897
:103400008430A4F88C523046984796E8070004F5BB
:10341000257383E80700234B1B6804F529752BB936
:10342000214B224A6021224820F0D4FD214B1B88E9
:10343000122B03D8204B1D4A6121F4E71F4B1221A8
:103440001868FFF7B9FC1E4A03461021284610F001
:103450002DFD2B230598C4F8A0520EA9ADF83C30E1
:10346000CDF838900AF086F90599029806F06AFFBF
:103470003846029906F066FF204611B0BDE8F08F8D
:10348000EC63020874690208F466020844630208E7
:10349000D4630208712F0008155202FFDEED09FF08
:1034A000050380FF88370120B45B0208B65C020880
:1034B000315C02088C370120785C020894370120C7
:1034C000015D0208D4610208704770477047704779
:1034D000704770477047A0F85010704701867047DA
:1034E00030B4C26844685510034604EB6200D2074A
:1034F00048BF62599B6830BC48BFD3581847034641
:10350000406830B19A681AB9D86800F00100704775
:1035100001207047B0F850007047008E704710B51A
:10352000682104461FF01AFE204610BD10B5482140
:1035300004461FF013FE204610BD10B510210446AE
:103540001FF00CFE204610BD10B541F29401044658
:103550001FF004FE204610BD08B590F826300BB1D0
:10356000FDF7A2FF08BD10B500F58054D4F89020F7
:103570000132452AC4F8902005D103681B6B984797
:103580000023C4F8903010BD4FF480710022818474
:1035900005490160C0E90122C0E90322C0E9052212
:1035A000C0E9072282627047F466020810B526223D
:1035B0000446002120F015FF2046FFF727FD044BAD
:1035C0002360FF2384F826300023A362204610BD29
:1035D0007469020800224FF0FF31C0E900218260C7
:1035E0007047000010B50446FFF7E0FF064B23606C
:1035F0000023C4E90C33C4E90E33C4E9103384F862
:103600002C30E385204610BD2464020810B5044622
:10361000FFF76AFD0023074AA364C4E91433C4E931
:103620001633C4E91833226084F84C30A4F84E30C5
:10363000204610BD946402082DE9F04F0446B9B04D
:10364000274600260EF056FFDD4BE66347F8403B69
:103650000DF1D40B04F16C083846FFF7A7FF04F115
:1036600098054FF6FF795946404604F1E00AADF857
:10367000D490FFF7DDFC28460AF042FB5046FFF7E6
:1036800083FF04F58673594618460D93ADF8D49020
:10369000FFF7CEFC04F59C7318462093FFF7A2FFBA
:1036A00004F5C07318462193FFF79CFF04F5E473FB
:1036B00018462293FFF796FF04F5047318462393E8
:1036C000FFF790FF04F5167318462493FFF78AFF5F
:1036D00004F5287318462593FFF784FF04F53A7321
:1036E00018462693FFF77EFF04F54C731846279380
:1036F000FFF778FF04F55E7318462893FFF772FF13
:1037000004F5707318462993FFF76CFF04F5816385
:1037100018462A93FFF766FF04F58A6318462B9331
:10372000FFF760FF04F5936318462C93FFF75AFFE9
:1037300004F59C6318462D93FFF754FF04F5A56329
:1037400018462E93FFF74EFF04F5AE6318462F93ED
:10375000FFF748FF04F5B76318460793FFF756FFD6
:1037600004F5C46318460E93FFF750FF04F5D163C8
:1037700018460F93FFF74AFF04F5DE6318461093CF
:10378000FFF744FF04F5EB6318461193FFF73EFF84
:1037900004F5F86318461293FFF738FF04F6280380
:1037A00018461393FFF732FF04F509631846149384
:1037B000FFF72CFF04F6F80318461593FFF726FFD2
:1037C00004F5166318461693FFF720FF04F6C81396
:1037D00018461793FFF71AFF04F52363184618934A
:1037E000FFF714FF04F6982318461993FFF70EFF0E
:1037F00004F5306318461A93FFF708FF04F66833A0
:1038000018461B93FFF702FF04F53D6318461C930F
:10381000FFF7FCFE04F6384318460393FFF7B4FEA7
:1038200004F66443594618461D93ADF8D490FFF74B
:10383000FFFB04F5496318460493FFF755FC04F6B3
:10384000D843184608930AF05BFA04F55263184609
:1038500009930AF055FA04F6685318460293FFF7E5
:1038600093FE04F69453594618461E93ADF8D4902F
:10387000FFF7DEFB04F55C6318461F93FFF734FC8B
:10388000504BC4F8C03D04F60C631846C4F8086EEB
:103890000593FFF729FC04F6546318460A930AF0CF
:1038A0002FFA04F69C6318460B930AF029FA04F6E3
:1038B000E46318460C930AF023FA434A04F5805354
:1038C000C3E92024414AC3F89060C3E922264FF49B
:1038D000A0733246384600933146F023FFF783FB4E
:1038E0004FF07F43A366231D18463946069306F022
:1038F00029FD324640463146FFF768FB012340462A
:103900005946ADF8D4300AF0BAF84146201D06F009
:1039100019FD284608228221FFF758FB4FF00A03C1
:103920005A4634A92846ADF8D0300B23ADF8D43030
:1039300009F073FF2A232846A4F8D030FFF792FB42
:10394000234BDFF890804FF0FF37C4E9353704F59B
:1039500084532946C4F8C030201D069306F0F2FCBB
:10396000F0230093502231465046FFF73CFB32468D
:103970000D983146FFF72AFB0D98ADF8D4605946F3
:103980003C250AF07CF80D99504606F0DBFC2B46EE
:103990003246209800953146FFF725FB2099C4F860
:1039A0006071504606F0CEFC2B46324621980095B9
:1039B0002946FFF718FB2199C4F8A8710CE000BF55
:1039C00044650208446302082C6502083148000877
:1039D0003524F0FF88370120504606F0B3FC2B4613
:1039E0003246229800957821FFF7FDFA2299C4F813
:1039F000F071504606F0A6FC2B46324623980095FF
:103A0000B421FFF7F0FA2399C4F83872504606F053
:103A100099FC2B462A46249800953146FFF7E3FA95
:103A20002499C4F88072504606F08CFC2B462A4636
:103A3000259800952946FFF7D6FA2599C4F8C8724B
:103A4000504606F07FFC2B462A46269800957821A2
:103A5000FFF7C9FA2699C4F81073504606F072FCB5
:103A60002B462A4627980095B421FFF7BCFA2799E0
:103A7000C4F85873504606F065FC2B467822289807
:103A800000953146FFF7AFFA2899C4F8A073504665
:103A900006F058FC2B467822299800952946FFF716
:103AA000A2FA2999C4F8E873504606F04BFC782234
:103AB00011462B462A980095FFF795FA2A99C4F8E3
:103AC0003074504606F03EFC2B4678222B98009529
:103AD000B421FFF788FA2B99C4F87874504606F0A1
:103AE00031FC2B46B4222C9800953146FFF77BFA27
:103AF0002C99C4F8C074504606F024FC2B46B4221E
:103B00002D9800952946FFF76EFA2D99C4F808758F
:103B1000504606F017FC2B46B4222E9800957821CB
:103B2000FFF761FA2E99C4F85075504606F00AFC6A
:103B3000B42211462B462F980095FFF754FA2F997F
:103B4000C4F89875504606F0FDFB3246079800957C
:103B50002B463146FFF747FA124BC4F8E835D4F844
:103B6000B8350799D3F88430A4F8EC6530AF3846FF
:103B7000984797E8070004F2F45383E80700D8F861
:103B8000003004F62C792BB9074B084A602108480D
:103B900020F020FA074F3B88112B0FD8064B034A21
:103BA0006121F4E7020242FFB45B0208B65C02083E
:103BB000315C02088C370120785C0208D04B11215F
:103BC0001868FFF7F9F8CF4A03460A21484610F073
:103BD0006DF929230798C4F800965946DFF82C930D
:103BE000ADF8D830CDF8D49009F0C4FD079950460F
:103BF00006F0A8FB2B4631460E9800952A46FFF7A3
:103C0000F2F9C14AC4F85026A4F854665846FFF7A2
:103C1000E1FC9BE8070004F25C6383E80700D8F846
:103C2000003004F574610791002BADD03B880D2B5B
:103C3000B4D9B34B0D211868FFF7BEF8B14A03465B
:103C40000A21079810F032F907990E98C4F86816FF
:103C500025235946ADF8D830CDF8D49009F08AFD27
:103C60000E99504606F06EFB2B4631460F98009594
:103C70007822FFF7B8F9A44AC4F8B826A4F8BC66BD
:103C80005846FFF7A7FC9BE8070004F2C46383E8EB
:103C90000700D8F8003004F654710791002B3FF468
:103CA00073AF3B88092B7FF679AF954B09211868D4
:103CB000FFF782F8934A03460A21079810F0F6F8B6
:103CC00007990F98C4F8D01624235946ADF8D83078
:103CD000CDF8D49009F04EFD0F99504606F032FB16
:103CE0002B46314610980095B422FFF77CF9864A9E
:103CF000C4F82027A4F824675846FFF76BFC9BE81C
:103D0000070004F22C7383E80700D8F8003004F6AB
:103D100068710791002B3FF437AF3B88052B7FF686
:103D20003DAF774B05211868FFF746F8754A034603
:103D30000A21079810F0BAF807991098C4F83817B4
:103D400023235946ADF8D830CDF8D49009F012FDB0
:103D50001099504606F0F6FA2B4629461198009520
:103D60003246FFF740F9684AC4F88827A4F88C6700
:103D70005846FFF72FFC9BE8070004F2947383E892
:103D80000700D8F8003004F67C75002B3FF4FCAE39
:103D90003B88102B7FF602AF594B10211868FFF7B4
:103DA0000BF8584A03460A21284610F07FF8C4F859
:103DB000A05735AD28231198ADF8D83029463C26B8
:103DC000CDF8D49009F0D6FC1199DFF84491504613
:103DD00006F0B8FA33463146129800963246FFF79D
:103DE00002F90027484AC4F8F027A4F8F4772846D7
:103DF000FFF7F0FB95E8070004F2FC7383E8070087
:103E0000D9F8003004F5796B002B3FF4BDAEDFF834
:103E10000481B8F800300C2B7FF6C0AE384B0C2173
:103E20001868FEF7C9FF374A03460A21584610F0C2
:103E30003DF836491298C4F808B82223359129462E
:103E4000ADF8D83009F096FC1299504606F07AFA8F
:103E500033463146139800967822FFF7C4F82A4A71
:103E6000C4F85828A4F85C782846FFF7B3FB95E817
:103E7000070004F6640383E80700D9F8003004F66D
:103E8000A47B002B3FF480AEB8F80030082B7FF6FF
:103E900085AE1B4B08211868FEF78EFF194A0346B2
:103EA0000A21584610F002F818491398C4F870B85F
:103EB000212335912946ADF8D83009F05BFC1399E0
:103EC000504606F03FFA3346314614980096B42225
:103ED000FFF789F80C4AC4F8C028A4F8C47828462B
:103EE000FFF778FB95E8070004F6CC0383E80700AA
:103EF000D9F8003004F6B87B002B3FF445AE0BE058
:103F000094370120015D0208020242FFD4610208D9
:103F1000883701208C370120B8F80030042B7FF659
:103F20003DAED34B04211868FEF746FFD14A034645
:103F30000A2158460FF0BAFFCF491498C4F8D8B8F0
:103F4000202335912946ADF8D83009F013FC149997
:103F5000504606F0F7F933467821159800963A4610
:103F6000FFF741F8C54AC4F82829A4F82C79284657
:103F7000FFF730FB95E8070004F6341383E80700E9
:103F8000D9F8003004F6CC7B002B3FF4FDADB8F837
:103F900000300F2B7FF602AEB54B0F211868FEF7ED
:103FA0000BFFB44A03460A2158460FF07FFFB2497F
:103FB0001598359127232946C4F840B9ADF8D83073
:103FC00009F0D8FB1599504606F0BCF93346782124
:103FD000169800963246FFF706F8A84AC4F89029CA
:103FE0002846A4F89479FFF7F5FA95E8070004F657
:103FF0009C1383E80700D9F8003004F57E65002B98
:104000003FF4C2ADB8F800300B2B7FF6C7AD984B2C
:104010000B211868FEF7D0FE964A03460A2128466F
:104020000FF044FF9449C4F8A85935AD1F231698E2
:1040300035912946ADF8D83009F09CFB16995046C9
:1040400006F080F978221146334617980096FEF75D
:10405000CAFF8A4AC4F8F829A4F8FC792846FFF771
:10406000B9FA95E8070004F6042383E80700D9F8B5
:10407000003004F6F47B002B3FF486ADB8F8003036
:10408000072B7FF68BAD7A4B07211868FEF794FE5D
:10409000784A03460A2158460FF008FF76491798D8
:1040A000C4F810BA1E2335912946ADF8D83009F06E
:1040B00061FB1799504606F045F933467821189868
:1040C0000096B422FEF78FFF6C4AC4F8602AA4F869
:1040D000647A2846FFF77EFA95E8070004F66C2319
:1040E00083E80700D9F8003004F5805B0BF1080B7A
:1040F000002B3FF449ADB8F80030032B7FF64EADEE
:104100005B4B03211868FEF757FE5A4A03460A2103
:1041100058460FF0CBFE58491898C4F878BA1D23BA
:1041200035912946ADF8D83009F024FB189950464E
:1041300006F008F93346B421199800963A46FEF77E
:1041400052FF4E4AC4F8C82AA4F8CC7A2846FFF792
:1041500041FA95E8070004F6D42383E80700D9F86C
:10416000003004F5805B0BF11C0B002B3FF40CAD11
:10417000B8F800300E2B7FF611AD3D4B0E211868BC
:10418000FEF71AFE3B4A03460A2158460FF08EFE00
:1041900039491998C4F8E0BA262335912946ADF873
:1041A000D83009F0E7FA1999504606F0CBF83346B3
:1041B000B4211A9800963246FEF715FF2F4AC4F82C
:1041C000302BA4F8347B2846FFF704FA95E8070063
:1041D00004F63C3383E80700D9F8003004F5815B2E
:1041E0000BF1100B002B3FF4CFACB8F800300A2BCA
:1041F0007FF6D4AC1E4B0A211868FEF7DDFD1D4A80
:1042000003460A2158460FF051FE1B491A98359172
:104210001C232946C4F848BBADF8D83009F0AAFAE7
:104220001A99504606F08EF833467822B4211B982E
:104230000096124EFEF7D7FE2846C4F8986BA4F8F5
:104240009C7BFFF7C7F995E8070004F6A43383E8E1
:104250000700D9F8003004F582550435002B3FF4EF
:1042600093ACB8F80030062B7FF698AC08E000BF9E
:1042700094370120015D0208D4610208020242FF66
:10428000D44BDFF864B318680621FEF795FDD24AD7
:1042900003460A2128460FF009FEC4F8B05B35AD8D
:1042A0001B231B98ADF8D8302946CDF8D4B009F0BF
:1042B00061FA1B99504606F045F83C230093B5225D
:1042C000B4211C98FEF78FFEC4F8006CA4F8047C9F
:1042D0002846FFF77FF995E8070004F60C4383E8CA
:1042E0000700D9F800303E4604F582571837002BF6
:1042F0003FF44AACB8F80030022B7FF64FACB54B18
:1043000002211868FEF758FDB34A03460A213846D1
:104310000FF0CCFD1A231C98C4F8187C2946ADF880
:10432000D830CDF8D4B009F025FA50461C9906F0E3
:1043300009F85146201D4FF0960A06F003F88A232B
:104340000398CDF800A05F223321FEF74CFE3246E1
:104350001D9884F85D6C3146FEF738FE4FF003007F
:10436000ADF8D40029461D9809F089FB1D990398E2
:1043700005F0E8FF032204981F21FEF727FE30AF67
:104380004FF07F400499C4F8C00CA4F8C46C3846C0
:1043900008F048FF049800F13C0397E8070083E821
:1043A00007004FF01900ADF8D80029460498CDF861
:1043B000D4B009F0DFF9DDE9030105F0C3FF089887
:1043C0002F223146FEF702FE34A84FF007092A4695
:1043D00001460898ADF8D090ADF8D49009F01DFAD8
:1043E00018230898A4F8103DFEF73CFE4FF0FF3864
:1043F0007A4B0698C4F8143D0899C4F8000DC4F827
:10440000188D039805F09EFF099863223146FEF748
:10441000DDFD34A801462A460998ADF8D090ADF8E4
:10442000D49009F0FAF91722A4F8582D0998FEF74C
:1044300019FE6A4B0698C4F85C3D0999C4F8480D0A
:10444000C4F8608D039805F07DFF0399201D05F0E9
:1044500079FFD6230298CDF800A05F220D21FEF748
:10446000C2FD32461E9884F88D6D3146FEF7AEFDD2
:1044700004231E98ADF8D430294609F000FB1E999C
:10448000029805F05FFF1922202311461F98009320
:10449000A123FEF7A8FD4FF07F40C4F8F00DA4F86B
:1044A000F46D2846FFF796F895E8070004F6FC53EC
:1044B00083E807004A4A136804F5835909F10C0997
:1044C000002B3FF461AB47490B88012B7FF666ABAD
:1044D000404B01211868FEF76FFC3F4A03460A2152
:1044E00048460FF0E3FC15231F98C4F8089E2946A0
:1044F000ADF8D830CDF8D4B009F03CF91F99029846
:10450000DFF8E89005F01EFF059803224721FEF72B
:104510005DFD4FF07F430599C4F83C3E3846A4F852
:10452000406E08F07FFE97E80700059BCDF8D4B0F9
:104530003C3383E8070016230598ADF8D8302946A8
:1045400009F018F90599029805F0FCFE0A98432233
:104550002621FEF73BFD08272A4634A90A98ADF824
:10456000D0704FF0090AADF8D4A009F056F9142321
:104570000A98A4F88C3EFEF775FD069BC4F87C3EB5
:104580000A990298C4F8909EC4F8948E05F0DAFE59
:104590000B986E222621FEF719FD2A4634A90B98A6
:1045A000ADF8D070ADF8D4A009F037F913230B980B
:1045B000A4F8D43EFEF756FD069BC4F8C43E0B9902
:1045C0000298C4F8D89EC4F8DC8E05F0BBFE0299B0
:1045D000201D0DE094370120015D020862F507FF00
:1045E000883701208C370120D46102080909DBFFDC
:1045F00005F0A8FE0C983A460A21FEF7E7FC0A23CC
:104600002A4634A90C98ADF8D0300B23ADF8D4303D
:1046100009F003F90C98A4F81C6FFEF723FD084B72
:10462000C4F8203F069B0C99C4F8248F201DC4F8C1
:104630000C3F05F087FE204639B0BDE8F08F00BF83
:104640003524F0FF90F84C302DE9F0410446002B62
:1046500050D0B0F84E30B0F8502001339BB29342A6
:10466000A0F84E3046D39B1A9DB2B0F85820B0F84F
:104670005430C66DD21A12B2B0F85230002128461A
:10468000B047B4F85630B4F85A20276ED21A06460E
:10469000B4F8523012B200212846B847B4F8563068
:1046A000C218B4F85430F11812B209B22046FCF71F
:1046B0004EFEB4F85030B4F85210B4F84E200B440B
:1046C0009A4217D3002384F84C30A4F84E300BF0F4
:1046D000C3FE214604300BF0E4FE606E50B1036867
:1046E000DB68984730B1606E036821469B68BDE87F
:1046F000F0411847BDE8F08108B5FFF7A3FF08BDFA
:10470000F8B51D4690F84C3004460F4616462BB9B6
:104710000BF0A2FE214604300BF06CFF0023A4F83E
:104720004E3063686365069BE365079BA4F85250AF
:104730002366012384F84C30236DA4F85870A4F844
:104740005A6013B92046FFF77DFFF8BD90F82C3072
:104750002DE9F0410446002B41D0C38D028E013378
:104760009BB29342C3853AD39B1A9DB2028F838E2C
:10477000C66BD21A12B2438E00212846B047E38E90
:10478000628F276CD21A0646638E12B20021284629
:10479000B847E38EC218A38EF11812B209B22046B0
:1047A000FCF7D5FD238E618EE28D0B449A4216D321
:1047B000002384F82C30E3850BF04EFE21460430B4
:1047C0000BF06FFE606C50B10368DB68984730B146
:1047D000606C036821469B68BDE8F0411847BDE85E
:1047E000F08108B5FFF7B2FF08BDF8B51D4690F897
:1047F0002C3004460F4616462BB90BF02DFE2146F1
:1048000004300BF0F7FE0023E38563686363069BC7
:10481000E363079B65862364012384F82C30236BB4
:104820002787668713B92046FFF790FFF8BD000081
:1048300000F198039942F7B504460D4606D10123CD
:1048400080F85D3C00F638400DF002F804F5526344
:104850009D4206D1002384F85D3C04F638400CF0FC
:10486000F7FF04F6D8439D4207D10BF0F5FDFEF7A4
:10487000B5F823682046DB6A984704F69C639D429E
:1048800006D1002384F88D3D04F668500CF0E0FF5B
:1048900004F654639D4203D10BF0DEFDFEF79EF853
:1048A00004F6E4639D4240F0A381D24E0125002727
:1048B000C4F81C76A4F808562B463A46394604F547
:1048C000B760CDE90066FFF71BFFC4F88476A4F853
:1048D00070562B463C22394604F5C460CDE900668B
:1048E000FFF70EFFC4F8EC76A4F8D8562B467822D2
:1048F000394604F5D160CDE90066FFF701FFC4F841
:104900005477A4F840572B46B422394604F5DE60AC
:10491000CDE90066FFF7F4FEC4F8BC77A4F8A85709
:104920002B463A463C2104F5EB60CDE90066FFF7E3
:10493000E7FE3C221146C4F82478A4F810582B4610
:1049400004F5F860CDE90066FFF7DAFEC4F88C786C
:10495000A4F878582B4678223C2104F62800CDE9AB
:104960000066FFF7CDFEC4F8F478A4F8E0582B46B3
:10497000B4223C2104F50960CDE90066FFF7C0FED2
:10498000C4F85C79A4F848592B463A46782104F6D5
:10499000F800CDE90066FFF7B3FEC4F8C479A4F8C7
:1049A000B0592B463C22782104F51660CDE900660B
:1049B000FFF7A6FE78221146C4F82C7AA4F8185AFC
:1049C0002B4604F6C810CDE90066FFF799FEC4F83F
:1049D000947AA4F8805A2B46B422782104F52360F7
:1049E000CDE90066FFF78CFEC4F8FC7AA4F8E85A1B
:1049F0002B463A46B42104F69820CDE90066FFF72D
:104A00007FFEC4F8647BA4F8505B2B463C22B421A3
:104A100004F53060CDE90066FFF772FEC4F8CC7B88
:104A2000A4F8B85B2B467822B42104F66830CDE9AF
:104A30000066FFF765FEB4221146C4F8347CA4F882
:104A4000205C2B4604F53D60CDE90066FFF758FE7B
:104A5000C4F87C71A4F868512B463A46394604F5EF
:104A60009C70CDE90066FFF7C0FEC4F8C471A4F8DD
:104A7000B0512B463A463C2104F5C070CDE90066A2
:104A8000FFF7B3FEC4F80C72A4F8F8512B463A466F
:104A9000782104F5E470CDE90066FFF7A6FEC4F8BE
:104AA0005472A4F840522B463A46B42104F50470DF
:104AB000CDE90066FFF799FEC4F89C72A4F888520D
:104AC0002B463C22394604F51670CDE90066FFF707
:104AD0008CFE3C221146C4F8E472A4F8D0522B4656
:104AE00004F52870CDE90066FFF77FFEC4F82C734B
:104AF000A4F818532B463C22782104F53A70CDE9EE
:104B00000066FFF772FEC4F87473A4F860532B4676
:104B10003C22B42104F54C70CDE90066FFF765FE38
:104B2000C4F8BC73A4F8A8532B467822394604F580
:104B30005E70CDE90066FFF758FEC4F80474A4F86F
:104B4000F0532B4678223C2104F57070CDE90066C5
:104B5000FFF74BFE78221146C4F84C74A4F8385481
:104B60002B4604F58160CDE90066FFF73EFEC4F8F0
:104B70009474A4F880542B467822B42104F58A60FA
:104B8000CDE90066FFF731FEC4F8DC74A4F8C85420
:104B90002B46B422394604F59360CDE90066FFF751
:104BA00024FEC4F82475A4F810552B46B4223C21E9
:104BB00004F59C60CDE90066FFF717FEC4F86C753C
:104BC000A4F858552B46B422782104F5A560CDE908
:104BD0000066FFF70AFEB422C4F8B475A4F8A05525
:104BE0002B46CDE90066114604F5AE60FFF7FDFDEA
:104BF00003B0F0BDB3280108704710B54FF4AE7193
:104C000004461EF0ABFA204610BD10B50446D0F89D
:104C1000580100F014F82046BDE810400BF0B8BC75
:104C200010B50446FDF7A6FE014B2360204610BDDB
:104C30008065020800210222C0E900127047704717
:104C4000704704387047704710B5102104461EF0B5
:104C500085FA204610BDA0F10400F5E7002282602D
:104C6000024A026018324260C1607047D46502088F
:104C70007047000010B5034B03600446FEF70BF9C4
:104C8000204610BDFC65020810B50446FFF7F2FF90
:104C900020464FF435711EF061FA204610BD000029
:104CA00010B50446FEF742FA014B2360204610BDC2
:104CB000FC650208FEF7F0B870470438704770478B
:104CC00010B5102104461EF049FA204610BDA0F18F
:104CD0000400F5E700228260024A02601832426056
:104CE000C1607047346602087047000010B5034B7E
:104CF00003600446FEF7EDFB204610BD5C6602082B
:104D000010B50446FFF7F2FF204641F298011EF06D
:104D100025FA204610BD000010B50446FEF78CFCB5
:104D2000044B236004F580530222C3F894202046EC
:104D300010BD00BF5C660208FEF7CCBBF0207047D8
:104D40004FF4A07070472920FDF738B82820FDF7F0
:104D500035B808B5FDF706F8CA20FDF72FF8C320CF
:104D6000FDF710F80820FDF70DF85020FDF70AF8C0
:104D7000CF20FDF723F80020FDF704F8C120FDF750
:104D800001F83020FCF7FEFFED20FDF717F8642056
:104D9000FCF7F8FF0320FCF7F5FF1220FCF7F2FF09
:104DA0008120FCF7EFFFE820FDF708F88520FCF7ED
:104DB000E9FF0020FCF7E6FF7820FCF7E3FFCB20BB
:104DC000FCF7FCFF3920FCF7DDFF2C20FCF7DAFFB5
:104DD0000020FCF7D7FF3420FCF7D4FF0220FCF7BB
:104DE000D1FFF720FCF7EAFF2020FCF7CBFFEA20F9
:104DF000FCF7E4FF0020FCF7C5FF0020FCF7C2FF32
:104E0000B120FCF7DBFF0020FCF7BCFF1B20FCF708
:104E1000B9FFB620FCF7D2FF0A20FCF7B3FFA220AF
:104E2000FCF7B0FFC020FCF7C9FF1020FCF7AAFF79
:104E3000C120FCF7C3FF1020FCF7A4FFC520FCF73E
:104E4000BDFF4520FCF79EFF1520FCF79BFFC72008
:104E5000FCF7B4FF9020FCF795FF3620FCF7AEFF7F
:104E6000C820FCF78FFFF220FCF7A8FF0020FCF71A
:104E700089FFB020FCF7A2FFC220FCF783FFB62019
:104E8000FCF79CFF0A20FCF77DFFA720FCF77AFFC8
:104E90002720FCF777FF0420FCF774FF2A20FCF79B
:104EA0008DFF0020FCF76EFF0020FCF76BFF002059
:104EB000FCF768FFEF20FCF765FF2B20FCF77EFF77
:104EC0000020FCF75FFF0020FCF75CFF0120FCF7EF
:104ED00059FF3F20FCF756FFF620FCF76FFF01203B
:104EE000FCF750FF0020FCF74DFF0620FCF74AFFBF
:104EF0002C20FCF763FFC820FCF7AEFF2620FCF750
:104F00005DFF0120FCF73EFFE020FCF757FF0F207C
:104F1000FCF738FF2920FCF735FF2420FCF732FF8F
:104F20000C20FCF72FFF0E20FCF72CFF0920FCF7CC
:104F300029FF4E20FCF726FF7820FCF723FF3C20BA
:104F4000FCF720FF0920FCF71DFF1320FCF71AFFD8
:104F50000520FCF717FF1720FCF714FF1120FCF7C2
:104F600011FF0020FCF70EFFE120FCF727FF0020D7
:104F7000FCF708FF1620FCF705FF1B20FCF702FFDB
:104F80000420FCF7FFFE1120FCF7FCFE0720FCF7D5
:104F9000F9FE3120FCF7F6FE3320FCF7F3FE422049
:104FA000FCF7F0FE0520FCF7EDFE0C20FCF7EAFE16
:104FB0000A20FCF7E7FE2820FCF7E4FE2F20FCF790
:104FC000E1FE0F20FCF7DEFE1120FCF7F7FEC82003
:104FD000FCF742FF2920FCF7F1FEBDE808402C2039
:104FE000FCF7ECBE08B5FCF7BDFE0321D320FCF7AF
:104FF00001FF80B208BD10B5C4B2022203212046D1
:10500000FCF766FE0A20FCF7ABFE204600220321D7
:10501000FCF75EFEBDE810400220FCF7A1BE38B5EB
:105020000446E4B2FCF752FE00212046FCF768FE7D
:10503000012105462046FCF763FE40EA052080B2C8
:1050400038BD10B5C4B240212046FCF759FE030616
:1050500007D54C212046FCF753FE003818BF01202D
:1050600010BD01224B212046FCF732FE20460022D3
:105070004B21FCF72DFE0020F2E773B50423C4B2E8
:105080000E461546D7210DEB03022046FCF752FED3
:10509000019B1BBA1A0DC3F30B23328020462B80D1
:1050A00001224B21FCF714FE00224B212046FCF785
:1050B0000FFE02B070BD000010B50A4A1378984286
:1050C00004460DD0517888420AD00BB141B9012372
:1050D000D454FCF7FBFD2046BDE81040FFF78BBF22
:1050E00010BD00BF3029002010B5C4B209212046F0
:1050F000FCF706FE40F00102D2B220460921BDE8CD
:105100001040FCF7E5BD10B5C4B209212046FCF7FC
:10511000F7FD092100F0FE022046BDE81040FCF733
:10512000D7BD38B5C4B20D4620460A21FCF7E8FDCC
:1051300040EA0502D2B220460A21BDE83840FCF719
:10514000C7BD10B50446FCF7C2FD20461F21FFF77E
:10515000E8FF2046BDE81040FFF7C6BF38B5C4B22F
:105160000D4620460A21FCF7CBFD20EA0502D2B20B
:1051700020460A21BDE83840FCF7AABD10B5044618
:10518000FFF7C1FF20461F21BDE81040FFF7E6BF33
:1051900010B5C0B20C460B21FCF7B2FD204010BD8B
:1051A0001F21FFF7F5BF0A46C0B20B21FCF790BDE7
:1051B0001F21FFF7F8BF38B5C4B20D4620461721AE
:1051C000FCF79EFD20EA0502D2B220461721BDE879
:1051D0003840FCF77DBD70B5C4B2064604212046B8
:1051E000FCF78EFD042100F0FB0205462046FCF78B
:1051F0006FFD3046F021FFF7DEFF05F0F802204694
:105200000421FCF765FD492220212046FCF760FDC2
:105210000220FCF7A5FD204601222121FCF758FDC4
:1052200020469A224121FCF753FD204601224A21C3
:10523000FCF74EFD204601224B21FCF749FD20469C
:1052400000224B21FCF744FD204601225621FCF7A9
:105250003FFD204601225821FCF73AFD204601225D
:105260004021FCF735FD2046FF220B21FCF730FDE5
:10527000BDE870400220FCF773BD0000054BD3F879
:10528000882042F47002C3F888204FF000629A60D0
:10529000704700BF00ED00E008B50B4B1A6842F400
:1052A00000721A601A6842F480621A601A6842F446
:1052B00080721A60032000F027FB0020FDF77CF8C5
:1052C000FCF7D8FD002008BD003C0240034A044B17
:1052D00011681B780B441360704700BF342900200D
:1052E0007C000020014B1868704700BF3429002063
:1052F00038B50446FFF7F6FF631C1CBF054B1B784F
:10530000054618BFE418FFF7EDFF431BA342FAD38D
:1053100038BD00BF7C00002038B50446002800F0EE
:105320009B80056C25B9FCF7C5FD656484F83C508D
:10533000236CDB0600F18E80236C23F4885323F06A
:10534000020343F002032364444B5A6822F44032C0
:105350005A605A6861680A435A60236821695A682A
:1053600022F480725A605A6842EA01225A605A68EE
:10537000A16822F040725A605A680A435A609A68DB
:10538000E16822F400629A609A680A439A6034499C
:10539000A26A8A4252D0996821F070619960996836
:1053A0000A439A609A68E16A22F040529A609A68C9
:1053B0000A439A609A6822F002029A609A68217EF3
:1053C00042EA41029A6094F82020002A3ED05A68AE
:1053D000616A42F400625A605A6822F460425A607C
:1053E0005A68013942EA41325A60DA6AE16922F4C4
:1053F0007002DA62DA6A013942EA0152DA629A68C4
:1054000022F400729A609A6894F8301042EA4122BD
:105410009A609A68616922F480629A609A680020B2
:1054200042EA81229A606064236C23F0030343F014
:1054300001032364002384F83C3038BD9A6822F0CD
:1054400070629A609A6822F04052B2E75A6822F479
:105450000062C9E70120EDE70120EEE700230140EB
:105460000100000F37B513460022019290F83C204E
:10547000012A044600F088800568012280F83C205B
:10548000AA68D00752D5AA68D20562D4AA68D00704
:1054900071D5206C20F4E06020F0010040F48070B1
:1054A00020646A68520541BF206C20F4405040F4EB
:1054B00080502064226CA06B12F480521CBF626C7E
:1054C00022F006026264002284F83C202F4AC26364
:1054D0002F4A02642F4AC2646FF022022A606A686F
:1054E00042F080626A60AA6842F48072AA600A464A
:1054F00005F14C0100F0FEFA274A2849536813F0E1
:105500001F0F236834D18B4207D001F580718B4285
:1055100024D1526812F01F0F23D19A6812F0405F15
:105520001FD19A6842F080429A601AE0AA6842F05D
:105530000102AA601A4A10681A4AB0FBF2F000EBA6
:1055400040000190019A002A9DD0019A013A0192EF
:10555000F8E7AA6822F48072AA6097E712498B42A2
:1055600002D0002003B030BD526812F0100FD3E714
:105570008B42F6D1D1E7236C43F010032364636CB4
:1055800043F001036364ECE70220EBE76157000896
:10559000215600084B57000800230140002001401D
:1055A0007800002040420F000022014010B590F822
:1055B0003C30012B044630D00268012380F83C3097
:1055C000936823F001039360936813F0010322D1E1
:1055D0009168806B21F48071916090F83520022AE7
:1055E00017D100F0C0FA18B1236C43F040032364D4
:1055F0002268536823F080635360236C23F488533C
:1056000023F0010343F001032364002384F83C30BA
:1056100010BD1846ECE70020F7E70220F8E77047D6
:1056200008B5806BFFF7FBFF08BD70477047036844
:1056300070B51E685D68B20704462BD5A80629D54B
:10564000226CD1065EBF226C42F4007222649A681A
:1056500012F0405F17D1227EAAB9DA6A12F4700FF5
:1056600002D09A6852050ED45A6822F020025A607D
:10567000236C23F480732364236CD8045EBF236CF3
:1056800043F0010323642046FCF7C8FA23686FF057
:1056900012021A60710733D52A0631D5236CDB0656
:1056A0005EBF236C43F40053236423689A6812F4AA
:1056B000401F1ED19A6B12F4401F02D09A68500509
:1056C00017D45A68510514D49A6812F0405F10D16B
:1056D000227E72B95A6822F080025A60236C23F449
:1056E00080532364236CDA055EBF236C43F001030F
:1056F0002364204600F006F923686FF00C021A605C
:10570000F30710D568060ED523681B68D9070AD59C
:10571000236C43F4803323642046FFF786FF23681D
:105720006FF001021A60B2060ED56B010CD5636CE6
:1057300043F00203636423686FF020051D60204678
:10574000FFF774FF23681D6070BD806B08B54023B0
:105750000364436C43F004034364FFF767FF08BD31
:10576000836B1A6C12F0500F10B51A6C23D142F4EF
:1057700000721A641A68916811F0405F17D1197E9F
:10578000A9B9D16A11F4700F02D0916848050ED4FE
:10579000516821F0200151601A6C22F480721A6461
:1057A0001A6CD1045EBF1A6C42F001021A641846EA
:1057B000FCF734FA10BDD20603D51846FFF736FFC2
:1057C000F8E79B6BBDE81040DB6C1847F7B500238A
:1057D000019390F83C30012B054600F086800123B0
:1057E00080F83C3008682B688E68092884B233D969
:1057F00004EB4402DF681E3A4FF0070C0CFA02FC7F
:1058000027EA0C07DF60DF6806FA02F23A43DA6043
:105810004968062901EB81022DD8596B053A1F26EC
:10582000964021EA06015963596B04FA02F20A43D1
:105830005A632F4A93420AD1122837D12D4B5A6806
:1058400022F400025A605A6842F480025A60002032
:1058500085F83C0003B0F0BD1A6900EB400C072747
:1058600007FA0CF722EA07021A611A6906FA0CF61F
:1058700016431E61CCE70C294FF01F010BD81E6B9D
:10588000233A914026EA01011963196B04FA02F2E6
:105890000A431A63CDE7DE6A413A914026EA0101E4
:1058A000D962D96A94400C43DC62C2E7124B984239
:1058B00001D01128CBD10F4B5A6822F480025A60D4
:1058C0005A6842F400025A600B4B9842BFD10B4B0E
:1058D0000B4A1B68B3FBF2F30A2253430193019B6B
:1058E000002BB4D0019B013BF8E70220B2E700BFD8
:1058F0000020014000230140120000107800002029
:1059000040420F00704700000749CA6822F4E06275
:105910000302120403F4E063120C134343F0BF6369
:1059200043F40033CB60704700ED00E0164B30B518
:10593000DC68C4F30224C4F10703251D042B28BF2F
:105940000423062D4FF0FF358CBF033C002405FADD
:1059500003F321EA0303A54022EA0502A34000283D
:1059600043EA0203ACBF00F16040084A4FEA031368
:10597000B8BF00F00F00DBB2AABF00F561401354BE
:1059800080F8003330BD00BF00ED00E014ED00E012
:10599000002807DB044A4109012300F01F0083406F
:1059A00042F82130704700BF00E100E010B5044626
:1059B00050B1437903F0FF0213B90271FCF7E8FA22
:1059C00001236371002010BD0120FCE7036810B5BE
:1059D000084C0246D9B210391820B1FBF0F0205C17
:1059E000D06523F47F7020F003005F2988BF043066
:1059F000906510BDA866020870B50446FFF772FCFA
:105A00000546002C60D0022384F83530226800233C
:105A100084F83430136823F001031360226813689C
:105A2000D8072ED413683248A1691840D4E901354B
:105A30002B43E5682B4325692B4365692B43E569B7
:105A40000B432B43256A2B430343606A042802BFA0
:105A5000D4E90B5635432B4313605369042823F0D4
:105A6000070343EA000335D1A06AE56A03438DB317
:105A700091B9012820D030F002012BD1E90129D5BC
:105A80001DE0FFF72FFC401B0528C7D9202303206A
:105A9000636584F8350070BDB1F5005F16D1032849
:105AA00018D801A151F820F0BF5A00087D5A00080B
:105AB000BF5A0008B95A0008B5F1C07F0AD1402387
:105AC0006365012384F835300120E4E70228F6D924
:105AD0000328D3D053612046FFF778FFE26D3F23C0
