:020000040800F2
:10000000000003205D06000855240008572400085E
:10001000592400085B2400085D240008000000004B
:1000200000000000000000000000000071910008C6
:100030005F24000800000000019200088D8A00087B
:10004000AD060008AD060008AD060008AD060008C4
:10005000AD060008AD060008AD060008AD060008B4
:10006000AD060008AD060008AD060008AD060008A4
:10007000AD060008AD060008AD060008AD06000894
:10008000AD060008AD06000861240008AD060008B2
:10009000AD060008AD060008AD060008AD06000874
:1000A000AD060008AD060008AD060008AD06000864
:1000B000AD060008AD060008AD060008AD06000854
:1000C000AD060008AD060008AD060008AD06000844
:1000D000AD060008AD060008AD060008AD06000834
:1000E000AD060008AD060008AD060008AD06000824
:1000F000AD060008AD060008AD060008AD06000814
:10010000AD060008AD060008AD060008AD06000803
:10011000AD060008AD0600086D240008AD06000815
:1001200079240008AD060008AD060008AD060008F9
:10013000AD060008AD060008AD060008AD060008D3
:10014000AD060008AD060008AD060008AD060008C3
:10015000AD060008AD060008AD060008AD060008B3
:10016000AD060008AD060008AD060008AD060008A3
:10017000AD060008AD060008AD060008000000004E
:10018000AD060008AD060008AD060008AD06000883
:10019000AD060008AD060008AD060008AD06000873
:0C01A00085240008AD060008912400082A
:1001B00010B5054C237833B9044B13B10448AFF3A1
:1001C00000800123237010BD800300200000000088
:1001D000705A020808B5034B1BB103490348AFF33B
:1001E000008008BD0000000084030020705A02084F
:1001F00001F0FF01102A2BDB10F0070F08D010F8D8
:10020000013B013A8B422DD010F0070F42B3F6D1DB
:10021000F0B441EA012141EA014122F007047FF0F4
:1002200000070023F0E80256083C85EA010586EA4B
:10023000010685FA47F5A3FA87F586FA47F6A5FA87
:1002400087F68EB9EED1F0BC01F0FF0102F0070293
:1002500032B110F8013B013A83EA010313B1F8D13E
:100260000020704701387047002D06BF354603381F
:10027000073815F0010F07D1013015F4807F02BF58
:10028000013015F4C03F0130F0BC0138704700BFA9
:100290007BB972B90029BEBF00204FF0004106E0D3
:1002A00008BF00281CBF6FF000414FF0FF3000F086
:1002B000D3B9ADF1080C6DE904CE002909DB002BA0
:1002C0001ADB00F04DF8DDF804E0DDE9022304B0AC
:1002D0007047404261EB4101002B1BDB00F040F80E
:1002E000DDF804E0DDE9022304B0404261EB4101A6
:1002F000524263EB43037047524263EB430300F007
:100300002FF8DDF804E0DDE9022304B0404261EBA0
:1003100041017047524263EB430300F021F8DDF8DE
:1003200004E0DDE9022304B0524263EB430370476B
:1003300053B94AB9002908BF00281CBF4FF0FF314C
:100340004FF0FF3000F088B9ADF1080C6DE904CE34
:1003500000F006F8DDF804E0DDE9022304B07047A0
:100360002DE9F047089D8E4604468846002B4AD169
:100370008A42174662D9B2FA82F64EB1C6F120031C
:1003800001FA06F820FA03F3B74043EA0808B4403C
:100390004FEA174E1FFA87FCB8FBFEF1230C0EFB49
:1003A000118843EA084301FB0CF29A4209D9FB1871
:1003B00001F1FF3080F0EA809A4240F2E780023992
:1003C0003B449A1AA3B2B2FBFEF00EFB102243EAA2
:1003D000024300FB0CFC9C4509D9FB1800F1FF32DD
:1003E00080F0D6809C4540F2D3803B44023840EAFE
:1003F0000140A3EB0C0300211DB1F3400022C5E92D
:100400000032BDE8F0878B4205D90DB1C5E9000186
:1004100000210846F5E7B3FA83F1002946D1734578
:1004200002D3824200F20581841A6EEB030201209E
:100430009046002DE5D0C5E90048E2E7002A00F02B
:100440009080B2FA82F6002E40F0A4808A1A030C43
:100450004FEA174E80B2BCB20121B2FBFEFC0EFB8C
:100460001C2243EA024304FB0CF29A4207D9FB1810
:100470000CF1FF3802D29A4200F2E080C4469B1A87
:10048000B3FBFEF20EFB123340EA034302FB04F41B
:100490009C4207D9FB1802F1FF3002D29C4200F2C5
:1004A000CA8002461B1B42EA0C40A5E7C1F12006A8
:1004B0008B4022FA06F71F430EFA01F420FA06F3E6
:1004C0002EFA06FE4FEA1749234300FA01F81FFAF5
:1004D00087FCBEFBF9F01C0C09FB10EE44EA0E444D
:1004E00000FB0CFEA64502FA01F209D93C1900F105
:1004F000FF3A80F09C80A64540F2998002383C4447
:10050000A4EB0E041FFA83FEB4FBF9F309FB1344BA
:100510004EEA044403FB0CFCA44508D93C1903F142
:10052000FF3E80F08280A4457FD9023B3C4443EAF1
:100530000040A4EB0C04A0FB02EC64457346E146CA
:1005400062D35FD05DB1B8EB030264EB090404FA37
:1005500006F622FA01F31E43CC40C5E900640021EF
:100560004FE7B1FBF2FC010C41EA0E4180B240EAD8
:1005700001423B4638463C46B846BE462026B1FBC3
:10058000F7F1A2EB080241EA0C4166E7014618E7E1
:1005900010462CE7C6F120022EFA02F3B740B14014
:1005A00020FA02F24FEA174E0A43B3FBFEF8BCB240
:1005B0000EFB1833110C41EA034108FB04F9B0406B
:1005C00089454FEA104380B23ED9791808F1FF3CC3
:1005D00001D289451FD8A1EB0901B1FBFEF909FB46
:1005E00004F80EFB191192B242EA0142424529D2A7
:1005F000BA1809F1FF31C4D24245C2D2A9F10201B1
:100600003A44BEE7F0459DD2BEEB02036CEB070C0B
:100610000138E14696E7A7EB09094944A8F1020C25
:10062000B1FBFEF909FB04F8DBE773467FE75046B0
:1006300066E70846FDE63B44023A33E7ACF1020CBC
:100640003B441CE749469CE7A1EB0901C446B1FBCA
:10065000FEF909FB04F8C4E7704700BFDFF834D0A7
:10066000002103E00C4B5B58435004310B480C4B0A
:1006700042189A42F6D30B4A02E0002342F8043BA8
:10068000094B9A42F9D305F0C1FA24F083FC01F03A
:1006900075F8704700000320BCDE0E080000002043
:1006A0006801002080030020CC500120FEE7704745
:1006B00008B500F0BDFDBDE8084000F03FBD00F00A
:1006C000B9BD704710B50421044623F019FA20463D
:1006D00010BD000038B50C4B0C4C18800C4B822020
:1006E00019806368984740F6110398420AD1094D72
:1006F00023682C60822098472B688220DB6898470B
:10070000002038BD0120FCE7A60300205000002097
:10071000A4030020A80300204FF4A071F020FFF7ED
:10072000D9BF0000F7B5394D2B6804461B698220FC
:100730009847208000284ED02B680DF106025B6997
:1007400001A982209847324B1B78002B4BD0BDF873
:10075000062040F674639A423FD9ADF80630BDF8E2
:1007600006209B1A9BB20A2B42D90B22B3FBF2F351
:10077000284A1288934201D9013A93B2BDF8042065
:10078000254840F6B8318A4234D8C2F571620E323B
:10079000016892B20F25B2FBF5F2204D2D88AA42D6
:1007A00084BF05F1FF35AAB28A4215468EB22AD916
:1007B000921B91B21A4E3768BB42BAB28CBF9A1ADA
:1007C000D21A92B211440529C4BF05603360036890
:1007D00063803368A38003B0F0BDB32A9CBFB4220A
:1007E000ADF80620BBE7BDF80630A3F5B473B9E752
:1007F0000023C3E7C2F56D62083292B20E2A016887
:10080000C8D800252A46891A89B2D3E7A803002050
:1008100044280020A4030020A0030020A6030020F9
:100820009C03002037B568460D461446FFF77AFF53
:10083000BDF8000030B1BDF802302B60BDF80430C7
:100840002360012003B030BD032821D8DFE800F089
:10085000020B12190F4B1A68B2FA82F252090421E4
:100860000D4806F029B90B4B5A68B2FA82F25209C8
:100870000821F5E7074B9A68B2FA82F25209102173
:10088000EEE7044BDA68B2FA82F252092021E7E778
:10089000704700BFAC03002000100240032821D89D
:1008A000DFE800F0020B12190F4B1A68003A18BF6C
:1008B000012204210D4806F0FFB80B4B5A68003A9C
:1008C00018BF01220821F5E7074B9A68003A18BFC4
:1008D00001221021EEE7044BDA68003A18BF01222A
:1008E0002021E7E7704700BFAC0300200010024062
:1008F00003280DD8DFE800F00206080A04210548A5
:1009000006F0DFB80821FAE71021F8E72021F6E722
:10091000704700BF0010024008B5032811D8DFE877
:1009200000F0020A0C0E0421074806F0BFF8431E2F
:100930005842584108BD0821F6E71021F4E720216C
:10094000F2E70020F3E700BF0010024070B5084D49
:1009500000240126E0B2FFF7DFFF18B12B68012B5E
:1009600018BF2E600134052C05F10405F2D170BDCD
:10097000AC030020012380F8781080F879307047AC
:100980007047002070470000034B4164003918BFD6
:1009900001211970704700BF8B4301207047002070
:1009A0007047836B0BB10846184770474FF6FF70CE
:1009B0007047406803689B691847704770477047E5
:1009C0007047704710B5044600F04AFD236803499C
:1009D000D3F890302046BDE810401847000000D002
:1009E00008B503680446D3F8843098472368204646
:1009F000DB6F984700F0ECF8236820465B6F984760
:100A0000292001F0D9F900F0E3F8236820465B6F54
:100A10009847F8E710B504460BF0C2F92368204662
:100A2000D3F8BC30BDE81040184700F0FDBC00F022
:100A300001BD00F033BD00F0D3BC00F043BD00F0B9
:100A40004BBD00F0D7BC0AF0D9BB10B584210446D9
:100A500023F056F8204610BD10B590F8341090F8E9
:100A600078400C4B8C421A7809D03AB90A4A0B49A3
:100A70001488088810800C8001221A7010BD002A8A
:100A8000FCD0054A05491488088810800C80002293
:100A9000F3E700BF8443012080430120824301200B
:100AA00070B50D46194635B9094B0A4A0A4840F255
:100AB000FF2123F061FFC0E90F52084B003A18BF35
:100AC00001221A700368BDE87040D3F890301847CF
:100AD000E05A0208185B0208665B02088A4301209C
:100AE00008B5094B1B888B4203D8084B1B889342DF
:100AF00005D9074B074A0848A32123F03DFF074BC0
:100B00001980074B1A8008BD8043012082430120D1
:100B1000AB5B02080E5C0208665B0208864301209C
:100B200088430120034690F87A0018B1586803689A
:100B30001B68184770470000012108B500220846CD
:100B400008F02EF80A4B186028B90A4B0A4A2821E7
:100B50000A4823F011FF00220421012008F0BFF809
:100B6000074B186018B9074B034A2C21F0E708BD62
:100B7000C0030020515C02089A5C0208C95C0208AC
:100B8000BC030020115D0208024B4FF0FF311868D2
:100B900008F050B8C0030020014B186808F076B880
:100BA000C0030020024B0021186808F043B800BFC2
:100BB000C0030020FFF7F0BF03480449006800238A
:100BC0001A4608F0C7B800BFBC030020040000208C
:100BD00013B5084C00231A4601A9206808F0EBF869
:100BE00020684FF0FF33002201A908F0E4F802B0BA
:100BF00010BD00BFBC03002003685B6C18470120D8
:100C0000704703689B6A1847FEE740F2EF30704771
:100C1000054B0360054B4FF08062C3F88820BFF39B
:100C20004F8FBFF36F8F70472068020800E100E02C
:100C300010B504464FF45A61FFF7EAFF204622F050
:100C40005FFF204610BD000082B0002301930E4BD1
:100C50001A6B42F400021A631A6B02F4000201924A
:100C6000019A1A6942F400021A611A6922F4000218
:100C70001A61064B064A1A61064A5A61064B4FF042
:100C800080629A6002B0704700380240D829002084
:100C9000E90E0008090C000800E100E008B50A2888
:100CA00009D8DFE800F006100E0808080810101038
:100CB0001000022008BD054B054A0648902123F08C
:100CC0005BFE0020F6E70120F4E700BF535D020859
:100CD0006E5D0208B95D020838B50C46887FFFF7E3
:100CE000DDFFA58AE28A164B2169586342EA054274
:100CF0005A64628BD963521B1A642568082D0ED181
:100D00009A611A615862207F0E4A42EA0062DA61F3
:100D1000E2681A620C4A5961D9601A6038BD002233
:100D2000D8611A61E1680A0A480902F4784200F4BD
:100D3000FC600243C1F3C4010A439A63034AECE72F
:100D400000B002400900010001230200012303005A
:100D500008B50B280BD8DFE800F00612100A0A0AC3
:100D60000A0808080808022008BD0520FCE7054B12
:100D7000054A06486F2123F0FFFD0020F4E701201B
:100D8000F2E700BF535D0208FF5D0208B95D02088B
:100D90002DE9F04191F81D800C464046FFF7D8FF41
:100DA000A77F05463846FFF7D3FF06463846FFF7CC
:100DB00075FFA18A628B444B521A1A649A61228B86
:100DC000521A1A61E28A586342EA01425A6421695E
:100DD0006268D963DA602068802828D0227F0FD823
:100DE000202867D0402865D004281AD0364B45EA21
:100DF000026545F40035B845DD6161D0334A44E011
:100E0000B0F5807F04D0B0F5007FEFD1304800E02E
:100E1000304840EA0262DA61E2681A625E62596151
:100E200032E045EA026242F40032DA61F6E7A06895
:100E3000021DDA62227F45EA026545F40035DD6174
:100E40005E625961017841B1012921D0224B234AC8
:100E500023484FF48D7123F08FFDDA69418822F425
:100E60007F42013922F0100242EA0122DA610121B7
:100E7000154BDA6942F02002DA61DA699206FCD495
:100E800010229A600029B9D0164A1A60BDE8F08194
:100E9000B2F1FF01DA69408822F47F4200F1FF30AD
:100EA00022F0100242EA002242F0100218BF012193
:100EB000DA61DDE745EA0262034B42F40032B4E74F
:100EC00042F20132E1E700BF00B00240012301001D
:100ED000090002000A000200495E0208635E02087F
:100EE000B95D020801230200024B1B6858680368C1
:100EF0005B6918478C43012070B5044625460A4BB0
:100F00000C30002660602672667245F8203B602235
:100F100029460BF09BF804F55A63EE6024359D4298
:100F2000FBD1204670BD00BF20680208034B1A6841
:100F3000D207FCD423229A60704700BF00B0024061
:100F40007047000030B50F4C2568ED07FCD4232511
:100F50000904A56041F001010225FF2B656361646E
:100F6000E0630AD00849656241EA0363E361074B25
:100F700022626061E060236030BDE561039BA36392
:100F8000034BF8E700B00240090001000100020035
:100F90000100030030B50E4C2568ED07FCD4232575
:100FA0001204A56042F001020225FF2B6563626412
:100FB000E063E16008D01B0643F00213E361054BD8
:100FC00065626061236030BD034BE3610123F9E793
:100FD00000B0024001000200020002FF30B50B4CDD
:100FE0002568ED07FCD4232512041B06A56043F4F5
:100FF0000033022542F0010265636264E063E16050
:10100000E361034B65626061236030BD00B0024064
:1010100001000200012070470C2070470C2303FBE5
:101020000100083070470C2303FB010008307047B3
:101030000120704741F22C30704741F22C3303FB02
:1010400001000830704741F22C3303FB01000830E7
:101050007047012070471020704700EB01100830E6
:10106000704700EB011008307047084601F0B4BC2F
:1010700010B5034B0360044609F017FE204610BD6F
:10108000D868020810B50446FFF7F2FF2046142185
:1010900022F036FD204610BD10B5034B0360044618
:1010A00009F003FE204610BDA468020810B50446EE
:1010B000FFF7F2FF204641F2343122F021FD2046B5
:1010C00010BD000010B5034B0360044609F0EDFDB0
:1010D000204610BD7068020810B50446FFF7F2FF05
:1010E0002046182122F00CFD204610BD10B5084BFB
:1010F0000360044600F59B50FFF7BAFF04F12C0093
:10110000FFF7CAFF04F11400FFF7DCFF204610BD13
:101110000C69020808B50248FFF7E8FF08BD00BFE8
:101120009C12002010B50446FFF7E0FF204641F274
:10113000D84122F0E5FC204610BD00002DE9F34126
:1011400001F01AFA054601F01BFA00240146234675
:1011500028462246009413F021FC284B284A1A60A6
:10116000204601F0EDFD274D274B284A28489A607C
:1011700013F07CFB2B68BFF35B8FDB0737D428466B
:1011800022F0C0FC98B3234C234B236004F59B57FB
:1011900007F11C0604F1140004F12C086060C4F887
:1011A0000880E760266109F081FD1C4B63614046C1
:1011B00009F07CFD1A4BE362384609F077FD04F52F
:1011C000805303F55D70174AC3F8602303F0F0FC09
:1011D000224607F11401304603F0E0FC304601F0EE
:1011E000FBFB114823F0E6FB284622F097FC0F4852
:1011F00002B0BDE8F041FFF7E5BB00BFF0430120BE
:101200004804002098120020680400204C040020AC
:10121000080000209C1200200C6902087068020877
:10122000A4680208D868020815110008C403002049
:10123000704700000148FFF7D3BB00BFC403002084
:1012400070B5264E264C274D274B23603046FFF7BE
:1012500053FE284618F0A8FC244811F081F8244BCE
:101260002448DC6000224FF48071C3E91212224945
:101270001A86C3E91A12214983F85820C3E91E01CE
:101280001F49C3F880101F491F480B60F021C3E9B4
:101290000422C3E90622C3E90822C3E90A22C3E9FA
:1012A0000E22C3E91022C3E91422C3E917225A66A9
:1012B00083F870205A67C3E90165018013480180F3
:1012C00013484FF4A07101801248018012490A703E
:1012D000012283F83420114A1A6070BDF404002002
:1012E0009412002068040020D05A02084C04002008
:1012F000C4030020000001010100000100045000AF
:101300001A0014008C4301208043012086430120F1
:10131000824301208843012084430120346702086E
:101320000148FFF775BC00BFF4040020002070479F
:1013300081807047C180704701817047418170474B
:101340007047704770477047704710B4C48803688F
:10135000121B84885B6D091B12B25DF8044B09B245
:1013600018474FF6FF7383814FF0FF330362136812
:10137000C36110607047002070478B888380012014
:101380007047704780F82610704790F82600704725
:1013900010B50022B1F90840B1F90A10028042806C
:1013A0008480C18010BD0022028042808280C28081
:1013B00070470177704780ED080A704780F8241065
:1013C000704780F8251070470120704798307047AB
:1013D0008C3070478430704770477047704700000A
:1013E000034B902283F85A2383F85823704700BF99
:1013F00000E100E0094A0A49D3680A48C3F30A0336
:10140000013B9BB20B801169C1F30A0101390180D4
:101410001364536B43F0010353637047006801404A
:101420007627002074270020014BD3F8AC007047CA
:1014300000680140024B0122C3F8AC105A627047A9
:101440000068014010B52C21044622F059FB2046CB
:1014500010BD10B5BC21044622F052FB204610BD41
:1014600070B5044609F01FFF23689D6E0FF0C6FC9F
:1014700001462046A8472368054AD3F88C502046E9
:10148000AC460023BDE87040A2F51631604700BFAE
:1014900000B004D009F0EEBE09F0F8BE09F0B4BE09
:1014A0000AF023B890F8252012B103685B69184749
:1014B000704790F825201AB190F8242002B11860E6
:1014C00070470000034B4FF080629A604FF08072CB
:1014D0009A60704700E100E0084B4FF08062C3F86B
:1014E0008820BFF34F8FBFF36F8F4FF08072C3F828
:1014F0008820BFF34F8FBFF36F8F704700E100E08C
:1015000070B50023124E8380124B0360336893F84A
:10151000582005460AB1D86C00B998680368DB6AA0
:1015200098473368B0FA80F4D86C640930B1036826
:10153000DB6A9847002808BF44F001042CB9064B29
:10154000064A07482C2123F017FA284670BD00BF31
:101550008C43012020690208A15E0208FF5E020898
:10156000385F020870B5254E3568BFF35B8F15F004
:10157000010540D1304622F0C5FA00283BD0204C6E
:10158000204B256104F13400C4E90035C4E902555B
:10159000E584A562A58511F0C8F904F158000CF0A6
:1015A0000BFA194BA3652046184B40F8843BFFF714
:1015B000A7FF174BC4F884302433C4F88C304FF4A1
:1015C000C803C4E928350023C4F8AC30C4F8B030EF
:1015D000C4F8B430C4F8B8300E480F4BC4F890507B
:1015E000C4F89C50C4F8A850C4F8983023F0E2F92D
:1015F000304622F093FA024870BD00BF78270020E1
:101600007C2700205C71020840690208B869020862
:1016100010710208DD130008F070020838B5184C8C
:1016200023685BB3174B184A1B6C11888B4216D189
:10163000164B198806F048F8236893F86A200025AD
:10164000013283F86A2083F87C50FFF7B5FA2068EE
:101650000AF0A6FB2846BDE83840FFF7F5B806F0CB
:1016600033F82468236820461B6A9847012384F8CE
:101670007C300020BDE83840FFF710B938BD00BF0E
:101680008C43012000680140762700207427002049
:1016900007B5064BADF806001B68054801220DF1A1
:1016A000060106F0B1FD03B05DF804FB1000002058
:1016B0008428002008B5084D084C022229462046FF
:1016C00004F098FB142007F05FFA204604F036FC83
:1016D000642007F059FAF0E738280020802A00201B
:1016E00030B595B0102200210AA823F04CFB14223B
:1016F000002103A823F047FB00241E4B01941A6C21
:1017000042F080521A641B6C03F080530193019BDA
:10171000194B02941A6842F440421A601B6803F4A1
:10172000404302930122029B4FF48033CDE908230A
:1017300002254FF480030821CDE90E534FF4B47312
:10174000CDE9101308A804231393129506F014F89A
:1017500005F0D8FF0F23CDE903354FF4A0504FF427
:101760008053CDE90603052103A8059406F0E0F9AE
:1017700015B030BD00380240007000402DE98048AF
:101780009DB00024C74D04F04FFAFFF7A9FF1422C3
:1017900000210FA823F0F7FA02942B6BC24843F004
:1017A00010032B632B6B03F010030293029B039433
:1017B0002B6B43F020032B632B6B03F0200303936D
:1017C000039B04942B6B43F080032B632B6B03F080
:1017D00080030493049B05942B6B43F004032B6359
:1017E0002B6B03F004030593059B06942B6B43F0CE
:1017F00001032B632B6B03F001030693069B0794F5
:101800002B6B43F002032B632B6B03F00203079354
:10181000079B08942B6B43F040032B632B6B03F067
:1018200040030893089B09942B6B43F008032B6338
:101830002B6B03F00803224609933C21099B05F01A
:101840003BF99A480122022105F036F922469748D1
:10185000042105F031F9224695484FF4405105F036
:101860002BF9224693484FF4C04105F025F9012693
:101870003C23CDE90F368C48119403230FA902278E
:10188000129305F02FF889480FA9CDE90F76CDE91D
:10189000114405F027F8042384480FA9CDE90F3639
:1018A000CDE9114705F01EF84FF4405380480FA9C9
:1018B000CDE90F36CDE9114705F014F84FF4C043D8
:1018C0007C480FA9CDE90F36CDE9114405F00AF89F
:1018D00001942B6B43F480032B632B6B764D03F445
:1018E00080032246052101933820019B04F0E6FC89
:1018F000382004F015FD7148714B036004F01EFDA3
:10190000DFF8DCC16F4B2C62C5E900C328464FF4F9
:101910008043C5E90434C5E90244C5E9064405F03D
:10192000D9FA1021284605F01DFD2146284605F06C
:1019300038FD654DDFF8ACE1AC624FF48273C5E968
:1019400000E34FF400781823C5E9068328460A23EC
:10195000C5E90244C5E90444C5E90844EB6206F060
:10196000F7FB8F232246394650488DF82C308DF8EE
:101970003C4005F0A1F832464FF47A730BA9284693
:1019800006F042FC4FF47A7332460FA9284606F05F
:10199000E7FD3246394645484C4D05F08DF89DF837
:1019A0003C30D32B04BF4A4B1E704A4B0126C5E97D
:1019B00000364FF0100A40230024C5E904A34FF479
:1019C000C073C5E906344FF40063C5E908344FF429
:1019D000005302274FF00409AB624FF0030B0723BB
:1019E0000FA92846CDE90F73CDE911934FF00808F0
:1019F000C5E90249CDE913B7159706F08DFA4FF600
:101A0000FF720BA92846CDE90C860A940B960E941A
:101A100006F0A2FA304604F033F94FF6FF720BA934
:101A20002846CDE90B78CDE90D6406F095FA4FF61E
:101A3000FF720BA92846CDE90BB8CDE90D9406F04D
:101A40008BFA4FF40C730A930A9B0E934FF6FF72B6
:101A50000BA92846CDE90B980D9606F07DFA40F2C9
:101A60006A51284606F096FA342221460FA823F040
:101A70008AF9194D194B2C61C5E900340923C5E9D0
:101A800005361D23C5E9073B40F20D1240F2431312
:101A9000C5E9092340F2171140F247132846C5E96A
:101AA0000B1321E000380240001002400008024001
:101AB000000C02400018024084290020182A00204F
:101AC00000300240A0860100842800205028002019
:101AD00044280020400100A0DC28002000680140CC
:101AE000005C004000500140C5E90244AC8685F826
:101AF000364005F0F1FCFF21F022CDE914144FF03F
:101B000005084FF480614FF4A073CDE91024CDE9AE
:101B10001618CDE918420FA922462846CDE91237FA
:101B2000304D1A930F94ADF86C408DF86E4005F06F
:101B30009EFD2D4B2B601B6898472B682B4DDB6857
:101B400098472B4B2846C5E90034C5E90274C5E91E
:101B50000A47C5E90C4404F0CBFD3146284604F0A1
:101B60007DFE524621460FA823F00DF9214D224853
:101B7000AC604FF48033C5E90003204BAB622846CC
:101B80002E612C7685F82040EC62EC60EF6185F8E0
:101B900030606E6104F088F80D230FA92846CDE966
:101BA0000F36119404F0DAFA0FA92846CDE90F8711
:101BB00004F0D4FAFEF77CFDFEF779FD06F074FF21
:101BC0000F4A1048214606F09BFF0F4B0F4A186042
:101BD00021460F4806F094FF0E4B186006F076FF82
:101BE000FEE700BF4028002018000020D829002070
:101BF00000B00240802A0020002001400100000FB8
:101C0000206A0208B51600084C280020FC6902086A
:101C1000BF0600084828002038B50268234B9A42C6
:101C20001DD1234B234918885A88234B0D881B88C4
:101C3000224C5919884213DD0123214D237022784B
:101C40002B789A420BD02378012BDAB216D14FF4BD
:101C500000511C4804F030FF2378DBB22B7038BDF4
:101C60005B1B984201DA0223E7E7914201DA032382
:101C7000E3E79342CCBF04230023DEE72378022B63
:101C800001D10022E3E72378032B01D1012203E0F5
:101C90002378042B03D100224FF48041D9E709486F
:101CA00001224FF4005104F007FFEFE7002001404C
:101CB000382800200C0000200E0000203D280020C5
:101CC0003C28002000180240704770477FB5094B40
:101CD0008DF817201B6802930DF117020123009263
:101CE00001930A460146044805F09CF907B05DF8E7
:101CF00004FB00BF14000020842900207FB50023CE
:101D00008DF81730084B1B6802930A4601230DF12A
:101D10001701009101930146044805F013FA9DF85C
:101D2000170007B05DF804FB140000208429002090
:101D30001FB5084C24680092CDE901340A460123FE
:101D40000146054805F0FEF9003818BF012004B02F
:101D500010BD00BF140000208429002003F090BFB4
:101D600010B5064C00222046042104F0A5FE2046B2
:101D70000122BDE81040042104F09EBE000802408C
:101D800038B50B4D044601220A484FF4005104F0C7
:101D900093FE00220421284604F08EFE2046FFF721
:101DA00077FC28460122BDE83840042104F084BEB7
:101DB00000080240000C024038B50B4D04460022DA
:101DC0000A484FF4005104F077FE0022042128460F
:101DD00004F072FE2046FFF75BFC28460122BDE8B6
:101DE0003840042104F068BE00080240000C0240A4
:101DF000F7B5144E144F05460C4630460022042118
:101E000004F05AFE00224FF40051384604F054FE0C
:101E10002846FFF73DFC0D4B0D481B68224601A9E3
:101E200006F09EFB384601224FF40051019C04F05D
:101E300043FE30460122042104F03EFE204603B05A
:101E4000F0BD00BF00080240000C0240100000205E
:101E50008428002003F014BF0268034B9A4201D18A
:101E600003F0FCBE704700BF001000407047000048
:101E700082B00E4B00220092596C41F480415964AB
:101E8000596C01F48041009100990192196C41F064
:101E9000805119641B6C03F080530193019B0F2147
:101EA0006FF0010002B004F009BA00BF0038024030
:101EB00070B5064688B01422002103A822F063FF03
:101EC00032682D4B9A4254D103F58C33002500958E
:101ED0005A6C2A4842F480725A645A6C02F4807236
:101EE0000092009A01951A6B42F004021A631A6B71
:101EF00002F004020192019A02951A6B42F001026B
:101F00001A631B6B03F0010302930324029B03A9D2
:101F10000823CDE9033404F0E5FC20231848059597
:101F200003A9CDE9033404F0DDFC164C164B4FF445
:101F30008062C4E900354FF40063C4E904234FF420
:101F400000514FF480732046C4E90255C4E90613DA
:101F5000C4E9085504F018FA08B1FFF787FFB46325
:101F6000122000220521A66304F0A8F9122004F033
:101F7000D7F908B070BD00BF002001400008024042
:101F800000000240202A0020106402400268094B31
:101F90009A4282B00BD100230193074B1A6B42F493
:101FA00080521A631B6B03F480530193019B02B0B0
:101FB000704700BF003002400038024007B50F4BA9
:101FC00002689A4216D10022A3F5F0430192196BE0
:101FD00041F4000119631B6B03F400030193052115
:101FE0005A20019B04F06AF95A2003B05DF804EB13
:101FF00004F096B903B05DF804FB00BF00B00240E6
:102000002DE9F043044689B01422002103A822F0F0
:10201000BAFE2268244B9A4243D1244C244800251E
:102020000095236B43F004032363236B03F0040345
:102030000093009B0195236B43F001032363236B03
:1020400003F001030193019B4FF012094FF4007359
:102050004FF001080327042603A9CDE90339CDE990
:102060000587079604F03EFC4FF4807311480796ED
:1020700003A9CDE90339CDE9058704F033FC0295C6
:10208000236C43F400032364236C03F400030293E2
:10209000029B236A43F400032362236A23F40003B0
:1020A000236209B0BDE8F083005C004000380240C4
:1020B0000008024000000240F0B599B00446142226
:1020C000002107A822F05FFE30220DEB0200002164
:1020D00022F059FE22685E4B9A4240F0B7800823F6
:1020E0000C93C0231093042312930CA84FF40033D5
:1020F000159305F0E5FD08B1FFF7B8FE554B5648BE
:10210000002400945A6C42F080625A645A6C02F0C7
:1021100080620092009A01941A6B42F020021A63C6
:102120001A6B02F020020192019A02941A6B42F09B
:1021300001021A631A6B02F001020292029A0394DE
:102140001A6B42F002021A631A6B02F00202039247
:10215000039A04941A6B42F040021A631A6B02F05D
:1021600040020492049A05941A6B42F004021A6326
:102170001A6B02F004020592059A06941A6B42F05B
:1021800008021A631B6B03F00803069302250E2650
:10219000069B0B964FF4806307A9CDE90735CDE97F
:1021A000094504F09FFB41F658032C480B9607A9FC
:1021B000CDE907350927CDE9094504F093FB032351
:1021C00027480B9707A9CDE90735CDE9094504F064
:1021D00089FB4FF4706322480B9607A9CDE90735B8
:1021E000CDE9094504F07EFB4FF40C631D480B96C6
:1021F00007A9CDE90735CDE9094504F073FBC023F4
:1022000019480B9607A9CDE90735CDE9094504F032
:1022100069FB082315480B9607A9CDE90735CDE9D9
:10222000094504F05FFB4FF4A0530E480B9707A934
:10223000CDE90735CDE9094504F054FB5820224685
:10224000052104F03BF8582004F06AF819B0F0BDFD
:1022500000680140003802400014024000000240C3
:10226000000402400018024000080240000C024036
:1022700010B5044688B01422002103A822F083FD83
:102280002268144B9A4223D103F56843002101913F
:102290005A6C114842F480125A645A6C02F480124B
:1022A0000192019A02911A6B42F020021A631B6B91
:1022B00003F020030293029B4FF460720223032178
:1022C000CDE903230523CDE9061303A904F00AFB96
:1022D00008B010BD00500140001402402DE9F0414B
:1022E00086B0002303932B4B1C68002C4FD14FF07A
:1022F0000108C3F80080284B00949A6B274842EAF3
:1023000008029A639B6B03EA0803009302270326E3
:102310000C25009B01A94FF63F03CDE90137CDE91C
:10232000046504F0DFFA1E48059501A9CDE901878F
:10233000CDE9034604F0D6FA48F23313194805955F
:1023400001A9CDE90137CDE9034604F0CBFA4FF6F8
:1023500083731548059501A9CDE90137CDE90346F9
:1023600004F0C0FA4CF203731048059501A9CDE9B9
:102370000137CDE9034604F0B5FA60230C48059512
:1023800001A9CDE90137CDE9034604F0ABFA06B067
:10239000BDE8F081C82A0020003802400014024045
:1023A000000802400018024000100240000C0240E9
:1023B0000004024070B588B000230293204B1A6CD1
:1023C00042F010021A641B6C03F0100302930546DE
:1023D00001A903A8029B05F055FC069B4BBB05F029
:1023E00041FC184E184B336040F2E733F360174B53
:1023F000B0FBF3F3013B7360304600233361B360FD
:10240000B36106F07DFA044680B9304606F04EF915
:10241000044658B9362003F083FF0F2D0DD822460D
:102420002946362003F04AFF094B1D60204608B0BC
:1024300070BD05F017FC4000D3E70124F6E700BFAC
:1024400000380240CC2A00200010004040420F001B
:10245000800000207047FEE7FEE7FEE7FEE77047DA
:10246000014803F0ACBD00BF802A0020014806F0FF
:102470005BB900BFCC2A0020014804F07BB800BF44
:10248000202A0020014805F095B800BFDC28002074
:10249000014804F059B900BFD82900200120704735
:1024A00008B522F071FD162303604FF0FF3008BD20
:1024B00008B522F069FD16230360FEE770B50D46EE
:1024C00014460E46731B9C4201DC204670BDAFF3E0
:1024D000008006F8010BF5E770B50D4614460E4670
:1024E000731B9C4201DC204670BD16F8010BAFF354
:1024F0000080F5E74FF0FF3070474FF400534B601A
:102500000020704701207047002070470A4A116878
:1025100008B5034609B909491160106869460344C2
:102520008B4206D922F030FD0C2303604FF0FF30C0
:1025300008BD1360FCE700BF142B0020D050012021
:10254000704710B50421044621F0DAFA204610BD88
:10255000012908B506D0022908D059B900F03CFC81
:10256000006808BD00F038FC4068FAE700F034FC71
:102570008068F6E70020F4E700487047586A0208D0
:102580000E20704713B5002451B1036801948DF8F3
:10259000034001AA9C680DF10303A04702B010BDDF
:1025A0000846FBE7C0897047008A7047C0887047BB
:1025B00080887047807A00F07F007047807AC00979
:1025C00070470020704700009FED010A704700BF70
:1025D00000000000704710B50821044621F090FA71
:1025E000204610BD7047704700F598730868496829
:1025F00003C370477047704741607047704770472A
:10260000064BC0F84C310023C0F8503100F5A273DE
:10261000C0F84801C0F84031704700BF0D280008DD
:10262000012303727047704710B4C26841685410A8
:10263000034601EB6200D20748BF0A599B685DF868
:10264000044B48BFD35818470346406830B19A68D6
:102650001AB9D86800F0010070470120704710B522
:102660000C21044621F04CFA204610BD10B5102173
:10267000044621F045FA204610BD10B54FF4AE7166
:10268000044621F03DFA204610BD10B50EF0B6FB11
:102690000368BDE81040DB6B184710B50446D0F85E
:1026A000400158B10368DB68984738B1D4F840015D
:1026B00003689B6898470023C4F8403110BD0000B0
:1026C0002DE9F14FD0E9556A0746B06803681B6AE7
:1026D000984741F22B33984205D8444B444AA321F2
:1026E000444822F049F9706803681B6A98470F282C
:1026F00003D8414B3E4AA421F2E7F06803681B6A05
:1027000098470B2803D83D4B394AA521E8E70EF03E
:1027100075FBDFF8F09004300EF0AEFBD9F8000046
:1027200010B10368DB689847D9F8000010B103685E
:102730001B689847DFF8D080D8F8000010B1036814
:102740005B699847D7F83C0110B103685B6898470C
:10275000D8F8000010B103681B689847D7F83C010F
:1027600010B103689B689847F068036800215B6AB2
:1027700098474FF0000B224BC0F804B0044680F895
:1027800008B00360B068036859465B6A984705461D
:1027900002F0A8FA7068036859465B6A98472946B0
:1027A000064602F06FFA331DC7F83C61C9F80040D5
:1027B000C8F80050CAF800302B68C6F808A02846B0
:1027C000DB68EE639847336830461B6898472146BC
:1027D000284610F00DFD236820461B6998472368A2
:1027E0005B69204601B0BDE8F04F1847AF5F0208B3
:1027F0003D600208156102085C610208FF61020881
:10280000F46B0208D4430120D04301202DE9F14F9D
:10281000D0E9556A0746B06803681B6A9847B0F567
:10282000357F05D2444B454AA321454822F0A4F800
:10283000706803681B6A98470F2803D8414B3F4ACA
:10284000A421F2E7F06803681B6A98470B2803D8B5
:102850003D4B3A4AA521E8E70EF0D0FADFF8F090B8
:1028600004300EF009FBD9F8000010B10368DB68F2
:102870009847D9F8000010B103681B689847DFF843
:10288000D480D8F8000010B103685B699847D7F886
:102890003C0110B103685B689847D8F8000010B19C
:1028A00003681B689847D7F83C0110B103689B6820
:1028B0009847F068036800215B6A98474FF0000B67
:1028C000224BC0F804B0044680F808B00360B0683A
:1028D000036859465B6A9847054602F0A5F9706897
:1028E000036859465B6A98472946064602F078F91C
:1028F000331DC7F83C61C9F80040C8F80050CAF859
:1029000000302B68C6F808A02846DB68EE639847BD
:10291000336830461B6898472146284610F068FC0B
:10292000236820461B69984723685B69204601B0ED
:10293000BDE8F04F184700BFAF5F0208A26202086F
:10294000156102085C610208FF610208F46B02086D
:10295000D4430120D0430120044B1B6893F8582036
:102960000AB1D86C00B99868704700BF8C43012049
:10297000F8B5174604460E460EF04CFB124B1C6091
:10298000124B2360124B0025C4E95135114BC4E9A9
:1029900053551868036801219B68C4E94F55C4E981
:1029A00055769847284600F0CBF9FFF7D5FF18F089
:1029B000A4FFFFF7D1FF19F01BF8FFF7CDFF19F0C7
:1029C00023F82046F8BD00BFE0430120A06B0208B9
:1029D000886B02088C430120064BC0F84C31002361
:1029E000C0F8503100F5A273C0F84801C0F840317A
:1029F000704700BF0D280008064BC0F84C3100237B
:102A0000C0F8503100F5A273C0F84801C0F8403159
:102A1000704700BFC1260008406A7047806A70474F
:102A200070478A880B8810B5D20A4C88C1699BB25E
:102A300051F8220043EA0443184410BD10B504467F
:102A4000BAB1107B68B1537BD27A1B0203F4E06306
:102A50001A43236A03EB82031A888A4202D193F94C
:102A6000020010BD05D8013880B204330028F3D12C
:102A7000F7E70020F5E710B52C21044621F040F8D7
:102A8000204610BD30B58BB00446BDF860500895A7
:102A9000BDF85C5007959DF8505006959DF84C5038
:102AA00005959DF8485004959DF8445003959DF870
:102AB000405002959DF83C500195BDF83850009566
:102AC0000FF0F0FF064B2360159BE361169B23621A
:102AD000199B63621A9BA36220460BB030BD00BFF6
:102AE000186C02087047000030B5174D2C6814F0C0
:102AF00001048FB0BFF35B8F22D1284621F002F88A
:102B0000F0B13F230993114B0893114B0793012315
:102B1000CDE9054304930423CDE902430A230D497B
:102B2000009316220C23CDE90B440B480A94019420
:102B3000FFF7A8FF094821F03DFF284620F0EEFFEF
:102B400005480FB030BD00BF182B0020509D020873
:102B5000449E0208549802081C2B0020E52A000815
:102B60007047000030B5174D2C6814F001048FB089
:102B7000BFF35B8F22D1284620F0C4FFF0B13F2382
:102B80000993114B0893114B07930123CDE90533AA
:102B900004930423CDE9024314230D4900934022FA
:102BA0001823CDE90B440B480A940194FFF76AFF00
:102BB000094821F0FFFE284620F0B0FF05480FB07D
:102BC00030BD00BF482B0020549D0208489E0208DB
:102BD000889902084C2B0020612B000870470000E8
:102BE00030B5164D2C6814F001048FB0BFF35B8F25
:102BF00021D1284620F086FFE8B13F230993104BEE
:102C00000893104B07930123CDE905430493042354
:102C1000CDE9024328230C4900930522CDE90B445A
:102C20000A480A940194FFF72DFF094821F0C2FEDB
:102C3000284620F073FF05480FB030BD782B0020E8
:102C4000349E02084C9E0208089D02087C2B00203E
:102C5000DD2B000800207047002070470EB403B53C
:102C600003AB002153F8042B01930FF099F902B044
:102C70005DF804EB03B070470CB407B504AB53F830
:102C8000042B01930FF08CF903B05DF804EB02B054
:102C900070470000436C10B5044673B3038F2BB923
:102CA000184B194AC521194821F066FEC38E00EB66
:102CB00043035B8C0BB311F022F8238F012B03D855
:102CC000134B144ACB21EEE7E28E531C9BB2092B27
:102CD000194688BFA3F10A0104EB410140F63F10F9
:102CE000498C814209D10A2B04EB420228BF002300
:102CF00004EB4303508C588451842046BDE81040B7
:102D000010F000BF7A630208836302082E64020891
:102D1000786402088664020810F0BBBE10B586B065
:102D200002AC84E806001A460AAB05930193099B9E
:102D300000932146089B0DF0FFFB06B010BD00007C
:102D400038B518BB124B13481C681349B4B122683C
:102D500022440260626822440A60A26814440F4B55
:102D600000221A8000F038F8054600F033F80C4BCA
:102D70001C600C4B1D600C4B188007E00B4B036074
:102D80000B4B0B600B4B1C68002CE8D138BD00BF0F
:102D9000B42B0020AC2B0020A82B0020B02B00204F
:102DA000E4430120EC430120E8430120149F020882
:102DB000509E0208E09F0208044B1B6853F8210054
:102DC000034B1B6803EB4000704700BFA82B00209B
:102DD000AC2B00203120704700487047B82B0020F2
:102DE00010B5FFF7BFFE044C2060FFF7F9FE6060EE
:102DF000FFF77AFEA06010BDB82B002010B50024AC
:102E000004600C6014601C6010BD70477047704710
:102E10007047704730B5036885B06D460181D3F8BF
:102E20008430014604462846984795E807003C341C
:102E300084E8070005B030BD30B5036885B06D4645
:102E40004181D3F88430014604462846984795E8E6
:102E500007003C3484E8070005B030BD0022028042
:102E600042808280C280704780F83610704770B50B
:102E7000036804461B6B154698472368294620467D
:102E80005B6EBDE87040184700207047806C70474B
:102E90007047704770477047704730B4C2684468E5
:102EA0005510034604EB6200D20748BF62599B6885
:102EB00030BC48BFD35818470346406830B19A68C1
:102EC0001AB9D86800F0010070470120704710B5AA
:102ED0004C21044620F014FE204610BD10B51021F0
:102EE000044620F00DFE204610BD10B54FF435719C
:102EF000044620F005FE204610BD08B5FEF7D2FAC4
:102F000008BD0000036870B55E6B124B1B68044679
:102F10008DB22BB9104B114A6C21114821F02CFDB8
:102F20001049828D0988914203D80F4B0B4A6D21BD
:102F3000F3E713F812200D4B1B6853F822000368C7
:102F40001B6B9847291A3346204609B2BDE87040EA
:102F5000184700BFE4430120586502089A6502083B
:102F6000D5650208E84301201C660208EC430120F5
:102F700038B500F19803994204460D460AD1012361
:102F800080F8953100F5B8700FF034F923682046C9
:102F9000DB6A984704F5E4739D4206D1002384F868
:102FA000953104F5B8700FF025F9E034A54205D14C
:102FB0000DF024FFBDE83840FFF71EBD38BD0022EC
:102FC0004FF0FF31C0E900218260704770B503689F
:102FD00004461B6B154698472368294620465B6BC1
:102FE000BDE87040184770B504461D46BDF9106035
:102FF000FFF7ECFF2368294620469B6B9847236820
:1030000031462046DB6BBDE8704018470022C0E91E
:103010000122C0E90322C0E90522C0E907224FF4DA
:1030200080728284014A0260704700BF806C02088F
:1030300038B5262204460D46002121F0A4FE204684
:10304000FFF7E4FF064B23602B88E384FF23204631
:1030500084F8283029460BF0E4F9204638BD00BF3B
:1030600018730208F8B5194B018F1B888B4206466E
:103070002AD9174B1B682BB9164B174A17486C21D6
:1030800021F07AFC13F81120154B1B6853F82250DD
:10309000144B1868FFF790FE2B6807469B6B284679
:1030A00098472B6804469B6C3946284698472B68FE
:1030B00014FB00F45B6A394628469847A4B22318EB
:1030C0001BB2A6F84630F8BD0023FAE7E84301201A
:1030D000E4430120586502089A650208D565020894
:1030E000EC430120F043012010B5262204460021C4
:1030F00021F049FE2046FFF789FF0A4B23600A4B67
:10310000A3624FF6FF73A3854FF47F020023C4E947
:103110000C3223874FF0FF32C4E91023E3632046CB
:1031200010BD00BF20720208786B02082DE9F04F35
:10313000044691B0264600250FF0AEFED04BE56365
:1031400046F8403B26222946304621F01CFE3046F8
:10315000FFF75CFFCB4B236404F16C0BFF2304F1FE
:10316000980A84F866300EA94FF6FF77A566584690
:1031700004F1E009ADF83870FFF75AFF50460BF044
:1031800091FA04F5947848460BF08CFA4046FFF724
:10319000ABFF04F5B87302934FF48073A4F8943135
:1031A000B94BC4F8703104F5CE730EA9C4E95D556E
:1031B000C4E95F55C4E96155C4E96355C4F8985141
:1031C00018460693ADF83870FFF732FF04F5E47344
:1031D000184603930BF066FA04F50473184604933B
:1031E000FFF782FF04F5167318460593FFF77CFF7F
:1031F000A64BC4F85832A64BC4F8A052C4E9B13467
:10320000A44BC4E9B3354FF4A0732A46294630468F
:103210000093F023FFF7E7FE271D4FF07F43A366DF
:103220003146384607F054FD2A4629465846FFF7EE
:10323000CDFE022358460EA9ADF838300BF0F1F858
:103240005946384607F044FD5046C2222121FFF777
:10325000BDFE4FF00D0B0C230DA950460EAAADF884
:103260003430ADF838B00AF0AAFF2F228A4EA4F805
:10327000D0205046FFF7F6FE4FF0FF33C4E9356328
:1032800004F53173C4F8C03051463846079307F04F
:103290001FFD484664222121FFF798FE0EAA0C2349
:1032A0000DA94846ADF83430ADF838B00AF087FFC4
:1032B00030234846A4F81831FFF7D4FE4FF0FF330F
:1032C000C4F82031079BC4F808314946C4F81C6192
:1032D000384607F0FDFC112240462D21FFF776FE0F
:1032E00008AE6E4BC4F858314146A4F85C513046E4
:1032F0000AF060FC96E8070004F5B27383E8070063
:10330000DFF8C091CDF8389040464FF02E0A0EA954
:10331000ADF83CA00AF0F6FE4146384607F0D8FC6E
:103320009623029800935522D6235946FFF75BFE59
:103330006FF001022946069884F89551FFF746FE82
:1033400004230698ADF838300EA90BF06AF80699F8
:10335000029807F0BDFC03986D225921FFF736FE55
:103360004FF0050806230EAA0DA90398ADF83830D2
:10337000ADF834800AF023FF2D230398A4F800321F
:10338000FFF770FE464A4FF0FF33C4E98123079BE5
:10339000C4F8F031DDE9020107F09AFC42460498D6
:1033A0001621FFF713FE4FF07F430499C4F8403213
:1033B000A4F8445230460AF0FDFB96E8070004F5F5
:1033C000137383E807002C230498ADF83C300EA952
:1033D000CDF838900AF096FE0499029807F078FC30
:1033E00037235246059800930821C723FFF7FBFDBA
:1033F0004FF07F43C4F88832D4F858320599D3F897
:103400008430A4F88C523046984796E8070004F5BB
:10341000257383E80700234B1B6804F529752BB936
:10342000214B224A6021224821F0A6FA214B1B8819
:10343000122B03D8204B1D4A6121F4E71F4B1221A8
:103440001868FFF7B9FC1E4A03461021284611F000
:10345000FFF92B230598C4F8A0520EA9ADF83C3013
:10346000CDF838900AF04EFE0599029807F030FC2E
:103470003846029907F02CFC204611B0BDE8F08FC9
:10348000906D0208B072020830700208E86C020801
:10349000786D0208712F0008155202FFDEED09FF5A
:1034A000050380FFE4430120586502085A660208BC
:1034B000D5650208E84301201C660208F04301209C
:1034C000A5660208786B0208806A704770477047EB
:1034D0007047704770477047704730B4C26844689F
:1034E0005510034604EB6200D20748BF62599B683F
:1034F00030BC48BFD35818470346406830B19A687B
:103500001AB9D86800F001007047012070470186A1
:103510007047008E704710B54821044620F0F0FA3D
:10352000204610BD10B51021044620F0E9FA2046CF
:1035300010BD10B541F29411044620F0E1FA204686
:1035400010BD10B500F58054D4F890210132022A44
:10355000C4F8902105D103681B6B98470023C4F879
:10356000903110BD4FF480710022818405490160C3
:10357000C0E90122C0E90322C0E90522C0E907220F
:10358000826270473070020810B52622044600217E
:1035900021F0F9FB2046FFF739FD044B2360FF23A0
:1035A00084F826300023A362204610BDB0720208C2
:1035B00000224FF0FF31C0E9002182607047000017
:1035C00010B50446FFF790FD024B23600023A3646F
:1035D000204610BDE86C020810B50446FFF7C2FF94
:1035E000064B23600023C4E90C33C4E90E33C4E95D
:1035F000103384F82C30E385204610BDC86D0208D6
:103600002DE9F04F0446C9B0274600250FF044FCD1
:10361000DC4BE56347F8403B0DF58A7A04F16C0911
:103620003846FFF7B1FF04F198064FF6FF78514690
:103630004846ADF81481FFF7FBFC30460BF032F83A
:1036400004F1E00318460293FFF78CFF04F586733C
:10365000514618462093ADF81481FFF7E9FC04F5B4
:103660009C7318460893FFF7B7FF04F5C07318461C
:1036700004F5D67B3093FFF787FF5846FFF7A0FF8E
:1036800004F5FC7318460993FFF7A6FF04F51073C1
:1036900018463193FFF778FF04F51B7318460A9319
:1036A000FFF78EFF04F52E7318460B93FFF794FF78
:1036B00004F5407318463293FFF766FF04F54B7329
:1036C00018460C93FFF77CFF04F55E7318460D93C4
:1036D000FFF782FF04F5707318463393FFF754FF2A
:1036E00004F57B7318460E93FFF76AFF04F58763B2
:1036F00018460F93FFF770FF04F590631846349354
:10370000FFF742FF04F2AC4318462193FFF758FF3E
:1037100004F59F6318461093FFF75EFF04F5A86356
:1037200018463593FFF730FF04F26C531846229386
:10373000FFF746FF04F5B76318461193FFF74CFFF8
:1037400004F5C06318463693FFF71EFF04F22C639E
:1037500018462393FFF734FF04F5CF6318461293FE
:10376000FFF73AFF04F5D86318463793FFF70CFFCD
:1037700004F2EC6318462493FFF722FF04F5E76395
:1037800018461393FFF728FF04F5F06318463893A3
:10379000FFF7FAFE04F2AC7318462593FFF710FF0B
:1037A00004F5FF6318461493FFF716FF04F504634E
:1037B00018463993FFF7E8FE04F66C031846269383
:1037C000FFF7FEFE04F6B80318461593FFF704FF53
:1037D00004F5106318463A93FFF7D6FE04F62C134F
:1037E00018462793FFF7ECFE04F678131846169355
:1037F000FFF7F2FE04F51C6318463B93FFF7C4FE87
:1038000004F6EC1318462893FFF7DAFE04F6382383
:1038100018461793FFF7E0FE04F5286318463C931B
:10382000FFF7B2FE04F6AC2318462993FFF7C8FE53
:1038300004F6F82318461893FFF7CEFE04F5346318
:1038400018463D93FFF7A0FE04F66C3318462A9302
:10385000FFF7B6FE04F6B83318461993FFF7BCFE1F
:1038600004F5406318463E93FFF78EFE04F62C43A2
:1038700018462B93FFF7A4FE04F6784318461A93D4
:10388000FFF7AAFE04F54C6318463F93FFF77CFE52
:1038900004F6EC4318462C93FFF792FE04F63853D7
:1038A00018460493FFF75EFE04F66453514618462B
:1038B0002D93ADF81481FFF7BBFB04F5596318464F
:1038C0000593FFF711FC04F6D85318461B930AF032
:1038D000E9FE04F5626318461C930AF0E3FE04F661
:1038E000686318460393FFF73DFE04F69463514660
:1038F00018462E93ADF81481FFF79AFB04F56C631C
:1039000018462F93FFF75CFE04F60C7318460693D7
:10391000FFF7EAFB04F6547318461D930AF0C2FE43
:1039200004F69C7318461E930AF0BCFE04F6E4737A
:1039300018461F930AF0B6FE134ADFF8548004F5C8
:103940008053C3E96024114AC3F89051C3E962254A
:103950004FF4A0732A46384600932946F023FFF718
:1039600042FB4FF07F43A366231D18463946079359
:1039700007F0AEF92A4648462946FFF727FB012300
:1039800008E000BF786E0208606E02087149000806
:10399000E443012048465146ADF814310AF041FD98
:1039A0004946201D07F094F9304608228221FFF78E
:1039B0000DFB4FF00A03524644A93046ADF81031D2
:1039C0000B23ADF814310AF0FAFB2A233046A4F891
:1039D000D030FFF747FB354A4FF0FF33C4E93523BA
:1039E00004F58C533146C4F8C030201D079307F00E
:1039F0006FF9F0230093029850222946FFF7F3FA5B
:103A00002A4620982946FFF7E1FA2098ADF814518C
:103A100051463C260AF005FD2099029807F058F916
:103A20000898009633462A462946FFF7DCFA2A46CC
:103A30003098009633462946FFF7D5FA4FF0FF330A
:103A400030990898C4F8A83107F042F92A4633465D
:103A5000294658460096FFF7C6FA154BC4F8DC31E4
:103A6000D4F8AC31A4F8E05140AFD3F884305946D3
:103A70003846984797E8070004F5F47383E8070091
:103A8000D8F8003004F5815909F10C092BB9094B1C
:103A9000094A6021094820F06FFF094B1B88112B50
:103AA00012D8084B044A6121F4E700BF3524F0FF27
:103AB000020242FF586502085A660208D5650208EC
:103AC000E84301201C660208CD4B11211868FFF75E
:103AD00073F9CC4A03460A21484610F0B9FE29235F
:103AE0005846C4F8F4915146DFF82493ADF81831E4
:103AF000CDF814910AF006FB5946089807F0E8F84B
:103B00000899029807F0E4F809980096334632467F
:103B10002946FFF768FA3346319800962A46294627
:103B2000FFF761FA4FF0FF3231990998C4F8682223
:103B300007F0CEF82A460A98009633462946FFF742
:103B400052FAB14BC4F89C32D4F86C320A99D3F8CB
:103B50008430A4F8A0523846984797E8070004F547
:103B60002A7383E80700D8F8003004F5825B002B45
:103B70008DD0A64A13880D2B93D9A1480D2100683A
:103B8000FFF71AF99F4A03460A21584610F060FED3
:103B900025230A98C4F8B4B25146ADF81831CDF8CF
:103BA00014910AF0AFFADDE9090107F091F80999DB
:103BB000029807F08DF80B98009633467822294634
:103BC000FFF711FA33462A46329800962946FFF746
:103BD0000AFA4FF0FF310B98C4F82813329907F016
:103BE00077F82A460C98009633462946FFF7FBF9EA
:103BF000854BC4F85C33D4F82C330C99D3F884305B
:103C0000A4F860533846984797E8070004F55A73BC
:103C100083E80700D8F800300BF1140B002B3FF4B9
:103C200036AF7A4A1388092B7FF63BAF74480921D7
:103C30000068FFF7C1F8734A03460A21584610F09E
:103C400007FE24230C98C4F874B35146ADF818311C
:103C5000CDF814910AF056FADDE90B0107F038F8B7
:103C60000B99029807F034F80D9800963346B42269
:103C70002946FFF7B8F933462A4633980096294675
:103C8000FFF7B1F94FF0FF310D98C4F8E8133399FD
:103C900007F01EF82A460E98009633462946FFF78D
:103CA000A2F9594BC4F81C34D4F8EC330E99D3F86C
:103CB0008430A4F820543846984797E8070004F564
:103CC000856383E80700D8F8003004F58357083788
:103CD000002B3FF4DCAE4D4A1388052B7FF6E1AE96
:103CE000474805210068FFF767F8464A03460A215E
:103CF000384610F0ADFD23230E98C4F834745146B5
:103D0000ADF81831CDF814910AF0FCF9DDE90D0198
:103D100006F0DEFF0D9902983B4F06F0D9FF2A46C8
:103D20000F98009633463146FFF75DF92A46334631
:103D3000294634980096FFF756F94FF0FF310F9857
:103D4000C4F8A814349906F0C3FF2A46294633461E
:103D500021980096FFF747F9A4F8E054C4F8DC7402
:103D60005046FFF725FC9AE8070004F59D6383E8B9
:103D70000700D8F8003004F583551C35002B3FF4BC
:103D800086AE224A1388102B7FF68BAEDFF870A028
:103D90001021DAF80000FFF70FF845AE194A034684
:103DA0000A21284610F054FD28232198C4F8F45421
:103DB0003146ADF81831CDF814910AF0A3F92199E4
:103DC0000F98DFF850903C2506F082FF0F9902987B
:103DD00006F07EFF109800952B462A462946FFF7ED
:103DE00002F9002211462B4635980095FFF7FBF8A3
:103DF0004FF0FF311098C4F8681535990CE000BFFA
:103E0000F0430120A5660208020242FFE8430120B8
:103E1000786B0208E443012006F05AFF00222B468B
:103E2000114622980095FFF7DEF8C4F89C7500272C
:103E3000A4F8A0753046FFF7BBFB96E8070004F531
:103E4000B56383E80700D9F8003004F5845B0BF113
:103E5000100B002B3FF41BAEDFF86083B8F8003086
:103E60000C2B7FF61EAE0C21DAF80000FEF7A4FF43
:103E7000CF4A03460A21584610F0EAFCCD4A229860
:103E8000C4F8B4B5222331464592ADF818310AF092
:103E900039F92299109806F01BFF1099029806F044
:103EA00017FF119800952B4678222946FFF79BF8BB
:103EB0002B463A46369800953946FFF794F84FF06E
:103EC000FF311198C4F82816369906F001FF3A46DA
:103ED0003946239800952B46FFF785F8B64BC4F872
:103EE0005C36A4F860763046FFF762FB96E8070080
:103EF00004F5CD6383E80700D9F8003004F5855B4D
:103F00000BF1040B002B3FF4C2ADB8F80030082BC6
:103F10007FF6C7AD0821DAF80000FEF74DFFA44A8E
:103F200003460A21584610F093FCA24A2398C4F88D
:103F300074B6212331464592ADF818310AF0E2F803
:103F40002399119806F0C4FE1199029806F0C0FE5C
:103F5000129800952B46B4222946FFF744F82B46C9
:103F60003A46379800953946FFF73DF84FF0FF3154
:103F70001298C4F8E816379906F0AAFE3A46394670
:103F8000249800952B46FFF72EF88B4BC4F81C376E
:103F9000A4F820773046FFF70BFB96E8070004F5FE
:103FA000E56383E80700D9F8003004F5855B0BF181
:103FB000180B002B3FF46BADB8F80030042B7FF6E4
:103FC00070AD0421DAF80000FEF7F6FE784A0346E9
:103FD0000A21584610F03CFC764A2498C4F834B7BD
:103FE000202331464592ADF818310AF08BF8249918
:103FF000129806F06DFE1299029806F069FE139869
:1040000000952B463A467821FEF7EDFF2B463A46BF
:10401000389800953946FEF7E6FF4FF0FF311398C8
:10402000C4F8A817389906F053FE3A463946259841
:1040300000952B46FEF7D7FF5F4BC4F8DC37A4F89A
:10404000E0773046FFF7B4FA96E8070004F5FD6321
:1040500083E80700D9F8003004F5865B0BF10C0B00
:10406000002B3FF414ADB8F800300F2B7FF619ADDC
:104070000F21DAF80000FEF79FFE4D4A03460A21A1
:10408000584610F0E5FB4B4A2598C4F8F4B72723AF
:1040900031464592ADF818310AF034F82599139855
:1040A00006F016FE1399029806F012FE2B462A46D9
:1040B000149800957821FEF796FF2B463A463998DA
:1040C00000953946FEF78FFF4FF0FF311498C4F882
:1040D0006818399906F0FCFD2B463A463946269871
:1040E0000095FEF780FF344BC4F89C38A4F8A07804
:1040F0003046FFF75DFA96E8070004F6A80383E868
:104100000700D9F8003004F58755002B3FF4BFAC09
:10411000B8F800300B2B7FF6C4AC0B21DAF80000A6
:10412000FEF74AFE224A03460A21284610F090FB79
:10413000204A2698C4F8B4581F2331464592ADF85A
:10414000183109F0DFFF2699149806F0C1FD149983
:10415000029806F0BDFD3C25782211461598009581
:104160002B46FEF740FF2B463A463A9800953946D3
:10417000FEF739FF4FF0FF311598C4F828193A9926
:1041800006F0A6FD3A463946279800952B46FEF7DD
:104190002AFF094BC4F85C39A4F860793046FFF770
:1041A00007FA96E8070004F6681383E8070007E0BB
:1041B000A5660208786B0208020242FFE84301206C
:1041C000D9F8003004F5875B0BF1140B002B3FF49A
:1041D0005EACB8F80030072B7FF663AC0721DAF845
:1041E0000000FEF7E9FDD14A03460A21584610F0C7
:1041F0002FFBCF4A2798C4F874B91E233146459245
:10420000ADF8183109F07EFF2799159806F060FD8A
:104210001599029806F05CFD169800952B46B4227D
:104220007821FEF7E0FE2B463A463B98009539464A
:10423000FEF7D9FE4FF0FF311698C4F8E8193B9904
:1042400006F046FD3A463946289800952B46FEF77B
:10425000CAFEB84BC4F81C3AA4F8207A3046FFF7DF
:10426000A7F996E8070004F6282383E80700D9F8A1
:10427000003004F5885B0BF1080B002B3FF407AC12
:10428000B8F80030032B7FF60CAC0321DAF80000FD
:10429000FEF792FDA54A03460A21584610F0D8FAC7
:1042A000A34A2898C4F834BA1D2331464592ADF884
:1042B000183109F027FF2899169806F009FD16997C
:1042C000029806F005FD179800952B463A46B42152
:1042D000FEF789FE2B463A463C9800953946FEF794
:1042E00082FE4FF0FF311798C4F8A81A3C9906F0E7
:1042F000EFFC3A463946299800952B46FEF773FEA7
:104300008C4BC4F8DC3AA4F8E07A3046FFF750F959
:1043100096E8070004F6E82383E80700D9F80030A0
:1043200004F5885B0BF11C0B002B3FF4B0ABB8F825
:1043300000300E2B7FF6B5AB0E21DAF80000FEF749
:104340003BFD7A4A03460A21584610F081FA784A22
:104350002998C4F8F4BA262331464592ADF81831AD
:1043600009F0D0FE2999179806F0B2FC1799029827
:1043700006F0AEFC189800952B462A46B421FEF7AD
:1043800032FE2B463A463D9800953946FEF72BFE05
:104390004FF0FF311898C4F8681B3D9906F098FC5F
:1043A0003A4639462A9800952B46FEF71CFE614B8B
:1043B000C4F89C3BA4F8A07B3046FFF7F9F896E8D8
:1043C000070004F6A83383E80700D9F8003004F5A5
:1043D000895B0BF1100B002B3FF459ABB8F80030A0
:1043E0000A2B7FF65EAB0A21DAF80000FEF7E4FC48
:1043F0004E4A03460A21584610F02AFA4C4A2A9897
:10440000C4F8B4BB1C2331464592ADF8183109F00D
:1044100079FE2A99189806F05BFC1899029806F024
:1044200057FC2B46199800957822B421FEF7DBFD46
:104430002B463A463E9800953946FEF7D4FD4FF09C
:10444000FF311998C4F8281C3E9906F041FC2B4610
:104450003A4639462B980095FEF7C5FD354BC4F812
:104460005C3CA4F8607C3046FFF7A2F896E80700B1
:1044700004F6684383E80700D9F8003004F58A554C
:104480000435002B3FF403ABB8F80030062B7FF661
:1044900008AB0621DAF80000DFF894B0FEF78CFCD8
:1044A000224A03460A21284610F0D2F91B2331463E
:1044B0002B98C4F8745CADF81831CDF814B109F03C
:1044C00021FE2B99199806F003FC1999029806F021
:1044D000FFFB3546B4223C26334611461A98009617
:1044E000FEF781FD4FF0FF3833463A4639463F9894
:1044F0000096FEF778FD3F991A98C4F8E88C06F00C
:10450000E7FB3A46394633462C980096FEF76BFD9A
:10451000084BC4F81C3DA4F8207D2846FFF748F856
:1045200095E8070004F6285306E000BFA5660208D8
:10453000786B0208020242FF83E80700D9F80030D6
:104540003E4604F58A571837002B3FF4A0AAC94A03
:104550001388022B7FF6A5AA0221DAF80000FEF7E5
:104560002BFCC54A03460A21384610F071F91A237C
:104570002C98C4F8347D2946ADF81831CDF814B123
:1045800009F0C0FD2C991A9806F0A2FB1A9902981E
:1045900006F09EFB0299201D06F09AFB96218A23C5
:1045A000049800915F223321FEF71DFD32462D98BD
:1045B00084F85D6D3146FEF709FD4FF003012D983B
:1045C000ADF81411294609F02CFF2D99049806F036
:1045D0007FFB032205981F21FEF7F8FC40AF4FF048
:1045E0007F41C4F8C01D38460599A4F8C46D09F090
:1045F000E1FA059901F13C0397E8070083E8070019
:104600004FF019010598ADF818112946CDF814B1ED
:1046100009F078FDDDE9040106F05AFB1B982F2212
:104620003146FEF7D3FC4FF007092A4644A91B98F0
:10463000ADF81091ADF8149109F0C1FD18231B9845
:10464000A4F8103EFEF70EFD8C4B0799C4F8143EFB
:104650000498C4F8001EC4F8188E1B9906F038FBA5
:104660001C9863223146FEF7B1FC44A91C98ADF8B2
:1046700010912A46ADF8149109F0A1FD1722A4F873
:10468000582E1C98FEF7EEFC7C4B0799C4F85C3E54
:104690000498C4F8481EC4F8608E1C9906F018FBF4
:1046A0000499201D06F014FB9621D623039800914F
:1046B0005F220D21FEF797FC32462E9884F88D6E0E
:1046C0003146FEF783FC04232E98ADF814312946B9
:1046D00009F0A7FE2E99039806F0FAFA1922202372
:1046E00011462F980093A123FEF77DFC4FF07F41E8
:1046F000C4F8F01EA4F8F46E2846FEF759FF95E8BA
:10470000070004F6FC6383E807005D4B1B6804F5B3
:104710008B5909F10C09002B3FF4B9A9554A1388AC
:10472000012B7FF6BEA9DAF800000121FEF744FB59
:10473000514A03460A21484610F08AF815232F985B
:10474000C4F8089F2946ADF81831CDF814B109F026
:10475000D9FC2F990398DFF8309106F0B9FA069842
:1047600003224721FEF732FC4FF07F430699C4F83D
:104770003C3F3846A4F8406F09F01CFA97E8070060
:10478000069BCDF814B13C3383E807001623069846
:10479000ADF81831294609F0B5FC0699039806F0E2
:1047A00097FA1D9843222621FEF710FC08272A4677
:1047B00044A91D98ADF810714FF0090AADF814A185
:1047C00009F0FDFC14231D98A4F88C3FFEF74AFC69
:1047D000079BC4F87C3F1D990398C4F8909FC4F8C8
:1047E000948F06F075FA1E986E222621FEF7EEFBD6
:1047F0002A4644A91E98ADF81071ADF814A109F02D
:10480000DEFC13231E98A4F8D43FFEF72BFC079B75
:10481000C4F8C43F1E990398C4F8D89FC4F8DC8F2D
:1048200006F056FA0399201D06F052FA1F983A46F0
:104830000A21FEF7CBFB2A460A2304F5805544A93A
:104840001F98ADF810310B23ADF8143109F0B7FC07
:104850001F98AE83FEF706FC0A4B1F99C5E908387E
:10486000079BEB60201D06F033FA204649B0BDE8F7
:10487000F08F00BFE8430120A566020862F507FF3C
:10488000E44301203524F0FF0909DBFF90F82C30C8
:104890002DE9F0410446002B41D0C38D028E013337
:1048A0009BB29342C3853AD39B1A9DB2028F838EEB
:1048B000C66BD21A12B2438E00212846B047E38E4F
:1048C000628F276CD21A0646638E12B200212846E8
:1048D000B847E38EC218A38EF11812B209B220466F
:1048E000FCF733FD238E618EE28D0B449A4216D382
:1048F000002384F82C30E3850CF080FA2146043044
:104900000CF0A1FA606C50B10368DB68984730B1D5
:10491000606C036821469B68BDE8F0411847BDE81C
:10492000F08108B5FFF7B2FF08BDF8B51D4690F855
:104930002C3004460F4616462BB90CF05FFA214680
:1049400004300CF029FB0023E38563686363069B56
:10495000E363079B65862364012384F82C30236B73
:104960002787668713B92046FFF790FFF8BD000040
:1049700000F19803994273B504460D4606D1012310
:1049800080F85D3D00F638500DF034FC04F56263AC
:104990009D4206D1002384F85D3D04F638500DF0A9
:1049A00029FC04F6D8539D4207D10CF027FAFEF7F4
:1049B00013F823682046DB6A984704F69C739D42EF
:1049C0000AD1002384F88D3E04F668600DF012FCD5
:1049D000236820465B6B984704F654739D4207D1C9
:1049E0000CF00CFAFDF7F8FF23682046DB6A9847C5
:1049F00004F6E4739D4240F0B9805D4D0026C4F892
:104A00007C613246314604F59C70CDE900550123A6
:104A1000FFF78BFFC4F83C62314604F5FC70CDE92A
:104A2000005501233C22FFF780FFC4F8FC623146A9
:104A300004F52E70CDE9005501237822FFF775FFAC
:104A4000C4F8BC63314604F55E70CDE9005501231E
:104A5000B422FFF76AFFC4F87C64324604F587602D
:104A6000CDE9005501233C21FFF75FFF3C22C4F84C
:104A70003C65114604F59F60CDE900550123FFF721
:104A800054FFC4F8FC6504F5B760CDE90055012377
:104A900078223C21FFF749FFC4F8BC6604F5CF60DB
:104AA000CDE900550123B4223C21FFF73EFFC4F8B5
:104AB0007C67324604F5E760CDE900550123782193
:104AC000FFF733FFC4F83C6804F5FF60CDE90055FB
:104AD00001233C227821FFF728FF7822C4F8FC68E4
:104AE000114604F6B800CDE900550123FFF71DFF7C
:104AF000C4F8BC6904F67810CDE900550123B4224E
:104B00007821FFF712FFC4F87C6A324604F6382099
:104B1000CDE900550123B421FFF707FFC4F83C6B32
:104B200004F6F820CDE9005501233C22B421FFF71B
:104B3000FCFEC4F8FC6B04F6B830CDE90055012347
:104B40007822B421FFF7F1FEB422C4F8BC6C04F65D
:104B50007840CDE9005501231146FFF7E6FE2368B2
:104B60005B6B204602B0BDE87040184702B070BDD4
:104B700057320108704710B54FF4AE7104461EF06D
:104B8000BFFF204610BD10B50446D0F8580100F014
:104B900014F82046BDE810400CF0CCB910B504461E
:104BA000FDF7E6FE014B2360204610BDB86E0208FB
:104BB00000210222C0E9001270477047416070472F
:104BC00040687047704704387047704710B510212F
:104BD00004461EF095FF204610BDA0F10400F5E745
:104BE00000228260024A026018324260C16070474F
:104BF0000C6F02088068FFF7E3BF704710B5034BE6
:104C000003600446FEF747F9204610BD346F0208E2
:104C100010B50446FFF7F2FF20464FF435711EF041
:104C20006FFF204610BD000010B50446FEF77EFA67
:104C3000014B2360204610BD346F0208FEF72CB9EB
:104C400010B50446C06BFFF7D5FF064A0346102196
:104C500004F529700FF0FCFD04F51670BDE8104056
:104C60000DF0C8BAA866020870470438704770474C
:104C700010B5102104461EF043FF204610BDA0F1E0
:104C80000400F5E700228260024A026018324260A6
:104C9000C16070476C6F020838B5044680680D46E5
:104CA000FFF78EFFA84205D2A0682946BDE838402C
:104CB000FFF784BF38BD704710B5034B036004464F
:104CC000FEF709FC204610BD946F020810B504469B
:104CD000FFF7F2FF204641F22C311EF011FF204673
:104CE00010BD000010B50446FEF78AFC094B236096
:104CF00004F5805300224021C3E98521A3F81C223A
:104D00004FF0FF3183F81E22C3E9C811C3F82823EE
:104D1000204610BD946F020800F580522DE9F04F37
:104D200000F58E530026D2F814E21033B4469846AC
:104D300043F804CF0321C3F810C0C3F820C0C3F860
:104D400030C08A46A8F13C070C013C599CB106EBE7
:104D50008A0500EB850505F58055D5F8D4B1BBF182
:104D6000000F19D18A45C5F8D44104D0D2F82843A0
:104D70000134C2F828430139E4D2396C47F8101BDA
:104D80008E4538BF8E469F42F7D10136042ECED1D4
:104D9000C2F814E2BDE8F08F5C450AF1FF390BD18F
:104DA0006400C5F8D4418A4504D0D2F828430134C0
:104DB000C2F82843CA46DEE706EB890505F27445CA
:104DC00000EB850589456C60EEE700F580522DE922
:104DD000F04F00F58E530026D2F814E21033B4469B
:104DE000984643F804CF0021C3F810C0C3F820C090
:104DF000C3F830C08A46A8F13C070C013C599CB16D
:104E000006EB8A0500EB850505F58055D5F8D4B18C
:104E1000BBF1000F1AD18A45C5F8D44104D0D2F8AD
:104E200028430134C2F8284301310429E3D1396C05
:104E300047F8101B8E4538BF8E469F42F7D101368A
:104E4000042ECDD1C2F814E2BDE8F08F5C450AF122
:104E500001090BD16400C5F8D4418A4504D0D2F8C9
:104E600028430134C2F82843CA46DDE706EB89052A
:104E700005F2744500EB850589456C60EEE72DE988
:104E8000F04F00F5805500F58C530026D5F814C27C
:104E900010333746C3E91177C3E9137700229846E8
:104EA00092464FEA860E58F8041F99B10EEB0A0499
:104EB00000EB840404F58054D4F8D4B1BBF1000FA6
:104EC0001CD19245C4F8D41104D0D5F8281301316F
:104ED000C5F828130132042AE5D103F110015A6CF8
:104EE00043F8042F944538BF94468B42F7D10136DE
:104EF000042ECFD1C5F814C2BDE8F08F59450AF190
:104F000001090BD14900C4F8D411924504D0D5F859
:104F100028130131C5F82813CA46DBE70EEB090454
:104F200004F2744400EB840491456160EEE72DE9DE
:104F3000F04F00F5805500F58C530026D5F814C2CB
:104F400010333746C3E91177C3E91377032203F11E
:104F5000140892464FEA860E58F8041D99B10EEBDC
:104F60000A0400EB840404F58054D4F8D4B1BBF1F6
:104F7000000F1BD19245C4F8D41104D0D5F82813E2
:104F80000131C5F82813013AE6D203F110015A6C39
:104F900043F8042F944538BF94468B42F7D101362D
:104FA000042ECFD1C5F814C2BDE8F08F59450AF1DF
:104FB000FF390BD14900C4F8D411924504D0D5F87B
:104FC00028130131C5F82813CA46DCE70EEB0904A3
:104FD00004F2744400EB840491456160EEE730B55F
:104FE00000F58C5004300022034600211C6922B1D8
:104FF0001D68A54218D0032A02D01D6AA54213D00D
:1050000059B1DD68A5420FD0032906D10132042A27
:1050100000F11000E8D1002030BD5D69A54203F128
:10502000040301F10101E1D10120F5E72DE9F84F79
:1050300000F58C55DFF8A090DFF8A0B08046103561
:105040000027DFF89CA02C46002654F8043FD4F833
:105050004C01D3B90A2251460FF099F8D4F8CC008C
:1050600003685B699847D4F88C004FF0FF33836284
:10507000036801365B699847042EE6D10137042F97
:1050800005F11005DDD1BDE8F88F08F58052D2F8A2
:105090002013B94210D1D2F82423B2420CD14A468F
:1050A0000A210FF0D5FBD4F8CC0003685B69984760
:1050B000D4F88C00074BDAE74A460A210FF0C8FB08
:1050C000D4F8CC0003685B699847D4F88C00C0F82A
:1050D00028B0CDE79DF5FFFFA8660208C6FF00FFD8
:1050E000F866020800F58053C06BD3F81412FFF77E
:1050F000D3BD00F58051022370B481F81E3200F553
:105100008E5500F58C53D1F8144214331435D3E97D
:105110000026B24238BF32469E68B24238BF32469D
:10512000DE68B24238BF3246944203F1100338BF02
:105130001446AB42EBD1C1F8144270BCFFF7D2BFAA
:1051400030B5204D00F563740246136852F8041F11
:1051500061F31E03D2F8301681EA530113F0010304
:1051600018BF2B465940944242F8041CEDD1154D0E
:10517000021F00F22C64D2E9E43161F31E0352F8FD
:10518000041F81EA530113F0010318BF2B464B4063
:105190009442C2F88C33EED1D0F8BC390268094988
:1051A00062F31E03D0F8302682EA530213F00103A3
:1051B00018BF0B465A400023C0F8BC29C0F8C039BC
:1051C00030BD00BFDFB00899D0F8C039B3F51C7FFF
:1051D00010B5044601D3FFF7B3FFD4F8C03909482E
:1051E0005A1CC4F8C02954F82320074B82EAD22263
:1051F00003EAC213534000EAC330584080EA9040AB
:1052000010BD00BF0000C6EF80562C9DF8B5D1E957
:1052100000577C1B631C064616D0FFF7D5FF0134F0
:10522000A0FB04309C4207D96A1ED21BB2FBF4F1EA
:1052300004FB11279F4201D82844F8BD3046FFF7F0
:10524000C3FFA4FB0030F5E7FFF7BEFFF4E7000063
:105250002DE9F04300F58C530022A5B0054610332C
:1052600016461846002150F8044F2CB924AC04EB24
:10527000C60444E92021013601310429F3D1013269
:10528000042A03F11003ECD13EB905F58055022341
:1052900085F81E3225B0BDE8F0832F482F4C0368F7
:1052A000BFF35B8F13F0010F18D11EF02BFCA8B1D8
:1052B00004F0CCFF20602A48214601220B6883EAD3
:1052C000937300FB03230132B2F51C7F41F8043FC6
:1052D000F4D12148C4F8C0291EF020FC731E1F48D9
:1052E00001934FF000096946CDF80090FFF78EFF5B
:1052F00005F5805724AB03EBC000D7E9852350E9BF
:1053000020489A42C7E9C8484FEA840411D244446D
:1053100004F2644405EB84040223012E6360B9D1D6
:105320002846FFF75CFE0028B4D1022387F81E321E
:10533000B0E703230948039302A9CDF80890FFF7CB
:1053400065FF444410F0010F04F2644414BF0423C9
:10535000022305EB8404E0E7C42B0020C82B0020C7
:105360006589076C38B500F58055022385F81E3233
:1053700000F58E5100F58C5304461433143100228D
:10538000C3E90022C3E9022210338B42F8D1C5F8E9
:1053900014222046FFF75CFF2046FFF747FE01235B
:1053A00085F81E3238BDFFF7DDBF10B50446FEF7A5
:1053B00093F804F5805304F5C072C3F8202204F575
:1053C0001072C3F8242204F54072C3F8282204F5B1
:1053D0007072C3F82C2204F59062C3F8302204F5F1
:1053E000A862C3F8342204F5C062C3F8382204F579
:1053F000D862C3F83C2204F5F062C3F8402204F5F9
:105400000462C3F8442204F51062C3F8482204F58C
:105410001C62C3F84C2204F52862C3F8502204F53C
:105420003462C3F8542204F54062C3F8582204F5EC
:105430004C62C3F85C2204F5D672C3F8602204F50E
:105440001B72C3F8642204F54B72C3F8682204F59A
:105450007B72C3F86C2204F2AC42C3F8702204F2EF
:105460006C52C3F8742204F22C62C3F8782204F25E
:10547000EC62C3F87C2204F2AC72C3F8802204F61A
:105480006C02C3F8842204F62C12C3F8882204F6B6
:10549000EC12C3F88C2204F6AC22C3F8902204F676
:1054A0006C32C3F8942204F62C42C3F8982204F616
:1054B000EC42C3F89C2204F581520C32C3F8E0227E
:1054C00004F58252C3F8E4221432C3F8E82204F54A
:1054D00083520832C3F8EC2204F583521C32C3F81D
:1054E000F02204F584521032C3F8F42204F58552F8
:1054F0000432C3F8F82204F585521832C3F8FC22AE
:1055000004F586520C32C3F8002304F58752C3F821
:1055100004231432C3F8082304F588520832C3F870
:105520000C2304F588521C32C3F8102304F5895269
:105530001032C3F8142304F58A520432C3F8182336
:1055400004F58A521832C3F81C2304F59C72C3F880
:10555000A02204F5FC72C3F8A42204F52E72C3F84D
:10556000A82204F55E72C3F8AC2204F58762C3F882
:10557000B02204F59F62C3F8B42204F5B762C3F801
:10558000B82204F5CF62C3F8BC2204F5E762C3F881
:10559000C02204F5FF62C3F8C42204F6B802C3F8BF
:1055A000C82204F67812C3F8CC2204F63822C3F8D5
:1055B000D02204F6F822C3F8D42204F6B83204F656
:1055C0007844C3F8D822C3F8DC4210BD70B500F5AA
:1055D0008055002385F81E32012380F88D3E044655
:1055E00000F58C53D5F8141200F58E501433143096
:1055F000D3E90026B24238BF32469E68B24238BF75
:105600003246DE68B24238BF3246914203F110039F
:1056100038BF11468342EBD1C5F814122046FFF77C
:1056200061FD04F58B50D5F81432074A0A210C307D
:105630000FF00EF904F56C600CF0DCFD04F6686008
:10564000BDE870400CF0D6BDA866020838B500F57C
:105650008055044695F81E32012B2CD11A4B95F833
:105660001D221B78DBB29A4285F81C3215D0A3B1FB
:10567000013B032B05D8DFE803F00215181BFFF7E9
:105680004BFBD5F8283343B12046FFF7E1FD204618
:10569000FFF7CCFC0023C5F8283395F81C3285F8B9
:1056A0001D3238BDFFF791FBEBE7FFF7E8FBE8E7BA
:1056B000FFF73DFCE5E7022BF3D1002385F81E320E
:1056C000BDE83840FFF782BF3D280020F02070473A
:1056D0004FF4A07070472920FCF76EBB2820FCF720
:1056E0006BBB08B5FCF73CFBCA20FCF765FBC3208D
:1056F000FCF746FB0820FCF743FB5020FCF740FB7F
:10570000CF20FCF759FB0020FCF73AFBC120FCF747
:1057100037FB3020FCF734FBED20FCF74DFB642019
:10572000FCF72EFB0320FCF72BFB1220FCF728FBD9
:105730008120FCF725FBE820FCF73EFB8520FCF7E9
:105740001FFB0020FCF71CFB7820FCF719FBCB208B
:10575000FCF732FB3920FCF713FB2C20FCF710FB85
:105760000020FCF70DFB3420FCF70AFB0220FCF7BD
:1057700007FBF720FCF720FB2020FCF701FBEA20C9
:10578000FCF71AFB0020FCF7FBFA0020FCF7F8FA04
:10579000B120FCF711FB0020FCF7F2FA1B20FCF70C
:1057A000EFFAB620FCF708FB0A20FCF7E9FAA22082
:1057B000FCF7E6FAC020FCF7FFFA1020FCF7E0FA4D
:1057C000C120FCF7F9FA1020FCF7DAFAC520FCF743
:1057D000F3FA4520FCF7D4FA1520FCF7D1FAC720DC
:1057E000FCF7EAFA9020FCF7CBFA3620FCF7E4FA53
:1057F000C820FCF7C5FAF220FCF7DEFA0020FCF71F
:10580000BFFAB020FCF7D8FAC220FCF7B9FAB620EC
:10581000FCF7D2FA0A20FCF7B3FAA720FCF7B0FA9B
:105820002720FCF7ADFA0420FCF7AAFA2A20FCF79F
:10583000C3FA0020FCF7A4FA0020FCF7A1FA00202C
:10584000FCF79EFAEF20FCF79BFA2B20FCF7B4FA4A
:105850000020FCF795FA0020FCF792FA0120FCF7F3
:105860008FFA3F20FCF78CFAF620FCF7A5FA01200E
:10587000FCF786FA0020FCF783FA0620FCF780FA92
:105880002C20FCF799FAC820FCF7E4FA2620FCF754
:1058900093FA0120FCF774FAE020FCF78DFA0F2050
:1058A000FCF76EFA2920FCF76BFA2420FCF768FA63
:1058B0000C20FCF765FA0E20FCF762FA0920FCF7D1
:1058C0005FFA4E20FCF75CFA7820FCF759FA3C208E
:1058D000FCF756FA0920FCF753FA1320FCF750FAAC
:1058E0000520FCF74DFA1720FCF74AFA1120FCF7C7
:1058F00047FA0020FCF744FAE120FCF75DFA0020AB
:10590000FCF73EFA1620FCF73BFA1B20FCF738FAAE
:105910000420FCF735FA1120FCF732FA0720FCF7D7
:105920002FFA3120FCF72CFA3320FCF729FA422019
:10593000FCF726FA0520FCF723FA0C20FCF720FAE6
:105940000A20FCF71DFA2820FCF71AFA2F20FCF792
:1059500017FA0F20FCF714FA1120FCF72DFAC820D3
:10596000FCF778FA2920FCF727FABDE808402C203C
:10597000FCF722BA08B5FCF7F3F90321D320FCF7B2
:1059800037FA80B208BD10B5C4B202220321204606
:10599000FCF79CF90A20FCF7E1F9204600220321DC
:1059A000FCF794F9BDE810400220FCF7D7B938B5F0
:1059B0000446E4B2FCF788F900212046FCF79EF982
:1059C000012105462046FCF799F940EA052080B2FE
:1059D00038BD10B5C4B240212046FCF78FF903064C
:1059E00007D54C212046FCF789F9003818BF012063
:1059F00010BD01224B212046FCF768F92046002209
:105A00004B21FCF763F90020F2E773B50423C4B21D
:105A10000E461546D7210DEB03022046FCF788F908
:105A2000019B1BBA1A0DC3F30B23328020462B8037
:105A300001224B21FCF74AF900224B212046FCF7BA
:105A400045F902B070BD000010B50A4A13789842BB
:105A500004460DD0517888420AD00BB141B90123D8
:105A6000D454FCF731F92046BDE81040FFF78BBF56
:105A700010BD00BF8C35002010B5C4B209212046EE
:105A8000FCF73CF940F00102D2B220460921BDE802
:105A90001040FCF71BB910B5C4B209212046FCF731
:105AA0002DF9092100F0FE022046BDE81040FCF768
:105AB0000DB938B5C4B20D4620460A21FCF71EF9CF
:105AC00040EA0502D2B220460A21BDE83840FCF780
:105AD000FDB810B50446FCF7F8F820461F21FFF783
